{"contracts/LendBitZero.sol":{"LendBitZero":{"abi":[{"inputs":[],"stateMutability":"nonpayable","type":"constructor"},{"inputs":[{"internalType":"address","name":"sender","type":"address"},{"internalType":"uint256","name":"tokenId","type":"uint256"},{"internalType":"address","name":"owner","type":"address"}],"name":"ERC721IncorrectOwner","type":"error"},{"inputs":[{"internalType":"address","name":"operator","type":"address"},{"internalType":"uint256","name":"tokenId","type":"uint256"}],"name":"ERC721InsufficientApproval","type":"error"},{"inputs":[{"internalType":"address","name":"approver","type":"address"}],"name":"ERC721InvalidApprover","type":"error"},{"inputs":[{"internalType":"address","name":"operator","type":"address"}],"name":"ERC721InvalidOperator","type":"error"},{"inputs":[{"internalType":"address","name":"owner","type":"address"}],"name":"ERC721InvalidOwner","type":"error"},{"inputs":[{"internalType":"address","name":"receiver","type":"address"}],"name":"ERC721InvalidReceiver","type":"error"},{"inputs":[{"internalType":"address","name":"sender","type":"address"}],"name":"ERC721InvalidSender","type":"error"},{"inputs":[{"internalType":"uint256","name":"tokenId","type":"uint256"}],"name":"ERC721NonexistentToken","type":"error"},{"inputs":[{"internalType":"address","name":"owner","type":"address"}],"name":"OwnableInvalidOwner","type":"error"},{"inputs":[{"internalType":"address","name":"account","type":"address"}],"name":"OwnableUnauthorizedAccount","type":"error"},{"inputs":[],"name":"ReentrancyGuardReentrantCall","type":"error"},{"anonymous":false,"inputs":[{"indexed":true,"internalType":"address","name":"owner","type":"address"},{"indexed":true,"internalType":"address","name":"approved","type":"address"},{"indexed":true,"internalType":"uint256","name":"tokenId","type":"uint256"}],"name":"Approval","type":"event"},{"anonymous":false,"inputs":[{"indexed":true,"internalType":"address","name":"owner","type":"address"},{"indexed":true,"internalType":"address","name":"operator","type":"address"},{"indexed":false,"internalType":"bool","name":"approved","type":"bool"}],"name":"ApprovalForAll","type":"event"},{"anonymous":false,"inputs":[{"indexed":true,"internalType":"uint256","name":"loanId","type":"uint256"},{"indexed":true,"internalType":"uint256","name":"tokenId","type":"uint256"},{"indexed":true,"internalType":"address","name":"newOwner","type":"address"}],"name":"AssetLiquidated","type":"event"},{"anonymous":false,"inputs":[{"indexed":true,"internalType":"uint256","name":"tokenId","type":"uint256"},{"indexed":true,"internalType":"address","name":"owner","type":"address"},{"indexed":false,"internalType":"enum LendBitZero.AssetType","name":"assetType","type":"uint8"},{"indexed":false,"internalType":"uint256","name":"value","type":"uint256"}],"name":"AssetTokenized","type":"event"},{"anonymous":false,"inputs":[{"indexed":true,"internalType":"uint256","name":"tokenId","type":"uint256"},{"indexed":true,"internalType":"address","name":"verifier","type":"address"}],"name":"AssetVerified","type":"event"},{"anonymous":false,"inputs":[{"indexed":true,"internalType":"uint256","name":"loanId","type":"uint256"},{"indexed":true,"internalType":"address","name":"lender","type":"address"}],"name":"LoanFunded","type":"event"},{"anonymous":false,"inputs":[{"indexed":true,"internalType":"uint256","name":"loanId","type":"uint256"},{"indexed":false,"internalType":"uint256","name":"amount","type":"uint256"}],"name":"LoanRepaid","type":"event"},{"anonymous":false,"inputs":[{"indexed":true,"internalType":"uint256","name":"loanId","type":"uint256"},{"indexed":true,"internalType":"address","name":"borrower","type":"address"},{"indexed":false,"internalType":"uint256","name":"collateralId","type":"uint256"},{"indexed":false,"internalType":"uint256","name":"amount","type":"uint256"}],"name":"LoanRequested","type":"event"},{"anonymous":false,"inputs":[{"indexed":true,"internalType":"address","name":"previousOwner","type":"address"},{"indexed":true,"internalType":"address","name":"newOwner","type":"address"}],"name":"OwnershipTransferred","type":"event"},{"anonymous":false,"inputs":[{"indexed":true,"internalType":"address","name":"from","type":"address"},{"indexed":true,"internalType":"address","name":"to","type":"address"},{"indexed":true,"internalType":"uint256","name":"tokenId","type":"uint256"}],"name":"Transfer","type":"event"},{"inputs":[],"name":"LIQUIDATION_THRESHOLD","outputs":[{"internalType":"uint256","name":"","type":"uint256"}],"stateMutability":"view","type":"function"},{"inputs":[],"name":"LTV_RATIO","outputs":[{"internalType":"uint256","name":"","type":"uint256"}],"stateMutability":"view","type":"function"},{"inputs":[{"internalType":"address","name":"_verifier","type":"address"}],"name":"addVerifier","outputs":[],"stateMutability":"nonpayable","type":"function"},{"inputs":[{"internalType":"address","name":"to","type":"address"},{"internalType":"uint256","name":"tokenId","type":"uint256"}],"name":"approve","outputs":[],"stateMutability":"nonpayable","type":"function"},{"inputs":[{"internalType":"uint256","name":"","type":"uint256"}],"name":"assetPrices","outputs":[{"internalType":"uint256","name":"","type":"uint256"}],"stateMutability":"view","type":"function"},{"inputs":[{"internalType":"address","name":"","type":"address"}],"name":"authorizedVerifiers","outputs":[{"internalType":"bool","name":"","type":"bool"}],"stateMutability":"view","type":"function"},{"inputs":[{"internalType":"address","name":"owner","type":"address"}],"name":"balanceOf","outputs":[{"internalType":"uint256","name":"","type":"uint256"}],"stateMutability":"view","type":"function"},{"inputs":[{"internalType":"uint256","name":"_loanId","type":"uint256"}],"name":"calculateHealthFactor","outputs":[{"internalType":"uint256","name":"","type":"uint256"}],"stateMutability":"view","type":"function"},{"inputs":[{"internalType":"uint256","name":"_loanId","type":"uint256"}],"name":"calculateTotalOwed","outputs":[{"internalType":"uint256","name":"","type":"uint256"}],"stateMutability":"view","type":"function"},{"inputs":[{"internalType":"uint256","name":"_collateralTokenId","type":"uint256"},{"internalType":"uint256","name":"_loanAmount","type":"uint256"},{"internalType":"uint256","name":"_interestRate","type":"uint256"},{"internalType":"uint256","name":"_durationDays","type":"uint256"}],"name":"createLoanRequest","outputs":[{"internalType":"uint256","name":"","type":"uint256"}],"stateMutability":"nonpayable","type":"function"},{"inputs":[{"internalType":"uint256","name":"_loanId","type":"uint256"}],"name":"fundLoan","outputs":[],"stateMutability":"payable","type":"function"},{"inputs":[{"internalType":"uint256","name":"tokenId","type":"uint256"}],"name":"getApproved","outputs":[{"internalType":"address","name":"","type":"address"}],"stateMutability":"view","type":"function"},{"inputs":[{"internalType":"uint256","name":"_tokenId","type":"uint256"}],"name":"getAsset","outputs":[{"components":[{"internalType":"uint256","name":"tokenId","type":"uint256"},{"internalType":"enum LendBitZero.AssetType","name":"assetType","type":"uint8"},{"internalType":"address","name":"owner","type":"address"},{"internalType":"uint256","name":"currentValue","type":"uint256"},{"internalType":"string","name":"metadataURI","type":"string"},{"internalType":"bool","name":"isLocked","type":"bool"},{"internalType":"bool","name":"isVerified","type":"bool"}],"internalType":"struct LendBitZero.RWAAsset","name":"","type":"tuple"}],"stateMutability":"view","type":"function"},{"inputs":[{"internalType":"uint256","name":"_loanId","type":"uint256"}],"name":"getLoan","outputs":[{"components":[{"internalType":"uint256","name":"loanId","type":"uint256"},{"internalType":"address","name":"borrower","type":"address"},{"internalType":"address","name":"lender","type":"address"},{"internalType":"uint256","name":"collateralTokenId","type":"uint256"},{"internalType":"uint256","name":"principalAmount","type":"uint256"},{"internalType":"uint256","name":"interestRate","type":"uint256"},{"internalType":"uint256","name":"duration","type":"uint256"},{"internalType":"uint256","name":"startTime","type":"uint256"},{"internalType":"enum LendBitZero.LoanStatus","name":"status","type":"uint8"},{"internalType":"uint256","name":"totalRepaid","type":"uint256"}],"internalType":"struct LendBitZero.Loan","name":"","type":"tuple"}],"stateMutability":"view","type":"function"},{"inputs":[{"internalType":"address","name":"owner","type":"address"},{"internalType":"address","name":"operator","type":"address"}],"name":"isApprovedForAll","outputs":[{"internalType":"bool","name":"","type":"bool"}],"stateMutability":"view","type":"function"},{"inputs":[{"internalType":"uint256","name":"_loanId","type":"uint256"}],"name":"isLiquidatable","outputs":[{"internalType":"bool","name":"","type":"bool"}],"stateMutability":"view","type":"function"},{"inputs":[{"internalType":"uint256","name":"_loanId","type":"uint256"}],"name":"liquidateLoan","outputs":[],"stateMutability":"nonpayable","type":"function"},{"inputs":[{"internalType":"uint256","name":"","type":"uint256"}],"name":"loans","outputs":[{"internalType":"uint256","name":"loanId","type":"uint256"},{"internalType":"address","name":"borrower","type":"address"},{"internalType":"address","name":"lender","type":"address"},{"internalType":"uint256","name":"collateralTokenId","type":"uint256"},{"internalType":"uint256","name":"principalAmount","type":"uint256"},{"internalType":"uint256","name":"interestRate","type":"uint256"},{"internalType":"uint256","name":"duration","type":"uint256"},{"internalType":"uint256","name":"startTime","type":"uint256"},{"internalType":"enum LendBitZero.LoanStatus","name":"status","type":"uint8"},{"internalType":"uint256","name":"totalRepaid","type":"uint256"}],"stateMutability":"view","type":"function"},{"inputs":[],"name":"name","outputs":[{"internalType":"string","name":"","type":"string"}],"stateMutability":"view","type":"function"},{"inputs":[],"name":"nextLoanId","outputs":[{"internalType":"uint256","name":"","type":"uint256"}],"stateMutability":"view","type":"function"},{"inputs":[],"name":"nextTokenId","outputs":[{"internalType":"uint256","name":"","type":"uint256"}],"stateMutability":"view","type":"function"},{"inputs":[],"name":"owner","outputs":[{"internalType":"address","name":"","type":"address"}],"stateMutability":"view","type":"function"},{"inputs":[{"internalType":"uint256","name":"tokenId","type":"uint256"}],"name":"ownerOf","outputs":[{"internalType":"address","name":"","type":"address"}],"stateMutability":"view","type":"function"},{"inputs":[{"internalType":"address","name":"_verifier","type":"address"}],"name":"removeVerifier","outputs":[],"stateMutability":"nonpayable","type":"function"},{"inputs":[],"name":"renounceOwnership","outputs":[],"stateMutability":"nonpayable","type":"function"},{"inputs":[{"internalType":"uint256","name":"_loanId","type":"uint256"}],"name":"repayLoan","outputs":[],"stateMutability":"payable","type":"function"},{"inputs":[{"internalType":"uint256","name":"","type":"uint256"}],"name":"rwaAssets","outputs":[{"internalType":"uint256","name":"tokenId","type":"uint256"},{"internalType":"enum LendBitZero.AssetType","name":"assetType","type":"uint8"},{"internalType":"address","name":"owner","type":"address"},{"internalType":"uint256","name":"currentValue","type":"uint256"},{"internalType":"string","name":"metadataURI","type":"string"},{"internalType":"bool","name":"isLocked","type":"bool"},{"internalType":"bool","name":"isVerified","type":"bool"}],"stateMutability":"view","type":"function"},{"inputs":[{"internalType":"address","name":"from","type":"address"},{"internalType":"address","name":"to","type":"address"},{"internalType":"uint256","name":"tokenId","type":"uint256"}],"name":"safeTransferFrom","outputs":[],"stateMutability":"nonpayable","type":"function"},{"inputs":[{"internalType":"address","name":"from","type":"address"},{"internalType":"address","name":"to","type":"address"},{"internalType":"uint256","name":"tokenId","type":"uint256"},{"internalType":"bytes","name":"data","type":"bytes"}],"name":"safeTransferFrom","outputs":[],"stateMutability":"nonpayable","type":"function"},{"inputs":[{"internalType":"address","name":"operator","type":"address"},{"internalType":"bool","name":"approved","type":"bool"}],"name":"setApprovalForAll","outputs":[],"stateMutability":"nonpayable","type":"function"},{"inputs":[{"internalType":"bytes4","name":"interfaceId","type":"bytes4"}],"name":"supportsInterface","outputs":[{"internalType":"bool","name":"","type":"bool"}],"stateMutability":"view","type":"function"},{"inputs":[],"name":"symbol","outputs":[{"internalType":"string","name":"","type":"string"}],"stateMutability":"view","type":"function"},{"inputs":[{"internalType":"uint256","name":"tokenId","type":"uint256"}],"name":"tokenURI","outputs":[{"internalType":"string","name":"","type":"string"}],"stateMutability":"view","type":"function"},{"inputs":[{"internalType":"enum LendBitZero.AssetType","name":"_assetType","type":"uint8"},{"internalType":"uint256","name":"_initialValue","type":"uint256"},{"internalType":"string","name":"_metadataURI","type":"string"}],"name":"tokenizeAsset","outputs":[{"internalType":"uint256","name":"","type":"uint256"}],"stateMutability":"nonpayable","type":"function"},{"inputs":[{"internalType":"address","name":"from","type":"address"},{"internalType":"address","name":"to","type":"address"},{"internalType":"uint256","name":"tokenId","type":"uint256"}],"name":"transferFrom","outputs":[],"stateMutability":"nonpayable","type":"function"},{"inputs":[{"internalType":"address","name":"newOwner","type":"address"}],"name":"transferOwnership","outputs":[],"stateMutability":"nonpayable","type":"function"},{"inputs":[{"internalType":"uint256","name":"_tokenId","type":"uint256"},{"internalType":"uint256","name":"_newPrice","type":"uint256"}],"name":"updateAssetPrice","outputs":[],"stateMutability":"nonpayable","type":"function"},{"inputs":[{"internalType":"uint256","name":"_tokenId","type":"uint256"}],"name":"verifyAsset","outputs":[],"stateMutability":"nonpayable","type":"function"}],"evm":{"bytecode":{"linkReferences":{},"object":"6080346200039e576001600160401b039060408181018381118382101762000388578152600f82526020926e4c656e644269745a65726f2052574160881b848401528151908282018281108282111762000388578352600382526226212d60e91b85830152835181811162000388576000928354916001968784811c941680156200037d575b8985101462000369578190601f9485811162000316575b508990858311600114620002b2578792620002a6575b5050600019600383901b1c191690871b1784555b8051928311620002925785548681811c9116801562000287575b888210146200027357908183859493116200021e575b5087918311600114620001ba578492620001ae575b5050600019600383901b1c191690841b1783555b3315620001985760068054336001600160a01b031982168117909255835195600c9290916001600160a01b03167f8be0079c531659141344cd1fd0a4f28419497f9722a3daafe3b4186f6b6457e08580a384600755846008558460095533835252209060ff198254161790556123939081620003a48239f35b6024915190631e4fbdf760e01b82526004820152fd5b0151905038806200010b565b8685528785208794509190601f198416865b8a828210620002075750508411620001ed575b505050811b0183556200011f565b015160001960f88460031b161c19169055388080620001df565b8385015186558a97909501949384019301620001cc565b909192508685528785208380860160051c8201928a871062000269575b9186958a929594930160051c01915b8281106200025a575050620000f6565b8781558695508991016200024a565b925081926200023b565b634e487b7160e01b85526022600452602485fd5b90607f1690620000e0565b634e487b7160e01b84526041600452602484fd5b015190503880620000b2565b8780528a88208a94509190601f198416895b8d828210620002ff5750508411620002e5575b505050811b018455620000c6565b015160001960f88460031b161c19169055388080620002d7565b8385015186558d97909501949384019301620002c4565b9091508680528987208580850160051c8201928c86106200035f575b918b91869594930160051c01915b828110620003505750506200009c565b8981558594508b910162000340565b9250819262000332565b634e487b7160e01b86526022600452602486fd5b93607f169362000085565b634e487b7160e01b600052604160045260246000fd5b600080fdfe608080604052600436101561001357600080fd5b60003560e01c90816301ffc9a714611ae25750806306fdde0314611a3f578063081812fc14611a01578063095ea7b31461191a578063211a4443146118f157806323a4deb5146118d357806323b872dd146118bc578063241e87dd1461157757806329194ee3146115515780634191c45b1461152557806342842e0e146114d5578063504006ca146113645780635636e24a146112c55780635696b189146112a957806359fd285c146111c95780636352211e1461119957806370a0823114611140578063715018a6146110e357806375794a3c146110c5578063846b909a14610f0357806387c5145914610ee55780638da5cb5b14610ebc5780639000b3d614610e7757806390a8ae9b14610e5b57806395d89b4114610d9057806395e188b114610a8d5780639a89171614610a4e578063a22cb465146109a0578063ab7b1c891461080f578063b88d4fde146107ad578063c4479ec614610743578063c87b56dd1461069d578063ca2dfd0a1461065b578063ccdd9f5d14610475578063e1ec3c68146103ce578063e985e9c514610378578063eac8f5b81461024f5763f2fde38b146101c157600080fd5b3461024a57602036600319011261024a576101da611b8d565b6101e2611d9c565b6001600160a01b0390811690811561023157600654826001600160601b0360a01b821617600655167f8be0079c531659141344cd1fd0a4f28419497f9722a3daafe3b4186f6b6457e0600080a3005b604051631e4fbdf760e01b815260006004820152602490fd5b600080fd5b3461024a5760208060031936011261024a57600060c060405161027181611bee565b8281528284820152826040820152826060820152606060808201528260a08201520152600435600052600a81526040600020604051906102b082611bee565b80548252600181015461036360ff821692858501936102ce81611c9c565b8452604085019260018060a01b03809160081c1684526002820154906060870191825260046102ff60038501611cf6565b936080890194855201549460a088019660ff87161515885260ff60c08a019760081c1615158752604051998a99818b5251908a01525161033e81611c9c565b6040890152511660608701525160808601525160e060a0860152610100850190611b4d565b9151151560c084015251151560e08301520390f35b3461024a57604036600319011261024a57610391611b8d565b610399611ba3565b9060018060a01b03809116600052600560205260406000209116600052602052602060ff604060002054166040519015158152f35b3461024a57602036600319011261024a57600435600052600b602052610140604060002080549060018060a01b0390816001820154169160028201541660038201546004830154600584015490600685015492600786015494600960ff60088901541697015497604051998a5260208a015260408901526060880152608087015260a086015260c085015260e084015261046781611c9c565b610100830152610120820152f35b3461024a57602036600319011261024a57600435610491612216565b80600052600b6020526040600020600881016104bc600160ff8354166104b681611c9c565b14612239565b6002820180546001600160a01b039290831633810361062957606e6104e0876122e1565b10156105f2578360016003870154960154169080156105d95785610503916120ad565b8085168061052457604051637e27328960e01b815260048101889052602490fd5b82036105a957505081546000858152600a60205260409020600181018054610100600160a81b03191692861660081b610100600160a81b03169290921790915560039060040160ff19908181541690558254161790555416917fe3cf28f2bcc1d7c381ab4d8c66282a85d1d7e840276be5815f77eb5886cffe75600080a46001600755005b6040516364283d7b60e01b81526001600160a01b0392831660048201526024810187905291166044820152606490fd5b604051633250574960e11b815260006004820152602490fd5b60405162461bcd60e51b815260206004820152600f60248201526e4c6f616e206973206865616c74687960881b6044820152606490fd5b60405162461bcd60e51b815260206004820152600a6024820152692737ba103632b73232b960b11b6044820152606490fd5b3461024a57602036600319011261024a57610674611b8d565b61067c611d9c565b6001600160a01b03166000908152600c60205260409020805460ff19169055005b3461024a57602036600319011261024a576004356000818152600a602052604090206001015460081c6001600160a01b03161561070757600052600a6020526107036106ef6003604060002001611cf6565b604051918291602083526020830190611b4d565b0390f35b60405162461bcd60e51b8152602060048201526014602482015273151bdad95b88191bd95cc81b9bdd08195e1a5cdd60621b6044820152606490fd5b3461024a57604036600319011261024a57602435600435610762611d9c565b6000818152600a602052604090206001015461078b9060081c6001600160a01b031615156121b3565b600052600d60205280604060002055600a602052600260406000200155600080f35b3461024a57608036600319011261024a576107c6611b8d565b6107ce611ba3565b6064359167ffffffffffffffff831161024a573660238401121561024a5761080361080d933690602481600401359101611c65565b9160443591611f58565b005b60208060031936011261024a5760043590610828612216565b81600052600b815260406000209060018060a01b0380600184015416330361096c5760088301928354610863600160ff83166104b681611c9c565b61086c86612277565b9485341061092e578560009460028695869586958360ff1980931617905584600983015560038201548652600a8a5260046040872001908154169055015416828215610925575bf115610910578134116108f1575b7f040cee90ee4799897c30ca04e5feb6fa43dbba9b6d084b4b257cdafd84ba013e91604051908152a26001600755005b60008080806109008634612209565b81811561091c575b3390f16108c1575b6040513d6000823e3d90fd5b506108fc610908565b506108fc6108b3565b60405162461bcd60e51b8152600481018690526016602482015275125b9cdd59999a58da595b9d081c995c185e5b595b9d60521b6044820152606490fd5b60405162461bcd60e51b815260048101839052600c60248201526b2737ba103137b93937bbb2b960a11b6044820152606490fd5b3461024a57604036600319011261024a576109b9611b8d565b602435908115159081830361024a576001600160a01b0316918215610a3557610a079033600052600560205260406000208460005260205260406000209060ff801983541691151516179055565b6040519081527f17307eab39ab6107e8899845ad3d59bd9653f200f220920489ca2b5937696c3160203392a3005b604051630b61174360e31b815260048101849052602490fd5b3461024a57602036600319011261024a576001600160a01b03610a6f611b8d565b16600052600c602052602060ff604060002054166040519015158152f35b3461024a57608036600319011261024a57600435610aaa81612169565b336001600160a01b0390911603610d595780600052600a60205260ff60046040600020015460081c1615610d1f5780600052600a60205260ff60046040600020015416610ce35780600052600d602052604060002054605081029080820460501490151715610ccd57606460243591048111610c885760209160095491610b30836121a4565b60095581600052600a84526004604060002001600160ff19825416179055604051610b5a81611c0a565b83815233858201526000604082015282606082015281608082015260443560a082015260643560c0820152600060e08201526000610100820152600061012082015283600052600b85526009610120604060002092805184556001840160018060a01b038983015116906001600160601b0360a01b9182825416179055600285019060018060a01b0360408401511690825416179055606081015160038501556080810151600485015560a0810151600585015560c0810151600685015560e0810151600785015560088401610100820151610c3581611c9c565b610c3e81611c9c565b60ff80198354169116179055015191015560405191825283820152817f68595dbe887ae7f496f2c88735019a8918919a1decfdee6bdb460480ab87decb60403393a3604051908152f35b60405162461bcd60e51b815260206004820152601760248201527f4c6f616e20616d6f756e742065786365656473204c54560000000000000000006044820152606490fd5b634e487b7160e01b600052601160045260246000fd5b60405162461bcd60e51b8152602060048201526014602482015273105cdcd95d08185b1c9958591e481b1bd8dad95960621b6044820152606490fd5b60405162461bcd60e51b8152602060048201526012602482015271105cdcd95d081b9bdd081d995c9a599a595960721b6044820152606490fd5b60405162461bcd60e51b815260206004820152600f60248201526e2737ba103a37b5b2b71037bbb732b960891b6044820152606490fd5b3461024a57600036600319011261024a5760405160006001805490610db482611cbc565b80855291818116908115610e345750600114610ddb575b610703846106ef81860382611c27565b600081815292507fb10e2d527612073b26eecdfd717e6a320cf44b4afac2b0732d9fcbe2b7fa0cf65b828410610e1c5750505081016020016106ef82610dcb565b80546020858701810191909152909301928101610e04565b60ff191660208087019190915292151560051b850190920192506106ef9150839050610dcb565b3461024a57600036600319011261024a576020604051606e8152f35b3461024a57602036600319011261024a57610e90611b8d565b610e98611d9c565b6001600160a01b03166000908152600c60205260409020805460ff19166001179055005b3461024a57600036600319011261024a576006546040516001600160a01b039091168152602090f35b3461024a57600036600319011261024a576020600954604051908152f35b602036600319011261024a57600435610f1a612216565b80600052600b6020526040600020600881019081549060ff8216610f3d81611c9c565b61108b57600481019283549283341061104f5760018301546001600160a01b031693338514611013576000948486959460018796956002889701336001600160601b0360a01b82541617905560ff191617905560074291015582821561100a575bf1156109105754803411610fdc575b5033907f15feab5d3eb17171632762cf769709a315dd15f487a556c0dfb8a259c8f186cc600080a36001600755005b60008080610feb819434612209565b818115611001575b3390f1156109105781610fad565b506108fc610ff3565b506108fc610f9e565b60405162461bcd60e51b815260206004820152601460248201527321b0b73737ba10333ab7321037bbb7103637b0b760611b6044820152606490fd5b60405162461bcd60e51b8152602060048201526014602482015273496e73756666696369656e742066756e64696e6760601b6044820152606490fd5b60405162461bcd60e51b81526020600482015260126024820152714c6f616e206e6f7420617661696c61626c6560701b6044820152606490fd5b3461024a57600036600319011261024a576020600854604051908152f35b3461024a57600036600319011261024a576110fc611d9c565b600680546001600160a01b031981169091556000906001600160a01b03167f8be0079c531659141344cd1fd0a4f28419497f9722a3daafe3b4186f6b6457e08280a3005b3461024a57602036600319011261024a576001600160a01b03611161611b8d565b1680156111805760005260036020526020604060002054604051908152f35b6040516322718ad960e21b815260006004820152602490fd5b3461024a57602036600319011261024a5760206111b7600435612169565b6040516001600160a01b039091168152f35b3461024a57602036600319011261024a5760043533600052600c60205260ff6040600020541615611264576000818152600a602052604090206001015461121d9060081c6001600160a01b031615156121b3565b80600052600a602052600460406000200161010061ff001982541617905533907f5bd81a4d257100f5fe7df72a9e528a7aaf33871f8258739a331d2627a83f0aac600080a3005b60405162461bcd60e51b815260206004820152601760248201527f4e6f7420617574686f72697a65642076657269666965720000000000000000006044820152606490fd5b3461024a57600036600319011261024a57602060405160508152f35b3461024a57602036600319011261024a57600435600052600a60205260406000208054600182015460ff61134a818316946002810154600461130960038401611cf6565b92015494604051978897885261131e81611c9c565b602088015260081c6001600160a01b03166040870152606086015260e060808601819052850190611b4d565b91818116151560a085015260081c16151560c08301520390f35b3461024a57602036600319011261024a5761014060405161138481611c0a565b6000815260006020820152600060408201526000606082015260006080820152600060a0820152600060c0820152600060e082015260006101206101009282848201520152600435600052600b60205261012060406000206009604051916113eb83611c0a565b8054835260018101546001600160a01b03908116602085015260028201541660408401526003810154606084015260048101546080840152600581015460a0840152600681015460c0840152600781015460e0840152600881015460ff1661145281611c9c565b85840152015482820152604051928151845260018060a01b03602083015116602085015260018060a01b036040830151166040850152606082015160608501526080820151608085015260a082015160a085015260c082015160c085015260e082015160e085015280820151906114c882611c9c565b8401520151610120820152f35b3461024a576114e336611bb9565b60405191602083019383851067ffffffffffffffff86111761150f5761080d9460405260008452611f58565b634e487b7160e01b600052604160045260246000fd5b3461024a57602036600319011261024a57600435600052600d6020526020604060002054604051908152f35b3461024a57602036600319011261024a57602061156f600435612277565b604051908152f35b3461024a57606036600319011261024a5760048035101561024a5760443567ffffffffffffffff811161024a573660238201121561024a576115c3903690602481600401359101611c65565b60243515611877576008546115d7816121a4565b60085533156105d9576001600160a01b036115f282336120ad565b1661185e5760405161160381611bee565b8181526020810192611616600435611c9c565b6004358452604082019333855261169c6060840191602435835260808501938452600060a0860152600060c086015285600052600a6020526040600020968551885560018801915161166781611c9c565b61167081611c9c565b825491516001600160a81b031990921660ff919091161760089190911b610100600160a81b0316179055565b5160028501555192835167ffffffffffffffff811161150f576116c26003830154611cbc565b94601f8611611813575b602095508590601f83116001146117a057918060c09492600494600092611795575b50508160011b916000199060031b1c19161760038201555b019161172460a08201511515849060ff801983541691151516179055565b0151151561ff0082549160081b169061ff00191617905580600052600d825260243560406000205560405161175a600435611c9c565b600435815260243583820152817fcad491abebc5cc50015f568550b64794bcc000586f53b9ec64ae3961a54da07660403393a3604051908152f35b0151905088806116ee565b9060038401600052866000209160005b601f19851681106117fc57509260c0949260019260049583601f198116106117e3575b505050811b016003820155611706565b015160001960f88460031b161c191690558880806117d3565b9192886001819286850151815501940192016117b0565b600383016000526020600020601f830160051c81019660208410611854575b601f0160051c01955b86811061184857506116cc565b6000815560010161183b565b9096508690611832565b6040516339e3563760e11b815260006004820152602490fd5b60405162461bcd60e51b815260206004820152601f60248201527f56616c7565206d7573742062652067726561746572207468616e207a65726f006044820152606490fd5b3461024a5761080d6118cd36611bb9565b91611dc8565b3461024a57602036600319011261024a57602061156f6004356122e1565b3461024a57602036600319011261024a576020606e6119116004356122e1565b10604051908152f35b3461024a57604036600319011261024a57611933611b8d565b60243561193f81612169565b331515806119ee575b806119c1575b6119a9576001600160a01b039283169282918491167f8c5be1e5ebec7d5bd14f71427d1e84f3dd0314c0f7b2291e5b200ac8c7c3b925600080a4600090815260046020526040902080546001600160a01b0319169091179055005b60405163a9fbf51f60e01b8152336004820152602490fd5b5060018060a01b038116600052600560205260406000203360005260205260ff604060002054161561194e565b506001600160a01b038116331415611948565b3461024a57602036600319011261024a57600435611a1e81612169565b506000526004602052602060018060a01b0360406000205416604051908152f35b3461024a57600036600319011261024a5760405160008054611a6081611cbc565b80845290600190818116908115610e345750600114611a8957610703846106ef81860382611c27565b600080805292507f290decd9548b62a8d60345a988386fc84ba6bc95484008f6362f93160ef3e5635b828410611aca5750505081016020016106ef82610dcb565b80546020858701810191909152909301928101611ab2565b3461024a57602036600319011261024a576004359063ffffffff60e01b821680920361024a576020916380ac58cd60e01b8114908115611b3c575b8115611b2b575b5015158152f35b6301ffc9a760e01b14905083611b24565b635b5e139f60e01b81149150611b1d565b919082519283825260005b848110611b79575050826000602080949584010152601f8019910116010190565b602081830181015184830182015201611b58565b600435906001600160a01b038216820361024a57565b602435906001600160a01b038216820361024a57565b606090600319011261024a576001600160a01b0390600435828116810361024a5791602435908116810361024a579060443590565b60e0810190811067ffffffffffffffff82111761150f57604052565b610140810190811067ffffffffffffffff82111761150f57604052565b90601f8019910116810190811067ffffffffffffffff82111761150f57604052565b67ffffffffffffffff811161150f57601f01601f191660200190565b929192611c7182611c49565b91611c7f6040519384611c27565b82948184528183011161024a578281602093846000960137010152565b60041115611ca657565b634e487b7160e01b600052602160045260246000fd5b90600182811c92168015611cec575b6020831014611cd657565b634e487b7160e01b600052602260045260246000fd5b91607f1691611ccb565b9060405191826000825492611d0a84611cbc565b908184526001948581169081600014611d795750600114611d36575b5050611d3492500383611c27565b565b9093915060005260209081600020936000915b818310611d61575050611d3493508201013880611d26565b85548884018501529485019487945091830191611d49565b915050611d3494506020925060ff191682840152151560051b8201013880611d26565b6006546001600160a01b03163303611db057565b60405163118cdaa760e01b8152336004820152602490fd5b906001600160a01b0390811680156105d957600091848352846020926002845260409383858720541695869133151580611ec2575b509060027fddf252ad1be2c89b69c2b068fc378daa952ba7f163c4a11628f55a4df523b3ef9284611e8f575b85835260038152888320805460010190558683525286812080546001600160a01b0319168517905580a483168203611e615750505050565b516364283d7b60e01b81526001600160a01b0392831660048201526024810193909352166044820152606490fd5b600087815260046020526040902080546001600160a01b0319169055848352600381528883208054600019019055611e29565b91939450915080611f17575b15611ede57879291869138611dfd565b848887611efb576024915190637e27328960e01b82526004820152fd5b604491519063177e802f60e01b82523360048301526024820152fd5b503386148015611f3c575b80611ece5750878252600481523384868420541614611ece565b5085825260058152848220338352815260ff8583205416611f22565b929092611f66838583611dc8565b833b611f73575b50505050565b604051630a85bd0160e11b8082523360048301526001600160a01b0392831660248301526044820194909452608060648201529493169260209290918590611fbf906084830190611b4d565b039483816000978189895af1869181612069575b50612034575050503d60001461202b573d611fed81611c49565b90611ffb6040519283611c27565b81528093823d92013e5b8251928361202657604051633250574960e11b815260048101849052602490fd5b019050fd5b60609250612005565b919450915063ffffffff60e01b1603612051575038808080611f6d565b60249060405190633250574960e11b82526004820152fd5b9091508481813d83116120a6575b6120818183611c27565b810103126120a257516001600160e01b0319811681036120a2579038611fd3565b8680fd5b503d612077565b6000828152600260205260408120546001600160a01b03908116939284917fddf252ad1be2c89b69c2b068fc378daa952ba7f163c4a11628f55a4df523b3ef9183612134575b16928361211c575b84815260026020526040812080546001600160a01b0319168517905580a490565b838152600360205260408120600181540190556120fb565b600086815260046020526040902080546001600160a01b031916905583855260036020526040852080546000190190556120f3565b6000818152600260205260409020546001600160a01b031690811561218c575090565b60249060405190637e27328960e01b82526004820152fd5b6000198114610ccd5760010190565b156121ba57565b60405162461bcd60e51b8152602060048201526014602482015273105cdcd95d08191bd95cc81b9bdd08195e1a5cdd60621b6044820152606490fd5b81810292918115918404141715610ccd57565b91908203918211610ccd57565b600260075414612227576002600755565b604051633ee5aeb560e01b8152600490fd5b1561224057565b60405162461bcd60e51b815260206004820152600f60248201526e4c6f616e206e6f742061637469766560881b6044820152606490fd5b600052600b6020526040600020600160ff60088301541661229781611c9c565b036122db576237b1d06122ce620151806122b5600785015442612209565b046122c960056004860154950154856121f6565b6121f6565b048101809111610ccd5790565b50600090565b600090808252600b60205260408220600160ff60088301541661230381611c9c565b0361235457600301548252600d602052612321604083205491612277565b9182156123545760648202918083046064149015171561234057500490565b634e487b7160e01b81526011600452602490fd5b5050506000199056fea2646970667358221220b01c52e3d2046588fd2c72be721e5c14a348239bfd6b5685028754f35619c15664736f6c63430008140033","opcodes":"PUSH1 0x80 CALLVALUE PUSH3 0x39E JUMPI PUSH1 0x1 PUSH1 0x1 PUSH1 0x40 SHL SUB SWAP1 PUSH1 0x40 DUP2 DUP2 ADD DUP4 DUP2 GT DUP4 DUP3 LT OR PUSH3 0x388 JUMPI DUP2 MSTORE PUSH1 0xF DUP3 MSTORE PUSH1 0x20 SWAP3 PUSH15 0x4C656E644269745A65726F20525741 PUSH1 0x88 SHL DUP5 DUP5 ADD MSTORE DUP2 MLOAD SWAP1 DUP3 DUP3 ADD DUP3 DUP2 LT DUP3 DUP3 GT OR PUSH3 0x388 JUMPI DUP4 MSTORE PUSH1 0x3 DUP3 MSTORE PUSH3 0x26212D PUSH1 0xE9 SHL DUP6 DUP4 ADD MSTORE DUP4 MLOAD DUP2 DUP2 GT PUSH3 0x388 JUMPI PUSH1 0x0 SWAP3 DUP4 SLOAD SWAP2 PUSH1 0x1 SWAP7 DUP8 DUP5 DUP2 SHR SWAP5 AND DUP1 ISZERO PUSH3 0x37D JUMPI JUMPDEST DUP10 DUP6 LT EQ PUSH3 0x369 JUMPI DUP2 SWAP1 PUSH1 0x1F SWAP5 DUP6 DUP2 GT PUSH3 0x316 JUMPI JUMPDEST POP DUP10 SWAP1 DUP6 DUP4 GT PUSH1 0x1 EQ PUSH3 0x2B2 JUMPI DUP8 SWAP3 PUSH3 0x2A6 JUMPI JUMPDEST POP POP PUSH1 0x0 NOT PUSH1 0x3 DUP4 SWAP1 SHL SHR NOT AND SWAP1 DUP8 SHL OR DUP5 SSTORE JUMPDEST DUP1 MLOAD SWAP3 DUP4 GT PUSH3 0x292 JUMPI DUP6 SLOAD DUP7 DUP2 DUP2 SHR SWAP2 AND DUP1 ISZERO PUSH3 0x287 JUMPI JUMPDEST DUP9 DUP3 LT EQ PUSH3 0x273 JUMPI SWAP1 DUP2 DUP4 DUP6 SWAP5 SWAP4 GT PUSH3 0x21E JUMPI JUMPDEST POP DUP8 SWAP2 DUP4 GT PUSH1 0x1 EQ PUSH3 0x1BA JUMPI DUP5 SWAP3 PUSH3 0x1AE JUMPI JUMPDEST POP POP PUSH1 0x0 NOT PUSH1 0x3 DUP4 SWAP1 SHL SHR NOT AND SWAP1 DUP5 SHL OR DUP4 SSTORE JUMPDEST CALLER ISZERO PUSH3 0x198 JUMPI PUSH1 0x6 DUP1 SLOAD CALLER PUSH1 0x1 PUSH1 0x1 PUSH1 0xA0 SHL SUB NOT DUP3 AND DUP2 OR SWAP1 SWAP3 SSTORE DUP4 MLOAD SWAP6 PUSH1 0xC SWAP3 SWAP1 SWAP2 PUSH1 0x1 PUSH1 0x1 PUSH1 0xA0 SHL SUB AND PUSH32 0x8BE0079C531659141344CD1FD0A4F28419497F9722A3DAAFE3B4186F6B6457E0 DUP6 DUP1 LOG3 DUP5 PUSH1 0x7 SSTORE DUP5 PUSH1 0x8 SSTORE DUP5 PUSH1 0x9 SSTORE CALLER DUP4 MSTORE MSTORE KECCAK256 SWAP1 PUSH1 0xFF NOT DUP3 SLOAD AND OR SWAP1 SSTORE PUSH2 0x2393 SWAP1 DUP2 PUSH3 0x3A4 DUP3 CODECOPY RETURN JUMPDEST PUSH1 0x24 SWAP2 MLOAD SWAP1 PUSH4 0x1E4FBDF7 PUSH1 0xE0 SHL DUP3 MSTORE PUSH1 0x4 DUP3 ADD MSTORE REVERT JUMPDEST ADD MLOAD SWAP1 POP CODESIZE DUP1 PUSH3 0x10B JUMP JUMPDEST DUP7 DUP6 MSTORE DUP8 DUP6 KECCAK256 DUP8 SWAP5 POP SWAP2 SWAP1 PUSH1 0x1F NOT DUP5 AND DUP7 JUMPDEST DUP11 DUP3 DUP3 LT PUSH3 0x207 JUMPI POP POP DUP5 GT PUSH3 0x1ED JUMPI JUMPDEST POP POP POP DUP2 SHL ADD DUP4 SSTORE PUSH3 0x11F JUMP JUMPDEST ADD MLOAD PUSH1 0x0 NOT PUSH1 0xF8 DUP5 PUSH1 0x3 SHL AND SHR NOT AND SWAP1 SSTORE CODESIZE DUP1 DUP1 PUSH3 0x1DF JUMP JUMPDEST DUP4 DUP6 ADD MLOAD DUP7 SSTORE DUP11 SWAP8 SWAP1 SWAP6 ADD SWAP5 SWAP4 DUP5 ADD SWAP4 ADD PUSH3 0x1CC JUMP JUMPDEST SWAP1 SWAP2 SWAP3 POP DUP7 DUP6 MSTORE DUP8 DUP6 KECCAK256 DUP4 DUP1 DUP7 ADD PUSH1 0x5 SHR DUP3 ADD SWAP3 DUP11 DUP8 LT PUSH3 0x269 JUMPI JUMPDEST SWAP2 DUP7 SWAP6 DUP11 SWAP3 SWAP6 SWAP5 SWAP4 ADD PUSH1 0x5 SHR ADD SWAP2 JUMPDEST DUP3 DUP2 LT PUSH3 0x25A JUMPI POP POP PUSH3 0xF6 JUMP JUMPDEST DUP8 DUP2 SSTORE DUP7 SWAP6 POP DUP10 SWAP2 ADD PUSH3 0x24A JUMP JUMPDEST SWAP3 POP DUP2 SWAP3 PUSH3 0x23B JUMP JUMPDEST PUSH4 0x4E487B71 PUSH1 0xE0 SHL DUP6 MSTORE PUSH1 0x22 PUSH1 0x4 MSTORE PUSH1 0x24 DUP6 REVERT JUMPDEST SWAP1 PUSH1 0x7F AND SWAP1 PUSH3 0xE0 JUMP JUMPDEST PUSH4 0x4E487B71 PUSH1 0xE0 SHL DUP5 MSTORE PUSH1 0x41 PUSH1 0x4 MSTORE PUSH1 0x24 DUP5 REVERT JUMPDEST ADD MLOAD SWAP1 POP CODESIZE DUP1 PUSH3 0xB2 JUMP JUMPDEST DUP8 DUP1 MSTORE DUP11 DUP9 KECCAK256 DUP11 SWAP5 POP SWAP2 SWAP1 PUSH1 0x1F NOT DUP5 AND DUP10 JUMPDEST DUP14 DUP3 DUP3 LT PUSH3 0x2FF JUMPI POP POP DUP5 GT PUSH3 0x2E5 JUMPI JUMPDEST POP POP POP DUP2 SHL ADD DUP5 SSTORE PUSH3 0xC6 JUMP JUMPDEST ADD MLOAD PUSH1 0x0 NOT PUSH1 0xF8 DUP5 PUSH1 0x3 SHL AND SHR NOT AND SWAP1 SSTORE CODESIZE DUP1 DUP1 PUSH3 0x2D7 JUMP JUMPDEST DUP4 DUP6 ADD MLOAD DUP7 SSTORE DUP14 SWAP8 SWAP1 SWAP6 ADD SWAP5 SWAP4 DUP5 ADD SWAP4 ADD PUSH3 0x2C4 JUMP JUMPDEST SWAP1 SWAP2 POP DUP7 DUP1 MSTORE DUP10 DUP8 KECCAK256 DUP6 DUP1 DUP6 ADD PUSH1 0x5 SHR DUP3 ADD SWAP3 DUP13 DUP7 LT PUSH3 0x35F JUMPI JUMPDEST SWAP2 DUP12 SWAP2 DUP7 SWAP6 SWAP5 SWAP4 ADD PUSH1 0x5 SHR ADD SWAP2 JUMPDEST DUP3 DUP2 LT PUSH3 0x350 JUMPI POP POP PUSH3 0x9C JUMP JUMPDEST DUP10 DUP2 SSTORE DUP6 SWAP5 POP DUP12 SWAP2 ADD PUSH3 0x340 JUMP JUMPDEST SWAP3 POP DUP2 SWAP3 PUSH3 0x332 JUMP JUMPDEST PUSH4 0x4E487B71 PUSH1 0xE0 SHL DUP7 MSTORE PUSH1 0x22 PUSH1 0x4 MSTORE PUSH1 0x24 DUP7 REVERT JUMPDEST SWAP4 PUSH1 0x7F AND SWAP4 PUSH3 0x85 JUMP JUMPDEST PUSH4 0x4E487B71 PUSH1 0xE0 SHL PUSH1 0x0 MSTORE PUSH1 0x41 PUSH1 0x4 MSTORE PUSH1 0x24 PUSH1 0x0 REVERT JUMPDEST PUSH1 0x0 DUP1 REVERT INVALID PUSH1 0x80 DUP1 PUSH1 0x40 MSTORE PUSH1 0x4 CALLDATASIZE LT ISZERO PUSH2 0x13 JUMPI PUSH1 0x0 DUP1 REVERT JUMPDEST PUSH1 0x0 CALLDATALOAD PUSH1 0xE0 SHR SWAP1 DUP2 PUSH4 0x1FFC9A7 EQ PUSH2 0x1AE2 JUMPI POP DUP1 PUSH4 0x6FDDE03 EQ PUSH2 0x1A3F JUMPI DUP1 PUSH4 0x81812FC EQ PUSH2 0x1A01 JUMPI DUP1 PUSH4 0x95EA7B3 EQ PUSH2 0x191A JUMPI DUP1 PUSH4 0x211A4443 EQ PUSH2 0x18F1 JUMPI DUP1 PUSH4 0x23A4DEB5 EQ PUSH2 0x18D3 JUMPI DUP1 PUSH4 0x23B872DD EQ PUSH2 0x18BC JUMPI DUP1 PUSH4 0x241E87DD EQ PUSH2 0x1577 JUMPI DUP1 PUSH4 0x29194EE3 EQ PUSH2 0x1551 JUMPI DUP1 PUSH4 0x4191C45B EQ PUSH2 0x1525 JUMPI DUP1 PUSH4 0x42842E0E EQ PUSH2 0x14D5 JUMPI DUP1 PUSH4 0x504006CA EQ PUSH2 0x1364 JUMPI DUP1 PUSH4 0x5636E24A EQ PUSH2 0x12C5 JUMPI DUP1 PUSH4 0x5696B189 EQ PUSH2 0x12A9 JUMPI DUP1 PUSH4 0x59FD285C EQ PUSH2 0x11C9 JUMPI DUP1 PUSH4 0x6352211E EQ PUSH2 0x1199 JUMPI DUP1 PUSH4 0x70A08231 EQ PUSH2 0x1140 JUMPI DUP1 PUSH4 0x715018A6 EQ PUSH2 0x10E3 JUMPI DUP1 PUSH4 0x75794A3C EQ PUSH2 0x10C5 JUMPI DUP1 PUSH4 0x846B909A EQ PUSH2 0xF03 JUMPI DUP1 PUSH4 0x87C51459 EQ PUSH2 0xEE5 JUMPI DUP1 PUSH4 0x8DA5CB5B EQ PUSH2 0xEBC JUMPI DUP1 PUSH4 0x9000B3D6 EQ PUSH2 0xE77 JUMPI DUP1 PUSH4 0x90A8AE9B EQ PUSH2 0xE5B JUMPI DUP1 PUSH4 0x95D89B41 EQ PUSH2 0xD90 JUMPI DUP1 PUSH4 0x95E188B1 EQ PUSH2 0xA8D JUMPI DUP1 PUSH4 0x9A891716 EQ PUSH2 0xA4E JUMPI DUP1 PUSH4 0xA22CB465 EQ PUSH2 0x9A0 JUMPI DUP1 PUSH4 0xAB7B1C89 EQ PUSH2 0x80F JUMPI DUP1 PUSH4 0xB88D4FDE EQ PUSH2 0x7AD JUMPI DUP1 PUSH4 0xC4479EC6 EQ PUSH2 0x743 JUMPI DUP1 PUSH4 0xC87B56DD EQ PUSH2 0x69D JUMPI DUP1 PUSH4 0xCA2DFD0A EQ PUSH2 0x65B JUMPI DUP1 PUSH4 0xCCDD9F5D EQ PUSH2 0x475 JUMPI DUP1 PUSH4 0xE1EC3C68 EQ PUSH2 0x3CE JUMPI DUP1 PUSH4 0xE985E9C5 EQ PUSH2 0x378 JUMPI DUP1 PUSH4 0xEAC8F5B8 EQ PUSH2 0x24F JUMPI PUSH4 0xF2FDE38B EQ PUSH2 0x1C1 JUMPI PUSH1 0x0 DUP1 REVERT JUMPDEST CALLVALUE PUSH2 0x24A JUMPI PUSH1 0x20 CALLDATASIZE PUSH1 0x3 NOT ADD SLT PUSH2 0x24A JUMPI PUSH2 0x1DA PUSH2 0x1B8D JUMP JUMPDEST PUSH2 0x1E2 PUSH2 0x1D9C JUMP JUMPDEST PUSH1 0x1 PUSH1 0x1 PUSH1 0xA0 SHL SUB SWAP1 DUP2 AND SWAP1 DUP2 ISZERO PUSH2 0x231 JUMPI PUSH1 0x6 SLOAD DUP3 PUSH1 0x1 PUSH1 0x1 PUSH1 0x60 SHL SUB PUSH1 0xA0 SHL DUP3 AND OR PUSH1 0x6 SSTORE AND PUSH32 0x8BE0079C531659141344CD1FD0A4F28419497F9722A3DAAFE3B4186F6B6457E0 PUSH1 0x0 DUP1 LOG3 STOP JUMPDEST PUSH1 0x40 MLOAD PUSH4 0x1E4FBDF7 PUSH1 0xE0 SHL DUP2 MSTORE PUSH1 0x0 PUSH1 0x4 DUP3 ADD MSTORE PUSH1 0x24 SWAP1 REVERT JUMPDEST PUSH1 0x0 DUP1 REVERT JUMPDEST CALLVALUE PUSH2 0x24A JUMPI PUSH1 0x20 DUP1 PUSH1 0x3 NOT CALLDATASIZE ADD SLT PUSH2 0x24A JUMPI PUSH1 0x0 PUSH1 0xC0 PUSH1 0x40 MLOAD PUSH2 0x271 DUP2 PUSH2 0x1BEE JUMP JUMPDEST DUP3 DUP2 MSTORE DUP3 DUP5 DUP3 ADD MSTORE DUP3 PUSH1 0x40 DUP3 ADD MSTORE DUP3 PUSH1 0x60 DUP3 ADD MSTORE PUSH1 0x60 PUSH1 0x80 DUP3 ADD MSTORE DUP3 PUSH1 0xA0 DUP3 ADD MSTORE ADD MSTORE PUSH1 0x4 CALLDATALOAD PUSH1 0x0 MSTORE PUSH1 0xA DUP2 MSTORE PUSH1 0x40 PUSH1 0x0 KECCAK256 PUSH1 0x40 MLOAD SWAP1 PUSH2 0x2B0 DUP3 PUSH2 0x1BEE JUMP JUMPDEST DUP1 SLOAD DUP3 MSTORE PUSH1 0x1 DUP2 ADD SLOAD PUSH2 0x363 PUSH1 0xFF DUP3 AND SWAP3 DUP6 DUP6 ADD SWAP4 PUSH2 0x2CE DUP2 PUSH2 0x1C9C JUMP JUMPDEST DUP5 MSTORE PUSH1 0x40 DUP6 ADD SWAP3 PUSH1 0x1 DUP1 PUSH1 0xA0 SHL SUB DUP1 SWAP2 PUSH1 0x8 SHR AND DUP5 MSTORE PUSH1 0x2 DUP3 ADD SLOAD SWAP1 PUSH1 0x60 DUP8 ADD SWAP2 DUP3 MSTORE PUSH1 0x4 PUSH2 0x2FF PUSH1 0x3 DUP6 ADD PUSH2 0x1CF6 JUMP JUMPDEST SWAP4 PUSH1 0x80 DUP10 ADD SWAP5 DUP6 MSTORE ADD SLOAD SWAP5 PUSH1 0xA0 DUP9 ADD SWAP7 PUSH1 0xFF DUP8 AND ISZERO ISZERO DUP9 MSTORE PUSH1 0xFF PUSH1 0xC0 DUP11 ADD SWAP8 PUSH1 0x8 SHR AND ISZERO ISZERO DUP8 MSTORE PUSH1 0x40 MLOAD SWAP10 DUP11 SWAP10 DUP2 DUP12 MSTORE MLOAD SWAP1 DUP11 ADD MSTORE MLOAD PUSH2 0x33E DUP2 PUSH2 0x1C9C JUMP JUMPDEST PUSH1 0x40 DUP10 ADD MSTORE MLOAD AND PUSH1 0x60 DUP8 ADD MSTORE MLOAD PUSH1 0x80 DUP7 ADD MSTORE MLOAD PUSH1 0xE0 PUSH1 0xA0 DUP7 ADD MSTORE PUSH2 0x100 DUP6 ADD SWAP1 PUSH2 0x1B4D JUMP JUMPDEST SWAP2 MLOAD ISZERO ISZERO PUSH1 0xC0 DUP5 ADD MSTORE MLOAD ISZERO ISZERO PUSH1 0xE0 DUP4 ADD MSTORE SUB SWAP1 RETURN JUMPDEST CALLVALUE PUSH2 0x24A JUMPI PUSH1 0x40 CALLDATASIZE PUSH1 0x3 NOT ADD SLT PUSH2 0x24A JUMPI PUSH2 0x391 PUSH2 0x1B8D JUMP JUMPDEST PUSH2 0x399 PUSH2 0x1BA3 JUMP JUMPDEST SWAP1 PUSH1 0x1 DUP1 PUSH1 0xA0 SHL SUB DUP1 SWAP2 AND PUSH1 0x0 MSTORE PUSH1 0x5 PUSH1 0x20 MSTORE PUSH1 0x40 PUSH1 0x0 KECCAK256 SWAP2 AND PUSH1 0x0 MSTORE PUSH1 0x20 MSTORE PUSH1 0x20 PUSH1 0xFF PUSH1 0x40 PUSH1 0x0 KECCAK256 SLOAD AND PUSH1 0x40 MLOAD SWAP1 ISZERO ISZERO DUP2 MSTORE RETURN JUMPDEST CALLVALUE PUSH2 0x24A JUMPI PUSH1 0x20 CALLDATASIZE PUSH1 0x3 NOT ADD SLT PUSH2 0x24A JUMPI PUSH1 0x4 CALLDATALOAD PUSH1 0x0 MSTORE PUSH1 0xB PUSH1 0x20 MSTORE PUSH2 0x140 PUSH1 0x40 PUSH1 0x0 KECCAK256 DUP1 SLOAD SWAP1 PUSH1 0x1 DUP1 PUSH1 0xA0 SHL SUB SWAP1 DUP2 PUSH1 0x1 DUP3 ADD SLOAD AND SWAP2 PUSH1 0x2 DUP3 ADD SLOAD AND PUSH1 0x3 DUP3 ADD SLOAD PUSH1 0x4 DUP4 ADD SLOAD PUSH1 0x5 DUP5 ADD SLOAD SWAP1 PUSH1 0x6 DUP6 ADD SLOAD SWAP3 PUSH1 0x7 DUP7 ADD SLOAD SWAP5 PUSH1 0x9 PUSH1 0xFF PUSH1 0x8 DUP10 ADD SLOAD AND SWAP8 ADD SLOAD SWAP8 PUSH1 0x40 MLOAD SWAP10 DUP11 MSTORE PUSH1 0x20 DUP11 ADD MSTORE PUSH1 0x40 DUP10 ADD MSTORE PUSH1 0x60 DUP9 ADD MSTORE PUSH1 0x80 DUP8 ADD MSTORE PUSH1 0xA0 DUP7 ADD MSTORE PUSH1 0xC0 DUP6 ADD MSTORE PUSH1 0xE0 DUP5 ADD MSTORE PUSH2 0x467 DUP2 PUSH2 0x1C9C JUMP JUMPDEST PUSH2 0x100 DUP4 ADD MSTORE PUSH2 0x120 DUP3 ADD MSTORE RETURN JUMPDEST CALLVALUE PUSH2 0x24A JUMPI PUSH1 0x20 CALLDATASIZE PUSH1 0x3 NOT ADD SLT PUSH2 0x24A JUMPI PUSH1 0x4 CALLDATALOAD PUSH2 0x491 PUSH2 0x2216 JUMP JUMPDEST DUP1 PUSH1 0x0 MSTORE PUSH1 0xB PUSH1 0x20 MSTORE PUSH1 0x40 PUSH1 0x0 KECCAK256 PUSH1 0x8 DUP2 ADD PUSH2 0x4BC PUSH1 0x1 PUSH1 0xFF DUP4 SLOAD AND PUSH2 0x4B6 DUP2 PUSH2 0x1C9C JUMP JUMPDEST EQ PUSH2 0x2239 JUMP JUMPDEST PUSH1 0x2 DUP3 ADD DUP1 SLOAD PUSH1 0x1 PUSH1 0x1 PUSH1 0xA0 SHL SUB SWAP3 SWAP1 DUP4 AND CALLER DUP2 SUB PUSH2 0x629 JUMPI PUSH1 0x6E PUSH2 0x4E0 DUP8 PUSH2 0x22E1 JUMP JUMPDEST LT ISZERO PUSH2 0x5F2 JUMPI DUP4 PUSH1 0x1 PUSH1 0x3 DUP8 ADD SLOAD SWAP7 ADD SLOAD AND SWAP1 DUP1 ISZERO PUSH2 0x5D9 JUMPI DUP6 PUSH2 0x503 SWAP2 PUSH2 0x20AD JUMP JUMPDEST DUP1 DUP6 AND DUP1 PUSH2 0x524 JUMPI PUSH1 0x40 MLOAD PUSH4 0x7E273289 PUSH1 0xE0 SHL DUP2 MSTORE PUSH1 0x4 DUP2 ADD DUP9 SWAP1 MSTORE PUSH1 0x24 SWAP1 REVERT JUMPDEST DUP3 SUB PUSH2 0x5A9 JUMPI POP POP DUP2 SLOAD PUSH1 0x0 DUP6 DUP2 MSTORE PUSH1 0xA PUSH1 0x20 MSTORE PUSH1 0x40 SWAP1 KECCAK256 PUSH1 0x1 DUP2 ADD DUP1 SLOAD PUSH2 0x100 PUSH1 0x1 PUSH1 0xA8 SHL SUB NOT AND SWAP3 DUP7 AND PUSH1 0x8 SHL PUSH2 0x100 PUSH1 0x1 PUSH1 0xA8 SHL SUB AND SWAP3 SWAP1 SWAP3 OR SWAP1 SWAP2 SSTORE PUSH1 0x3 SWAP1 PUSH1 0x4 ADD PUSH1 0xFF NOT SWAP1 DUP2 DUP2 SLOAD AND SWAP1 SSTORE DUP3 SLOAD AND OR SWAP1 SSTORE SLOAD AND SWAP2 PUSH32 0xE3CF28F2BCC1D7C381AB4D8C66282A85D1D7E840276BE5815F77EB5886CFFE75 PUSH1 0x0 DUP1 LOG4 PUSH1 0x1 PUSH1 0x7 SSTORE STOP JUMPDEST PUSH1 0x40 MLOAD PUSH4 0x64283D7B PUSH1 0xE0 SHL DUP2 MSTORE PUSH1 0x1 PUSH1 0x1 PUSH1 0xA0 SHL SUB SWAP3 DUP4 AND PUSH1 0x4 DUP3 ADD MSTORE PUSH1 0x24 DUP2 ADD DUP8 SWAP1 MSTORE SWAP2 AND PUSH1 0x44 DUP3 ADD MSTORE PUSH1 0x64 SWAP1 REVERT JUMPDEST PUSH1 0x40 MLOAD PUSH4 0x32505749 PUSH1 0xE1 SHL DUP2 MSTORE PUSH1 0x0 PUSH1 0x4 DUP3 ADD MSTORE PUSH1 0x24 SWAP1 REVERT JUMPDEST PUSH1 0x40 MLOAD PUSH3 0x461BCD PUSH1 0xE5 SHL DUP2 MSTORE PUSH1 0x20 PUSH1 0x4 DUP3 ADD MSTORE PUSH1 0xF PUSH1 0x24 DUP3 ADD MSTORE PUSH15 0x4C6F616E206973206865616C746879 PUSH1 0x88 SHL PUSH1 0x44 DUP3 ADD MSTORE PUSH1 0x64 SWAP1 REVERT JUMPDEST PUSH1 0x40 MLOAD PUSH3 0x461BCD PUSH1 0xE5 SHL DUP2 MSTORE PUSH1 0x20 PUSH1 0x4 DUP3 ADD MSTORE PUSH1 0xA PUSH1 0x24 DUP3 ADD MSTORE PUSH10 0x2737BA103632B73232B9 PUSH1 0xB1 SHL PUSH1 0x44 DUP3 ADD MSTORE PUSH1 0x64 SWAP1 REVERT JUMPDEST CALLVALUE PUSH2 0x24A JUMPI PUSH1 0x20 CALLDATASIZE PUSH1 0x3 NOT ADD SLT PUSH2 0x24A JUMPI PUSH2 0x674 PUSH2 0x1B8D JUMP JUMPDEST PUSH2 0x67C PUSH2 0x1D9C JUMP JUMPDEST PUSH1 0x1 PUSH1 0x1 PUSH1 0xA0 SHL SUB AND PUSH1 0x0 SWAP1 DUP2 MSTORE PUSH1 0xC PUSH1 0x20 MSTORE PUSH1 0x40 SWAP1 KECCAK256 DUP1 SLOAD PUSH1 0xFF NOT AND SWAP1 SSTORE STOP JUMPDEST CALLVALUE PUSH2 0x24A JUMPI PUSH1 0x20 CALLDATASIZE PUSH1 0x3 NOT ADD SLT PUSH2 0x24A JUMPI PUSH1 0x4 CALLDATALOAD PUSH1 0x0 DUP2 DUP2 MSTORE PUSH1 0xA PUSH1 0x20 MSTORE PUSH1 0x40 SWAP1 KECCAK256 PUSH1 0x1 ADD SLOAD PUSH1 0x8 SHR PUSH1 0x1 PUSH1 0x1 PUSH1 0xA0 SHL SUB AND ISZERO PUSH2 0x707 JUMPI PUSH1 0x0 MSTORE PUSH1 0xA PUSH1 0x20 MSTORE PUSH2 0x703 PUSH2 0x6EF PUSH1 0x3 PUSH1 0x40 PUSH1 0x0 KECCAK256 ADD PUSH2 0x1CF6 JUMP JUMPDEST PUSH1 0x40 MLOAD SWAP2 DUP3 SWAP2 PUSH1 0x20 DUP4 MSTORE PUSH1 0x20 DUP4 ADD SWAP1 PUSH2 0x1B4D JUMP JUMPDEST SUB SWAP1 RETURN JUMPDEST PUSH1 0x40 MLOAD PUSH3 0x461BCD PUSH1 0xE5 SHL DUP2 MSTORE PUSH1 0x20 PUSH1 0x4 DUP3 ADD MSTORE PUSH1 0x14 PUSH1 0x24 DUP3 ADD MSTORE PUSH20 0x151BDAD95B88191BD95CC81B9BDD08195E1A5CDD PUSH1 0x62 SHL PUSH1 0x44 DUP3 ADD MSTORE PUSH1 0x64 SWAP1 REVERT JUMPDEST CALLVALUE PUSH2 0x24A JUMPI PUSH1 0x40 CALLDATASIZE PUSH1 0x3 NOT ADD SLT PUSH2 0x24A JUMPI PUSH1 0x24 CALLDATALOAD PUSH1 0x4 CALLDATALOAD PUSH2 0x762 PUSH2 0x1D9C JUMP JUMPDEST PUSH1 0x0 DUP2 DUP2 MSTORE PUSH1 0xA PUSH1 0x20 MSTORE PUSH1 0x40 SWAP1 KECCAK256 PUSH1 0x1 ADD SLOAD PUSH2 0x78B SWAP1 PUSH1 0x8 SHR PUSH1 0x1 PUSH1 0x1 PUSH1 0xA0 SHL SUB AND ISZERO ISZERO PUSH2 0x21B3 JUMP JUMPDEST PUSH1 0x0 MSTORE PUSH1 0xD PUSH1 0x20 MSTORE DUP1 PUSH1 0x40 PUSH1 0x0 KECCAK256 SSTORE PUSH1 0xA PUSH1 0x20 MSTORE PUSH1 0x2 PUSH1 0x40 PUSH1 0x0 KECCAK256 ADD SSTORE PUSH1 0x0 DUP1 RETURN JUMPDEST CALLVALUE PUSH2 0x24A JUMPI PUSH1 0x80 CALLDATASIZE PUSH1 0x3 NOT ADD SLT PUSH2 0x24A JUMPI PUSH2 0x7C6 PUSH2 0x1B8D JUMP JUMPDEST PUSH2 0x7CE PUSH2 0x1BA3 JUMP JUMPDEST PUSH1 0x64 CALLDATALOAD SWAP2 PUSH8 0xFFFFFFFFFFFFFFFF DUP4 GT PUSH2 0x24A JUMPI CALLDATASIZE PUSH1 0x23 DUP5 ADD SLT ISZERO PUSH2 0x24A JUMPI PUSH2 0x803 PUSH2 0x80D SWAP4 CALLDATASIZE SWAP1 PUSH1 0x24 DUP2 PUSH1 0x4 ADD CALLDATALOAD SWAP2 ADD PUSH2 0x1C65 JUMP JUMPDEST SWAP2 PUSH1 0x44 CALLDATALOAD SWAP2 PUSH2 0x1F58 JUMP JUMPDEST STOP JUMPDEST PUSH1 0x20 DUP1 PUSH1 0x3 NOT CALLDATASIZE ADD SLT PUSH2 0x24A JUMPI PUSH1 0x4 CALLDATALOAD SWAP1 PUSH2 0x828 PUSH2 0x2216 JUMP JUMPDEST DUP2 PUSH1 0x0 MSTORE PUSH1 0xB DUP2 MSTORE PUSH1 0x40 PUSH1 0x0 KECCAK256 SWAP1 PUSH1 0x1 DUP1 PUSH1 0xA0 SHL SUB DUP1 PUSH1 0x1 DUP5 ADD SLOAD AND CALLER SUB PUSH2 0x96C JUMPI PUSH1 0x8 DUP4 ADD SWAP3 DUP4 SLOAD PUSH2 0x863 PUSH1 0x1 PUSH1 0xFF DUP4 AND PUSH2 0x4B6 DUP2 PUSH2 0x1C9C JUMP JUMPDEST PUSH2 0x86C DUP7 PUSH2 0x2277 JUMP JUMPDEST SWAP5 DUP6 CALLVALUE LT PUSH2 0x92E JUMPI DUP6 PUSH1 0x0 SWAP5 PUSH1 0x2 DUP7 SWAP6 DUP7 SWAP6 DUP7 SWAP6 DUP4 PUSH1 0xFF NOT DUP1 SWAP4 AND OR SWAP1 SSTORE DUP5 PUSH1 0x9 DUP4 ADD SSTORE PUSH1 0x3 DUP3 ADD SLOAD DUP7 MSTORE PUSH1 0xA DUP11 MSTORE PUSH1 0x4 PUSH1 0x40 DUP8 KECCAK256 ADD SWAP1 DUP2 SLOAD AND SWAP1 SSTORE ADD SLOAD AND DUP3 DUP3 ISZERO PUSH2 0x925 JUMPI JUMPDEST CALL ISZERO PUSH2 0x910 JUMPI DUP2 CALLVALUE GT PUSH2 0x8F1 JUMPI JUMPDEST PUSH32 0x40CEE90EE4799897C30CA04E5FEB6FA43DBBA9B6D084B4B257CDAFD84BA013E SWAP2 PUSH1 0x40 MLOAD SWAP1 DUP2 MSTORE LOG2 PUSH1 0x1 PUSH1 0x7 SSTORE STOP JUMPDEST PUSH1 0x0 DUP1 DUP1 DUP1 PUSH2 0x900 DUP7 CALLVALUE PUSH2 0x2209 JUMP JUMPDEST DUP2 DUP2 ISZERO PUSH2 0x91C JUMPI JUMPDEST CALLER SWAP1 CALL PUSH2 0x8C1 JUMPI JUMPDEST PUSH1 0x40 MLOAD RETURNDATASIZE PUSH1 0x0 DUP3 RETURNDATACOPY RETURNDATASIZE SWAP1 REVERT JUMPDEST POP PUSH2 0x8FC PUSH2 0x908 JUMP JUMPDEST POP PUSH2 0x8FC PUSH2 0x8B3 JUMP JUMPDEST PUSH1 0x40 MLOAD PUSH3 0x461BCD PUSH1 0xE5 SHL DUP2 MSTORE PUSH1 0x4 DUP2 ADD DUP7 SWAP1 MSTORE PUSH1 0x16 PUSH1 0x24 DUP3 ADD MSTORE PUSH22 0x125B9CDD59999A58DA595B9D081C995C185E5B595B9D PUSH1 0x52 SHL PUSH1 0x44 DUP3 ADD MSTORE PUSH1 0x64 SWAP1 REVERT JUMPDEST PUSH1 0x40 MLOAD PUSH3 0x461BCD PUSH1 0xE5 SHL DUP2 MSTORE PUSH1 0x4 DUP2 ADD DUP4 SWAP1 MSTORE PUSH1 0xC PUSH1 0x24 DUP3 ADD MSTORE PUSH12 0x2737BA103137B93937BBB2B9 PUSH1 0xA1 SHL PUSH1 0x44 DUP3 ADD MSTORE PUSH1 0x64 SWAP1 REVERT JUMPDEST CALLVALUE PUSH2 0x24A JUMPI PUSH1 0x40 CALLDATASIZE PUSH1 0x3 NOT ADD SLT PUSH2 0x24A JUMPI PUSH2 0x9B9 PUSH2 0x1B8D JUMP JUMPDEST PUSH1 0x24 CALLDATALOAD SWAP1 DUP2 ISZERO ISZERO SWAP1 DUP2 DUP4 SUB PUSH2 0x24A JUMPI PUSH1 0x1 PUSH1 0x1 PUSH1 0xA0 SHL SUB AND SWAP2 DUP3 ISZERO PUSH2 0xA35 JUMPI PUSH2 0xA07 SWAP1 CALLER PUSH1 0x0 MSTORE PUSH1 0x5 PUSH1 0x20 MSTORE PUSH1 0x40 PUSH1 0x0 KECCAK256 DUP5 PUSH1 0x0 MSTORE PUSH1 0x20 MSTORE PUSH1 0x40 PUSH1 0x0 KECCAK256 SWAP1 PUSH1 0xFF DUP1 NOT DUP4 SLOAD AND SWAP2 ISZERO ISZERO AND OR SWAP1 SSTORE JUMP JUMPDEST PUSH1 0x40 MLOAD SWAP1 DUP2 MSTORE PUSH32 0x17307EAB39AB6107E8899845AD3D59BD9653F200F220920489CA2B5937696C31 PUSH1 0x20 CALLER SWAP3 LOG3 STOP JUMPDEST PUSH1 0x40 MLOAD PUSH4 0xB611743 PUSH1 0xE3 SHL DUP2 MSTORE PUSH1 0x4 DUP2 ADD DUP5 SWAP1 MSTORE PUSH1 0x24 SWAP1 REVERT JUMPDEST CALLVALUE PUSH2 0x24A JUMPI PUSH1 0x20 CALLDATASIZE PUSH1 0x3 NOT ADD SLT PUSH2 0x24A JUMPI PUSH1 0x1 PUSH1 0x1 PUSH1 0xA0 SHL SUB PUSH2 0xA6F PUSH2 0x1B8D JUMP JUMPDEST AND PUSH1 0x0 MSTORE PUSH1 0xC PUSH1 0x20 MSTORE PUSH1 0x20 PUSH1 0xFF PUSH1 0x40 PUSH1 0x0 KECCAK256 SLOAD AND PUSH1 0x40 MLOAD SWAP1 ISZERO ISZERO DUP2 MSTORE RETURN JUMPDEST CALLVALUE PUSH2 0x24A JUMPI PUSH1 0x80 CALLDATASIZE PUSH1 0x3 NOT ADD SLT PUSH2 0x24A JUMPI PUSH1 0x4 CALLDATALOAD PUSH2 0xAAA DUP2 PUSH2 0x2169 JUMP JUMPDEST CALLER PUSH1 0x1 PUSH1 0x1 PUSH1 0xA0 SHL SUB SWAP1 SWAP2 AND SUB PUSH2 0xD59 JUMPI DUP1 PUSH1 0x0 MSTORE PUSH1 0xA PUSH1 0x20 MSTORE PUSH1 0xFF PUSH1 0x4 PUSH1 0x40 PUSH1 0x0 KECCAK256 ADD SLOAD PUSH1 0x8 SHR AND ISZERO PUSH2 0xD1F JUMPI DUP1 PUSH1 0x0 MSTORE PUSH1 0xA PUSH1 0x20 MSTORE PUSH1 0xFF PUSH1 0x4 PUSH1 0x40 PUSH1 0x0 KECCAK256 ADD SLOAD AND PUSH2 0xCE3 JUMPI DUP1 PUSH1 0x0 MSTORE PUSH1 0xD PUSH1 0x20 MSTORE PUSH1 0x40 PUSH1 0x0 KECCAK256 SLOAD PUSH1 0x50 DUP2 MUL SWAP1 DUP1 DUP3 DIV PUSH1 0x50 EQ SWAP1 ISZERO OR ISZERO PUSH2 0xCCD JUMPI PUSH1 0x64 PUSH1 0x24 CALLDATALOAD SWAP2 DIV DUP2 GT PUSH2 0xC88 JUMPI PUSH1 0x20 SWAP2 PUSH1 0x9 SLOAD SWAP2 PUSH2 0xB30 DUP4 PUSH2 0x21A4 JUMP JUMPDEST PUSH1 0x9 SSTORE DUP2 PUSH1 0x0 MSTORE PUSH1 0xA DUP5 MSTORE PUSH1 0x4 PUSH1 0x40 PUSH1 0x0 KECCAK256 ADD PUSH1 0x1 PUSH1 0xFF NOT DUP3 SLOAD AND OR SWAP1 SSTORE PUSH1 0x40 MLOAD PUSH2 0xB5A DUP2 PUSH2 0x1C0A JUMP JUMPDEST DUP4 DUP2 MSTORE CALLER DUP6 DUP3 ADD MSTORE PUSH1 0x0 PUSH1 0x40 DUP3 ADD MSTORE DUP3 PUSH1 0x60 DUP3 ADD MSTORE DUP2 PUSH1 0x80 DUP3 ADD MSTORE PUSH1 0x44 CALLDATALOAD PUSH1 0xA0 DUP3 ADD MSTORE PUSH1 0x64 CALLDATALOAD PUSH1 0xC0 DUP3 ADD MSTORE PUSH1 0x0 PUSH1 0xE0 DUP3 ADD MSTORE PUSH1 0x0 PUSH2 0x100 DUP3 ADD MSTORE PUSH1 0x0 PUSH2 0x120 DUP3 ADD MSTORE DUP4 PUSH1 0x0 MSTORE PUSH1 0xB DUP6 MSTORE PUSH1 0x9 PUSH2 0x120 PUSH1 0x40 PUSH1 0x0 KECCAK256 SWAP3 DUP1 MLOAD DUP5 SSTORE PUSH1 0x1 DUP5 ADD PUSH1 0x1 DUP1 PUSH1 0xA0 SHL SUB DUP10 DUP4 ADD MLOAD AND SWAP1 PUSH1 0x1 PUSH1 0x1 PUSH1 0x60 SHL SUB PUSH1 0xA0 SHL SWAP2 DUP3 DUP3 SLOAD AND OR SWAP1 SSTORE PUSH1 0x2 DUP6 ADD SWAP1 PUSH1 0x1 DUP1 PUSH1 0xA0 SHL SUB PUSH1 0x40 DUP5 ADD MLOAD AND SWAP1 DUP3 SLOAD AND OR SWAP1 SSTORE PUSH1 0x60 DUP2 ADD MLOAD PUSH1 0x3 DUP6 ADD SSTORE PUSH1 0x80 DUP2 ADD MLOAD PUSH1 0x4 DUP6 ADD SSTORE PUSH1 0xA0 DUP2 ADD MLOAD PUSH1 0x5 DUP6 ADD SSTORE PUSH1 0xC0 DUP2 ADD MLOAD PUSH1 0x6 DUP6 ADD SSTORE PUSH1 0xE0 DUP2 ADD MLOAD PUSH1 0x7 DUP6 ADD SSTORE PUSH1 0x8 DUP5 ADD PUSH2 0x100 DUP3 ADD MLOAD PUSH2 0xC35 DUP2 PUSH2 0x1C9C JUMP JUMPDEST PUSH2 0xC3E DUP2 PUSH2 0x1C9C JUMP JUMPDEST PUSH1 0xFF DUP1 NOT DUP4 SLOAD AND SWAP2 AND OR SWAP1 SSTORE ADD MLOAD SWAP2 ADD SSTORE PUSH1 0x40 MLOAD SWAP2 DUP3 MSTORE DUP4 DUP3 ADD MSTORE DUP2 PUSH32 0x68595DBE887AE7F496F2C88735019A8918919A1DECFDEE6BDB460480AB87DECB PUSH1 0x40 CALLER SWAP4 LOG3 PUSH1 0x40 MLOAD SWAP1 DUP2 MSTORE RETURN JUMPDEST PUSH1 0x40 MLOAD PUSH3 0x461BCD PUSH1 0xE5 SHL DUP2 MSTORE PUSH1 0x20 PUSH1 0x4 DUP3 ADD MSTORE PUSH1 0x17 PUSH1 0x24 DUP3 ADD MSTORE PUSH32 0x4C6F616E20616D6F756E742065786365656473204C5456000000000000000000 PUSH1 0x44 DUP3 ADD MSTORE PUSH1 0x64 SWAP1 REVERT JUMPDEST PUSH4 0x4E487B71 PUSH1 0xE0 SHL PUSH1 0x0 MSTORE PUSH1 0x11 PUSH1 0x4 MSTORE PUSH1 0x24 PUSH1 0x0 REVERT JUMPDEST PUSH1 0x40 MLOAD PUSH3 0x461BCD PUSH1 0xE5 SHL DUP2 MSTORE PUSH1 0x20 PUSH1 0x4 DUP3 ADD MSTORE PUSH1 0x14 PUSH1 0x24 DUP3 ADD MSTORE PUSH20 0x105CDCD95D08185B1C9958591E481B1BD8DAD959 PUSH1 0x62 SHL PUSH1 0x44 DUP3 ADD MSTORE PUSH1 0x64 SWAP1 REVERT JUMPDEST PUSH1 0x40 MLOAD PUSH3 0x461BCD PUSH1 0xE5 SHL DUP2 MSTORE PUSH1 0x20 PUSH1 0x4 DUP3 ADD MSTORE PUSH1 0x12 PUSH1 0x24 DUP3 ADD MSTORE PUSH18 0x105CDCD95D081B9BDD081D995C9A599A5959 PUSH1 0x72 SHL PUSH1 0x44 DUP3 ADD MSTORE PUSH1 0x64 SWAP1 REVERT JUMPDEST PUSH1 0x40 MLOAD PUSH3 0x461BCD PUSH1 0xE5 SHL DUP2 MSTORE PUSH1 0x20 PUSH1 0x4 DUP3 ADD MSTORE PUSH1 0xF PUSH1 0x24 DUP3 ADD MSTORE PUSH15 0x2737BA103A37B5B2B71037BBB732B9 PUSH1 0x89 SHL PUSH1 0x44 DUP3 ADD MSTORE PUSH1 0x64 SWAP1 REVERT JUMPDEST CALLVALUE PUSH2 0x24A JUMPI PUSH1 0x0 CALLDATASIZE PUSH1 0x3 NOT ADD SLT PUSH2 0x24A JUMPI PUSH1 0x40 MLOAD PUSH1 0x0 PUSH1 0x1 DUP1 SLOAD SWAP1 PUSH2 0xDB4 DUP3 PUSH2 0x1CBC JUMP JUMPDEST DUP1 DUP6 MSTORE SWAP2 DUP2 DUP2 AND SWAP1 DUP2 ISZERO PUSH2 0xE34 JUMPI POP PUSH1 0x1 EQ PUSH2 0xDDB JUMPI JUMPDEST PUSH2 0x703 DUP5 PUSH2 0x6EF DUP2 DUP7 SUB DUP3 PUSH2 0x1C27 JUMP JUMPDEST PUSH1 0x0 DUP2 DUP2 MSTORE SWAP3 POP PUSH32 0xB10E2D527612073B26EECDFD717E6A320CF44B4AFAC2B0732D9FCBE2B7FA0CF6 JUMPDEST DUP3 DUP5 LT PUSH2 0xE1C JUMPI POP POP POP DUP2 ADD PUSH1 0x20 ADD PUSH2 0x6EF DUP3 PUSH2 0xDCB JUMP JUMPDEST DUP1 SLOAD PUSH1 0x20 DUP6 DUP8 ADD DUP2 ADD SWAP2 SWAP1 SWAP2 MSTORE SWAP1 SWAP4 ADD SWAP3 DUP2 ADD PUSH2 0xE04 JUMP JUMPDEST PUSH1 0xFF NOT AND PUSH1 0x20 DUP1 DUP8 ADD SWAP2 SWAP1 SWAP2 MSTORE SWAP3 ISZERO ISZERO PUSH1 0x5 SHL DUP6 ADD SWAP1 SWAP3 ADD SWAP3 POP PUSH2 0x6EF SWAP2 POP DUP4 SWAP1 POP PUSH2 0xDCB JUMP JUMPDEST CALLVALUE PUSH2 0x24A JUMPI PUSH1 0x0 CALLDATASIZE PUSH1 0x3 NOT ADD SLT PUSH2 0x24A JUMPI PUSH1 0x20 PUSH1 0x40 MLOAD PUSH1 0x6E DUP2 MSTORE RETURN JUMPDEST CALLVALUE PUSH2 0x24A JUMPI PUSH1 0x20 CALLDATASIZE PUSH1 0x3 NOT ADD SLT PUSH2 0x24A JUMPI PUSH2 0xE90 PUSH2 0x1B8D JUMP JUMPDEST PUSH2 0xE98 PUSH2 0x1D9C JUMP JUMPDEST PUSH1 0x1 PUSH1 0x1 PUSH1 0xA0 SHL SUB AND PUSH1 0x0 SWAP1 DUP2 MSTORE PUSH1 0xC PUSH1 0x20 MSTORE PUSH1 0x40 SWAP1 KECCAK256 DUP1 SLOAD PUSH1 0xFF NOT AND PUSH1 0x1 OR SWAP1 SSTORE STOP JUMPDEST CALLVALUE PUSH2 0x24A JUMPI PUSH1 0x0 CALLDATASIZE PUSH1 0x3 NOT ADD SLT PUSH2 0x24A JUMPI PUSH1 0x6 SLOAD PUSH1 0x40 MLOAD PUSH1 0x1 PUSH1 0x1 PUSH1 0xA0 SHL SUB SWAP1 SWAP2 AND DUP2 MSTORE PUSH1 0x20 SWAP1 RETURN JUMPDEST CALLVALUE PUSH2 0x24A JUMPI PUSH1 0x0 CALLDATASIZE PUSH1 0x3 NOT ADD SLT PUSH2 0x24A JUMPI PUSH1 0x20 PUSH1 0x9 SLOAD PUSH1 0x40 MLOAD SWAP1 DUP2 MSTORE RETURN JUMPDEST PUSH1 0x20 CALLDATASIZE PUSH1 0x3 NOT ADD SLT PUSH2 0x24A JUMPI PUSH1 0x4 CALLDATALOAD PUSH2 0xF1A PUSH2 0x2216 JUMP JUMPDEST DUP1 PUSH1 0x0 MSTORE PUSH1 0xB PUSH1 0x20 MSTORE PUSH1 0x40 PUSH1 0x0 KECCAK256 PUSH1 0x8 DUP2 ADD SWAP1 DUP2 SLOAD SWAP1 PUSH1 0xFF DUP3 AND PUSH2 0xF3D DUP2 PUSH2 0x1C9C JUMP JUMPDEST PUSH2 0x108B JUMPI PUSH1 0x4 DUP2 ADD SWAP3 DUP4 SLOAD SWAP3 DUP4 CALLVALUE LT PUSH2 0x104F JUMPI PUSH1 0x1 DUP4 ADD SLOAD PUSH1 0x1 PUSH1 0x1 PUSH1 0xA0 SHL SUB AND SWAP4 CALLER DUP6 EQ PUSH2 0x1013 JUMPI PUSH1 0x0 SWAP5 DUP5 DUP7 SWAP6 SWAP5 PUSH1 0x1 DUP8 SWAP7 SWAP6 PUSH1 0x2 DUP9 SWAP8 ADD CALLER PUSH1 0x1 PUSH1 0x1 PUSH1 0x60 SHL SUB PUSH1 0xA0 SHL DUP3 SLOAD AND OR SWAP1 SSTORE PUSH1 0xFF NOT AND OR SWAP1 SSTORE PUSH1 0x7 TIMESTAMP SWAP2 ADD SSTORE DUP3 DUP3 ISZERO PUSH2 0x100A JUMPI JUMPDEST CALL ISZERO PUSH2 0x910 JUMPI SLOAD DUP1 CALLVALUE GT PUSH2 0xFDC JUMPI JUMPDEST POP CALLER SWAP1 PUSH32 0x15FEAB5D3EB17171632762CF769709A315DD15F487A556C0DFB8A259C8F186CC PUSH1 0x0 DUP1 LOG3 PUSH1 0x1 PUSH1 0x7 SSTORE STOP JUMPDEST PUSH1 0x0 DUP1 DUP1 PUSH2 0xFEB DUP2 SWAP5 CALLVALUE PUSH2 0x2209 JUMP JUMPDEST DUP2 DUP2 ISZERO PUSH2 0x1001 JUMPI JUMPDEST CALLER SWAP1 CALL ISZERO PUSH2 0x910 JUMPI DUP2 PUSH2 0xFAD JUMP JUMPDEST POP PUSH2 0x8FC PUSH2 0xFF3 JUMP JUMPDEST POP PUSH2 0x8FC PUSH2 0xF9E JUMP JUMPDEST PUSH1 0x40 MLOAD PUSH3 0x461BCD PUSH1 0xE5 SHL DUP2 MSTORE PUSH1 0x20 PUSH1 0x4 DUP3 ADD MSTORE PUSH1 0x14 PUSH1 0x24 DUP3 ADD MSTORE PUSH20 0x21B0B73737BA10333AB7321037BBB7103637B0B7 PUSH1 0x61 SHL PUSH1 0x44 DUP3 ADD MSTORE PUSH1 0x64 SWAP1 REVERT JUMPDEST PUSH1 0x40 MLOAD PUSH3 0x461BCD PUSH1 0xE5 SHL DUP2 MSTORE PUSH1 0x20 PUSH1 0x4 DUP3 ADD MSTORE PUSH1 0x14 PUSH1 0x24 DUP3 ADD MSTORE PUSH20 0x496E73756666696369656E742066756E64696E67 PUSH1 0x60 SHL PUSH1 0x44 DUP3 ADD MSTORE PUSH1 0x64 SWAP1 REVERT JUMPDEST PUSH1 0x40 MLOAD PUSH3 0x461BCD PUSH1 0xE5 SHL DUP2 MSTORE PUSH1 0x20 PUSH1 0x4 DUP3 ADD MSTORE PUSH1 0x12 PUSH1 0x24 DUP3 ADD MSTORE PUSH18 0x4C6F616E206E6F7420617661696C61626C65 PUSH1 0x70 SHL PUSH1 0x44 DUP3 ADD MSTORE PUSH1 0x64 SWAP1 REVERT JUMPDEST CALLVALUE PUSH2 0x24A JUMPI PUSH1 0x0 CALLDATASIZE PUSH1 0x3 NOT ADD SLT PUSH2 0x24A JUMPI PUSH1 0x20 PUSH1 0x8 SLOAD PUSH1 0x40 MLOAD SWAP1 DUP2 MSTORE RETURN JUMPDEST CALLVALUE PUSH2 0x24A JUMPI PUSH1 0x0 CALLDATASIZE PUSH1 0x3 NOT ADD SLT PUSH2 0x24A JUMPI PUSH2 0x10FC PUSH2 0x1D9C JUMP JUMPDEST PUSH1 0x6 DUP1 SLOAD PUSH1 0x1 PUSH1 0x1 PUSH1 0xA0 SHL SUB NOT DUP2 AND SWAP1 SWAP2 SSTORE PUSH1 0x0 SWAP1 PUSH1 0x1 PUSH1 0x1 PUSH1 0xA0 SHL SUB AND PUSH32 0x8BE0079C531659141344CD1FD0A4F28419497F9722A3DAAFE3B4186F6B6457E0 DUP3 DUP1 LOG3 STOP JUMPDEST CALLVALUE PUSH2 0x24A JUMPI PUSH1 0x20 CALLDATASIZE PUSH1 0x3 NOT ADD SLT PUSH2 0x24A JUMPI PUSH1 0x1 PUSH1 0x1 PUSH1 0xA0 SHL SUB PUSH2 0x1161 PUSH2 0x1B8D JUMP JUMPDEST AND DUP1 ISZERO PUSH2 0x1180 JUMPI PUSH1 0x0 MSTORE PUSH1 0x3 PUSH1 0x20 MSTORE PUSH1 0x20 PUSH1 0x40 PUSH1 0x0 KECCAK256 SLOAD PUSH1 0x40 MLOAD SWAP1 DUP2 MSTORE RETURN JUMPDEST PUSH1 0x40 MLOAD PUSH4 0x22718AD9 PUSH1 0xE2 SHL DUP2 MSTORE PUSH1 0x0 PUSH1 0x4 DUP3 ADD MSTORE PUSH1 0x24 SWAP1 REVERT JUMPDEST CALLVALUE PUSH2 0x24A JUMPI PUSH1 0x20 CALLDATASIZE PUSH1 0x3 NOT ADD SLT PUSH2 0x24A JUMPI PUSH1 0x20 PUSH2 0x11B7 PUSH1 0x4 CALLDATALOAD PUSH2 0x2169 JUMP JUMPDEST PUSH1 0x40 MLOAD PUSH1 0x1 PUSH1 0x1 PUSH1 0xA0 SHL SUB SWAP1 SWAP2 AND DUP2 MSTORE RETURN JUMPDEST CALLVALUE PUSH2 0x24A JUMPI PUSH1 0x20 CALLDATASIZE PUSH1 0x3 NOT ADD SLT PUSH2 0x24A JUMPI PUSH1 0x4 CALLDATALOAD CALLER PUSH1 0x0 MSTORE PUSH1 0xC PUSH1 0x20 MSTORE PUSH1 0xFF PUSH1 0x40 PUSH1 0x0 KECCAK256 SLOAD AND ISZERO PUSH2 0x1264 JUMPI PUSH1 0x0 DUP2 DUP2 MSTORE PUSH1 0xA PUSH1 0x20 MSTORE PUSH1 0x40 SWAP1 KECCAK256 PUSH1 0x1 ADD SLOAD PUSH2 0x121D SWAP1 PUSH1 0x8 SHR PUSH1 0x1 PUSH1 0x1 PUSH1 0xA0 SHL SUB AND ISZERO ISZERO PUSH2 0x21B3 JUMP JUMPDEST DUP1 PUSH1 0x0 MSTORE PUSH1 0xA PUSH1 0x20 MSTORE PUSH1 0x4 PUSH1 0x40 PUSH1 0x0 KECCAK256 ADD PUSH2 0x100 PUSH2 0xFF00 NOT DUP3 SLOAD AND OR SWAP1 SSTORE CALLER SWAP1 PUSH32 0x5BD81A4D257100F5FE7DF72A9E528A7AAF33871F8258739A331D2627A83F0AAC PUSH1 0x0 DUP1 LOG3 STOP JUMPDEST PUSH1 0x40 MLOAD PUSH3 0x461BCD PUSH1 0xE5 SHL DUP2 MSTORE PUSH1 0x20 PUSH1 0x4 DUP3 ADD MSTORE PUSH1 0x17 PUSH1 0x24 DUP3 ADD MSTORE PUSH32 0x4E6F7420617574686F72697A6564207665726966696572000000000000000000 PUSH1 0x44 DUP3 ADD MSTORE PUSH1 0x64 SWAP1 REVERT JUMPDEST CALLVALUE PUSH2 0x24A JUMPI PUSH1 0x0 CALLDATASIZE PUSH1 0x3 NOT ADD SLT PUSH2 0x24A JUMPI PUSH1 0x20 PUSH1 0x40 MLOAD PUSH1 0x50 DUP2 MSTORE RETURN JUMPDEST CALLVALUE PUSH2 0x24A JUMPI PUSH1 0x20 CALLDATASIZE PUSH1 0x3 NOT ADD SLT PUSH2 0x24A JUMPI PUSH1 0x4 CALLDATALOAD PUSH1 0x0 MSTORE PUSH1 0xA PUSH1 0x20 MSTORE PUSH1 0x40 PUSH1 0x0 KECCAK256 DUP1 SLOAD PUSH1 0x1 DUP3 ADD SLOAD PUSH1 0xFF PUSH2 0x134A DUP2 DUP4 AND SWAP5 PUSH1 0x2 DUP2 ADD SLOAD PUSH1 0x4 PUSH2 0x1309 PUSH1 0x3 DUP5 ADD PUSH2 0x1CF6 JUMP JUMPDEST SWAP3 ADD SLOAD SWAP5 PUSH1 0x40 MLOAD SWAP8 DUP9 SWAP8 DUP9 MSTORE PUSH2 0x131E DUP2 PUSH2 0x1C9C JUMP JUMPDEST PUSH1 0x20 DUP9 ADD MSTORE PUSH1 0x8 SHR PUSH1 0x1 PUSH1 0x1 PUSH1 0xA0 SHL SUB AND PUSH1 0x40 DUP8 ADD MSTORE PUSH1 0x60 DUP7 ADD MSTORE PUSH1 0xE0 PUSH1 0x80 DUP7 ADD DUP2 SWAP1 MSTORE DUP6 ADD SWAP1 PUSH2 0x1B4D JUMP JUMPDEST SWAP2 DUP2 DUP2 AND ISZERO ISZERO PUSH1 0xA0 DUP6 ADD MSTORE PUSH1 0x8 SHR AND ISZERO ISZERO PUSH1 0xC0 DUP4 ADD MSTORE SUB SWAP1 RETURN JUMPDEST CALLVALUE PUSH2 0x24A JUMPI PUSH1 0x20 CALLDATASIZE PUSH1 0x3 NOT ADD SLT PUSH2 0x24A JUMPI PUSH2 0x140 PUSH1 0x40 MLOAD PUSH2 0x1384 DUP2 PUSH2 0x1C0A JUMP JUMPDEST PUSH1 0x0 DUP2 MSTORE PUSH1 0x0 PUSH1 0x20 DUP3 ADD MSTORE PUSH1 0x0 PUSH1 0x40 DUP3 ADD MSTORE PUSH1 0x0 PUSH1 0x60 DUP3 ADD MSTORE PUSH1 0x0 PUSH1 0x80 DUP3 ADD MSTORE PUSH1 0x0 PUSH1 0xA0 DUP3 ADD MSTORE PUSH1 0x0 PUSH1 0xC0 DUP3 ADD MSTORE PUSH1 0x0 PUSH1 0xE0 DUP3 ADD MSTORE PUSH1 0x0 PUSH2 0x120 PUSH2 0x100 SWAP3 DUP3 DUP5 DUP3 ADD MSTORE ADD MSTORE PUSH1 0x4 CALLDATALOAD PUSH1 0x0 MSTORE PUSH1 0xB PUSH1 0x20 MSTORE PUSH2 0x120 PUSH1 0x40 PUSH1 0x0 KECCAK256 PUSH1 0x9 PUSH1 0x40 MLOAD SWAP2 PUSH2 0x13EB DUP4 PUSH2 0x1C0A JUMP JUMPDEST DUP1 SLOAD DUP4 MSTORE PUSH1 0x1 DUP2 ADD SLOAD PUSH1 0x1 PUSH1 0x1 PUSH1 0xA0 SHL SUB SWAP1 DUP2 AND PUSH1 0x20 DUP6 ADD MSTORE PUSH1 0x2 DUP3 ADD SLOAD AND PUSH1 0x40 DUP5 ADD MSTORE PUSH1 0x3 DUP2 ADD SLOAD PUSH1 0x60 DUP5 ADD MSTORE PUSH1 0x4 DUP2 ADD SLOAD PUSH1 0x80 DUP5 ADD MSTORE PUSH1 0x5 DUP2 ADD SLOAD PUSH1 0xA0 DUP5 ADD MSTORE PUSH1 0x6 DUP2 ADD SLOAD PUSH1 0xC0 DUP5 ADD MSTORE PUSH1 0x7 DUP2 ADD SLOAD PUSH1 0xE0 DUP5 ADD MSTORE PUSH1 0x8 DUP2 ADD SLOAD PUSH1 0xFF AND PUSH2 0x1452 DUP2 PUSH2 0x1C9C JUMP JUMPDEST DUP6 DUP5 ADD MSTORE ADD SLOAD DUP3 DUP3 ADD MSTORE PUSH1 0x40 MLOAD SWAP3 DUP2 MLOAD DUP5 MSTORE PUSH1 0x1 DUP1 PUSH1 0xA0 SHL SUB PUSH1 0x20 DUP4 ADD MLOAD AND PUSH1 0x20 DUP6 ADD MSTORE PUSH1 0x1 DUP1 PUSH1 0xA0 SHL SUB PUSH1 0x40 DUP4 ADD MLOAD AND PUSH1 0x40 DUP6 ADD MSTORE PUSH1 0x60 DUP3 ADD MLOAD PUSH1 0x60 DUP6 ADD MSTORE PUSH1 0x80 DUP3 ADD MLOAD PUSH1 0x80 DUP6 ADD MSTORE PUSH1 0xA0 DUP3 ADD MLOAD PUSH1 0xA0 DUP6 ADD MSTORE PUSH1 0xC0 DUP3 ADD MLOAD PUSH1 0xC0 DUP6 ADD MSTORE PUSH1 0xE0 DUP3 ADD MLOAD PUSH1 0xE0 DUP6 ADD MSTORE DUP1 DUP3 ADD MLOAD SWAP1 PUSH2 0x14C8 DUP3 PUSH2 0x1C9C JUMP JUMPDEST DUP5 ADD MSTORE ADD MLOAD PUSH2 0x120 DUP3 ADD MSTORE RETURN JUMPDEST CALLVALUE PUSH2 0x24A JUMPI PUSH2 0x14E3 CALLDATASIZE PUSH2 0x1BB9 JUMP JUMPDEST PUSH1 0x40 MLOAD SWAP2 PUSH1 0x20 DUP4 ADD SWAP4 DUP4 DUP6 LT PUSH8 0xFFFFFFFFFFFFFFFF DUP7 GT OR PUSH2 0x150F JUMPI PUSH2 0x80D SWAP5 PUSH1 0x40 MSTORE PUSH1 0x0 DUP5 MSTORE PUSH2 0x1F58 JUMP JUMPDEST PUSH4 0x4E487B71 PUSH1 0xE0 SHL PUSH1 0x0 MSTORE PUSH1 0x41 PUSH1 0x4 MSTORE PUSH1 0x24 PUSH1 0x0 REVERT JUMPDEST CALLVALUE PUSH2 0x24A JUMPI PUSH1 0x20 CALLDATASIZE PUSH1 0x3 NOT ADD SLT PUSH2 0x24A JUMPI PUSH1 0x4 CALLDATALOAD PUSH1 0x0 MSTORE PUSH1 0xD PUSH1 0x20 MSTORE PUSH1 0x20 PUSH1 0x40 PUSH1 0x0 KECCAK256 SLOAD PUSH1 0x40 MLOAD SWAP1 DUP2 MSTORE RETURN JUMPDEST CALLVALUE PUSH2 0x24A JUMPI PUSH1 0x20 CALLDATASIZE PUSH1 0x3 NOT ADD SLT PUSH2 0x24A JUMPI PUSH1 0x20 PUSH2 0x156F PUSH1 0x4 CALLDATALOAD PUSH2 0x2277 JUMP JUMPDEST PUSH1 0x40 MLOAD SWAP1 DUP2 MSTORE RETURN JUMPDEST CALLVALUE PUSH2 0x24A JUMPI PUSH1 0x60 CALLDATASIZE PUSH1 0x3 NOT ADD SLT PUSH2 0x24A JUMPI PUSH1 0x4 DUP1 CALLDATALOAD LT ISZERO PUSH2 0x24A JUMPI PUSH1 0x44 CALLDATALOAD PUSH8 0xFFFFFFFFFFFFFFFF DUP2 GT PUSH2 0x24A JUMPI CALLDATASIZE PUSH1 0x23 DUP3 ADD SLT ISZERO PUSH2 0x24A JUMPI PUSH2 0x15C3 SWAP1 CALLDATASIZE SWAP1 PUSH1 0x24 DUP2 PUSH1 0x4 ADD CALLDATALOAD SWAP2 ADD PUSH2 0x1C65 JUMP JUMPDEST PUSH1 0x24 CALLDATALOAD ISZERO PUSH2 0x1877 JUMPI PUSH1 0x8 SLOAD PUSH2 0x15D7 DUP2 PUSH2 0x21A4 JUMP JUMPDEST PUSH1 0x8 SSTORE CALLER ISZERO PUSH2 0x5D9 JUMPI PUSH1 0x1 PUSH1 0x1 PUSH1 0xA0 SHL SUB PUSH2 0x15F2 DUP3 CALLER PUSH2 0x20AD JUMP JUMPDEST AND PUSH2 0x185E JUMPI PUSH1 0x40 MLOAD PUSH2 0x1603 DUP2 PUSH2 0x1BEE JUMP JUMPDEST DUP2 DUP2 MSTORE PUSH1 0x20 DUP2 ADD SWAP3 PUSH2 0x1616 PUSH1 0x4 CALLDATALOAD PUSH2 0x1C9C JUMP JUMPDEST PUSH1 0x4 CALLDATALOAD DUP5 MSTORE PUSH1 0x40 DUP3 ADD SWAP4 CALLER DUP6 MSTORE PUSH2 0x169C PUSH1 0x60 DUP5 ADD SWAP2 PUSH1 0x24 CALLDATALOAD DUP4 MSTORE PUSH1 0x80 DUP6 ADD SWAP4 DUP5 MSTORE PUSH1 0x0 PUSH1 0xA0 DUP7 ADD MSTORE PUSH1 0x0 PUSH1 0xC0 DUP7 ADD MSTORE DUP6 PUSH1 0x0 MSTORE PUSH1 0xA PUSH1 0x20 MSTORE PUSH1 0x40 PUSH1 0x0 KECCAK256 SWAP7 DUP6 MLOAD DUP9 SSTORE PUSH1 0x1 DUP9 ADD SWAP2 MLOAD PUSH2 0x1667 DUP2 PUSH2 0x1C9C JUMP JUMPDEST PUSH2 0x1670 DUP2 PUSH2 0x1C9C JUMP JUMPDEST DUP3 SLOAD SWAP2 MLOAD PUSH1 0x1 PUSH1 0x1 PUSH1 0xA8 SHL SUB NOT SWAP1 SWAP3 AND PUSH1 0xFF SWAP2 SWAP1 SWAP2 AND OR PUSH1 0x8 SWAP2 SWAP1 SWAP2 SHL PUSH2 0x100 PUSH1 0x1 PUSH1 0xA8 SHL SUB AND OR SWAP1 SSTORE JUMP JUMPDEST MLOAD PUSH1 0x2 DUP6 ADD SSTORE MLOAD SWAP3 DUP4 MLOAD PUSH8 0xFFFFFFFFFFFFFFFF DUP2 GT PUSH2 0x150F JUMPI PUSH2 0x16C2 PUSH1 0x3 DUP4 ADD SLOAD PUSH2 0x1CBC JUMP JUMPDEST SWAP5 PUSH1 0x1F DUP7 GT PUSH2 0x1813 JUMPI JUMPDEST PUSH1 0x20 SWAP6 POP DUP6 SWAP1 PUSH1 0x1F DUP4 GT PUSH1 0x1 EQ PUSH2 0x17A0 JUMPI SWAP2 DUP1 PUSH1 0xC0 SWAP5 SWAP3 PUSH1 0x4 SWAP5 PUSH1 0x0 SWAP3 PUSH2 0x1795 JUMPI JUMPDEST POP POP DUP2 PUSH1 0x1 SHL SWAP2 PUSH1 0x0 NOT SWAP1 PUSH1 0x3 SHL SHR NOT AND OR PUSH1 0x3 DUP3 ADD SSTORE JUMPDEST ADD SWAP2 PUSH2 0x1724 PUSH1 0xA0 DUP3 ADD MLOAD ISZERO ISZERO DUP5 SWAP1 PUSH1 0xFF DUP1 NOT DUP4 SLOAD AND SWAP2 ISZERO ISZERO AND OR SWAP1 SSTORE JUMP JUMPDEST ADD MLOAD ISZERO ISZERO PUSH2 0xFF00 DUP3 SLOAD SWAP2 PUSH1 0x8 SHL AND SWAP1 PUSH2 0xFF00 NOT AND OR SWAP1 SSTORE DUP1 PUSH1 0x0 MSTORE PUSH1 0xD DUP3 MSTORE PUSH1 0x24 CALLDATALOAD PUSH1 0x40 PUSH1 0x0 KECCAK256 SSTORE PUSH1 0x40 MLOAD PUSH2 0x175A PUSH1 0x4 CALLDATALOAD PUSH2 0x1C9C JUMP JUMPDEST PUSH1 0x4 CALLDATALOAD DUP2 MSTORE PUSH1 0x24 CALLDATALOAD DUP4 DUP3 ADD MSTORE DUP2 PUSH32 0xCAD491ABEBC5CC50015F568550B64794BCC000586F53B9EC64AE3961A54DA076 PUSH1 0x40 CALLER SWAP4 LOG3 PUSH1 0x40 MLOAD SWAP1 DUP2 MSTORE RETURN JUMPDEST ADD MLOAD SWAP1 POP DUP9 DUP1 PUSH2 0x16EE JUMP JUMPDEST SWAP1 PUSH1 0x3 DUP5 ADD PUSH1 0x0 MSTORE DUP7 PUSH1 0x0 KECCAK256 SWAP2 PUSH1 0x0 JUMPDEST PUSH1 0x1F NOT DUP6 AND DUP2 LT PUSH2 0x17FC JUMPI POP SWAP3 PUSH1 0xC0 SWAP5 SWAP3 PUSH1 0x1 SWAP3 PUSH1 0x4 SWAP6 DUP4 PUSH1 0x1F NOT DUP2 AND LT PUSH2 0x17E3 JUMPI JUMPDEST POP POP POP DUP2 SHL ADD PUSH1 0x3 DUP3 ADD SSTORE PUSH2 0x1706 JUMP JUMPDEST ADD MLOAD PUSH1 0x0 NOT PUSH1 0xF8 DUP5 PUSH1 0x3 SHL AND SHR NOT AND SWAP1 SSTORE DUP9 DUP1 DUP1 PUSH2 0x17D3 JUMP JUMPDEST SWAP2 SWAP3 DUP9 PUSH1 0x1 DUP2 SWAP3 DUP7 DUP6 ADD MLOAD DUP2 SSTORE ADD SWAP5 ADD SWAP3 ADD PUSH2 0x17B0 JUMP JUMPDEST PUSH1 0x3 DUP4 ADD PUSH1 0x0 MSTORE PUSH1 0x20 PUSH1 0x0 KECCAK256 PUSH1 0x1F DUP4 ADD PUSH1 0x5 SHR DUP2 ADD SWAP7 PUSH1 0x20 DUP5 LT PUSH2 0x1854 JUMPI JUMPDEST PUSH1 0x1F ADD PUSH1 0x5 SHR ADD SWAP6 JUMPDEST DUP7 DUP2 LT PUSH2 0x1848 JUMPI POP PUSH2 0x16CC JUMP JUMPDEST PUSH1 0x0 DUP2 SSTORE PUSH1 0x1 ADD PUSH2 0x183B JUMP JUMPDEST SWAP1 SWAP7 POP DUP7 SWAP1 PUSH2 0x1832 JUMP JUMPDEST PUSH1 0x40 MLOAD PUSH4 0x39E35637 PUSH1 0xE1 SHL DUP2 MSTORE PUSH1 0x0 PUSH1 0x4 DUP3 ADD MSTORE PUSH1 0x24 SWAP1 REVERT JUMPDEST PUSH1 0x40 MLOAD PUSH3 0x461BCD PUSH1 0xE5 SHL DUP2 MSTORE PUSH1 0x20 PUSH1 0x4 DUP3 ADD MSTORE PUSH1 0x1F PUSH1 0x24 DUP3 ADD MSTORE PUSH32 0x56616C7565206D7573742062652067726561746572207468616E207A65726F00 PUSH1 0x44 DUP3 ADD MSTORE PUSH1 0x64 SWAP1 REVERT JUMPDEST CALLVALUE PUSH2 0x24A JUMPI PUSH2 0x80D PUSH2 0x18CD CALLDATASIZE PUSH2 0x1BB9 JUMP JUMPDEST SWAP2 PUSH2 0x1DC8 JUMP JUMPDEST CALLVALUE PUSH2 0x24A JUMPI PUSH1 0x20 CALLDATASIZE PUSH1 0x3 NOT ADD SLT PUSH2 0x24A JUMPI PUSH1 0x20 PUSH2 0x156F PUSH1 0x4 CALLDATALOAD PUSH2 0x22E1 JUMP JUMPDEST CALLVALUE PUSH2 0x24A JUMPI PUSH1 0x20 CALLDATASIZE PUSH1 0x3 NOT ADD SLT PUSH2 0x24A JUMPI PUSH1 0x20 PUSH1 0x6E PUSH2 0x1911 PUSH1 0x4 CALLDATALOAD PUSH2 0x22E1 JUMP JUMPDEST LT PUSH1 0x40 MLOAD SWAP1 DUP2 MSTORE RETURN JUMPDEST CALLVALUE PUSH2 0x24A JUMPI PUSH1 0x40 CALLDATASIZE PUSH1 0x3 NOT ADD SLT PUSH2 0x24A JUMPI PUSH2 0x1933 PUSH2 0x1B8D JUMP JUMPDEST PUSH1 0x24 CALLDATALOAD PUSH2 0x193F DUP2 PUSH2 0x2169 JUMP JUMPDEST CALLER ISZERO ISZERO DUP1 PUSH2 0x19EE JUMPI JUMPDEST DUP1 PUSH2 0x19C1 JUMPI JUMPDEST PUSH2 0x19A9 JUMPI PUSH1 0x1 PUSH1 0x1 PUSH1 0xA0 SHL SUB SWAP3 DUP4 AND SWAP3 DUP3 SWAP2 DUP5 SWAP2 AND PUSH32 0x8C5BE1E5EBEC7D5BD14F71427D1E84F3DD0314C0F7B2291E5B200AC8C7C3B925 PUSH1 0x0 DUP1 LOG4 PUSH1 0x0 SWAP1 DUP2 MSTORE PUSH1 0x4 PUSH1 0x20 MSTORE PUSH1 0x40 SWAP1 KECCAK256 DUP1 SLOAD PUSH1 0x1 PUSH1 0x1 PUSH1 0xA0 SHL SUB NOT AND SWAP1 SWAP2 OR SWAP1 SSTORE STOP JUMPDEST PUSH1 0x40 MLOAD PUSH4 0xA9FBF51F PUSH1 0xE0 SHL DUP2 MSTORE CALLER PUSH1 0x4 DUP3 ADD MSTORE PUSH1 0x24 SWAP1 REVERT JUMPDEST POP PUSH1 0x1 DUP1 PUSH1 0xA0 SHL SUB DUP2 AND PUSH1 0x0 MSTORE PUSH1 0x5 PUSH1 0x20 MSTORE PUSH1 0x40 PUSH1 0x0 KECCAK256 CALLER PUSH1 0x0 MSTORE PUSH1 0x20 MSTORE PUSH1 0xFF PUSH1 0x40 PUSH1 0x0 KECCAK256 SLOAD AND ISZERO PUSH2 0x194E JUMP JUMPDEST POP PUSH1 0x1 PUSH1 0x1 PUSH1 0xA0 SHL SUB DUP2 AND CALLER EQ ISZERO PUSH2 0x1948 JUMP JUMPDEST CALLVALUE PUSH2 0x24A JUMPI PUSH1 0x20 CALLDATASIZE PUSH1 0x3 NOT ADD SLT PUSH2 0x24A JUMPI PUSH1 0x4 CALLDATALOAD PUSH2 0x1A1E DUP2 PUSH2 0x2169 JUMP JUMPDEST POP PUSH1 0x0 MSTORE PUSH1 0x4 PUSH1 0x20 MSTORE PUSH1 0x20 PUSH1 0x1 DUP1 PUSH1 0xA0 SHL SUB PUSH1 0x40 PUSH1 0x0 KECCAK256 SLOAD AND PUSH1 0x40 MLOAD SWAP1 DUP2 MSTORE RETURN JUMPDEST CALLVALUE PUSH2 0x24A JUMPI PUSH1 0x0 CALLDATASIZE PUSH1 0x3 NOT ADD SLT PUSH2 0x24A JUMPI PUSH1 0x40 MLOAD PUSH1 0x0 DUP1 SLOAD PUSH2 0x1A60 DUP2 PUSH2 0x1CBC JUMP JUMPDEST DUP1 DUP5 MSTORE SWAP1 PUSH1 0x1 SWAP1 DUP2 DUP2 AND SWAP1 DUP2 ISZERO PUSH2 0xE34 JUMPI POP PUSH1 0x1 EQ PUSH2 0x1A89 JUMPI PUSH2 0x703 DUP5 PUSH2 0x6EF DUP2 DUP7 SUB DUP3 PUSH2 0x1C27 JUMP JUMPDEST PUSH1 0x0 DUP1 DUP1 MSTORE SWAP3 POP PUSH32 0x290DECD9548B62A8D60345A988386FC84BA6BC95484008F6362F93160EF3E563 JUMPDEST DUP3 DUP5 LT PUSH2 0x1ACA JUMPI POP POP POP DUP2 ADD PUSH1 0x20 ADD PUSH2 0x6EF DUP3 PUSH2 0xDCB JUMP JUMPDEST DUP1 SLOAD PUSH1 0x20 DUP6 DUP8 ADD DUP2 ADD SWAP2 SWAP1 SWAP2 MSTORE SWAP1 SWAP4 ADD SWAP3 DUP2 ADD PUSH2 0x1AB2 JUMP JUMPDEST CALLVALUE PUSH2 0x24A JUMPI PUSH1 0x20 CALLDATASIZE PUSH1 0x3 NOT ADD SLT PUSH2 0x24A JUMPI PUSH1 0x4 CALLDATALOAD SWAP1 PUSH4 0xFFFFFFFF PUSH1 0xE0 SHL DUP3 AND DUP1 SWAP3 SUB PUSH2 0x24A JUMPI PUSH1 0x20 SWAP2 PUSH4 0x80AC58CD PUSH1 0xE0 SHL DUP2 EQ SWAP1 DUP2 ISZERO PUSH2 0x1B3C JUMPI JUMPDEST DUP2 ISZERO PUSH2 0x1B2B JUMPI JUMPDEST POP ISZERO ISZERO DUP2 MSTORE RETURN JUMPDEST PUSH4 0x1FFC9A7 PUSH1 0xE0 SHL EQ SWAP1 POP DUP4 PUSH2 0x1B24 JUMP JUMPDEST PUSH4 0x5B5E139F PUSH1 0xE0 SHL DUP2 EQ SWAP2 POP PUSH2 0x1B1D JUMP JUMPDEST SWAP2 SWAP1 DUP3 MLOAD SWAP3 DUP4 DUP3 MSTORE PUSH1 0x0 JUMPDEST DUP5 DUP2 LT PUSH2 0x1B79 JUMPI POP POP DUP3 PUSH1 0x0 PUSH1 0x20 DUP1 SWAP5 SWAP6 DUP5 ADD ADD MSTORE PUSH1 0x1F DUP1 NOT SWAP2 ADD AND ADD ADD SWAP1 JUMP JUMPDEST PUSH1 0x20 DUP2 DUP4 ADD DUP2 ADD MLOAD DUP5 DUP4 ADD DUP3 ADD MSTORE ADD PUSH2 0x1B58 JUMP JUMPDEST PUSH1 0x4 CALLDATALOAD SWAP1 PUSH1 0x1 PUSH1 0x1 PUSH1 0xA0 SHL SUB DUP3 AND DUP3 SUB PUSH2 0x24A JUMPI JUMP JUMPDEST PUSH1 0x24 CALLDATALOAD SWAP1 PUSH1 0x1 PUSH1 0x1 PUSH1 0xA0 SHL SUB DUP3 AND DUP3 SUB PUSH2 0x24A JUMPI JUMP JUMPDEST PUSH1 0x60 SWAP1 PUSH1 0x3 NOT ADD SLT PUSH2 0x24A JUMPI PUSH1 0x1 PUSH1 0x1 PUSH1 0xA0 SHL SUB SWAP1 PUSH1 0x4 CALLDATALOAD DUP3 DUP2 AND DUP2 SUB PUSH2 0x24A JUMPI SWAP2 PUSH1 0x24 CALLDATALOAD SWAP1 DUP2 AND DUP2 SUB PUSH2 0x24A JUMPI SWAP1 PUSH1 0x44 CALLDATALOAD SWAP1 JUMP JUMPDEST PUSH1 0xE0 DUP2 ADD SWAP1 DUP2 LT PUSH8 0xFFFFFFFFFFFFFFFF DUP3 GT OR PUSH2 0x150F JUMPI PUSH1 0x40 MSTORE JUMP JUMPDEST PUSH2 0x140 DUP2 ADD SWAP1 DUP2 LT PUSH8 0xFFFFFFFFFFFFFFFF DUP3 GT OR PUSH2 0x150F JUMPI PUSH1 0x40 MSTORE JUMP JUMPDEST SWAP1 PUSH1 0x1F DUP1 NOT SWAP2 ADD AND DUP2 ADD SWAP1 DUP2 LT PUSH8 0xFFFFFFFFFFFFFFFF DUP3 GT OR PUSH2 0x150F JUMPI PUSH1 0x40 MSTORE JUMP JUMPDEST PUSH8 0xFFFFFFFFFFFFFFFF DUP2 GT PUSH2 0x150F JUMPI PUSH1 0x1F ADD PUSH1 0x1F NOT AND PUSH1 0x20 ADD SWAP1 JUMP JUMPDEST SWAP3 SWAP2 SWAP3 PUSH2 0x1C71 DUP3 PUSH2 0x1C49 JUMP JUMPDEST SWAP2 PUSH2 0x1C7F PUSH1 0x40 MLOAD SWAP4 DUP5 PUSH2 0x1C27 JUMP JUMPDEST DUP3 SWAP5 DUP2 DUP5 MSTORE DUP2 DUP4 ADD GT PUSH2 0x24A JUMPI DUP3 DUP2 PUSH1 0x20 SWAP4 DUP5 PUSH1 0x0 SWAP7 ADD CALLDATACOPY ADD ADD MSTORE JUMP JUMPDEST PUSH1 0x4 GT ISZERO PUSH2 0x1CA6 JUMPI JUMP JUMPDEST PUSH4 0x4E487B71 PUSH1 0xE0 SHL PUSH1 0x0 MSTORE PUSH1 0x21 PUSH1 0x4 MSTORE PUSH1 0x24 PUSH1 0x0 REVERT JUMPDEST SWAP1 PUSH1 0x1 DUP3 DUP2 SHR SWAP3 AND DUP1 ISZERO PUSH2 0x1CEC JUMPI JUMPDEST PUSH1 0x20 DUP4 LT EQ PUSH2 0x1CD6 JUMPI JUMP JUMPDEST PUSH4 0x4E487B71 PUSH1 0xE0 SHL PUSH1 0x0 MSTORE PUSH1 0x22 PUSH1 0x4 MSTORE PUSH1 0x24 PUSH1 0x0 REVERT JUMPDEST SWAP2 PUSH1 0x7F AND SWAP2 PUSH2 0x1CCB JUMP JUMPDEST SWAP1 PUSH1 0x40 MLOAD SWAP2 DUP3 PUSH1 0x0 DUP3 SLOAD SWAP3 PUSH2 0x1D0A DUP5 PUSH2 0x1CBC JUMP JUMPDEST SWAP1 DUP2 DUP5 MSTORE PUSH1 0x1 SWAP5 DUP6 DUP2 AND SWAP1 DUP2 PUSH1 0x0 EQ PUSH2 0x1D79 JUMPI POP PUSH1 0x1 EQ PUSH2 0x1D36 JUMPI JUMPDEST POP POP PUSH2 0x1D34 SWAP3 POP SUB DUP4 PUSH2 0x1C27 JUMP JUMPDEST JUMP JUMPDEST SWAP1 SWAP4 SWAP2 POP PUSH1 0x0 MSTORE PUSH1 0x20 SWAP1 DUP2 PUSH1 0x0 KECCAK256 SWAP4 PUSH1 0x0 SWAP2 JUMPDEST DUP2 DUP4 LT PUSH2 0x1D61 JUMPI POP POP PUSH2 0x1D34 SWAP4 POP DUP3 ADD ADD CODESIZE DUP1 PUSH2 0x1D26 JUMP JUMPDEST DUP6 SLOAD DUP9 DUP5 ADD DUP6 ADD MSTORE SWAP5 DUP6 ADD SWAP5 DUP8 SWAP5 POP SWAP2 DUP4 ADD SWAP2 PUSH2 0x1D49 JUMP JUMPDEST SWAP2 POP POP PUSH2 0x1D34 SWAP5 POP PUSH1 0x20 SWAP3 POP PUSH1 0xFF NOT AND DUP3 DUP5 ADD MSTORE ISZERO ISZERO PUSH1 0x5 SHL DUP3 ADD ADD CODESIZE DUP1 PUSH2 0x1D26 JUMP JUMPDEST PUSH1 0x6 SLOAD PUSH1 0x1 PUSH1 0x1 PUSH1 0xA0 SHL SUB AND CALLER SUB PUSH2 0x1DB0 JUMPI JUMP JUMPDEST PUSH1 0x40 MLOAD PUSH4 0x118CDAA7 PUSH1 0xE0 SHL DUP2 MSTORE CALLER PUSH1 0x4 DUP3 ADD MSTORE PUSH1 0x24 SWAP1 REVERT JUMPDEST SWAP1 PUSH1 0x1 PUSH1 0x1 PUSH1 0xA0 SHL SUB SWAP1 DUP2 AND DUP1 ISZERO PUSH2 0x5D9 JUMPI PUSH1 0x0 SWAP2 DUP5 DUP4 MSTORE DUP5 PUSH1 0x20 SWAP3 PUSH1 0x2 DUP5 MSTORE PUSH1 0x40 SWAP4 DUP4 DUP6 DUP8 KECCAK256 SLOAD AND SWAP6 DUP7 SWAP2 CALLER ISZERO ISZERO DUP1 PUSH2 0x1EC2 JUMPI JUMPDEST POP SWAP1 PUSH1 0x2 PUSH32 0xDDF252AD1BE2C89B69C2B068FC378DAA952BA7F163C4A11628F55A4DF523B3EF SWAP3 DUP5 PUSH2 0x1E8F JUMPI JUMPDEST DUP6 DUP4 MSTORE PUSH1 0x3 DUP2 MSTORE DUP9 DUP4 KECCAK256 DUP1 SLOAD PUSH1 0x1 ADD SWAP1 SSTORE DUP7 DUP4 MSTORE MSTORE DUP7 DUP2 KECCAK256 DUP1 SLOAD PUSH1 0x1 PUSH1 0x1 PUSH1 0xA0 SHL SUB NOT AND DUP6 OR SWAP1 SSTORE DUP1 LOG4 DUP4 AND DUP3 SUB PUSH2 0x1E61 JUMPI POP POP POP POP JUMP JUMPDEST MLOAD PUSH4 0x64283D7B PUSH1 0xE0 SHL DUP2 MSTORE PUSH1 0x1 PUSH1 0x1 PUSH1 0xA0 SHL SUB SWAP3 DUP4 AND PUSH1 0x4 DUP3 ADD MSTORE PUSH1 0x24 DUP2 ADD SWAP4 SWAP1 SWAP4 MSTORE AND PUSH1 0x44 DUP3 ADD MSTORE PUSH1 0x64 SWAP1 REVERT JUMPDEST PUSH1 0x0 DUP8 DUP2 MSTORE PUSH1 0x4 PUSH1 0x20 MSTORE PUSH1 0x40 SWAP1 KECCAK256 DUP1 SLOAD PUSH1 0x1 PUSH1 0x1 PUSH1 0xA0 SHL SUB NOT AND SWAP1 SSTORE DUP5 DUP4 MSTORE PUSH1 0x3 DUP2 MSTORE DUP9 DUP4 KECCAK256 DUP1 SLOAD PUSH1 0x0 NOT ADD SWAP1 SSTORE PUSH2 0x1E29 JUMP JUMPDEST SWAP2 SWAP4 SWAP5 POP SWAP2 POP DUP1 PUSH2 0x1F17 JUMPI JUMPDEST ISZERO PUSH2 0x1EDE JUMPI DUP8 SWAP3 SWAP2 DUP7 SWAP2 CODESIZE PUSH2 0x1DFD JUMP JUMPDEST DUP5 DUP9 DUP8 PUSH2 0x1EFB JUMPI PUSH1 0x24 SWAP2 MLOAD SWAP1 PUSH4 0x7E273289 PUSH1 0xE0 SHL DUP3 MSTORE PUSH1 0x4 DUP3 ADD MSTORE REVERT JUMPDEST PUSH1 0x44 SWAP2 MLOAD SWAP1 PUSH4 0x177E802F PUSH1 0xE0 SHL DUP3 MSTORE CALLER PUSH1 0x4 DUP4 ADD MSTORE PUSH1 0x24 DUP3 ADD MSTORE REVERT JUMPDEST POP CALLER DUP7 EQ DUP1 ISZERO PUSH2 0x1F3C JUMPI JUMPDEST DUP1 PUSH2 0x1ECE JUMPI POP DUP8 DUP3 MSTORE PUSH1 0x4 DUP2 MSTORE CALLER DUP5 DUP7 DUP5 KECCAK256 SLOAD AND EQ PUSH2 0x1ECE JUMP JUMPDEST POP DUP6 DUP3 MSTORE PUSH1 0x5 DUP2 MSTORE DUP5 DUP3 KECCAK256 CALLER DUP4 MSTORE DUP2 MSTORE PUSH1 0xFF DUP6 DUP4 KECCAK256 SLOAD AND PUSH2 0x1F22 JUMP JUMPDEST SWAP3 SWAP1 SWAP3 PUSH2 0x1F66 DUP4 DUP6 DUP4 PUSH2 0x1DC8 JUMP JUMPDEST DUP4 EXTCODESIZE PUSH2 0x1F73 JUMPI JUMPDEST POP POP POP POP JUMP JUMPDEST PUSH1 0x40 MLOAD PUSH4 0xA85BD01 PUSH1 0xE1 SHL DUP1 DUP3 MSTORE CALLER PUSH1 0x4 DUP4 ADD MSTORE PUSH1 0x1 PUSH1 0x1 PUSH1 0xA0 SHL SUB SWAP3 DUP4 AND PUSH1 0x24 DUP4 ADD MSTORE PUSH1 0x44 DUP3 ADD SWAP5 SWAP1 SWAP5 MSTORE PUSH1 0x80 PUSH1 0x64 DUP3 ADD MSTORE SWAP5 SWAP4 AND SWAP3 PUSH1 0x20 SWAP3 SWAP1 SWAP2 DUP6 SWAP1 PUSH2 0x1FBF SWAP1 PUSH1 0x84 DUP4 ADD SWAP1 PUSH2 0x1B4D JUMP JUMPDEST SUB SWAP5 DUP4 DUP2 PUSH1 0x0 SWAP8 DUP2 DUP10 DUP10 GAS CALL DUP7 SWAP2 DUP2 PUSH2 0x2069 JUMPI JUMPDEST POP PUSH2 0x2034 JUMPI POP POP POP RETURNDATASIZE PUSH1 0x0 EQ PUSH2 0x202B JUMPI RETURNDATASIZE PUSH2 0x1FED DUP2 PUSH2 0x1C49 JUMP JUMPDEST SWAP1 PUSH2 0x1FFB PUSH1 0x40 MLOAD SWAP3 DUP4 PUSH2 0x1C27 JUMP JUMPDEST DUP2 MSTORE DUP1 SWAP4 DUP3 RETURNDATASIZE SWAP3 ADD RETURNDATACOPY JUMPDEST DUP3 MLOAD SWAP3 DUP4 PUSH2 0x2026 JUMPI PUSH1 0x40 MLOAD PUSH4 0x32505749 PUSH1 0xE1 SHL DUP2 MSTORE PUSH1 0x4 DUP2 ADD DUP5 SWAP1 MSTORE PUSH1 0x24 SWAP1 REVERT JUMPDEST ADD SWAP1 POP REVERT JUMPDEST PUSH1 0x60 SWAP3 POP PUSH2 0x2005 JUMP JUMPDEST SWAP2 SWAP5 POP SWAP2 POP PUSH4 0xFFFFFFFF PUSH1 0xE0 SHL AND SUB PUSH2 0x2051 JUMPI POP CODESIZE DUP1 DUP1 DUP1 PUSH2 0x1F6D JUMP JUMPDEST PUSH1 0x24 SWAP1 PUSH1 0x40 MLOAD SWAP1 PUSH4 0x32505749 PUSH1 0xE1 SHL DUP3 MSTORE PUSH1 0x4 DUP3 ADD MSTORE REVERT JUMPDEST SWAP1 SWAP2 POP DUP5 DUP2 DUP2 RETURNDATASIZE DUP4 GT PUSH2 0x20A6 JUMPI JUMPDEST PUSH2 0x2081 DUP2 DUP4 PUSH2 0x1C27 JUMP JUMPDEST DUP2 ADD SUB SLT PUSH2 0x20A2 JUMPI MLOAD PUSH1 0x1 PUSH1 0x1 PUSH1 0xE0 SHL SUB NOT DUP2 AND DUP2 SUB PUSH2 0x20A2 JUMPI SWAP1 CODESIZE PUSH2 0x1FD3 JUMP JUMPDEST DUP7 DUP1 REVERT JUMPDEST POP RETURNDATASIZE PUSH2 0x2077 JUMP JUMPDEST PUSH1 0x0 DUP3 DUP2 MSTORE PUSH1 0x2 PUSH1 0x20 MSTORE PUSH1 0x40 DUP2 KECCAK256 SLOAD PUSH1 0x1 PUSH1 0x1 PUSH1 0xA0 SHL SUB SWAP1 DUP2 AND SWAP4 SWAP3 DUP5 SWAP2 PUSH32 0xDDF252AD1BE2C89B69C2B068FC378DAA952BA7F163C4A11628F55A4DF523B3EF SWAP2 DUP4 PUSH2 0x2134 JUMPI JUMPDEST AND SWAP3 DUP4 PUSH2 0x211C JUMPI JUMPDEST DUP5 DUP2 MSTORE PUSH1 0x2 PUSH1 0x20 MSTORE PUSH1 0x40 DUP2 KECCAK256 DUP1 SLOAD PUSH1 0x1 PUSH1 0x1 PUSH1 0xA0 SHL SUB NOT AND DUP6 OR SWAP1 SSTORE DUP1 LOG4 SWAP1 JUMP JUMPDEST DUP4 DUP2 MSTORE PUSH1 0x3 PUSH1 0x20 MSTORE PUSH1 0x40 DUP2 KECCAK256 PUSH1 0x1 DUP2 SLOAD ADD SWAP1 SSTORE PUSH2 0x20FB JUMP JUMPDEST PUSH1 0x0 DUP7 DUP2 MSTORE PUSH1 0x4 PUSH1 0x20 MSTORE PUSH1 0x40 SWAP1 KECCAK256 DUP1 SLOAD PUSH1 0x1 PUSH1 0x1 PUSH1 0xA0 SHL SUB NOT AND SWAP1 SSTORE DUP4 DUP6 MSTORE PUSH1 0x3 PUSH1 0x20 MSTORE PUSH1 0x40 DUP6 KECCAK256 DUP1 SLOAD PUSH1 0x0 NOT ADD SWAP1 SSTORE PUSH2 0x20F3 JUMP JUMPDEST PUSH1 0x0 DUP2 DUP2 MSTORE PUSH1 0x2 PUSH1 0x20 MSTORE PUSH1 0x40 SWAP1 KECCAK256 SLOAD PUSH1 0x1 PUSH1 0x1 PUSH1 0xA0 SHL SUB AND SWAP1 DUP2 ISZERO PUSH2 0x218C JUMPI POP SWAP1 JUMP JUMPDEST PUSH1 0x24 SWAP1 PUSH1 0x40 MLOAD SWAP1 PUSH4 0x7E273289 PUSH1 0xE0 SHL DUP3 MSTORE PUSH1 0x4 DUP3 ADD MSTORE REVERT JUMPDEST PUSH1 0x0 NOT DUP2 EQ PUSH2 0xCCD JUMPI PUSH1 0x1 ADD SWAP1 JUMP JUMPDEST ISZERO PUSH2 0x21BA JUMPI JUMP JUMPDEST PUSH1 0x40 MLOAD PUSH3 0x461BCD PUSH1 0xE5 SHL DUP2 MSTORE PUSH1 0x20 PUSH1 0x4 DUP3 ADD MSTORE PUSH1 0x14 PUSH1 0x24 DUP3 ADD MSTORE PUSH20 0x105CDCD95D08191BD95CC81B9BDD08195E1A5CDD PUSH1 0x62 SHL PUSH1 0x44 DUP3 ADD MSTORE PUSH1 0x64 SWAP1 REVERT JUMPDEST DUP2 DUP2 MUL SWAP3 SWAP2 DUP2 ISZERO SWAP2 DUP5 DIV EQ OR ISZERO PUSH2 0xCCD JUMPI JUMP JUMPDEST SWAP2 SWAP1 DUP3 SUB SWAP2 DUP3 GT PUSH2 0xCCD JUMPI JUMP JUMPDEST PUSH1 0x2 PUSH1 0x7 SLOAD EQ PUSH2 0x2227 JUMPI PUSH1 0x2 PUSH1 0x7 SSTORE JUMP JUMPDEST PUSH1 0x40 MLOAD PUSH4 0x3EE5AEB5 PUSH1 0xE0 SHL DUP2 MSTORE PUSH1 0x4 SWAP1 REVERT JUMPDEST ISZERO PUSH2 0x2240 JUMPI JUMP JUMPDEST PUSH1 0x40 MLOAD PUSH3 0x461BCD PUSH1 0xE5 SHL DUP2 MSTORE PUSH1 0x20 PUSH1 0x4 DUP3 ADD MSTORE PUSH1 0xF PUSH1 0x24 DUP3 ADD MSTORE PUSH15 0x4C6F616E206E6F7420616374697665 PUSH1 0x88 SHL PUSH1 0x44 DUP3 ADD MSTORE PUSH1 0x64 SWAP1 REVERT JUMPDEST PUSH1 0x0 MSTORE PUSH1 0xB PUSH1 0x20 MSTORE PUSH1 0x40 PUSH1 0x0 KECCAK256 PUSH1 0x1 PUSH1 0xFF PUSH1 0x8 DUP4 ADD SLOAD AND PUSH2 0x2297 DUP2 PUSH2 0x1C9C JUMP JUMPDEST SUB PUSH2 0x22DB JUMPI PUSH3 0x37B1D0 PUSH2 0x22CE PUSH3 0x15180 PUSH2 0x22B5 PUSH1 0x7 DUP6 ADD SLOAD TIMESTAMP PUSH2 0x2209 JUMP JUMPDEST DIV PUSH2 0x22C9 PUSH1 0x5 PUSH1 0x4 DUP7 ADD SLOAD SWAP6 ADD SLOAD DUP6 PUSH2 0x21F6 JUMP JUMPDEST PUSH2 0x21F6 JUMP JUMPDEST DIV DUP2 ADD DUP1 SWAP2 GT PUSH2 0xCCD JUMPI SWAP1 JUMP JUMPDEST POP PUSH1 0x0 SWAP1 JUMP JUMPDEST PUSH1 0x0 SWAP1 DUP1 DUP3 MSTORE PUSH1 0xB PUSH1 0x20 MSTORE PUSH1 0x40 DUP3 KECCAK256 PUSH1 0x1 PUSH1 0xFF PUSH1 0x8 DUP4 ADD SLOAD AND PUSH2 0x2303 DUP2 PUSH2 0x1C9C JUMP JUMPDEST SUB PUSH2 0x2354 JUMPI PUSH1 0x3 ADD SLOAD DUP3 MSTORE PUSH1 0xD PUSH1 0x20 MSTORE PUSH2 0x2321 PUSH1 0x40 DUP4 KECCAK256 SLOAD SWAP2 PUSH2 0x2277 JUMP JUMPDEST SWAP2 DUP3 ISZERO PUSH2 0x2354 JUMPI PUSH1 0x64 DUP3 MUL SWAP2 DUP1 DUP4 DIV PUSH1 0x64 EQ SWAP1 ISZERO OR ISZERO PUSH2 0x2340 JUMPI POP DIV SWAP1 JUMP JUMPDEST PUSH4 0x4E487B71 PUSH1 0xE0 SHL DUP2 MSTORE PUSH1 0x11 PUSH1 0x4 MSTORE PUSH1 0x24 SWAP1 REVERT JUMPDEST POP POP POP PUSH1 0x0 NOT SWAP1 JUMP INVALID LOG2 PUSH5 0x6970667358 0x22 SLT KECCAK256 0xB0 SHR MSTORE 0xE3 0xD2 DIV PUSH6 0x88FD2C72BE72 0x1E 0x5C EQ LOG3 BASEFEE 0x23 SWAP12 REVERT PUSH12 0x5685028754F35619C1566473 PUSH16 0x6C634300081400330000000000000000 "},"methodIdentifiers":{"LIQUIDATION_THRESHOLD()":"90a8ae9b","LTV_RATIO()":"5696b189","addVerifier(address)":"9000b3d6","approve(address,uint256)":"095ea7b3","assetPrices(uint256)":"4191c45b","authorizedVerifiers(address)":"9a891716","balanceOf(address)":"70a08231","calculateHealthFactor(uint256)":"23a4deb5","calculateTotalOwed(uint256)":"29194ee3","createLoanRequest(uint256,uint256,uint256,uint256)":"95e188b1","fundLoan(uint256)":"846b909a","getApproved(uint256)":"081812fc","getAsset(uint256)":"eac8f5b8","getLoan(uint256)":"504006ca","isApprovedForAll(address,address)":"e985e9c5","isLiquidatable(uint256)":"211a4443","liquidateLoan(uint256)":"ccdd9f5d","loans(uint256)":"e1ec3c68","name()":"06fdde03","nextLoanId()":"87c51459","nextTokenId()":"75794a3c","owner()":"8da5cb5b","ownerOf(uint256)":"6352211e","removeVerifier(address)":"ca2dfd0a","renounceOwnership()":"715018a6","repayLoan(uint256)":"ab7b1c89","rwaAssets(uint256)":"5636e24a","safeTransferFrom(address,address,uint256)":"42842e0e","safeTransferFrom(address,address,uint256,bytes)":"b88d4fde","setApprovalForAll(address,bool)":"a22cb465","supportsInterface(bytes4)":"01ffc9a7","symbol()":"95d89b41","tokenURI(uint256)":"c87b56dd","tokenizeAsset(uint8,uint256,string)":"241e87dd","transferFrom(address,address,uint256)":"23b872dd","transferOwnership(address)":"f2fde38b","updateAssetPrice(uint256,uint256)":"c4479ec6","verifyAsset(uint256)":"59fd285c"}}}}}