{"contracts/LendBitZeroFixed.sol":{"LendBitZeroFixed":{"abi":[{"inputs":[],"stateMutability":"nonpayable","type":"constructor"},{"inputs":[{"internalType":"address","name":"sender","type":"address"},{"internalType":"uint256","name":"tokenId","type":"uint256"},{"internalType":"address","name":"owner","type":"address"}],"name":"ERC721IncorrectOwner","type":"error"},{"inputs":[{"internalType":"address","name":"operator","type":"address"},{"internalType":"uint256","name":"tokenId","type":"uint256"}],"name":"ERC721InsufficientApproval","type":"error"},{"inputs":[{"internalType":"address","name":"approver","type":"address"}],"name":"ERC721InvalidApprover","type":"error"},{"inputs":[{"internalType":"address","name":"operator","type":"address"}],"name":"ERC721InvalidOperator","type":"error"},{"inputs":[{"internalType":"address","name":"owner","type":"address"}],"name":"ERC721InvalidOwner","type":"error"},{"inputs":[{"internalType":"address","name":"receiver","type":"address"}],"name":"ERC721InvalidReceiver","type":"error"},{"inputs":[{"internalType":"address","name":"sender","type":"address"}],"name":"ERC721InvalidSender","type":"error"},{"inputs":[{"internalType":"uint256","name":"tokenId","type":"uint256"}],"name":"ERC721NonexistentToken","type":"error"},{"inputs":[{"internalType":"address","name":"owner","type":"address"}],"name":"OwnableInvalidOwner","type":"error"},{"inputs":[{"internalType":"address","name":"account","type":"address"}],"name":"OwnableUnauthorizedAccount","type":"error"},{"inputs":[],"name":"ReentrancyGuardReentrantCall","type":"error"},{"anonymous":false,"inputs":[{"indexed":true,"internalType":"address","name":"owner","type":"address"},{"indexed":true,"internalType":"address","name":"approved","type":"address"},{"indexed":true,"internalType":"uint256","name":"tokenId","type":"uint256"}],"name":"Approval","type":"event"},{"anonymous":false,"inputs":[{"indexed":true,"internalType":"address","name":"owner","type":"address"},{"indexed":true,"internalType":"address","name":"operator","type":"address"},{"indexed":false,"internalType":"bool","name":"approved","type":"bool"}],"name":"ApprovalForAll","type":"event"},{"anonymous":false,"inputs":[{"indexed":true,"internalType":"uint256","name":"tokenId","type":"uint256"},{"indexed":true,"internalType":"address","name":"verifier","type":"address"}],"name":"AssetApproved","type":"event"},{"anonymous":false,"inputs":[{"indexed":true,"internalType":"uint256","name":"tokenId","type":"uint256"},{"indexed":true,"internalType":"address","name":"verifier","type":"address"},{"indexed":false,"internalType":"string","name":"reason","type":"string"}],"name":"AssetRejected","type":"event"},{"anonymous":false,"inputs":[{"indexed":true,"internalType":"uint256","name":"tokenId","type":"uint256"},{"indexed":true,"internalType":"address","name":"owner","type":"address"},{"indexed":false,"internalType":"enum LendBitZeroFixed.AssetType","name":"assetType","type":"uint8"},{"indexed":false,"internalType":"uint256","name":"value","type":"uint256"},{"indexed":false,"internalType":"string","name":"location","type":"string"}],"name":"AssetTokenized","type":"event"},{"anonymous":false,"inputs":[{"indexed":true,"internalType":"uint256","name":"loanId","type":"uint256"},{"indexed":true,"internalType":"uint256","name":"requestId","type":"uint256"},{"indexed":true,"internalType":"address","name":"lender","type":"address"},{"indexed":false,"internalType":"uint256","name":"amount","type":"uint256"}],"name":"LoanFunded","type":"event"},{"anonymous":false,"inputs":[{"indexed":true,"internalType":"uint256","name":"loanId","type":"uint256"},{"indexed":true,"internalType":"address","name":"liquidator","type":"address"},{"indexed":false,"internalType":"uint256","name":"collateralValue","type":"uint256"}],"name":"LoanLiquidated","type":"event"},{"anonymous":false,"inputs":[{"indexed":true,"internalType":"uint256","name":"loanId","type":"uint256"},{"indexed":true,"internalType":"address","name":"borrower","type":"address"},{"indexed":false,"internalType":"uint256","name":"amount","type":"uint256"},{"indexed":false,"internalType":"uint256","name":"remaining","type":"uint256"}],"name":"LoanRepayment","type":"event"},{"anonymous":false,"inputs":[{"indexed":true,"internalType":"uint256","name":"requestId","type":"uint256"},{"indexed":true,"internalType":"address","name":"borrower","type":"address"},{"indexed":true,"internalType":"uint256","name":"collateralTokenId","type":"uint256"},{"indexed":false,"internalType":"uint256","name":"amount","type":"uint256"},{"indexed":false,"internalType":"uint256","name":"interestRate","type":"uint256"}],"name":"LoanRequested","type":"event"},{"anonymous":false,"inputs":[{"indexed":true,"internalType":"address","name":"previousOwner","type":"address"},{"indexed":true,"internalType":"address","name":"newOwner","type":"address"}],"name":"OwnershipTransferred","type":"event"},{"anonymous":false,"inputs":[{"indexed":true,"internalType":"uint256","name":"tokenId","type":"uint256"},{"indexed":false,"internalType":"uint256","name":"oldPrice","type":"uint256"},{"indexed":false,"internalType":"uint256","name":"newPrice","type":"uint256"}],"name":"PriceUpdated","type":"event"},{"anonymous":false,"inputs":[{"indexed":true,"internalType":"address","name":"from","type":"address"},{"indexed":true,"internalType":"address","name":"to","type":"address"},{"indexed":true,"internalType":"uint256","name":"tokenId","type":"uint256"}],"name":"Transfer","type":"event"},{"inputs":[],"name":"LIQUIDATION_THRESHOLD","outputs":[{"internalType":"uint256","name":"","type":"uint256"}],"stateMutability":"view","type":"function"},{"inputs":[],"name":"LTV_RATIO","outputs":[{"internalType":"uint256","name":"","type":"uint256"}],"stateMutability":"view","type":"function"},{"inputs":[],"name":"PROTOCOL_FEE","outputs":[{"internalType":"uint256","name":"","type":"uint256"}],"stateMutability":"view","type":"function"},{"inputs":[{"internalType":"address","name":"_oracle","type":"address"}],"name":"addOracle","outputs":[],"stateMutability":"nonpayable","type":"function"},{"inputs":[{"internalType":"address","name":"_verifier","type":"address"}],"name":"addVerifier","outputs":[],"stateMutability":"nonpayable","type":"function"},{"inputs":[{"internalType":"address","name":"to","type":"address"},{"internalType":"uint256","name":"tokenId","type":"uint256"}],"name":"approve","outputs":[],"stateMutability":"nonpayable","type":"function"},{"inputs":[{"internalType":"uint256","name":"","type":"uint256"}],"name":"assetPrices","outputs":[{"internalType":"uint256","name":"","type":"uint256"}],"stateMutability":"view","type":"function"},{"inputs":[{"internalType":"uint256","name":"","type":"uint256"}],"name":"assets","outputs":[{"internalType":"uint256","name":"tokenId","type":"uint256"},{"internalType":"enum LendBitZeroFixed.AssetType","name":"assetType","type":"uint8"},{"internalType":"address","name":"owner","type":"address"},{"internalType":"uint256","name":"currentValue","type":"uint256"},{"internalType":"string","name":"metadataURI","type":"string"},{"internalType":"string","name":"description","type":"string"},{"internalType":"string","name":"location","type":"string"},{"internalType":"bool","name":"isVerified","type":"bool"},{"internalType":"bool","name":"isLocked","type":"bool"},{"internalType":"enum LendBitZeroFixed.ListingStatus","name":"approvalStatus","type":"uint8"},{"internalType":"uint256","name":"createdAt","type":"uint256"}],"stateMutability":"view","type":"function"},{"inputs":[{"internalType":"address","name":"","type":"address"}],"name":"authorizedOracles","outputs":[{"internalType":"bool","name":"","type":"bool"}],"stateMutability":"view","type":"function"},{"inputs":[{"internalType":"address","name":"","type":"address"}],"name":"authorizedVerifiers","outputs":[{"internalType":"bool","name":"","type":"bool"}],"stateMutability":"view","type":"function"},{"inputs":[{"internalType":"address","name":"owner","type":"address"}],"name":"balanceOf","outputs":[{"internalType":"uint256","name":"","type":"uint256"}],"stateMutability":"view","type":"function"},{"inputs":[{"internalType":"uint256","name":"_loanId","type":"uint256"}],"name":"calculateHealthFactor","outputs":[{"internalType":"uint256","name":"","type":"uint256"}],"stateMutability":"view","type":"function"},{"inputs":[{"internalType":"uint256","name":"_loanId","type":"uint256"}],"name":"calculateTotalOwed","outputs":[{"internalType":"uint256","name":"","type":"uint256"}],"stateMutability":"view","type":"function"},{"inputs":[{"internalType":"uint256","name":"_collateralTokenId","type":"uint256"},{"internalType":"uint256","name":"_requestedAmount","type":"uint256"},{"internalType":"uint256","name":"_interestRate","type":"uint256"},{"internalType":"uint256","name":"_durationDays","type":"uint256"},{"internalType":"string","name":"_purpose","type":"string"}],"name":"createLoanRequest","outputs":[{"internalType":"uint256","name":"","type":"uint256"}],"stateMutability":"nonpayable","type":"function"},{"inputs":[{"internalType":"uint256","name":"_loanId","type":"uint256"}],"name":"emergencyPause","outputs":[],"stateMutability":"nonpayable","type":"function"},{"inputs":[{"internalType":"uint256","name":"_requestId","type":"uint256"}],"name":"fundLoan","outputs":[],"stateMutability":"payable","type":"function"},{"inputs":[{"internalType":"uint256","name":"tokenId","type":"uint256"}],"name":"getApproved","outputs":[{"internalType":"address","name":"","type":"address"}],"stateMutability":"view","type":"function"},{"inputs":[{"internalType":"uint256","name":"_tokenId","type":"uint256"}],"name":"getAsset","outputs":[{"components":[{"internalType":"uint256","name":"tokenId","type":"uint256"},{"internalType":"enum LendBitZeroFixed.AssetType","name":"assetType","type":"uint8"},{"internalType":"address","name":"owner","type":"address"},{"internalType":"uint256","name":"currentValue","type":"uint256"},{"internalType":"string","name":"metadataURI","type":"string"},{"internalType":"string","name":"description","type":"string"},{"internalType":"string","name":"location","type":"string"},{"internalType":"bool","name":"isVerified","type":"bool"},{"internalType":"bool","name":"isLocked","type":"bool"},{"internalType":"enum LendBitZeroFixed.ListingStatus","name":"approvalStatus","type":"uint8"},{"internalType":"uint256","name":"createdAt","type":"uint256"}],"internalType":"struct LendBitZeroFixed.RWAAsset","name":"","type":"tuple"}],"stateMutability":"view","type":"function"},{"inputs":[{"internalType":"uint256","name":"_loanId","type":"uint256"}],"name":"getLoan","outputs":[{"components":[{"internalType":"uint256","name":"loanId","type":"uint256"},{"internalType":"address","name":"borrower","type":"address"},{"internalType":"address","name":"lender","type":"address"},{"internalType":"uint256","name":"collateralTokenId","type":"uint256"},{"internalType":"uint256","name":"requestedAmount","type":"uint256"},{"internalType":"uint256","name":"fundedAmount","type":"uint256"},{"internalType":"uint256","name":"interestRate","type":"uint256"},{"internalType":"uint256","name":"durationDays","type":"uint256"},{"internalType":"uint256","name":"createdAt","type":"uint256"},{"internalType":"uint256","name":"fundedAt","type":"uint256"},{"internalType":"uint256","name":"dueDate","type":"uint256"},{"internalType":"enum LendBitZeroFixed.LoanStatus","name":"status","type":"uint8"},{"internalType":"uint256","name":"totalRepaid","type":"uint256"},{"internalType":"uint256","name":"lastPaymentDate","type":"uint256"}],"internalType":"struct LendBitZeroFixed.Loan","name":"","type":"tuple"}],"stateMutability":"view","type":"function"},{"inputs":[{"internalType":"uint256","name":"_requestId","type":"uint256"}],"name":"getLoanRequest","outputs":[{"components":[{"internalType":"uint256","name":"requestId","type":"uint256"},{"internalType":"address","name":"borrower","type":"address"},{"internalType":"uint256","name":"collateralTokenId","type":"uint256"},{"internalType":"uint256","name":"requestedAmount","type":"uint256"},{"internalType":"uint256","name":"interestRate","type":"uint256"},{"internalType":"uint256","name":"durationDays","type":"uint256"},{"internalType":"string","name":"purpose","type":"string"},{"internalType":"enum LendBitZeroFixed.LoanStatus","name":"status","type":"uint8"},{"internalType":"uint256","name":"createdAt","type":"uint256"}],"internalType":"struct LendBitZeroFixed.LoanRequest","name":"","type":"tuple"}],"stateMutability":"view","type":"function"},{"inputs":[],"name":"getProtocolStats","outputs":[{"internalType":"uint256","name":"_totalValueLocked","type":"uint256"},{"internalType":"uint256","name":"_totalLoansOriginated","type":"uint256"},{"internalType":"uint256","name":"_protocolFeeCollected","type":"uint256"},{"internalType":"uint256","name":"_totalAssets","type":"uint256"},{"internalType":"uint256","name":"_totalLoans","type":"uint256"}],"stateMutability":"view","type":"function"},{"inputs":[{"internalType":"address","name":"_user","type":"address"}],"name":"getUserAssets","outputs":[{"internalType":"uint256[]","name":"","type":"uint256[]"}],"stateMutability":"view","type":"function"},{"inputs":[{"internalType":"address","name":"_user","type":"address"}],"name":"getUserLoans","outputs":[{"internalType":"uint256[]","name":"","type":"uint256[]"}],"stateMutability":"view","type":"function"},{"inputs":[{"internalType":"address","name":"owner","type":"address"},{"internalType":"address","name":"operator","type":"address"}],"name":"isApprovedForAll","outputs":[{"internalType":"bool","name":"","type":"bool"}],"stateMutability":"view","type":"function"},{"inputs":[{"internalType":"uint256","name":"_loanId","type":"uint256"}],"name":"isLiquidatable","outputs":[{"internalType":"bool","name":"","type":"bool"}],"stateMutability":"view","type":"function"},{"inputs":[{"internalType":"uint256","name":"_loanId","type":"uint256"}],"name":"liquidateLoan","outputs":[],"stateMutability":"nonpayable","type":"function"},{"inputs":[{"internalType":"uint256","name":"","type":"uint256"}],"name":"loanRequests","outputs":[{"internalType":"uint256","name":"requestId","type":"uint256"},{"internalType":"address","name":"borrower","type":"address"},{"internalType":"uint256","name":"collateralTokenId","type":"uint256"},{"internalType":"uint256","name":"requestedAmount","type":"uint256"},{"internalType":"uint256","name":"interestRate","type":"uint256"},{"internalType":"uint256","name":"durationDays","type":"uint256"},{"internalType":"string","name":"purpose","type":"string"},{"internalType":"enum LendBitZeroFixed.LoanStatus","name":"status","type":"uint8"},{"internalType":"uint256","name":"createdAt","type":"uint256"}],"stateMutability":"view","type":"function"},{"inputs":[{"internalType":"uint256","name":"","type":"uint256"}],"name":"loans","outputs":[{"internalType":"uint256","name":"loanId","type":"uint256"},{"internalType":"address","name":"borrower","type":"address"},{"internalType":"address","name":"lender","type":"address"},{"internalType":"uint256","name":"collateralTokenId","type":"uint256"},{"internalType":"uint256","name":"requestedAmount","type":"uint256"},{"internalType":"uint256","name":"fundedAmount","type":"uint256"},{"internalType":"uint256","name":"interestRate","type":"uint256"},{"internalType":"uint256","name":"durationDays","type":"uint256"},{"internalType":"uint256","name":"createdAt","type":"uint256"},{"internalType":"uint256","name":"fundedAt","type":"uint256"},{"internalType":"uint256","name":"dueDate","type":"uint256"},{"internalType":"enum LendBitZeroFixed.LoanStatus","name":"status","type":"uint8"},{"internalType":"uint256","name":"totalRepaid","type":"uint256"},{"internalType":"uint256","name":"lastPaymentDate","type":"uint256"}],"stateMutability":"view","type":"function"},{"inputs":[],"name":"name","outputs":[{"internalType":"string","name":"","type":"string"}],"stateMutability":"view","type":"function"},{"inputs":[],"name":"nextLoanId","outputs":[{"internalType":"uint256","name":"","type":"uint256"}],"stateMutability":"view","type":"function"},{"inputs":[],"name":"nextRequestId","outputs":[{"internalType":"uint256","name":"","type":"uint256"}],"stateMutability":"view","type":"function"},{"inputs":[],"name":"nextTokenId","outputs":[{"internalType":"uint256","name":"","type":"uint256"}],"stateMutability":"view","type":"function"},{"inputs":[],"name":"owner","outputs":[{"internalType":"address","name":"","type":"address"}],"stateMutability":"view","type":"function"},{"inputs":[{"internalType":"uint256","name":"tokenId","type":"uint256"}],"name":"ownerOf","outputs":[{"internalType":"address","name":"","type":"address"}],"stateMutability":"view","type":"function"},{"inputs":[],"name":"protocolFeeCollected","outputs":[{"internalType":"uint256","name":"","type":"uint256"}],"stateMutability":"view","type":"function"},{"inputs":[{"internalType":"address","name":"_oracle","type":"address"}],"name":"removeOracle","outputs":[],"stateMutability":"nonpayable","type":"function"},{"inputs":[{"internalType":"address","name":"_verifier","type":"address"}],"name":"removeVerifier","outputs":[],"stateMutability":"nonpayable","type":"function"},{"inputs":[],"name":"renounceOwnership","outputs":[],"stateMutability":"nonpayable","type":"function"},{"inputs":[{"internalType":"uint256","name":"_loanId","type":"uint256"}],"name":"repayLoan","outputs":[],"stateMutability":"payable","type":"function"},{"inputs":[{"internalType":"address","name":"from","type":"address"},{"internalType":"address","name":"to","type":"address"},{"internalType":"uint256","name":"tokenId","type":"uint256"}],"name":"safeTransferFrom","outputs":[],"stateMutability":"nonpayable","type":"function"},{"inputs":[{"internalType":"address","name":"from","type":"address"},{"internalType":"address","name":"to","type":"address"},{"internalType":"uint256","name":"tokenId","type":"uint256"},{"internalType":"bytes","name":"data","type":"bytes"}],"name":"safeTransferFrom","outputs":[],"stateMutability":"nonpayable","type":"function"},{"inputs":[{"internalType":"address","name":"operator","type":"address"},{"internalType":"bool","name":"approved","type":"bool"}],"name":"setApprovalForAll","outputs":[],"stateMutability":"nonpayable","type":"function"},{"inputs":[{"internalType":"bytes4","name":"interfaceId","type":"bytes4"}],"name":"supportsInterface","outputs":[{"internalType":"bool","name":"","type":"bool"}],"stateMutability":"view","type":"function"},{"inputs":[],"name":"symbol","outputs":[{"internalType":"string","name":"","type":"string"}],"stateMutability":"view","type":"function"},{"inputs":[{"internalType":"uint256","name":"tokenId","type":"uint256"}],"name":"tokenURI","outputs":[{"internalType":"string","name":"","type":"string"}],"stateMutability":"view","type":"function"},{"inputs":[{"internalType":"enum LendBitZeroFixed.AssetType","name":"_assetType","type":"uint8"},{"internalType":"uint256","name":"_estimatedValue","type":"uint256"},{"internalType":"string","name":"_description","type":"string"},{"internalType":"string","name":"_location","type":"string"},{"internalType":"string","name":"_metadataURI","type":"string"}],"name":"tokenizeAsset","outputs":[{"internalType":"uint256","name":"","type":"uint256"}],"stateMutability":"nonpayable","type":"function"},{"inputs":[],"name":"totalLoansOriginated","outputs":[{"internalType":"uint256","name":"","type":"uint256"}],"stateMutability":"view","type":"function"},{"inputs":[],"name":"totalValueLocked","outputs":[{"internalType":"uint256","name":"","type":"uint256"}],"stateMutability":"view","type":"function"},{"inputs":[{"internalType":"address","name":"from","type":"address"},{"internalType":"address","name":"to","type":"address"},{"internalType":"uint256","name":"tokenId","type":"uint256"}],"name":"transferFrom","outputs":[],"stateMutability":"nonpayable","type":"function"},{"inputs":[{"internalType":"address","name":"newOwner","type":"address"}],"name":"transferOwnership","outputs":[],"stateMutability":"nonpayable","type":"function"},{"inputs":[{"internalType":"uint256","name":"_tokenId","type":"uint256"},{"internalType":"uint256","name":"_newPrice","type":"uint256"}],"name":"updateAssetPrice","outputs":[],"stateMutability":"nonpayable","type":"function"},{"inputs":[{"internalType":"address","name":"","type":"address"},{"internalType":"uint256","name":"","type":"uint256"}],"name":"userAssets","outputs":[{"internalType":"uint256","name":"","type":"uint256"}],"stateMutability":"view","type":"function"},{"inputs":[{"internalType":"address","name":"","type":"address"},{"internalType":"uint256","name":"","type":"uint256"}],"name":"userLoans","outputs":[{"internalType":"uint256","name":"","type":"uint256"}],"stateMutability":"view","type":"function"},{"inputs":[{"internalType":"address","name":"","type":"address"},{"internalType":"uint256","name":"","type":"uint256"}],"name":"userRequests","outputs":[{"internalType":"uint256","name":"","type":"uint256"}],"stateMutability":"view","type":"function"},{"inputs":[{"internalType":"uint256","name":"_tokenId","type":"uint256"},{"internalType":"bool","name":"_approved","type":"bool"},{"internalType":"string","name":"_reason","type":"string"}],"name":"verifyAsset","outputs":[],"stateMutability":"nonpayable","type":"function"},{"inputs":[],"name":"withdrawProtocolFees","outputs":[],"stateMutability":"nonpayable","type":"function"},{"stateMutability":"payable","type":"receive"}],"evm":{"bytecode":{"linkReferences":{},"object":"608034620003b9576001600160401b039060409080820183811182821017620003a357825260128152602091714c656e64426974205257412041737365747360701b8383015280519381850185811082821117620003a357825260058552644c4252574160d81b848601528251818111620003a3576000958654916001958684811c9416801562000398575b8885101462000384578190601f9485811162000331575b508890858311600114620002cd578a92620002c1575b5050600019600383901b1c191690861b1787555b8051928311620002ad5784548581811c91168015620002a2575b878210146200028e579081838594931162000239575b5086918311600114620001d5578792620001c9575b5050600019600383901b1c191690831b1782555b3315620001b25760068054336001600160a01b03198216811790925582519591906001600160a01b03167f8be0079c531659141344cd1fd0a4f28419497f9722a3daafe3b4186f6b6457e08380a382600755826008558260095582600a55338152600f845260108282209460ff1995858782541617905552209182541617905561381e9081620003bf8239f35b51631e4fbdf760e01b815260048101849052602490fd5b01519050388062000111565b8588528688208694509190601f198416895b8982821062000222575050841162000208575b505050811b01825562000125565b015160001960f88460031b161c19169055388080620001fa565b8385015186558997909501949384019301620001e7565b909192508588528688208380860160051c82019289871062000284575b91869589929594930160051c01915b82811062000275575050620000fc565b8a815586955088910162000265565b9250819262000256565b634e487b7160e01b88526022600452602488fd5b90607f1690620000e6565b634e487b7160e01b87526041600452602487fd5b015190503880620000b8565b8a8052898b208994509190601f1984168c5b8c8282106200031a575050841162000300575b505050811b018755620000cc565b015160001960f88460031b161c19169055388080620002f2565b8385015186558c97909501949384019301620002df565b909150898052888a208580850160051c8201928b86106200037a575b918a91869594930160051c01915b8281106200036b575050620000a2565b8c81558594508a91016200035b565b925081926200034d565b634e487b7160e01b89526022600452602489fd5b93607f16936200008b565b634e487b7160e01b600052604160045260246000fd5b600080fdfe608080604052600436101561001d575b50361561001b57600080fd5b005b60003560e01c90816301ffc9a714612dac5750806302bf321f14612d3457806306fdde0314612c91578063081812fc14612c53578063095ea7b314612b6c5780630b4501fd14612b505780631b3b8671146129f7578063211a4443146129cf57806323a4deb5146129b157806323b872dd1461299a578063263cb6b61461295057806329194ee31461292a5780634191c45b146128fe57806342842e0e146128c5578063504006ca146126e05780635696b189146126c457806361c992a3146126855780636352211e146126555780636a84a985146126375780636a8a69aa146125ed57806370a0823114612594578063715018a61461253757806375794a3c1461251957806375de1f541461234e578063765ff061146122ca578063771aceef14612272578063846b909a14611e795780638795cccb14611e0057806387c5145914611de25780638da5cb5b14611db95780638f6217e91461170f5780639000b3d6146116ca57806390a8ae9b146116ae578063953d51971461169057806395d89b41146115c55780639a89171614611586578063a22cb465146114db578063a4e33a4614611024578063ab7b1c8914610dc6578063ad3fbe3014610d8c578063b88d4fde14610d2d578063c2f1419e14610d0f578063c4479ec614610c0b578063c87b56dd14610b65578063ca2dfd0a14610b23578063ccdd9f5d14610900578063cf35bdd014610804578063d1b332f414610756578063d8bad5bd146106fe578063df5dd1a5146106b9578063e1ec3c68146105e2578063e985e9c51461058c578063eac8f5b814610380578063ec18154e14610362578063f2fde38b146102d95763fdc85fc414610292573861000f565b346102d45760203660031901126102d4576102ab612e17565b6102b361311c565b6001600160a01b03166000908152601060205260409020805460ff19169055005b600080fd5b346102d45760203660031901126102d4576102f2612e17565b6102fa61311c565b6001600160a01b0390811690811561034957600654826001600160601b0360a01b821617600655167f8be0079c531659141344cd1fd0a4f28419497f9722a3daafe3b4186f6b6457e0600080a3005b604051631e4fbdf760e01b815260006004820152602490fd5b346102d45760003660031901126102d4576020601454604051908152f35b346102d45760203660031901126102d45760006101406040516103a281612f75565b82815282602082015282604082015282606082015260606080820152606060a0820152606060c08201528260e082015282610100820152826101208201520152600435600052600b6020526040600020604051906103ff82612f75565b80548252600181015461041860ff821660208501613533565b60081c6001600160a01b031660408301526002810154606083015261043f6003820161305c565b60808301526104506004820161305c565b60a08301526104616005820161305c565b60c083015260068101549060ff8216151560e084015260ff8260081c161515610100840152600360ff8360101c1610156105765760ff60079260101c166101208401520154610140820152604051809160208252805160208301526104ce60208201516040840190613102565b60018060a01b03604082015116606083015260608101516080830152608081015161014061053e61050d610160938460a0880152610180870190612e7e565b61052960a086015191601f1992838983030160c08a0152612e7e565b9060c0860151908783030160e0880152612e7e565b9260e08101511515610100860152610100810151151561012086015261056c6101208201518387019061310f565b0151908301520390f35b634e487b7160e01b600052602160045260246000fd5b346102d45760403660031901126102d4576105a5612e17565b6105ad612e2d565b9060018060a01b03809116600052600560205260406000209116600052602052602060ff604060002054166040519015158152f35b346102d45760203660031901126102d457600435600052600c6020526040600020805490600160a01b600190039081600182015416916002820154166003820154600483015460058401546006850154600786015490600887015492600988015494600a89015496600b8a015460ff1698600c8b01549a600d01549b604051809e81526020015260408d015260608c015260808b015260a08a015260c089015260e088015261010087015261012086015261014085015261016084016106a791612ebe565b6101808301526101a08201526101c090f35b346102d45760203660031901126102d4576106d2612e17565b6106da61311c565b6001600160a01b03166000908152601060205260409020805460ff19166001179055005b346102d45760403660031901126102d457610717612e17565b6001600160a01b03166000908152601260205260409020805460243591908210156102d45760209161074891612f00565b90546040519160031b1c8152f35b346102d45760203660031901126102d457600435600052600d6020526040600020805460018060a01b036001830154169160028101546107fa6107ef600384015460048501546005860154906107ae6006880161305c565b92600860ff60078a015416980154966040519a8b9a8b5260208b015260408a01526060890152608088015260a08701526101208060c0880152860190612e7e565b9260e0850190612ebe565b6101008301520390f35b346102d45760203660031901126102d457600435600052600b6020526040600020805460018201549160028101546108f66108ca6108446003850161305c565b6108bc6108536004870161305c565b6108ae6108626005890161305c565b93600760068a0154990154976040519b8c9b8c5261088660208d0160ff8316613102565b60081c6001600160a01b031660408c015260608b015261016060808b018190528a0190612e7e565b9088820360a08a0152612e7e565b9086820360c0880152612e7e565b9260ff8116151560e086015260ff8160081c16151561010086015260ff61012086019160101c1661310f565b6101408301520390f35b346102d4576020806003193601126102d4576004359061091e61364e565b61092782613799565b15610ae75781600052600c815260406000209160038301549182600052600e8152604060002054936101f4808602908682041486151715610ad15761271090046002820160018060a01b03908181541692833303610a97575b5050806001840154169080831615610a7e5761099c878461342d565b908116806109bd57604051637e27328960e01b815260048101899052602490fd5b90828998939203610a4e5750506000908152600b8085526040909120600181018054610100600160a81b03191660089490941b610100600160a81b0316939093179092557f0256bdf47e9aff5784070d6cab332d79f81fc6b8c8ed875565982a423a389e3a93929091600601805461ff001916905501805460ff191660041790556040519384523393a36001600755005b6040516364283d7b60e01b81526001600160a01b0392831660048201526024810193909352166044820152606490fd5b604051633250574960e11b815260006004820152602490fd5b60008080939495508092818115610ac8575b3390f115610abc57548116908780610980565b6040513d6000823e3d90fd5b506108fc610aa9565b634e487b7160e01b600052601160045260246000fd5b6064906040519062461bcd60e51b8252600482015260156024820152744c6f616e206e6f74206c6971756964617461626c6560581b6044820152fd5b346102d45760203660031901126102d457610b3c612e17565b610b4461311c565b6001600160a01b03166000908152600f60205260409020805460ff19169055005b346102d45760203660031901126102d4576004356000818152600b602052604090206001015460081c6001600160a01b031615610bcf57600052600b602052610bcb610bb7600360406000200161305c565b604051918291602083526020830190612e7e565b0390f35b60405162461bcd60e51b8152602060048201526014602482015273151bdad95b88191bd95cc81b9bdd08195e1a5cdd60621b6044820152606490fd5b346102d45760403660031901126102d457600435602435336000526020906010825260ff6040600020541615610cd2577f15819dd2fd9f6418b142e798d08a18d0bf06ea368f4480b7b0d3f75bd966bc4891604091610c8d610c8886600052600b60205260018060a01b0360016040600020015460081c16151590565b613579565b84600052600b8252610ca860ff6006856000200154166135bc565b84600052600e825282600020918183549355600b81528160028560002001558351928352820152a2005b60405162461bcd60e51b81526004810183905260156024820152744e6f7420617574686f72697a6564206f7261636c6560581b6044820152606490fd5b346102d45760003660031901126102d4576020601654604051908152f35b346102d45760803660031901126102d457610d46612e17565b610d4e612e2d565b606435916001600160401b0383116102d457366023840112156102d457610d8261001b933690602481600401359101612fcd565b91604435916132d8565b346102d45760203660031901126102d457610da561311c565b6004356000908152600c60205260409020600b01805460ff19166005179055005b6020806003193601126102d457600435610dde61364e565b80600052600c825260406000209160018060a01b03806001850154163303610feb57600b84019360ff855416600681101561057657600203610fb4573415610f6f57610e2984613671565b94348611610efe57600086819460028584969584600c87980155600360ff1982541617905542600d82015560038101548552600b89526006604086200161ff00198154169055015416828215610ef5575bf115610abc57823411610ec2575b6000906040519384528301527f423d4247c9657cdb09843c408af41209510b73810b54ad1e03de626ec321239060403393a35b6001600755005b6000808080610ed18734613634565b818115610eec575b3390f1610e88576040513d6000823e3d90fd5b506108fc610ed9565b506108fc610e7a565b506000808083600c8295999697990196610f19348954613641565b885542600d8301556002349201541682f115610abc57610f3a915490613634565b604051923484528301527f423d4247c9657cdb09843c408af41209510b73810b54ad1e03de626ec321239060403393a3610ebb565b60405162461bcd60e51b815260048101849052601760248201527f5061796d656e7420616d6f756e742072657175697265640000000000000000006044820152606490fd5b60405162461bcd60e51b815260048101849052600f60248201526e4c6f616e206e6f742061637469766560881b6044820152606490fd5b60405162461bcd60e51b81526004810183905260116024820152702737ba103637b0b7103137b93937bbb2b960791b6044820152606490fd5b346102d45760a03660031901126102d4576084356001600160401b0381116102d457611054903690600401613004565b6004356000908152600b60205260409020600101546110809060081c6001600160a01b03161515613579565b600435600052600b60205261109f60ff600660406000200154166135bc565b6110aa6004356134e9565b336001600160a01b03909116036114a457600435600052600b60205260ff60066040600020015460081c16611468576024351561142d57600760643510158061141f575b156113e757600435600052600e602052604060002054605081029080820460501490151715610ad15760649004602435116113ae57600a549061113082613524565b600a556040519061114082612f3d565b82825233602083015260043560408301526024356060830152604435608083015260643560a083015260c0820152600060e08201524261010082015281600052600d602052604060002091815183556001830160018060a01b036020840151166001600160601b0360a01b82541617905560408201516002840155606082015160038401556080820151600484015560a0820151600584015560c08201519283516001600160401b038111611398576111fc6006830154613022565b601f8111611351575b50602094601f82116001146112e5579481929394956000926112da575b50508160011b916000199060031b1c19161760068201555b60e08301519260068410156105765761010060089161125e6020966007860161361c565b0151910155600435600052600b8252600660406000200161010061ff0019825416179055336000526013825261129881604060002061353f565b60405160243581526044358382015260043590827ff6cc19e46a340ab5888d736bfc79aef72ae92d12d7b76319d72b0abc170868e660403393a4604051908152f35b015190508580611222565b601f198216956006840160005260206000209160005b88811061133957508360019596979810611320575b505050811b01600682015561123a565b015160001960f88460031b161c19169055858080611310565b919260206001819286850151815501940192016112fb565b600683016000526020600020601f830160051c810160208410611391575b601f830160051c82018110611385575050611205565b6000815560010161136f565b508061136f565b634e487b7160e01b600052604160045260246000fd5b60405162461bcd60e51b815260206004820152601160248201527045786365656473204c545620726174696f60781b6044820152606490fd5b60405162461bcd60e51b815260206004820152601060248201526f24b73b30b634b210323ab930ba34b7b760811b6044820152606490fd5b5061044760643511156110ee565b60405162461bcd60e51b8152602060048201526013602482015272125b9d985b1a59081b1bd85b88185b5bdd5b9d606a1b6044820152606490fd5b60405162461bcd60e51b8152602060048201526014602482015273105cdcd95d08185b1c9958591e481b1bd8dad95960621b6044820152606490fd5b60405162461bcd60e51b815260206004820152600f60248201526e2737ba1030b9b9b2ba1037bbb732b960891b6044820152606490fd5b346102d45760403660031901126102d4576114f4612e17565b6114fc612f2e565b6001600160a01b0390911690811561156d5733600052600560205260406000208260005260205261153d8160406000209060ff801983541691151516179055565b60405190151581527f17307eab39ab6107e8899845ad3d59bd9653f200f220920489ca2b5937696c3160203392a3005b604051630b61174360e31b815260048101839052602490fd5b346102d45760203660031901126102d4576001600160a01b036115a7612e17565b16600052600f602052602060ff604060002054166040519015158152f35b346102d45760003660031901126102d457604051600060018054906115e982613022565b808552918181169081156116695750600114611610575b610bcb84610bb781860382612f91565b600081815292507fb10e2d527612073b26eecdfd717e6a320cf44b4afac2b0732d9fcbe2b7fa0cf65b828410611651575050508101602001610bb782611600565b80546020858701810191909152909301928101611639565b60ff191660208087019190915292151560051b85019092019250610bb79150839050611600565b346102d45760003660031901126102d4576020601554604051908152f35b346102d45760003660031901126102d4576020604051606e8152f35b346102d45760203660031901126102d4576116e3612e17565b6116eb61311c565b6001600160a01b03166000908152600f60205260409020805460ff19166001179055005b346102d45760a03660031901126102d4576004803510156102d4576044356001600160401b0381116102d457611749903690600401613004565b6064356001600160401b0381116102d457611768903690600401613004565b906084356001600160401b0381116102d457611788903690600401613004565b9160243515611d7457815115611d3857805115611cff57600854916117ac83613524565b6008553315610a7e576001600160a01b036117c7843361342d565b16611ce657604051936117d985612f75565b8385526117eb60043560208701613533565b3360408601526024356060860152608085015260a08401528060c0840152600060e0840152600061010084015260006101208401524261014084015281600052600b6020526040600020835181556001810160208501519060048210156105765780546040870151610100600160a81b0360089190911b1660ff939093166001600160a81b0319909116179190911790556060840151600282015560808401518051906001600160401b0382116113985781906118ab6003850154613022565b601f8111611c93575b50602090601f8311600114611c2657600092611c1b575b50508160011b916000199060031b1c19161760038201555b60a08401518051906001600160401b0382116113985781906119086004850154613022565b601f8111611bc8575b50602090601f8311600114611b5b57600092611b50575b50508160011b916000199060031b1c19161760048201555b60c08401518051906001600160401b0382116113985781906119656005850154613022565b601f8111611afd575b50602090601f8311600114611a9057600092611a85575b50508160011b916000199060031b1c19161760058201555b60068101936119be60e08201511515869060ff801983541691151516179055565b6101008101511515948054916101208101519160038310156105765760209760079461ff0062ff00006101409660101b169260081b169062ffff00191617179055015191015581600052600e83526024356040600020553360005260118352611a2b82604060002061353f565b817f80e4b5e34356f17d4d7df460f77efd8f6fea15a4dc02e6a32d36d0e8b91689c6604051611a5c81600435613102565b602435868201526060604082015280611a7a33956060830190612e7e565b0390a3604051908152f35b015190508680611985565b600585016000908152602081209350601f198516905b818110611ae55750908460019594939210611acc575b505050811b01600582015561199d565b015160001960f88460031b161c19169055868080611abc565b92936020600181928786015181550195019301611aa6565b909150600584016000526020600020601f840160051c810160208510611b49575b90849392915b601f830160051c82018110611b3a57505061196e565b60008155859450600101611b24565b5080611b1e565b015190508680611928565b600485016000908152602081209350601f198516905b818110611bb05750908460019594939210611b97575b505050811b016004820155611940565b015160001960f88460031b161c19169055868080611b87565b92936020600181928786015181550195019301611b71565b909150600484016000526020600020601f840160051c810160208510611c14575b90849392915b601f830160051c82018110611c05575050611911565b60008155859450600101611bef565b5080611be9565b0151905086806118cb565b600385016000908152602081209350601f198516905b818110611c7b5750908460019594939210611c62575b505050811b0160038201556118e3565b015160001960f88460031b161c19169055868080611c52565b92936020600181928786015181550195019301611c3c565b909150600384016000526020600020601f840160051c810160208510611cdf575b90849392915b601f830160051c82018110611cd05750506118b4565b60008155859450600101611cba565b5080611cb4565b6040516339e3563760e11b815260006004820152602490fd5b60405162461bcd60e51b8152602060048201526011602482015270131bd8d85d1a5bdb881c995c5d5a5c9959607a1b6044820152606490fd5b60405162461bcd60e51b815260206004820152601460248201527311195cd8dc9a5c1d1a5bdb881c995c5d5a5c995960621b6044820152606490fd5b60405162461bcd60e51b815260206004820152601f60248201527f56616c7565206d7573742062652067726561746572207468616e207a65726f006044820152606490fd5b346102d45760003660031901126102d4576006546040516001600160a01b039091168152602090f35b346102d45760003660031901126102d4576020600954604051908152f35b346102d45760003660031901126102d457611e1961311c565b478015611e3e576006546000918291829182916001600160a01b031682f115610abc57005b60405162461bcd60e51b81526020600482015260136024820152724e6f206665657320746f20776974686472617760681b6044820152606490fd5b60203660031901126102d457611e8d61364e565b600435600052600d602052604060002060ff6007820154166006811015610576576122355760018101546001600160a01b031633146121f057600381015434106121b45760095490611ede82613524565b60095560038101546064810281810460641482151715610ad157611f06612710820483613634565b9060018060a01b03600185015416926002850154906004860154600587015490600888015492620151808381810204811484151715610ad157611f4b90840242613641565b9460405198611f598a612f59565b8b8a5260208a01523360408a0152606089015280608089015260a088015260c087015260e0860152610100850152426101208501526101408401526002610160840152600061018084015260006101a084015284600052600c6020526040600020835181556001810160018060a01b03602086015116906001600160601b0360a01b9182825416179055600282019060018060a01b0360408701511690825416179055606084015160038201556080840151600482015560a0840151600582015560c0840151600682015560e0840151600782015561010084015160088201556101208401516009820155610140840151600a820155610160840151926006841015610576576121156127106000969484600d6101a08a99986120818b9a600b8c9b0161361c565b610180810151600c850155015191015560078901805460ff191660019081179091558901546001600160a01b031685526012602052604085206120c5908b9061353f565b33855260126020526120da8a6040872061353f565b6120ea60038a0154601554613641565b60155560028901548552600e6020526121096040862054601454613641565b60145504601654613641565b60165560018601546001600160a01b03168282156121ab575bf115610abc57600381015480341161217d575b506003015460405190815233917fb8b41bacdbbef12caf657cd1954223c3f16fa9298d010e6ac058dc6c4ece89bf602060043593a46001600755005b6000808061218c819434613634565b8181156121a2575b3390f115610abc5782612141565b506108fc612194565b506108fc61212e565b60405162461bcd60e51b8152602060048201526014602482015273496e73756666696369656e742066756e64696e6760601b6044820152606490fd5b60405162461bcd60e51b815260206004820152601760248201527f43616e6e6f742066756e64206f776e20726571756573740000000000000000006044820152606490fd5b60405162461bcd60e51b815260206004820152601560248201527452657175657374206e6f7420617661696c61626c6560581b6044820152606490fd5b346102d45760003660031901126102d4576014546015549060165460085460001991828201918211610ad157600954928301928311610ad15760a0946040519485526020850152604084015260608301526080820152f35b346102d4576020806003193601126102d4576001600160a01b036122ec612e17565b1660005260118152604060002090604051908181845491828152019360005281600020916000905b82821061233757610bcb8561232b81890382612f91565b60405191829182612e43565b835486529485019460019384019390910190612314565b346102d45760603660031901126102d45760043561236a612f2e565b906044356001600160401b0381116102d45761238a903690600401613004565b33600052602092600f845260ff60406000205416156124d4576000838152600b60205260409020600101546123cc9060081c6001600160a01b03161515613579565b82600052600b845260ff60066040600020015460101c1660038110156105765761249b571561243f575090600b90826000525260066040600020016201000162ff00ff1982541617905533907f4a184b517d677abb35488a7ffba6353e76337257a70f5b190375e62d0a5b3a36600080a3005b6124967f87ad73c8f687ec12c9b41d48870a96118599a3073f27844ff68c8d142eea076e9183600052600b855260066040600020016202000062ff0000198254161790556040519182918683523396830190612e7e565b0390a3005b60405162461bcd60e51b8152600481018590526011602482015270105b1c9958591e481c1c9bd8d95cdcd959607a1b6044820152606490fd5b60405162461bcd60e51b815260048101859052601760248201527f4e6f7420617574686f72697a65642076657269666965720000000000000000006044820152606490fd5b346102d45760003660031901126102d4576020600854604051908152f35b346102d45760003660031901126102d45761255061311c565b600680546001600160a01b031981169091556000906001600160a01b03167f8be0079c531659141344cd1fd0a4f28419497f9722a3daafe3b4186f6b6457e08280a3005b346102d45760203660031901126102d4576001600160a01b036125b5612e17565b1680156125d45760005260036020526020604060002054604051908152f35b6040516322718ad960e21b815260006004820152602490fd5b346102d45760403660031901126102d457612606612e17565b6001600160a01b03166000908152601160205260409020805460243591908210156102d45760209161074891612f00565b346102d45760003660031901126102d4576020600a54604051908152f35b346102d45760203660031901126102d45760206126736004356134e9565b6040516001600160a01b039091168152f35b346102d45760203660031901126102d4576001600160a01b036126a6612e17565b166000526010602052602060ff604060002054166040519015158152f35b346102d45760003660031901126102d457602060405160508152f35b346102d45760203660031901126102d45760006101a060405161270281612f59565b8281528260208201528260408201528260608201528260808201528260a08201528260c08201528260e082015282610100820152826101208201528261014082015282610160820152826101808201520152600435600052600c6020526101c06040600020600d6040519161277683612f59565b8054835260018101546001600160a01b03908116602085015260028201541660408401526003810154606084015260048101546080840152600581015460a0840152600681015460c0840152600781015460e084015260088101546101008401526009810154610120840152600a810154610140840152600b8101546128039060ff166101608501613610565b600c81015461018084015201546101a08201526101a0604051918051835260018060a01b03602082015116602084015260018060a01b036040820151166040840152606081015160608401526080810151608084015260a081015160a084015260c081015160c084015260e081015160e08401526101008101516101008401526101208101516101208401526101408101516101408401526128af610160820151610160850190612ebe565b61018081015161018084015201516101a0820152f35b346102d4576128d336612ecb565b6040519160208301938385106001600160401b038611176113985761001b94604052600084526132d8565b346102d45760203660031901126102d457600435600052600e6020526020604060002054604051908152f35b346102d45760203660031901126102d4576020612948600435613671565b604051908152f35b346102d45760403660031901126102d457612969612e17565b6001600160a01b03166000908152601360205260409020805460243591908210156102d45760209161074891612f00565b346102d45761001b6129ab36612ecb565b91613148565b346102d45760203660031901126102d4576020612948600435613709565b346102d45760203660031901126102d45760206129ed600435613799565b6040519015158152f35b346102d4576020806003193601126102d45760405190612a1682612f3d565b60008252600081830152600060408301526000606083015260006080830152600060a0830152606060c0830152600060e0830152600061010080930152600435600052600d81526040600020604051928391612a7183612f3d565b80548352612b4760018060a01b039182600182015416928686019384526002820154604087019081526003830154606088019081526004840154916080890192835260058501549360a08a019485526008612ace6006880161305c565b9660c08c01978852612aec60e060ff6007840154169d019c8d613610565b015497898d019889528b6040519d8e9d8e5251908d0152511660408b01525160608a01525160808901525160a08801525160c08701525192612b3c610120948560e0890152610140880190612e7e565b945190860190612ebe565b51908301520390f35b346102d45760003660031901126102d457602060405160648152f35b346102d45760403660031901126102d457612b85612e17565b602435612b91816134e9565b33151580612c40575b80612c13575b612bfb576001600160a01b039283169282918491167f8c5be1e5ebec7d5bd14f71427d1e84f3dd0314c0f7b2291e5b200ac8c7c3b925600080a4600090815260046020526040902080546001600160a01b0319169091179055005b60405163a9fbf51f60e01b8152336004820152602490fd5b5060018060a01b038116600052600560205260406000203360005260205260ff6040600020541615612ba0565b506001600160a01b038116331415612b9a565b346102d45760203660031901126102d457600435612c70816134e9565b506000526004602052602060018060a01b0360406000205416604051908152f35b346102d45760003660031901126102d45760405160008054612cb281613022565b808452906001908181169081156116695750600114612cdb57610bcb84610bb781860382612f91565b600080805292507f290decd9548b62a8d60345a988386fc84ba6bc95484008f6362f93160ef3e5635b828410612d1c575050508101602001610bb782611600565b80546020858701810191909152909301928101612d04565b346102d4576020806003193601126102d4576001600160a01b03612d56612e17565b1660005260128152604060002090604051908181845491828152019360005281600020916000905b828210612d9557610bcb8561232b81890382612f91565b835486529485019460019384019390910190612d7e565b346102d45760203660031901126102d4576004359063ffffffff60e01b82168092036102d4576020916380ac58cd60e01b8114908115612e06575b8115612df5575b5015158152f35b6301ffc9a760e01b14905083612dee565b635b5e139f60e01b81149150612de7565b600435906001600160a01b03821682036102d457565b602435906001600160a01b03821682036102d457565b6020908160408183019282815285518094520193019160005b828110612e6a575050505090565b835185529381019392810192600101612e5c565b919082519283825260005b848110612eaa575050826000602080949584010152601f8019910116010190565b602081830181015184830182015201612e89565b9060068210156105765752565b60609060031901126102d4576001600160a01b039060043582811681036102d4579160243590811681036102d4579060443590565b8054821015612f185760005260206000200190600090565b634e487b7160e01b600052603260045260246000fd5b6024359081151582036102d457565b61012081019081106001600160401b0382111761139857604052565b6101c081019081106001600160401b0382111761139857604052565b61016081019081106001600160401b0382111761139857604052565b90601f801991011681019081106001600160401b0382111761139857604052565b6001600160401b03811161139857601f01601f191660200190565b929192612fd982612fb2565b91612fe76040519384612f91565b8294818452818301116102d4578281602093846000960137010152565b9080601f830112156102d45781602061301f93359101612fcd565b90565b90600182811c92168015613052575b602083101461303c57565b634e487b7160e01b600052602260045260246000fd5b91607f1691613031565b906040519182600082549261307084613022565b9081845260019485811690816000146130df575060011461309c575b505061309a92500383612f91565b565b9093915060005260209081600020936000915b8183106130c757505061309a9350820101388061308c565b855488840185015294850194879450918301916130af565b91505061309a94506020925060ff191682840152151560051b820101388061308c565b9060048210156105765752565b9060038210156105765752565b6006546001600160a01b0316330361313057565b60405163118cdaa760e01b8152336004820152602490fd5b906001600160a01b039081168015610a7e57600091848352846020926002845260409383858720541695869133151580613242575b509060027fddf252ad1be2c89b69c2b068fc378daa952ba7f163c4a11628f55a4df523b3ef928461320f575b85835260038152888320805460010190558683525286812080546001600160a01b0319168517905580a4831682036131e15750505050565b516364283d7b60e01b81526001600160a01b0392831660048201526024810193909352166044820152606490fd5b600087815260046020526040902080546001600160a01b03191690558483526003815288832080546000190190556131a9565b91939450915080613297575b1561325e5787929186913861317d565b84888761327b576024915190637e27328960e01b82526004820152fd5b604491519063177e802f60e01b82523360048301526024820152fd5b5033861480156132bc575b8061324e575087825260048152338486842054161461324e565b5085825260058152848220338352815260ff85832054166132a2565b9290926132e6838583613148565b833b6132f3575b50505050565b604051630a85bd0160e11b8082523360048301526001600160a01b039283166024830152604482019490945260806064820152949316926020929091859061333f906084830190612e7e565b039483816000978189895af18691816133e9575b506133b4575050503d6000146133ab573d61336d81612fb2565b9061337b6040519283612f91565b81528093823d92013e5b825192836133a657604051633250574960e11b815260048101849052602490fd5b019050fd5b60609250613385565b919450915063ffffffff60e01b16036133d15750388080806132ed565b60249060405190633250574960e11b82526004820152fd5b9091508481813d8311613426575b6134018183612f91565b8101031261342257516001600160e01b031981168103613422579038613353565b8680fd5b503d6133f7565b6000828152600260205260408120546001600160a01b03908116939284917fddf252ad1be2c89b69c2b068fc378daa952ba7f163c4a11628f55a4df523b3ef91836134b4575b16928361349c575b84815260026020526040812080546001600160a01b0319168517905580a490565b8381526003602052604081206001815401905561347b565b600086815260046020526040902080546001600160a01b03191690558385526003602052604085208054600019019055613473565b6000818152600260205260409020546001600160a01b031690811561350c575090565b60249060405190637e27328960e01b82526004820152fd5b6000198114610ad15760010190565b60048210156105765752565b8054680100000000000000008110156113985761356191600182018155612f00565b819291549060031b91821b91600019901b1916179055565b1561358057565b60405162461bcd60e51b8152602060048201526014602482015273105cdcd95d08191bd95cc81b9bdd08195e1a5cdd60621b6044820152606490fd5b156135c357565b60405162461bcd60e51b8152602060048201526012602482015271105cdcd95d081b9bdd081d995c9a599a595960721b6044820152606490fd5b81810292918115918404141715610ad157565b60068210156105765752565b9060068110156105765760ff80198354169116179055565b91908203918211610ad157565b91908201809211610ad157565b60026007541461365f576002600755565b604051633ee5aeb560e01b8152600490fd5b6000908152600c6020526040812060ff600b8201541660068110156136f5576002036136f157600c6136d6620151806136ae600985015442613634565b046237b1d06136cf6005860154926136ca6006880154856135fd565b6135fd565b0490613641565b91015490818111156136ec5761301f9250613634565b505090565b5090565b634e487b7160e01b83526021600452602483fd5b600090808252600c6020526040822060ff600b8201541660068110156137855760020361377c57600301548252600e602052613749604083205491613671565b91821561377c5760648202918083046064149015171561376857500490565b634e487b7160e01b81526011600452602490fd5b50505060001990565b634e487b7160e01b84526021600452602484fd5b80600052600c602052604060002060ff600b820154166006811015610576576002036137e1576137d1600a606e920154421192613709565b1081156137dc575090565b905090565b505060009056fea26469706673582212208d47406612049805acbf563a41f1480c7a950c14a1c1fd8940c0a96d869cd14464736f6c63430008140033","opcodes":"PUSH1 0x80 CALLVALUE PUSH3 0x3B9 JUMPI PUSH1 0x1 PUSH1 0x1 PUSH1 0x40 SHL SUB SWAP1 PUSH1 0x40 SWAP1 DUP1 DUP3 ADD DUP4 DUP2 GT DUP3 DUP3 LT OR PUSH3 0x3A3 JUMPI DUP3 MSTORE PUSH1 0x12 DUP2 MSTORE PUSH1 0x20 SWAP2 PUSH18 0x4C656E644269742052574120417373657473 PUSH1 0x70 SHL DUP4 DUP4 ADD MSTORE DUP1 MLOAD SWAP4 DUP2 DUP6 ADD DUP6 DUP2 LT DUP3 DUP3 GT OR PUSH3 0x3A3 JUMPI DUP3 MSTORE PUSH1 0x5 DUP6 MSTORE PUSH5 0x4C42525741 PUSH1 0xD8 SHL DUP5 DUP7 ADD MSTORE DUP3 MLOAD DUP2 DUP2 GT PUSH3 0x3A3 JUMPI PUSH1 0x0 SWAP6 DUP7 SLOAD SWAP2 PUSH1 0x1 SWAP6 DUP7 DUP5 DUP2 SHR SWAP5 AND DUP1 ISZERO PUSH3 0x398 JUMPI JUMPDEST DUP9 DUP6 LT EQ PUSH3 0x384 JUMPI DUP2 SWAP1 PUSH1 0x1F SWAP5 DUP6 DUP2 GT PUSH3 0x331 JUMPI JUMPDEST POP DUP9 SWAP1 DUP6 DUP4 GT PUSH1 0x1 EQ PUSH3 0x2CD JUMPI DUP11 SWAP3 PUSH3 0x2C1 JUMPI JUMPDEST POP POP PUSH1 0x0 NOT PUSH1 0x3 DUP4 SWAP1 SHL SHR NOT AND SWAP1 DUP7 SHL OR DUP8 SSTORE JUMPDEST DUP1 MLOAD SWAP3 DUP4 GT PUSH3 0x2AD JUMPI DUP5 SLOAD DUP6 DUP2 DUP2 SHR SWAP2 AND DUP1 ISZERO PUSH3 0x2A2 JUMPI JUMPDEST DUP8 DUP3 LT EQ PUSH3 0x28E JUMPI SWAP1 DUP2 DUP4 DUP6 SWAP5 SWAP4 GT PUSH3 0x239 JUMPI JUMPDEST POP DUP7 SWAP2 DUP4 GT PUSH1 0x1 EQ PUSH3 0x1D5 JUMPI DUP8 SWAP3 PUSH3 0x1C9 JUMPI JUMPDEST POP POP PUSH1 0x0 NOT PUSH1 0x3 DUP4 SWAP1 SHL SHR NOT AND SWAP1 DUP4 SHL OR DUP3 SSTORE JUMPDEST CALLER ISZERO PUSH3 0x1B2 JUMPI PUSH1 0x6 DUP1 SLOAD CALLER PUSH1 0x1 PUSH1 0x1 PUSH1 0xA0 SHL SUB NOT DUP3 AND DUP2 OR SWAP1 SWAP3 SSTORE DUP3 MLOAD SWAP6 SWAP2 SWAP1 PUSH1 0x1 PUSH1 0x1 PUSH1 0xA0 SHL SUB AND PUSH32 0x8BE0079C531659141344CD1FD0A4F28419497F9722A3DAAFE3B4186F6B6457E0 DUP4 DUP1 LOG3 DUP3 PUSH1 0x7 SSTORE DUP3 PUSH1 0x8 SSTORE DUP3 PUSH1 0x9 SSTORE DUP3 PUSH1 0xA SSTORE CALLER DUP2 MSTORE PUSH1 0xF DUP5 MSTORE PUSH1 0x10 DUP3 DUP3 KECCAK256 SWAP5 PUSH1 0xFF NOT SWAP6 DUP6 DUP8 DUP3 SLOAD AND OR SWAP1 SSTORE MSTORE KECCAK256 SWAP2 DUP3 SLOAD AND OR SWAP1 SSTORE PUSH2 0x381E SWAP1 DUP2 PUSH3 0x3BF DUP3 CODECOPY RETURN JUMPDEST MLOAD PUSH4 0x1E4FBDF7 PUSH1 0xE0 SHL DUP2 MSTORE PUSH1 0x4 DUP2 ADD DUP5 SWAP1 MSTORE PUSH1 0x24 SWAP1 REVERT JUMPDEST ADD MLOAD SWAP1 POP CODESIZE DUP1 PUSH3 0x111 JUMP JUMPDEST DUP6 DUP9 MSTORE DUP7 DUP9 KECCAK256 DUP7 SWAP5 POP SWAP2 SWAP1 PUSH1 0x1F NOT DUP5 AND DUP10 JUMPDEST DUP10 DUP3 DUP3 LT PUSH3 0x222 JUMPI POP POP DUP5 GT PUSH3 0x208 JUMPI JUMPDEST POP POP POP DUP2 SHL ADD DUP3 SSTORE PUSH3 0x125 JUMP JUMPDEST ADD MLOAD PUSH1 0x0 NOT PUSH1 0xF8 DUP5 PUSH1 0x3 SHL AND SHR NOT AND SWAP1 SSTORE CODESIZE DUP1 DUP1 PUSH3 0x1FA JUMP JUMPDEST DUP4 DUP6 ADD MLOAD DUP7 SSTORE DUP10 SWAP8 SWAP1 SWAP6 ADD SWAP5 SWAP4 DUP5 ADD SWAP4 ADD PUSH3 0x1E7 JUMP JUMPDEST SWAP1 SWAP2 SWAP3 POP DUP6 DUP9 MSTORE DUP7 DUP9 KECCAK256 DUP4 DUP1 DUP7 ADD PUSH1 0x5 SHR DUP3 ADD SWAP3 DUP10 DUP8 LT PUSH3 0x284 JUMPI JUMPDEST SWAP2 DUP7 SWAP6 DUP10 SWAP3 SWAP6 SWAP5 SWAP4 ADD PUSH1 0x5 SHR ADD SWAP2 JUMPDEST DUP3 DUP2 LT PUSH3 0x275 JUMPI POP POP PUSH3 0xFC JUMP JUMPDEST DUP11 DUP2 SSTORE DUP7 SWAP6 POP DUP9 SWAP2 ADD PUSH3 0x265 JUMP JUMPDEST SWAP3 POP DUP2 SWAP3 PUSH3 0x256 JUMP JUMPDEST PUSH4 0x4E487B71 PUSH1 0xE0 SHL DUP9 MSTORE PUSH1 0x22 PUSH1 0x4 MSTORE PUSH1 0x24 DUP9 REVERT JUMPDEST SWAP1 PUSH1 0x7F AND SWAP1 PUSH3 0xE6 JUMP JUMPDEST PUSH4 0x4E487B71 PUSH1 0xE0 SHL DUP8 MSTORE PUSH1 0x41 PUSH1 0x4 MSTORE PUSH1 0x24 DUP8 REVERT JUMPDEST ADD MLOAD SWAP1 POP CODESIZE DUP1 PUSH3 0xB8 JUMP JUMPDEST DUP11 DUP1 MSTORE DUP10 DUP12 KECCAK256 DUP10 SWAP5 POP SWAP2 SWAP1 PUSH1 0x1F NOT DUP5 AND DUP13 JUMPDEST DUP13 DUP3 DUP3 LT PUSH3 0x31A JUMPI POP POP DUP5 GT PUSH3 0x300 JUMPI JUMPDEST POP POP POP DUP2 SHL ADD DUP8 SSTORE PUSH3 0xCC JUMP JUMPDEST ADD MLOAD PUSH1 0x0 NOT PUSH1 0xF8 DUP5 PUSH1 0x3 SHL AND SHR NOT AND SWAP1 SSTORE CODESIZE DUP1 DUP1 PUSH3 0x2F2 JUMP JUMPDEST DUP4 DUP6 ADD MLOAD DUP7 SSTORE DUP13 SWAP8 SWAP1 SWAP6 ADD SWAP5 SWAP4 DUP5 ADD SWAP4 ADD PUSH3 0x2DF JUMP JUMPDEST SWAP1 SWAP2 POP DUP10 DUP1 MSTORE DUP9 DUP11 KECCAK256 DUP6 DUP1 DUP6 ADD PUSH1 0x5 SHR DUP3 ADD SWAP3 DUP12 DUP7 LT PUSH3 0x37A JUMPI JUMPDEST SWAP2 DUP11 SWAP2 DUP7 SWAP6 SWAP5 SWAP4 ADD PUSH1 0x5 SHR ADD SWAP2 JUMPDEST DUP3 DUP2 LT PUSH3 0x36B JUMPI POP POP PUSH3 0xA2 JUMP JUMPDEST DUP13 DUP2 SSTORE DUP6 SWAP5 POP DUP11 SWAP2 ADD PUSH3 0x35B JUMP JUMPDEST SWAP3 POP DUP2 SWAP3 PUSH3 0x34D JUMP JUMPDEST PUSH4 0x4E487B71 PUSH1 0xE0 SHL DUP10 MSTORE PUSH1 0x22 PUSH1 0x4 MSTORE PUSH1 0x24 DUP10 REVERT JUMPDEST SWAP4 PUSH1 0x7F AND SWAP4 PUSH3 0x8B JUMP JUMPDEST PUSH4 0x4E487B71 PUSH1 0xE0 SHL PUSH1 0x0 MSTORE PUSH1 0x41 PUSH1 0x4 MSTORE PUSH1 0x24 PUSH1 0x0 REVERT JUMPDEST PUSH1 0x0 DUP1 REVERT INVALID PUSH1 0x80 DUP1 PUSH1 0x40 MSTORE PUSH1 0x4 CALLDATASIZE LT ISZERO PUSH2 0x1D JUMPI JUMPDEST POP CALLDATASIZE ISZERO PUSH2 0x1B JUMPI PUSH1 0x0 DUP1 REVERT JUMPDEST STOP JUMPDEST PUSH1 0x0 CALLDATALOAD PUSH1 0xE0 SHR SWAP1 DUP2 PUSH4 0x1FFC9A7 EQ PUSH2 0x2DAC JUMPI POP DUP1 PUSH4 0x2BF321F EQ PUSH2 0x2D34 JUMPI DUP1 PUSH4 0x6FDDE03 EQ PUSH2 0x2C91 JUMPI DUP1 PUSH4 0x81812FC EQ PUSH2 0x2C53 JUMPI DUP1 PUSH4 0x95EA7B3 EQ PUSH2 0x2B6C JUMPI DUP1 PUSH4 0xB4501FD EQ PUSH2 0x2B50 JUMPI DUP1 PUSH4 0x1B3B8671 EQ PUSH2 0x29F7 JUMPI DUP1 PUSH4 0x211A4443 EQ PUSH2 0x29CF JUMPI DUP1 PUSH4 0x23A4DEB5 EQ PUSH2 0x29B1 JUMPI DUP1 PUSH4 0x23B872DD EQ PUSH2 0x299A JUMPI DUP1 PUSH4 0x263CB6B6 EQ PUSH2 0x2950 JUMPI DUP1 PUSH4 0x29194EE3 EQ PUSH2 0x292A JUMPI DUP1 PUSH4 0x4191C45B EQ PUSH2 0x28FE JUMPI DUP1 PUSH4 0x42842E0E EQ PUSH2 0x28C5 JUMPI DUP1 PUSH4 0x504006CA EQ PUSH2 0x26E0 JUMPI DUP1 PUSH4 0x5696B189 EQ PUSH2 0x26C4 JUMPI DUP1 PUSH4 0x61C992A3 EQ PUSH2 0x2685 JUMPI DUP1 PUSH4 0x6352211E EQ PUSH2 0x2655 JUMPI DUP1 PUSH4 0x6A84A985 EQ PUSH2 0x2637 JUMPI DUP1 PUSH4 0x6A8A69AA EQ PUSH2 0x25ED JUMPI DUP1 PUSH4 0x70A08231 EQ PUSH2 0x2594 JUMPI DUP1 PUSH4 0x715018A6 EQ PUSH2 0x2537 JUMPI DUP1 PUSH4 0x75794A3C EQ PUSH2 0x2519 JUMPI DUP1 PUSH4 0x75DE1F54 EQ PUSH2 0x234E JUMPI DUP1 PUSH4 0x765FF061 EQ PUSH2 0x22CA JUMPI DUP1 PUSH4 0x771ACEEF EQ PUSH2 0x2272 JUMPI DUP1 PUSH4 0x846B909A EQ PUSH2 0x1E79 JUMPI DUP1 PUSH4 0x8795CCCB EQ PUSH2 0x1E00 JUMPI DUP1 PUSH4 0x87C51459 EQ PUSH2 0x1DE2 JUMPI DUP1 PUSH4 0x8DA5CB5B EQ PUSH2 0x1DB9 JUMPI DUP1 PUSH4 0x8F6217E9 EQ PUSH2 0x170F JUMPI DUP1 PUSH4 0x9000B3D6 EQ PUSH2 0x16CA JUMPI DUP1 PUSH4 0x90A8AE9B EQ PUSH2 0x16AE JUMPI DUP1 PUSH4 0x953D5197 EQ PUSH2 0x1690 JUMPI DUP1 PUSH4 0x95D89B41 EQ PUSH2 0x15C5 JUMPI DUP1 PUSH4 0x9A891716 EQ PUSH2 0x1586 JUMPI DUP1 PUSH4 0xA22CB465 EQ PUSH2 0x14DB JUMPI DUP1 PUSH4 0xA4E33A46 EQ PUSH2 0x1024 JUMPI DUP1 PUSH4 0xAB7B1C89 EQ PUSH2 0xDC6 JUMPI DUP1 PUSH4 0xAD3FBE30 EQ PUSH2 0xD8C JUMPI DUP1 PUSH4 0xB88D4FDE EQ PUSH2 0xD2D JUMPI DUP1 PUSH4 0xC2F1419E EQ PUSH2 0xD0F JUMPI DUP1 PUSH4 0xC4479EC6 EQ PUSH2 0xC0B JUMPI DUP1 PUSH4 0xC87B56DD EQ PUSH2 0xB65 JUMPI DUP1 PUSH4 0xCA2DFD0A EQ PUSH2 0xB23 JUMPI DUP1 PUSH4 0xCCDD9F5D EQ PUSH2 0x900 JUMPI DUP1 PUSH4 0xCF35BDD0 EQ PUSH2 0x804 JUMPI DUP1 PUSH4 0xD1B332F4 EQ PUSH2 0x756 JUMPI DUP1 PUSH4 0xD8BAD5BD EQ PUSH2 0x6FE JUMPI DUP1 PUSH4 0xDF5DD1A5 EQ PUSH2 0x6B9 JUMPI DUP1 PUSH4 0xE1EC3C68 EQ PUSH2 0x5E2 JUMPI DUP1 PUSH4 0xE985E9C5 EQ PUSH2 0x58C JUMPI DUP1 PUSH4 0xEAC8F5B8 EQ PUSH2 0x380 JUMPI DUP1 PUSH4 0xEC18154E EQ PUSH2 0x362 JUMPI DUP1 PUSH4 0xF2FDE38B EQ PUSH2 0x2D9 JUMPI PUSH4 0xFDC85FC4 EQ PUSH2 0x292 JUMPI CODESIZE PUSH2 0xF JUMP JUMPDEST CALLVALUE PUSH2 0x2D4 JUMPI PUSH1 0x20 CALLDATASIZE PUSH1 0x3 NOT ADD SLT PUSH2 0x2D4 JUMPI PUSH2 0x2AB PUSH2 0x2E17 JUMP JUMPDEST PUSH2 0x2B3 PUSH2 0x311C JUMP JUMPDEST PUSH1 0x1 PUSH1 0x1 PUSH1 0xA0 SHL SUB AND PUSH1 0x0 SWAP1 DUP2 MSTORE PUSH1 0x10 PUSH1 0x20 MSTORE PUSH1 0x40 SWAP1 KECCAK256 DUP1 SLOAD PUSH1 0xFF NOT AND SWAP1 SSTORE STOP JUMPDEST PUSH1 0x0 DUP1 REVERT JUMPDEST CALLVALUE PUSH2 0x2D4 JUMPI PUSH1 0x20 CALLDATASIZE PUSH1 0x3 NOT ADD SLT PUSH2 0x2D4 JUMPI PUSH2 0x2F2 PUSH2 0x2E17 JUMP JUMPDEST PUSH2 0x2FA PUSH2 0x311C JUMP JUMPDEST PUSH1 0x1 PUSH1 0x1 PUSH1 0xA0 SHL SUB SWAP1 DUP2 AND SWAP1 DUP2 ISZERO PUSH2 0x349 JUMPI PUSH1 0x6 SLOAD DUP3 PUSH1 0x1 PUSH1 0x1 PUSH1 0x60 SHL SUB PUSH1 0xA0 SHL DUP3 AND OR PUSH1 0x6 SSTORE AND PUSH32 0x8BE0079C531659141344CD1FD0A4F28419497F9722A3DAAFE3B4186F6B6457E0 PUSH1 0x0 DUP1 LOG3 STOP JUMPDEST PUSH1 0x40 MLOAD PUSH4 0x1E4FBDF7 PUSH1 0xE0 SHL DUP2 MSTORE PUSH1 0x0 PUSH1 0x4 DUP3 ADD MSTORE PUSH1 0x24 SWAP1 REVERT JUMPDEST CALLVALUE PUSH2 0x2D4 JUMPI PUSH1 0x0 CALLDATASIZE PUSH1 0x3 NOT ADD SLT PUSH2 0x2D4 JUMPI PUSH1 0x20 PUSH1 0x14 SLOAD PUSH1 0x40 MLOAD SWAP1 DUP2 MSTORE RETURN JUMPDEST CALLVALUE PUSH2 0x2D4 JUMPI PUSH1 0x20 CALLDATASIZE PUSH1 0x3 NOT ADD SLT PUSH2 0x2D4 JUMPI PUSH1 0x0 PUSH2 0x140 PUSH1 0x40 MLOAD PUSH2 0x3A2 DUP2 PUSH2 0x2F75 JUMP JUMPDEST DUP3 DUP2 MSTORE DUP3 PUSH1 0x20 DUP3 ADD MSTORE DUP3 PUSH1 0x40 DUP3 ADD MSTORE DUP3 PUSH1 0x60 DUP3 ADD MSTORE PUSH1 0x60 PUSH1 0x80 DUP3 ADD MSTORE PUSH1 0x60 PUSH1 0xA0 DUP3 ADD MSTORE PUSH1 0x60 PUSH1 0xC0 DUP3 ADD MSTORE DUP3 PUSH1 0xE0 DUP3 ADD MSTORE DUP3 PUSH2 0x100 DUP3 ADD MSTORE DUP3 PUSH2 0x120 DUP3 ADD MSTORE ADD MSTORE PUSH1 0x4 CALLDATALOAD PUSH1 0x0 MSTORE PUSH1 0xB PUSH1 0x20 MSTORE PUSH1 0x40 PUSH1 0x0 KECCAK256 PUSH1 0x40 MLOAD SWAP1 PUSH2 0x3FF DUP3 PUSH2 0x2F75 JUMP JUMPDEST DUP1 SLOAD DUP3 MSTORE PUSH1 0x1 DUP2 ADD SLOAD PUSH2 0x418 PUSH1 0xFF DUP3 AND PUSH1 0x20 DUP6 ADD PUSH2 0x3533 JUMP JUMPDEST PUSH1 0x8 SHR PUSH1 0x1 PUSH1 0x1 PUSH1 0xA0 SHL SUB AND PUSH1 0x40 DUP4 ADD MSTORE PUSH1 0x2 DUP2 ADD SLOAD PUSH1 0x60 DUP4 ADD MSTORE PUSH2 0x43F PUSH1 0x3 DUP3 ADD PUSH2 0x305C JUMP JUMPDEST PUSH1 0x80 DUP4 ADD MSTORE PUSH2 0x450 PUSH1 0x4 DUP3 ADD PUSH2 0x305C JUMP JUMPDEST PUSH1 0xA0 DUP4 ADD MSTORE PUSH2 0x461 PUSH1 0x5 DUP3 ADD PUSH2 0x305C JUMP JUMPDEST PUSH1 0xC0 DUP4 ADD MSTORE PUSH1 0x6 DUP2 ADD SLOAD SWAP1 PUSH1 0xFF DUP3 AND ISZERO ISZERO PUSH1 0xE0 DUP5 ADD MSTORE PUSH1 0xFF DUP3 PUSH1 0x8 SHR AND ISZERO ISZERO PUSH2 0x100 DUP5 ADD MSTORE PUSH1 0x3 PUSH1 0xFF DUP4 PUSH1 0x10 SHR AND LT ISZERO PUSH2 0x576 JUMPI PUSH1 0xFF PUSH1 0x7 SWAP3 PUSH1 0x10 SHR AND PUSH2 0x120 DUP5 ADD MSTORE ADD SLOAD PUSH2 0x140 DUP3 ADD MSTORE PUSH1 0x40 MLOAD DUP1 SWAP2 PUSH1 0x20 DUP3 MSTORE DUP1 MLOAD PUSH1 0x20 DUP4 ADD MSTORE PUSH2 0x4CE PUSH1 0x20 DUP3 ADD MLOAD PUSH1 0x40 DUP5 ADD SWAP1 PUSH2 0x3102 JUMP JUMPDEST PUSH1 0x1 DUP1 PUSH1 0xA0 SHL SUB PUSH1 0x40 DUP3 ADD MLOAD AND PUSH1 0x60 DUP4 ADD MSTORE PUSH1 0x60 DUP2 ADD MLOAD PUSH1 0x80 DUP4 ADD MSTORE PUSH1 0x80 DUP2 ADD MLOAD PUSH2 0x140 PUSH2 0x53E PUSH2 0x50D PUSH2 0x160 SWAP4 DUP5 PUSH1 0xA0 DUP9 ADD MSTORE PUSH2 0x180 DUP8 ADD SWAP1 PUSH2 0x2E7E JUMP JUMPDEST PUSH2 0x529 PUSH1 0xA0 DUP7 ADD MLOAD SWAP2 PUSH1 0x1F NOT SWAP3 DUP4 DUP10 DUP4 SUB ADD PUSH1 0xC0 DUP11 ADD MSTORE PUSH2 0x2E7E JUMP JUMPDEST SWAP1 PUSH1 0xC0 DUP7 ADD MLOAD SWAP1 DUP8 DUP4 SUB ADD PUSH1 0xE0 DUP9 ADD MSTORE PUSH2 0x2E7E JUMP JUMPDEST SWAP3 PUSH1 0xE0 DUP2 ADD MLOAD ISZERO ISZERO PUSH2 0x100 DUP7 ADD MSTORE PUSH2 0x100 DUP2 ADD MLOAD ISZERO ISZERO PUSH2 0x120 DUP7 ADD MSTORE PUSH2 0x56C PUSH2 0x120 DUP3 ADD MLOAD DUP4 DUP8 ADD SWAP1 PUSH2 0x310F JUMP JUMPDEST ADD MLOAD SWAP1 DUP4 ADD MSTORE SUB SWAP1 RETURN JUMPDEST PUSH4 0x4E487B71 PUSH1 0xE0 SHL PUSH1 0x0 MSTORE PUSH1 0x21 PUSH1 0x4 MSTORE PUSH1 0x24 PUSH1 0x0 REVERT JUMPDEST CALLVALUE PUSH2 0x2D4 JUMPI PUSH1 0x40 CALLDATASIZE PUSH1 0x3 NOT ADD SLT PUSH2 0x2D4 JUMPI PUSH2 0x5A5 PUSH2 0x2E17 JUMP JUMPDEST PUSH2 0x5AD PUSH2 0x2E2D JUMP JUMPDEST SWAP1 PUSH1 0x1 DUP1 PUSH1 0xA0 SHL SUB DUP1 SWAP2 AND PUSH1 0x0 MSTORE PUSH1 0x5 PUSH1 0x20 MSTORE PUSH1 0x40 PUSH1 0x0 KECCAK256 SWAP2 AND PUSH1 0x0 MSTORE PUSH1 0x20 MSTORE PUSH1 0x20 PUSH1 0xFF PUSH1 0x40 PUSH1 0x0 KECCAK256 SLOAD AND PUSH1 0x40 MLOAD SWAP1 ISZERO ISZERO DUP2 MSTORE RETURN JUMPDEST CALLVALUE PUSH2 0x2D4 JUMPI PUSH1 0x20 CALLDATASIZE PUSH1 0x3 NOT ADD SLT PUSH2 0x2D4 JUMPI PUSH1 0x4 CALLDATALOAD PUSH1 0x0 MSTORE PUSH1 0xC PUSH1 0x20 MSTORE PUSH1 0x40 PUSH1 0x0 KECCAK256 DUP1 SLOAD SWAP1 PUSH1 0x1 PUSH1 0xA0 SHL PUSH1 0x1 SWAP1 SUB SWAP1 DUP2 PUSH1 0x1 DUP3 ADD SLOAD AND SWAP2 PUSH1 0x2 DUP3 ADD SLOAD AND PUSH1 0x3 DUP3 ADD SLOAD PUSH1 0x4 DUP4 ADD SLOAD PUSH1 0x5 DUP5 ADD SLOAD PUSH1 0x6 DUP6 ADD SLOAD PUSH1 0x7 DUP7 ADD SLOAD SWAP1 PUSH1 0x8 DUP8 ADD SLOAD SWAP3 PUSH1 0x9 DUP9 ADD SLOAD SWAP5 PUSH1 0xA DUP10 ADD SLOAD SWAP7 PUSH1 0xB DUP11 ADD SLOAD PUSH1 0xFF AND SWAP9 PUSH1 0xC DUP12 ADD SLOAD SWAP11 PUSH1 0xD ADD SLOAD SWAP12 PUSH1 0x40 MLOAD DUP1 SWAP15 DUP2 MSTORE PUSH1 0x20 ADD MSTORE PUSH1 0x40 DUP14 ADD MSTORE PUSH1 0x60 DUP13 ADD MSTORE PUSH1 0x80 DUP12 ADD MSTORE PUSH1 0xA0 DUP11 ADD MSTORE PUSH1 0xC0 DUP10 ADD MSTORE PUSH1 0xE0 DUP9 ADD MSTORE PUSH2 0x100 DUP8 ADD MSTORE PUSH2 0x120 DUP7 ADD MSTORE PUSH2 0x140 DUP6 ADD MSTORE PUSH2 0x160 DUP5 ADD PUSH2 0x6A7 SWAP2 PUSH2 0x2EBE JUMP JUMPDEST PUSH2 0x180 DUP4 ADD MSTORE PUSH2 0x1A0 DUP3 ADD MSTORE PUSH2 0x1C0 SWAP1 RETURN JUMPDEST CALLVALUE PUSH2 0x2D4 JUMPI PUSH1 0x20 CALLDATASIZE PUSH1 0x3 NOT ADD SLT PUSH2 0x2D4 JUMPI PUSH2 0x6D2 PUSH2 0x2E17 JUMP JUMPDEST PUSH2 0x6DA PUSH2 0x311C JUMP JUMPDEST PUSH1 0x1 PUSH1 0x1 PUSH1 0xA0 SHL SUB AND PUSH1 0x0 SWAP1 DUP2 MSTORE PUSH1 0x10 PUSH1 0x20 MSTORE PUSH1 0x40 SWAP1 KECCAK256 DUP1 SLOAD PUSH1 0xFF NOT AND PUSH1 0x1 OR SWAP1 SSTORE STOP JUMPDEST CALLVALUE PUSH2 0x2D4 JUMPI PUSH1 0x40 CALLDATASIZE PUSH1 0x3 NOT ADD SLT PUSH2 0x2D4 JUMPI PUSH2 0x717 PUSH2 0x2E17 JUMP JUMPDEST PUSH1 0x1 PUSH1 0x1 PUSH1 0xA0 SHL SUB AND PUSH1 0x0 SWAP1 DUP2 MSTORE PUSH1 0x12 PUSH1 0x20 MSTORE PUSH1 0x40 SWAP1 KECCAK256 DUP1 SLOAD PUSH1 0x24 CALLDATALOAD SWAP2 SWAP1 DUP3 LT ISZERO PUSH2 0x2D4 JUMPI PUSH1 0x20 SWAP2 PUSH2 0x748 SWAP2 PUSH2 0x2F00 JUMP JUMPDEST SWAP1 SLOAD PUSH1 0x40 MLOAD SWAP2 PUSH1 0x3 SHL SHR DUP2 MSTORE RETURN JUMPDEST CALLVALUE PUSH2 0x2D4 JUMPI PUSH1 0x20 CALLDATASIZE PUSH1 0x3 NOT ADD SLT PUSH2 0x2D4 JUMPI PUSH1 0x4 CALLDATALOAD PUSH1 0x0 MSTORE PUSH1 0xD PUSH1 0x20 MSTORE PUSH1 0x40 PUSH1 0x0 KECCAK256 DUP1 SLOAD PUSH1 0x1 DUP1 PUSH1 0xA0 SHL SUB PUSH1 0x1 DUP4 ADD SLOAD AND SWAP2 PUSH1 0x2 DUP2 ADD SLOAD PUSH2 0x7FA PUSH2 0x7EF PUSH1 0x3 DUP5 ADD SLOAD PUSH1 0x4 DUP6 ADD SLOAD PUSH1 0x5 DUP7 ADD SLOAD SWAP1 PUSH2 0x7AE PUSH1 0x6 DUP9 ADD PUSH2 0x305C JUMP JUMPDEST SWAP3 PUSH1 0x8 PUSH1 0xFF PUSH1 0x7 DUP11 ADD SLOAD AND SWAP9 ADD SLOAD SWAP7 PUSH1 0x40 MLOAD SWAP11 DUP12 SWAP11 DUP12 MSTORE PUSH1 0x20 DUP12 ADD MSTORE PUSH1 0x40 DUP11 ADD MSTORE PUSH1 0x60 DUP10 ADD MSTORE PUSH1 0x80 DUP9 ADD MSTORE PUSH1 0xA0 DUP8 ADD MSTORE PUSH2 0x120 DUP1 PUSH1 0xC0 DUP9 ADD MSTORE DUP7 ADD SWAP1 PUSH2 0x2E7E JUMP JUMPDEST SWAP3 PUSH1 0xE0 DUP6 ADD SWAP1 PUSH2 0x2EBE JUMP JUMPDEST PUSH2 0x100 DUP4 ADD MSTORE SUB SWAP1 RETURN JUMPDEST CALLVALUE PUSH2 0x2D4 JUMPI PUSH1 0x20 CALLDATASIZE PUSH1 0x3 NOT ADD SLT PUSH2 0x2D4 JUMPI PUSH1 0x4 CALLDATALOAD PUSH1 0x0 MSTORE PUSH1 0xB PUSH1 0x20 MSTORE PUSH1 0x40 PUSH1 0x0 KECCAK256 DUP1 SLOAD PUSH1 0x1 DUP3 ADD SLOAD SWAP2 PUSH1 0x2 DUP2 ADD SLOAD PUSH2 0x8F6 PUSH2 0x8CA PUSH2 0x844 PUSH1 0x3 DUP6 ADD PUSH2 0x305C JUMP JUMPDEST PUSH2 0x8BC PUSH2 0x853 PUSH1 0x4 DUP8 ADD PUSH2 0x305C JUMP JUMPDEST PUSH2 0x8AE PUSH2 0x862 PUSH1 0x5 DUP10 ADD PUSH2 0x305C JUMP JUMPDEST SWAP4 PUSH1 0x7 PUSH1 0x6 DUP11 ADD SLOAD SWAP10 ADD SLOAD SWAP8 PUSH1 0x40 MLOAD SWAP12 DUP13 SWAP12 DUP13 MSTORE PUSH2 0x886 PUSH1 0x20 DUP14 ADD PUSH1 0xFF DUP4 AND PUSH2 0x3102 JUMP JUMPDEST PUSH1 0x8 SHR PUSH1 0x1 PUSH1 0x1 PUSH1 0xA0 SHL SUB AND PUSH1 0x40 DUP13 ADD MSTORE PUSH1 0x60 DUP12 ADD MSTORE PUSH2 0x160 PUSH1 0x80 DUP12 ADD DUP2 SWAP1 MSTORE DUP11 ADD SWAP1 PUSH2 0x2E7E JUMP JUMPDEST SWAP1 DUP9 DUP3 SUB PUSH1 0xA0 DUP11 ADD MSTORE PUSH2 0x2E7E JUMP JUMPDEST SWAP1 DUP7 DUP3 SUB PUSH1 0xC0 DUP9 ADD MSTORE PUSH2 0x2E7E JUMP JUMPDEST SWAP3 PUSH1 0xFF DUP2 AND ISZERO ISZERO PUSH1 0xE0 DUP7 ADD MSTORE PUSH1 0xFF DUP2 PUSH1 0x8 SHR AND ISZERO ISZERO PUSH2 0x100 DUP7 ADD MSTORE PUSH1 0xFF PUSH2 0x120 DUP7 ADD SWAP2 PUSH1 0x10 SHR AND PUSH2 0x310F JUMP JUMPDEST PUSH2 0x140 DUP4 ADD MSTORE SUB SWAP1 RETURN JUMPDEST CALLVALUE PUSH2 0x2D4 JUMPI PUSH1 0x20 DUP1 PUSH1 0x3 NOT CALLDATASIZE ADD SLT PUSH2 0x2D4 JUMPI PUSH1 0x4 CALLDATALOAD SWAP1 PUSH2 0x91E PUSH2 0x364E JUMP JUMPDEST PUSH2 0x927 DUP3 PUSH2 0x3799 JUMP JUMPDEST ISZERO PUSH2 0xAE7 JUMPI DUP2 PUSH1 0x0 MSTORE PUSH1 0xC DUP2 MSTORE PUSH1 0x40 PUSH1 0x0 KECCAK256 SWAP2 PUSH1 0x3 DUP4 ADD SLOAD SWAP2 DUP3 PUSH1 0x0 MSTORE PUSH1 0xE DUP2 MSTORE PUSH1 0x40 PUSH1 0x0 KECCAK256 SLOAD SWAP4 PUSH2 0x1F4 DUP1 DUP7 MUL SWAP1 DUP7 DUP3 DIV EQ DUP7 ISZERO OR ISZERO PUSH2 0xAD1 JUMPI PUSH2 0x2710 SWAP1 DIV PUSH1 0x2 DUP3 ADD PUSH1 0x1 DUP1 PUSH1 0xA0 SHL SUB SWAP1 DUP2 DUP2 SLOAD AND SWAP3 DUP4 CALLER SUB PUSH2 0xA97 JUMPI JUMPDEST POP POP DUP1 PUSH1 0x1 DUP5 ADD SLOAD AND SWAP1 DUP1 DUP4 AND ISZERO PUSH2 0xA7E JUMPI PUSH2 0x99C DUP8 DUP5 PUSH2 0x342D JUMP JUMPDEST SWAP1 DUP2 AND DUP1 PUSH2 0x9BD JUMPI PUSH1 0x40 MLOAD PUSH4 0x7E273289 PUSH1 0xE0 SHL DUP2 MSTORE PUSH1 0x4 DUP2 ADD DUP10 SWAP1 MSTORE PUSH1 0x24 SWAP1 REVERT JUMPDEST SWAP1 DUP3 DUP10 SWAP9 SWAP4 SWAP3 SUB PUSH2 0xA4E JUMPI POP POP PUSH1 0x0 SWAP1 DUP2 MSTORE PUSH1 0xB DUP1 DUP6 MSTORE PUSH1 0x40 SWAP1 SWAP2 KECCAK256 PUSH1 0x1 DUP2 ADD DUP1 SLOAD PUSH2 0x100 PUSH1 0x1 PUSH1 0xA8 SHL SUB NOT AND PUSH1 0x8 SWAP5 SWAP1 SWAP5 SHL PUSH2 0x100 PUSH1 0x1 PUSH1 0xA8 SHL SUB AND SWAP4 SWAP1 SWAP4 OR SWAP1 SWAP3 SSTORE PUSH32 0x256BDF47E9AFF5784070D6CAB332D79F81FC6B8C8ED875565982A423A389E3A SWAP4 SWAP3 SWAP1 SWAP2 PUSH1 0x6 ADD DUP1 SLOAD PUSH2 0xFF00 NOT AND SWAP1 SSTORE ADD DUP1 SLOAD PUSH1 0xFF NOT AND PUSH1 0x4 OR SWAP1 SSTORE PUSH1 0x40 MLOAD SWAP4 DUP5 MSTORE CALLER SWAP4 LOG3 PUSH1 0x1 PUSH1 0x7 SSTORE STOP JUMPDEST PUSH1 0x40 MLOAD PUSH4 0x64283D7B PUSH1 0xE0 SHL DUP2 MSTORE PUSH1 0x1 PUSH1 0x1 PUSH1 0xA0 SHL SUB SWAP3 DUP4 AND PUSH1 0x4 DUP3 ADD MSTORE PUSH1 0x24 DUP2 ADD SWAP4 SWAP1 SWAP4 MSTORE AND PUSH1 0x44 DUP3 ADD MSTORE PUSH1 0x64 SWAP1 REVERT JUMPDEST PUSH1 0x40 MLOAD PUSH4 0x32505749 PUSH1 0xE1 SHL DUP2 MSTORE PUSH1 0x0 PUSH1 0x4 DUP3 ADD MSTORE PUSH1 0x24 SWAP1 REVERT JUMPDEST PUSH1 0x0 DUP1 DUP1 SWAP4 SWAP5 SWAP6 POP DUP1 SWAP3 DUP2 DUP2 ISZERO PUSH2 0xAC8 JUMPI JUMPDEST CALLER SWAP1 CALL ISZERO PUSH2 0xABC JUMPI SLOAD DUP2 AND SWAP1 DUP8 DUP1 PUSH2 0x980 JUMP JUMPDEST PUSH1 0x40 MLOAD RETURNDATASIZE PUSH1 0x0 DUP3 RETURNDATACOPY RETURNDATASIZE SWAP1 REVERT JUMPDEST POP PUSH2 0x8FC PUSH2 0xAA9 JUMP JUMPDEST PUSH4 0x4E487B71 PUSH1 0xE0 SHL PUSH1 0x0 MSTORE PUSH1 0x11 PUSH1 0x4 MSTORE PUSH1 0x24 PUSH1 0x0 REVERT JUMPDEST PUSH1 0x64 SWAP1 PUSH1 0x40 MLOAD SWAP1 PUSH3 0x461BCD PUSH1 0xE5 SHL DUP3 MSTORE PUSH1 0x4 DUP3 ADD MSTORE PUSH1 0x15 PUSH1 0x24 DUP3 ADD MSTORE PUSH21 0x4C6F616E206E6F74206C6971756964617461626C65 PUSH1 0x58 SHL PUSH1 0x44 DUP3 ADD MSTORE REVERT JUMPDEST CALLVALUE PUSH2 0x2D4 JUMPI PUSH1 0x20 CALLDATASIZE PUSH1 0x3 NOT ADD SLT PUSH2 0x2D4 JUMPI PUSH2 0xB3C PUSH2 0x2E17 JUMP JUMPDEST PUSH2 0xB44 PUSH2 0x311C JUMP JUMPDEST PUSH1 0x1 PUSH1 0x1 PUSH1 0xA0 SHL SUB AND PUSH1 0x0 SWAP1 DUP2 MSTORE PUSH1 0xF PUSH1 0x20 MSTORE PUSH1 0x40 SWAP1 KECCAK256 DUP1 SLOAD PUSH1 0xFF NOT AND SWAP1 SSTORE STOP JUMPDEST CALLVALUE PUSH2 0x2D4 JUMPI PUSH1 0x20 CALLDATASIZE PUSH1 0x3 NOT ADD SLT PUSH2 0x2D4 JUMPI PUSH1 0x4 CALLDATALOAD PUSH1 0x0 DUP2 DUP2 MSTORE PUSH1 0xB PUSH1 0x20 MSTORE PUSH1 0x40 SWAP1 KECCAK256 PUSH1 0x1 ADD SLOAD PUSH1 0x8 SHR PUSH1 0x1 PUSH1 0x1 PUSH1 0xA0 SHL SUB AND ISZERO PUSH2 0xBCF JUMPI PUSH1 0x0 MSTORE PUSH1 0xB PUSH1 0x20 MSTORE PUSH2 0xBCB PUSH2 0xBB7 PUSH1 0x3 PUSH1 0x40 PUSH1 0x0 KECCAK256 ADD PUSH2 0x305C JUMP JUMPDEST PUSH1 0x40 MLOAD SWAP2 DUP3 SWAP2 PUSH1 0x20 DUP4 MSTORE PUSH1 0x20 DUP4 ADD SWAP1 PUSH2 0x2E7E JUMP JUMPDEST SUB SWAP1 RETURN JUMPDEST PUSH1 0x40 MLOAD PUSH3 0x461BCD PUSH1 0xE5 SHL DUP2 MSTORE PUSH1 0x20 PUSH1 0x4 DUP3 ADD MSTORE PUSH1 0x14 PUSH1 0x24 DUP3 ADD MSTORE PUSH20 0x151BDAD95B88191BD95CC81B9BDD08195E1A5CDD PUSH1 0x62 SHL PUSH1 0x44 DUP3 ADD MSTORE PUSH1 0x64 SWAP1 REVERT JUMPDEST CALLVALUE PUSH2 0x2D4 JUMPI PUSH1 0x40 CALLDATASIZE PUSH1 0x3 NOT ADD SLT PUSH2 0x2D4 JUMPI PUSH1 0x4 CALLDATALOAD PUSH1 0x24 CALLDATALOAD CALLER PUSH1 0x0 MSTORE PUSH1 0x20 SWAP1 PUSH1 0x10 DUP3 MSTORE PUSH1 0xFF PUSH1 0x40 PUSH1 0x0 KECCAK256 SLOAD AND ISZERO PUSH2 0xCD2 JUMPI PUSH32 0x15819DD2FD9F6418B142E798D08A18D0BF06EA368F4480B7B0D3F75BD966BC48 SWAP2 PUSH1 0x40 SWAP2 PUSH2 0xC8D PUSH2 0xC88 DUP7 PUSH1 0x0 MSTORE PUSH1 0xB PUSH1 0x20 MSTORE PUSH1 0x1 DUP1 PUSH1 0xA0 SHL SUB PUSH1 0x1 PUSH1 0x40 PUSH1 0x0 KECCAK256 ADD SLOAD PUSH1 0x8 SHR AND ISZERO ISZERO SWAP1 JUMP JUMPDEST PUSH2 0x3579 JUMP JUMPDEST DUP5 PUSH1 0x0 MSTORE PUSH1 0xB DUP3 MSTORE PUSH2 0xCA8 PUSH1 0xFF PUSH1 0x6 DUP6 PUSH1 0x0 KECCAK256 ADD SLOAD AND PUSH2 0x35BC JUMP JUMPDEST DUP5 PUSH1 0x0 MSTORE PUSH1 0xE DUP3 MSTORE DUP3 PUSH1 0x0 KECCAK256 SWAP2 DUP2 DUP4 SLOAD SWAP4 SSTORE PUSH1 0xB DUP2 MSTORE DUP2 PUSH1 0x2 DUP6 PUSH1 0x0 KECCAK256 ADD SSTORE DUP4 MLOAD SWAP3 DUP4 MSTORE DUP3 ADD MSTORE LOG2 STOP JUMPDEST PUSH1 0x40 MLOAD PUSH3 0x461BCD PUSH1 0xE5 SHL DUP2 MSTORE PUSH1 0x4 DUP2 ADD DUP4 SWAP1 MSTORE PUSH1 0x15 PUSH1 0x24 DUP3 ADD MSTORE PUSH21 0x4E6F7420617574686F72697A6564206F7261636C65 PUSH1 0x58 SHL PUSH1 0x44 DUP3 ADD MSTORE PUSH1 0x64 SWAP1 REVERT JUMPDEST CALLVALUE PUSH2 0x2D4 JUMPI PUSH1 0x0 CALLDATASIZE PUSH1 0x3 NOT ADD SLT PUSH2 0x2D4 JUMPI PUSH1 0x20 PUSH1 0x16 SLOAD PUSH1 0x40 MLOAD SWAP1 DUP2 MSTORE RETURN JUMPDEST CALLVALUE PUSH2 0x2D4 JUMPI PUSH1 0x80 CALLDATASIZE PUSH1 0x3 NOT ADD SLT PUSH2 0x2D4 JUMPI PUSH2 0xD46 PUSH2 0x2E17 JUMP JUMPDEST PUSH2 0xD4E PUSH2 0x2E2D JUMP JUMPDEST PUSH1 0x64 CALLDATALOAD SWAP2 PUSH1 0x1 PUSH1 0x1 PUSH1 0x40 SHL SUB DUP4 GT PUSH2 0x2D4 JUMPI CALLDATASIZE PUSH1 0x23 DUP5 ADD SLT ISZERO PUSH2 0x2D4 JUMPI PUSH2 0xD82 PUSH2 0x1B SWAP4 CALLDATASIZE SWAP1 PUSH1 0x24 DUP2 PUSH1 0x4 ADD CALLDATALOAD SWAP2 ADD PUSH2 0x2FCD JUMP JUMPDEST SWAP2 PUSH1 0x44 CALLDATALOAD SWAP2 PUSH2 0x32D8 JUMP JUMPDEST CALLVALUE PUSH2 0x2D4 JUMPI PUSH1 0x20 CALLDATASIZE PUSH1 0x3 NOT ADD SLT PUSH2 0x2D4 JUMPI PUSH2 0xDA5 PUSH2 0x311C JUMP JUMPDEST PUSH1 0x4 CALLDATALOAD PUSH1 0x0 SWAP1 DUP2 MSTORE PUSH1 0xC PUSH1 0x20 MSTORE PUSH1 0x40 SWAP1 KECCAK256 PUSH1 0xB ADD DUP1 SLOAD PUSH1 0xFF NOT AND PUSH1 0x5 OR SWAP1 SSTORE STOP JUMPDEST PUSH1 0x20 DUP1 PUSH1 0x3 NOT CALLDATASIZE ADD SLT PUSH2 0x2D4 JUMPI PUSH1 0x4 CALLDATALOAD PUSH2 0xDDE PUSH2 0x364E JUMP JUMPDEST DUP1 PUSH1 0x0 MSTORE PUSH1 0xC DUP3 MSTORE PUSH1 0x40 PUSH1 0x0 KECCAK256 SWAP2 PUSH1 0x1 DUP1 PUSH1 0xA0 SHL SUB DUP1 PUSH1 0x1 DUP6 ADD SLOAD AND CALLER SUB PUSH2 0xFEB JUMPI PUSH1 0xB DUP5 ADD SWAP4 PUSH1 0xFF DUP6 SLOAD AND PUSH1 0x6 DUP2 LT ISZERO PUSH2 0x576 JUMPI PUSH1 0x2 SUB PUSH2 0xFB4 JUMPI CALLVALUE ISZERO PUSH2 0xF6F JUMPI PUSH2 0xE29 DUP5 PUSH2 0x3671 JUMP JUMPDEST SWAP5 CALLVALUE DUP7 GT PUSH2 0xEFE JUMPI PUSH1 0x0 DUP7 DUP2 SWAP5 PUSH1 0x2 DUP6 DUP5 SWAP7 SWAP6 DUP5 PUSH1 0xC DUP8 SWAP9 ADD SSTORE PUSH1 0x3 PUSH1 0xFF NOT DUP3 SLOAD AND OR SWAP1 SSTORE TIMESTAMP PUSH1 0xD DUP3 ADD SSTORE PUSH1 0x3 DUP2 ADD SLOAD DUP6 MSTORE PUSH1 0xB DUP10 MSTORE PUSH1 0x6 PUSH1 0x40 DUP7 KECCAK256 ADD PUSH2 0xFF00 NOT DUP2 SLOAD AND SWAP1 SSTORE ADD SLOAD AND DUP3 DUP3 ISZERO PUSH2 0xEF5 JUMPI JUMPDEST CALL ISZERO PUSH2 0xABC JUMPI DUP3 CALLVALUE GT PUSH2 0xEC2 JUMPI JUMPDEST PUSH1 0x0 SWAP1 PUSH1 0x40 MLOAD SWAP4 DUP5 MSTORE DUP4 ADD MSTORE PUSH32 0x423D4247C9657CDB09843C408AF41209510B73810B54AD1E03DE626EC3212390 PUSH1 0x40 CALLER SWAP4 LOG3 JUMPDEST PUSH1 0x1 PUSH1 0x7 SSTORE STOP JUMPDEST PUSH1 0x0 DUP1 DUP1 DUP1 PUSH2 0xED1 DUP8 CALLVALUE PUSH2 0x3634 JUMP JUMPDEST DUP2 DUP2 ISZERO PUSH2 0xEEC JUMPI JUMPDEST CALLER SWAP1 CALL PUSH2 0xE88 JUMPI PUSH1 0x40 MLOAD RETURNDATASIZE PUSH1 0x0 DUP3 RETURNDATACOPY RETURNDATASIZE SWAP1 REVERT JUMPDEST POP PUSH2 0x8FC PUSH2 0xED9 JUMP JUMPDEST POP PUSH2 0x8FC PUSH2 0xE7A JUMP JUMPDEST POP PUSH1 0x0 DUP1 DUP1 DUP4 PUSH1 0xC DUP3 SWAP6 SWAP10 SWAP7 SWAP8 SWAP10 ADD SWAP7 PUSH2 0xF19 CALLVALUE DUP10 SLOAD PUSH2 0x3641 JUMP JUMPDEST DUP9 SSTORE TIMESTAMP PUSH1 0xD DUP4 ADD SSTORE PUSH1 0x2 CALLVALUE SWAP3 ADD SLOAD AND DUP3 CALL ISZERO PUSH2 0xABC JUMPI PUSH2 0xF3A SWAP2 SLOAD SWAP1 PUSH2 0x3634 JUMP JUMPDEST PUSH1 0x40 MLOAD SWAP3 CALLVALUE DUP5 MSTORE DUP4 ADD MSTORE PUSH32 0x423D4247C9657CDB09843C408AF41209510B73810B54AD1E03DE626EC3212390 PUSH1 0x40 CALLER SWAP4 LOG3 PUSH2 0xEBB JUMP JUMPDEST PUSH1 0x40 MLOAD PUSH3 0x461BCD PUSH1 0xE5 SHL DUP2 MSTORE PUSH1 0x4 DUP2 ADD DUP5 SWAP1 MSTORE PUSH1 0x17 PUSH1 0x24 DUP3 ADD MSTORE PUSH32 0x5061796D656E7420616D6F756E74207265717569726564000000000000000000 PUSH1 0x44 DUP3 ADD MSTORE PUSH1 0x64 SWAP1 REVERT JUMPDEST PUSH1 0x40 MLOAD PUSH3 0x461BCD PUSH1 0xE5 SHL DUP2 MSTORE PUSH1 0x4 DUP2 ADD DUP5 SWAP1 MSTORE PUSH1 0xF PUSH1 0x24 DUP3 ADD MSTORE PUSH15 0x4C6F616E206E6F7420616374697665 PUSH1 0x88 SHL PUSH1 0x44 DUP3 ADD MSTORE PUSH1 0x64 SWAP1 REVERT JUMPDEST PUSH1 0x40 MLOAD PUSH3 0x461BCD PUSH1 0xE5 SHL DUP2 MSTORE PUSH1 0x4 DUP2 ADD DUP4 SWAP1 MSTORE PUSH1 0x11 PUSH1 0x24 DUP3 ADD MSTORE PUSH17 0x2737BA103637B0B7103137B93937BBB2B9 PUSH1 0x79 SHL PUSH1 0x44 DUP3 ADD MSTORE PUSH1 0x64 SWAP1 REVERT JUMPDEST CALLVALUE PUSH2 0x2D4 JUMPI PUSH1 0xA0 CALLDATASIZE PUSH1 0x3 NOT ADD SLT PUSH2 0x2D4 JUMPI PUSH1 0x84 CALLDATALOAD PUSH1 0x1 PUSH1 0x1 PUSH1 0x40 SHL SUB DUP2 GT PUSH2 0x2D4 JUMPI PUSH2 0x1054 SWAP1 CALLDATASIZE SWAP1 PUSH1 0x4 ADD PUSH2 0x3004 JUMP JUMPDEST PUSH1 0x4 CALLDATALOAD PUSH1 0x0 SWAP1 DUP2 MSTORE PUSH1 0xB PUSH1 0x20 MSTORE PUSH1 0x40 SWAP1 KECCAK256 PUSH1 0x1 ADD SLOAD PUSH2 0x1080 SWAP1 PUSH1 0x8 SHR PUSH1 0x1 PUSH1 0x1 PUSH1 0xA0 SHL SUB AND ISZERO ISZERO PUSH2 0x3579 JUMP JUMPDEST PUSH1 0x4 CALLDATALOAD PUSH1 0x0 MSTORE PUSH1 0xB PUSH1 0x20 MSTORE PUSH2 0x109F PUSH1 0xFF PUSH1 0x6 PUSH1 0x40 PUSH1 0x0 KECCAK256 ADD SLOAD AND PUSH2 0x35BC JUMP JUMPDEST PUSH2 0x10AA PUSH1 0x4 CALLDATALOAD PUSH2 0x34E9 JUMP JUMPDEST CALLER PUSH1 0x1 PUSH1 0x1 PUSH1 0xA0 SHL SUB SWAP1 SWAP2 AND SUB PUSH2 0x14A4 JUMPI PUSH1 0x4 CALLDATALOAD PUSH1 0x0 MSTORE PUSH1 0xB PUSH1 0x20 MSTORE PUSH1 0xFF PUSH1 0x6 PUSH1 0x40 PUSH1 0x0 KECCAK256 ADD SLOAD PUSH1 0x8 SHR AND PUSH2 0x1468 JUMPI PUSH1 0x24 CALLDATALOAD ISZERO PUSH2 0x142D JUMPI PUSH1 0x7 PUSH1 0x64 CALLDATALOAD LT ISZERO DUP1 PUSH2 0x141F JUMPI JUMPDEST ISZERO PUSH2 0x13E7 JUMPI PUSH1 0x4 CALLDATALOAD PUSH1 0x0 MSTORE PUSH1 0xE PUSH1 0x20 MSTORE PUSH1 0x40 PUSH1 0x0 KECCAK256 SLOAD PUSH1 0x50 DUP2 MUL SWAP1 DUP1 DUP3 DIV PUSH1 0x50 EQ SWAP1 ISZERO OR ISZERO PUSH2 0xAD1 JUMPI PUSH1 0x64 SWAP1 DIV PUSH1 0x24 CALLDATALOAD GT PUSH2 0x13AE JUMPI PUSH1 0xA SLOAD SWAP1 PUSH2 0x1130 DUP3 PUSH2 0x3524 JUMP JUMPDEST PUSH1 0xA SSTORE PUSH1 0x40 MLOAD SWAP1 PUSH2 0x1140 DUP3 PUSH2 0x2F3D JUMP JUMPDEST DUP3 DUP3 MSTORE CALLER PUSH1 0x20 DUP4 ADD MSTORE PUSH1 0x4 CALLDATALOAD PUSH1 0x40 DUP4 ADD MSTORE PUSH1 0x24 CALLDATALOAD PUSH1 0x60 DUP4 ADD MSTORE PUSH1 0x44 CALLDATALOAD PUSH1 0x80 DUP4 ADD MSTORE PUSH1 0x64 CALLDATALOAD PUSH1 0xA0 DUP4 ADD MSTORE PUSH1 0xC0 DUP3 ADD MSTORE PUSH1 0x0 PUSH1 0xE0 DUP3 ADD MSTORE TIMESTAMP PUSH2 0x100 DUP3 ADD MSTORE DUP2 PUSH1 0x0 MSTORE PUSH1 0xD PUSH1 0x20 MSTORE PUSH1 0x40 PUSH1 0x0 KECCAK256 SWAP2 DUP2 MLOAD DUP4 SSTORE PUSH1 0x1 DUP4 ADD PUSH1 0x1 DUP1 PUSH1 0xA0 SHL SUB PUSH1 0x20 DUP5 ADD MLOAD AND PUSH1 0x1 PUSH1 0x1 PUSH1 0x60 SHL SUB PUSH1 0xA0 SHL DUP3 SLOAD AND OR SWAP1 SSTORE PUSH1 0x40 DUP3 ADD MLOAD PUSH1 0x2 DUP5 ADD SSTORE PUSH1 0x60 DUP3 ADD MLOAD PUSH1 0x3 DUP5 ADD SSTORE PUSH1 0x80 DUP3 ADD MLOAD PUSH1 0x4 DUP5 ADD SSTORE PUSH1 0xA0 DUP3 ADD MLOAD PUSH1 0x5 DUP5 ADD SSTORE PUSH1 0xC0 DUP3 ADD MLOAD SWAP3 DUP4 MLOAD PUSH1 0x1 PUSH1 0x1 PUSH1 0x40 SHL SUB DUP2 GT PUSH2 0x1398 JUMPI PUSH2 0x11FC PUSH1 0x6 DUP4 ADD SLOAD PUSH2 0x3022 JUMP JUMPDEST PUSH1 0x1F DUP2 GT PUSH2 0x1351 JUMPI JUMPDEST POP PUSH1 0x20 SWAP5 PUSH1 0x1F DUP3 GT PUSH1 0x1 EQ PUSH2 0x12E5 JUMPI SWAP5 DUP2 SWAP3 SWAP4 SWAP5 SWAP6 PUSH1 0x0 SWAP3 PUSH2 0x12DA JUMPI JUMPDEST POP POP DUP2 PUSH1 0x1 SHL SWAP2 PUSH1 0x0 NOT SWAP1 PUSH1 0x3 SHL SHR NOT AND OR PUSH1 0x6 DUP3 ADD SSTORE JUMPDEST PUSH1 0xE0 DUP4 ADD MLOAD SWAP3 PUSH1 0x6 DUP5 LT ISZERO PUSH2 0x576 JUMPI PUSH2 0x100 PUSH1 0x8 SWAP2 PUSH2 0x125E PUSH1 0x20 SWAP7 PUSH1 0x7 DUP7 ADD PUSH2 0x361C JUMP JUMPDEST ADD MLOAD SWAP2 ADD SSTORE PUSH1 0x4 CALLDATALOAD PUSH1 0x0 MSTORE PUSH1 0xB DUP3 MSTORE PUSH1 0x6 PUSH1 0x40 PUSH1 0x0 KECCAK256 ADD PUSH2 0x100 PUSH2 0xFF00 NOT DUP3 SLOAD AND OR SWAP1 SSTORE CALLER PUSH1 0x0 MSTORE PUSH1 0x13 DUP3 MSTORE PUSH2 0x1298 DUP2 PUSH1 0x40 PUSH1 0x0 KECCAK256 PUSH2 0x353F JUMP JUMPDEST PUSH1 0x40 MLOAD PUSH1 0x24 CALLDATALOAD DUP2 MSTORE PUSH1 0x44 CALLDATALOAD DUP4 DUP3 ADD MSTORE PUSH1 0x4 CALLDATALOAD SWAP1 DUP3 PUSH32 0xF6CC19E46A340AB5888D736BFC79AEF72AE92D12D7B76319D72B0ABC170868E6 PUSH1 0x40 CALLER SWAP4 LOG4 PUSH1 0x40 MLOAD SWAP1 DUP2 MSTORE RETURN JUMPDEST ADD MLOAD SWAP1 POP DUP6 DUP1 PUSH2 0x1222 JUMP JUMPDEST PUSH1 0x1F NOT DUP3 AND SWAP6 PUSH1 0x6 DUP5 ADD PUSH1 0x0 MSTORE PUSH1 0x20 PUSH1 0x0 KECCAK256 SWAP2 PUSH1 0x0 JUMPDEST DUP9 DUP2 LT PUSH2 0x1339 JUMPI POP DUP4 PUSH1 0x1 SWAP6 SWAP7 SWAP8 SWAP9 LT PUSH2 0x1320 JUMPI JUMPDEST POP POP POP DUP2 SHL ADD PUSH1 0x6 DUP3 ADD SSTORE PUSH2 0x123A JUMP JUMPDEST ADD MLOAD PUSH1 0x0 NOT PUSH1 0xF8 DUP5 PUSH1 0x3 SHL AND SHR NOT AND SWAP1 SSTORE DUP6 DUP1 DUP1 PUSH2 0x1310 JUMP JUMPDEST SWAP2 SWAP3 PUSH1 0x20 PUSH1 0x1 DUP2 SWAP3 DUP7 DUP6 ADD MLOAD DUP2 SSTORE ADD SWAP5 ADD SWAP3 ADD PUSH2 0x12FB JUMP JUMPDEST PUSH1 0x6 DUP4 ADD PUSH1 0x0 MSTORE PUSH1 0x20 PUSH1 0x0 KECCAK256 PUSH1 0x1F DUP4 ADD PUSH1 0x5 SHR DUP2 ADD PUSH1 0x20 DUP5 LT PUSH2 0x1391 JUMPI JUMPDEST PUSH1 0x1F DUP4 ADD PUSH1 0x5 SHR DUP3 ADD DUP2 LT PUSH2 0x1385 JUMPI POP POP PUSH2 0x1205 JUMP JUMPDEST PUSH1 0x0 DUP2 SSTORE PUSH1 0x1 ADD PUSH2 0x136F JUMP JUMPDEST POP DUP1 PUSH2 0x136F JUMP JUMPDEST PUSH4 0x4E487B71 PUSH1 0xE0 SHL PUSH1 0x0 MSTORE PUSH1 0x41 PUSH1 0x4 MSTORE PUSH1 0x24 PUSH1 0x0 REVERT JUMPDEST PUSH1 0x40 MLOAD PUSH3 0x461BCD PUSH1 0xE5 SHL DUP2 MSTORE PUSH1 0x20 PUSH1 0x4 DUP3 ADD MSTORE PUSH1 0x11 PUSH1 0x24 DUP3 ADD MSTORE PUSH17 0x45786365656473204C545620726174696F PUSH1 0x78 SHL PUSH1 0x44 DUP3 ADD MSTORE PUSH1 0x64 SWAP1 REVERT JUMPDEST PUSH1 0x40 MLOAD PUSH3 0x461BCD PUSH1 0xE5 SHL DUP2 MSTORE PUSH1 0x20 PUSH1 0x4 DUP3 ADD MSTORE PUSH1 0x10 PUSH1 0x24 DUP3 ADD MSTORE PUSH16 0x24B73B30B634B210323AB930BA34B7B7 PUSH1 0x81 SHL PUSH1 0x44 DUP3 ADD MSTORE PUSH1 0x64 SWAP1 REVERT JUMPDEST POP PUSH2 0x447 PUSH1 0x64 CALLDATALOAD GT ISZERO PUSH2 0x10EE JUMP JUMPDEST PUSH1 0x40 MLOAD PUSH3 0x461BCD PUSH1 0xE5 SHL DUP2 MSTORE PUSH1 0x20 PUSH1 0x4 DUP3 ADD MSTORE PUSH1 0x13 PUSH1 0x24 DUP3 ADD MSTORE PUSH19 0x125B9D985B1A59081B1BD85B88185B5BDD5B9D PUSH1 0x6A SHL PUSH1 0x44 DUP3 ADD MSTORE PUSH1 0x64 SWAP1 REVERT JUMPDEST PUSH1 0x40 MLOAD PUSH3 0x461BCD PUSH1 0xE5 SHL DUP2 MSTORE PUSH1 0x20 PUSH1 0x4 DUP3 ADD MSTORE PUSH1 0x14 PUSH1 0x24 DUP3 ADD MSTORE PUSH20 0x105CDCD95D08185B1C9958591E481B1BD8DAD959 PUSH1 0x62 SHL PUSH1 0x44 DUP3 ADD MSTORE PUSH1 0x64 SWAP1 REVERT JUMPDEST PUSH1 0x40 MLOAD PUSH3 0x461BCD PUSH1 0xE5 SHL DUP2 MSTORE PUSH1 0x20 PUSH1 0x4 DUP3 ADD MSTORE PUSH1 0xF PUSH1 0x24 DUP3 ADD MSTORE PUSH15 0x2737BA1030B9B9B2BA1037BBB732B9 PUSH1 0x89 SHL PUSH1 0x44 DUP3 ADD MSTORE PUSH1 0x64 SWAP1 REVERT JUMPDEST CALLVALUE PUSH2 0x2D4 JUMPI PUSH1 0x40 CALLDATASIZE PUSH1 0x3 NOT ADD SLT PUSH2 0x2D4 JUMPI PUSH2 0x14F4 PUSH2 0x2E17 JUMP JUMPDEST PUSH2 0x14FC PUSH2 0x2F2E JUMP JUMPDEST PUSH1 0x1 PUSH1 0x1 PUSH1 0xA0 SHL SUB SWAP1 SWAP2 AND SWAP1 DUP2 ISZERO PUSH2 0x156D JUMPI CALLER PUSH1 0x0 MSTORE PUSH1 0x5 PUSH1 0x20 MSTORE PUSH1 0x40 PUSH1 0x0 KECCAK256 DUP3 PUSH1 0x0 MSTORE PUSH1 0x20 MSTORE PUSH2 0x153D DUP2 PUSH1 0x40 PUSH1 0x0 KECCAK256 SWAP1 PUSH1 0xFF DUP1 NOT DUP4 SLOAD AND SWAP2 ISZERO ISZERO AND OR SWAP1 SSTORE JUMP JUMPDEST PUSH1 0x40 MLOAD SWAP1 ISZERO ISZERO DUP2 MSTORE PUSH32 0x17307EAB39AB6107E8899845AD3D59BD9653F200F220920489CA2B5937696C31 PUSH1 0x20 CALLER SWAP3 LOG3 STOP JUMPDEST PUSH1 0x40 MLOAD PUSH4 0xB611743 PUSH1 0xE3 SHL DUP2 MSTORE PUSH1 0x4 DUP2 ADD DUP4 SWAP1 MSTORE PUSH1 0x24 SWAP1 REVERT JUMPDEST CALLVALUE PUSH2 0x2D4 JUMPI PUSH1 0x20 CALLDATASIZE PUSH1 0x3 NOT ADD SLT PUSH2 0x2D4 JUMPI PUSH1 0x1 PUSH1 0x1 PUSH1 0xA0 SHL SUB PUSH2 0x15A7 PUSH2 0x2E17 JUMP JUMPDEST AND PUSH1 0x0 MSTORE PUSH1 0xF PUSH1 0x20 MSTORE PUSH1 0x20 PUSH1 0xFF PUSH1 0x40 PUSH1 0x0 KECCAK256 SLOAD AND PUSH1 0x40 MLOAD SWAP1 ISZERO ISZERO DUP2 MSTORE RETURN JUMPDEST CALLVALUE PUSH2 0x2D4 JUMPI PUSH1 0x0 CALLDATASIZE PUSH1 0x3 NOT ADD SLT PUSH2 0x2D4 JUMPI PUSH1 0x40 MLOAD PUSH1 0x0 PUSH1 0x1 DUP1 SLOAD SWAP1 PUSH2 0x15E9 DUP3 PUSH2 0x3022 JUMP JUMPDEST DUP1 DUP6 MSTORE SWAP2 DUP2 DUP2 AND SWAP1 DUP2 ISZERO PUSH2 0x1669 JUMPI POP PUSH1 0x1 EQ PUSH2 0x1610 JUMPI JUMPDEST PUSH2 0xBCB DUP5 PUSH2 0xBB7 DUP2 DUP7 SUB DUP3 PUSH2 0x2F91 JUMP JUMPDEST PUSH1 0x0 DUP2 DUP2 MSTORE SWAP3 POP PUSH32 0xB10E2D527612073B26EECDFD717E6A320CF44B4AFAC2B0732D9FCBE2B7FA0CF6 JUMPDEST DUP3 DUP5 LT PUSH2 0x1651 JUMPI POP POP POP DUP2 ADD PUSH1 0x20 ADD PUSH2 0xBB7 DUP3 PUSH2 0x1600 JUMP JUMPDEST DUP1 SLOAD PUSH1 0x20 DUP6 DUP8 ADD DUP2 ADD SWAP2 SWAP1 SWAP2 MSTORE SWAP1 SWAP4 ADD SWAP3 DUP2 ADD PUSH2 0x1639 JUMP JUMPDEST PUSH1 0xFF NOT AND PUSH1 0x20 DUP1 DUP8 ADD SWAP2 SWAP1 SWAP2 MSTORE SWAP3 ISZERO ISZERO PUSH1 0x5 SHL DUP6 ADD SWAP1 SWAP3 ADD SWAP3 POP PUSH2 0xBB7 SWAP2 POP DUP4 SWAP1 POP PUSH2 0x1600 JUMP JUMPDEST CALLVALUE PUSH2 0x2D4 JUMPI PUSH1 0x0 CALLDATASIZE PUSH1 0x3 NOT ADD SLT PUSH2 0x2D4 JUMPI PUSH1 0x20 PUSH1 0x15 SLOAD PUSH1 0x40 MLOAD SWAP1 DUP2 MSTORE RETURN JUMPDEST CALLVALUE PUSH2 0x2D4 JUMPI PUSH1 0x0 CALLDATASIZE PUSH1 0x3 NOT ADD SLT PUSH2 0x2D4 JUMPI PUSH1 0x20 PUSH1 0x40 MLOAD PUSH1 0x6E DUP2 MSTORE RETURN JUMPDEST CALLVALUE PUSH2 0x2D4 JUMPI PUSH1 0x20 CALLDATASIZE PUSH1 0x3 NOT ADD SLT PUSH2 0x2D4 JUMPI PUSH2 0x16E3 PUSH2 0x2E17 JUMP JUMPDEST PUSH2 0x16EB PUSH2 0x311C JUMP JUMPDEST PUSH1 0x1 PUSH1 0x1 PUSH1 0xA0 SHL SUB AND PUSH1 0x0 SWAP1 DUP2 MSTORE PUSH1 0xF PUSH1 0x20 MSTORE PUSH1 0x40 SWAP1 KECCAK256 DUP1 SLOAD PUSH1 0xFF NOT AND PUSH1 0x1 OR SWAP1 SSTORE STOP JUMPDEST CALLVALUE PUSH2 0x2D4 JUMPI PUSH1 0xA0 CALLDATASIZE PUSH1 0x3 NOT ADD SLT PUSH2 0x2D4 JUMPI PUSH1 0x4 DUP1 CALLDATALOAD LT ISZERO PUSH2 0x2D4 JUMPI PUSH1 0x44 CALLDATALOAD PUSH1 0x1 PUSH1 0x1 PUSH1 0x40 SHL SUB DUP2 GT PUSH2 0x2D4 JUMPI PUSH2 0x1749 SWAP1 CALLDATASIZE SWAP1 PUSH1 0x4 ADD PUSH2 0x3004 JUMP JUMPDEST PUSH1 0x64 CALLDATALOAD PUSH1 0x1 PUSH1 0x1 PUSH1 0x40 SHL SUB DUP2 GT PUSH2 0x2D4 JUMPI PUSH2 0x1768 SWAP1 CALLDATASIZE SWAP1 PUSH1 0x4 ADD PUSH2 0x3004 JUMP JUMPDEST SWAP1 PUSH1 0x84 CALLDATALOAD PUSH1 0x1 PUSH1 0x1 PUSH1 0x40 SHL SUB DUP2 GT PUSH2 0x2D4 JUMPI PUSH2 0x1788 SWAP1 CALLDATASIZE SWAP1 PUSH1 0x4 ADD PUSH2 0x3004 JUMP JUMPDEST SWAP2 PUSH1 0x24 CALLDATALOAD ISZERO PUSH2 0x1D74 JUMPI DUP2 MLOAD ISZERO PUSH2 0x1D38 JUMPI DUP1 MLOAD ISZERO PUSH2 0x1CFF JUMPI PUSH1 0x8 SLOAD SWAP2 PUSH2 0x17AC DUP4 PUSH2 0x3524 JUMP JUMPDEST PUSH1 0x8 SSTORE CALLER ISZERO PUSH2 0xA7E JUMPI PUSH1 0x1 PUSH1 0x1 PUSH1 0xA0 SHL SUB PUSH2 0x17C7 DUP5 CALLER PUSH2 0x342D JUMP JUMPDEST AND PUSH2 0x1CE6 JUMPI PUSH1 0x40 MLOAD SWAP4 PUSH2 0x17D9 DUP6 PUSH2 0x2F75 JUMP JUMPDEST DUP4 DUP6 MSTORE PUSH2 0x17EB PUSH1 0x4 CALLDATALOAD PUSH1 0x20 DUP8 ADD PUSH2 0x3533 JUMP JUMPDEST CALLER PUSH1 0x40 DUP7 ADD MSTORE PUSH1 0x24 CALLDATALOAD PUSH1 0x60 DUP7 ADD MSTORE PUSH1 0x80 DUP6 ADD MSTORE PUSH1 0xA0 DUP5 ADD MSTORE DUP1 PUSH1 0xC0 DUP5 ADD MSTORE PUSH1 0x0 PUSH1 0xE0 DUP5 ADD MSTORE PUSH1 0x0 PUSH2 0x100 DUP5 ADD MSTORE PUSH1 0x0 PUSH2 0x120 DUP5 ADD MSTORE TIMESTAMP PUSH2 0x140 DUP5 ADD MSTORE DUP2 PUSH1 0x0 MSTORE PUSH1 0xB PUSH1 0x20 MSTORE PUSH1 0x40 PUSH1 0x0 KECCAK256 DUP4 MLOAD DUP2 SSTORE PUSH1 0x1 DUP2 ADD PUSH1 0x20 DUP6 ADD MLOAD SWAP1 PUSH1 0x4 DUP3 LT ISZERO PUSH2 0x576 JUMPI DUP1 SLOAD PUSH1 0x40 DUP8 ADD MLOAD PUSH2 0x100 PUSH1 0x1 PUSH1 0xA8 SHL SUB PUSH1 0x8 SWAP2 SWAP1 SWAP2 SHL AND PUSH1 0xFF SWAP4 SWAP1 SWAP4 AND PUSH1 0x1 PUSH1 0x1 PUSH1 0xA8 SHL SUB NOT SWAP1 SWAP2 AND OR SWAP2 SWAP1 SWAP2 OR SWAP1 SSTORE PUSH1 0x60 DUP5 ADD MLOAD PUSH1 0x2 DUP3 ADD SSTORE PUSH1 0x80 DUP5 ADD MLOAD DUP1 MLOAD SWAP1 PUSH1 0x1 PUSH1 0x1 PUSH1 0x40 SHL SUB DUP3 GT PUSH2 0x1398 JUMPI DUP2 SWAP1 PUSH2 0x18AB PUSH1 0x3 DUP6 ADD SLOAD PUSH2 0x3022 JUMP JUMPDEST PUSH1 0x1F DUP2 GT PUSH2 0x1C93 JUMPI JUMPDEST POP PUSH1 0x20 SWAP1 PUSH1 0x1F DUP4 GT PUSH1 0x1 EQ PUSH2 0x1C26 JUMPI PUSH1 0x0 SWAP3 PUSH2 0x1C1B JUMPI JUMPDEST POP POP DUP2 PUSH1 0x1 SHL SWAP2 PUSH1 0x0 NOT SWAP1 PUSH1 0x3 SHL SHR NOT AND OR PUSH1 0x3 DUP3 ADD SSTORE JUMPDEST PUSH1 0xA0 DUP5 ADD MLOAD DUP1 MLOAD SWAP1 PUSH1 0x1 PUSH1 0x1 PUSH1 0x40 SHL SUB DUP3 GT PUSH2 0x1398 JUMPI DUP2 SWAP1 PUSH2 0x1908 PUSH1 0x4 DUP6 ADD SLOAD PUSH2 0x3022 JUMP JUMPDEST PUSH1 0x1F DUP2 GT PUSH2 0x1BC8 JUMPI JUMPDEST POP PUSH1 0x20 SWAP1 PUSH1 0x1F DUP4 GT PUSH1 0x1 EQ PUSH2 0x1B5B JUMPI PUSH1 0x0 SWAP3 PUSH2 0x1B50 JUMPI JUMPDEST POP POP DUP2 PUSH1 0x1 SHL SWAP2 PUSH1 0x0 NOT SWAP1 PUSH1 0x3 SHL SHR NOT AND OR PUSH1 0x4 DUP3 ADD SSTORE JUMPDEST PUSH1 0xC0 DUP5 ADD MLOAD DUP1 MLOAD SWAP1 PUSH1 0x1 PUSH1 0x1 PUSH1 0x40 SHL SUB DUP3 GT PUSH2 0x1398 JUMPI DUP2 SWAP1 PUSH2 0x1965 PUSH1 0x5 DUP6 ADD SLOAD PUSH2 0x3022 JUMP JUMPDEST PUSH1 0x1F DUP2 GT PUSH2 0x1AFD JUMPI JUMPDEST POP PUSH1 0x20 SWAP1 PUSH1 0x1F DUP4 GT PUSH1 0x1 EQ PUSH2 0x1A90 JUMPI PUSH1 0x0 SWAP3 PUSH2 0x1A85 JUMPI JUMPDEST POP POP DUP2 PUSH1 0x1 SHL SWAP2 PUSH1 0x0 NOT SWAP1 PUSH1 0x3 SHL SHR NOT AND OR PUSH1 0x5 DUP3 ADD SSTORE JUMPDEST PUSH1 0x6 DUP2 ADD SWAP4 PUSH2 0x19BE PUSH1 0xE0 DUP3 ADD MLOAD ISZERO ISZERO DUP7 SWAP1 PUSH1 0xFF DUP1 NOT DUP4 SLOAD AND SWAP2 ISZERO ISZERO AND OR SWAP1 SSTORE JUMP JUMPDEST PUSH2 0x100 DUP2 ADD MLOAD ISZERO ISZERO SWAP5 DUP1 SLOAD SWAP2 PUSH2 0x120 DUP2 ADD MLOAD SWAP2 PUSH1 0x3 DUP4 LT ISZERO PUSH2 0x576 JUMPI PUSH1 0x20 SWAP8 PUSH1 0x7 SWAP5 PUSH2 0xFF00 PUSH3 0xFF0000 PUSH2 0x140 SWAP7 PUSH1 0x10 SHL AND SWAP3 PUSH1 0x8 SHL AND SWAP1 PUSH3 0xFFFF00 NOT AND OR OR SWAP1 SSTORE ADD MLOAD SWAP2 ADD SSTORE DUP2 PUSH1 0x0 MSTORE PUSH1 0xE DUP4 MSTORE PUSH1 0x24 CALLDATALOAD PUSH1 0x40 PUSH1 0x0 KECCAK256 SSTORE CALLER PUSH1 0x0 MSTORE PUSH1 0x11 DUP4 MSTORE PUSH2 0x1A2B DUP3 PUSH1 0x40 PUSH1 0x0 KECCAK256 PUSH2 0x353F JUMP JUMPDEST DUP2 PUSH32 0x80E4B5E34356F17D4D7DF460F77EFD8F6FEA15A4DC02E6A32D36D0E8B91689C6 PUSH1 0x40 MLOAD PUSH2 0x1A5C DUP2 PUSH1 0x4 CALLDATALOAD PUSH2 0x3102 JUMP JUMPDEST PUSH1 0x24 CALLDATALOAD DUP7 DUP3 ADD MSTORE PUSH1 0x60 PUSH1 0x40 DUP3 ADD MSTORE DUP1 PUSH2 0x1A7A CALLER SWAP6 PUSH1 0x60 DUP4 ADD SWAP1 PUSH2 0x2E7E JUMP JUMPDEST SUB SWAP1 LOG3 PUSH1 0x40 MLOAD SWAP1 DUP2 MSTORE RETURN JUMPDEST ADD MLOAD SWAP1 POP DUP7 DUP1 PUSH2 0x1985 JUMP JUMPDEST PUSH1 0x5 DUP6 ADD PUSH1 0x0 SWAP1 DUP2 MSTORE PUSH1 0x20 DUP2 KECCAK256 SWAP4 POP PUSH1 0x1F NOT DUP6 AND SWAP1 JUMPDEST DUP2 DUP2 LT PUSH2 0x1AE5 JUMPI POP SWAP1 DUP5 PUSH1 0x1 SWAP6 SWAP5 SWAP4 SWAP3 LT PUSH2 0x1ACC JUMPI JUMPDEST POP POP POP DUP2 SHL ADD PUSH1 0x5 DUP3 ADD SSTORE PUSH2 0x199D JUMP JUMPDEST ADD MLOAD PUSH1 0x0 NOT PUSH1 0xF8 DUP5 PUSH1 0x3 SHL AND SHR NOT AND SWAP1 SSTORE DUP7 DUP1 DUP1 PUSH2 0x1ABC JUMP JUMPDEST SWAP3 SWAP4 PUSH1 0x20 PUSH1 0x1 DUP2 SWAP3 DUP8 DUP7 ADD MLOAD DUP2 SSTORE ADD SWAP6 ADD SWAP4 ADD PUSH2 0x1AA6 JUMP JUMPDEST SWAP1 SWAP2 POP PUSH1 0x5 DUP5 ADD PUSH1 0x0 MSTORE PUSH1 0x20 PUSH1 0x0 KECCAK256 PUSH1 0x1F DUP5 ADD PUSH1 0x5 SHR DUP2 ADD PUSH1 0x20 DUP6 LT PUSH2 0x1B49 JUMPI JUMPDEST SWAP1 DUP5 SWAP4 SWAP3 SWAP2 JUMPDEST PUSH1 0x1F DUP4 ADD PUSH1 0x5 SHR DUP3 ADD DUP2 LT PUSH2 0x1B3A JUMPI POP POP PUSH2 0x196E JUMP JUMPDEST PUSH1 0x0 DUP2 SSTORE DUP6 SWAP5 POP PUSH1 0x1 ADD PUSH2 0x1B24 JUMP JUMPDEST POP DUP1 PUSH2 0x1B1E JUMP JUMPDEST ADD MLOAD SWAP1 POP DUP7 DUP1 PUSH2 0x1928 JUMP JUMPDEST PUSH1 0x4 DUP6 ADD PUSH1 0x0 SWAP1 DUP2 MSTORE PUSH1 0x20 DUP2 KECCAK256 SWAP4 POP PUSH1 0x1F NOT DUP6 AND SWAP1 JUMPDEST DUP2 DUP2 LT PUSH2 0x1BB0 JUMPI POP SWAP1 DUP5 PUSH1 0x1 SWAP6 SWAP5 SWAP4 SWAP3 LT PUSH2 0x1B97 JUMPI JUMPDEST POP POP POP DUP2 SHL ADD PUSH1 0x4 DUP3 ADD SSTORE PUSH2 0x1940 JUMP JUMPDEST ADD MLOAD PUSH1 0x0 NOT PUSH1 0xF8 DUP5 PUSH1 0x3 SHL AND SHR NOT AND SWAP1 SSTORE DUP7 DUP1 DUP1 PUSH2 0x1B87 JUMP JUMPDEST SWAP3 SWAP4 PUSH1 0x20 PUSH1 0x1 DUP2 SWAP3 DUP8 DUP7 ADD MLOAD DUP2 SSTORE ADD SWAP6 ADD SWAP4 ADD PUSH2 0x1B71 JUMP JUMPDEST SWAP1 SWAP2 POP PUSH1 0x4 DUP5 ADD PUSH1 0x0 MSTORE PUSH1 0x20 PUSH1 0x0 KECCAK256 PUSH1 0x1F DUP5 ADD PUSH1 0x5 SHR DUP2 ADD PUSH1 0x20 DUP6 LT PUSH2 0x1C14 JUMPI JUMPDEST SWAP1 DUP5 SWAP4 SWAP3 SWAP2 JUMPDEST PUSH1 0x1F DUP4 ADD PUSH1 0x5 SHR DUP3 ADD DUP2 LT PUSH2 0x1C05 JUMPI POP POP PUSH2 0x1911 JUMP JUMPDEST PUSH1 0x0 DUP2 SSTORE DUP6 SWAP5 POP PUSH1 0x1 ADD PUSH2 0x1BEF JUMP JUMPDEST POP DUP1 PUSH2 0x1BE9 JUMP JUMPDEST ADD MLOAD SWAP1 POP DUP7 DUP1 PUSH2 0x18CB JUMP JUMPDEST PUSH1 0x3 DUP6 ADD PUSH1 0x0 SWAP1 DUP2 MSTORE PUSH1 0x20 DUP2 KECCAK256 SWAP4 POP PUSH1 0x1F NOT DUP6 AND SWAP1 JUMPDEST DUP2 DUP2 LT PUSH2 0x1C7B JUMPI POP SWAP1 DUP5 PUSH1 0x1 SWAP6 SWAP5 SWAP4 SWAP3 LT PUSH2 0x1C62 JUMPI JUMPDEST POP POP POP DUP2 SHL ADD PUSH1 0x3 DUP3 ADD SSTORE PUSH2 0x18E3 JUMP JUMPDEST ADD MLOAD PUSH1 0x0 NOT PUSH1 0xF8 DUP5 PUSH1 0x3 SHL AND SHR NOT AND SWAP1 SSTORE DUP7 DUP1 DUP1 PUSH2 0x1C52 JUMP JUMPDEST SWAP3 SWAP4 PUSH1 0x20 PUSH1 0x1 DUP2 SWAP3 DUP8 DUP7 ADD MLOAD DUP2 SSTORE ADD SWAP6 ADD SWAP4 ADD PUSH2 0x1C3C JUMP JUMPDEST SWAP1 SWAP2 POP PUSH1 0x3 DUP5 ADD PUSH1 0x0 MSTORE PUSH1 0x20 PUSH1 0x0 KECCAK256 PUSH1 0x1F DUP5 ADD PUSH1 0x5 SHR DUP2 ADD PUSH1 0x20 DUP6 LT PUSH2 0x1CDF JUMPI JUMPDEST SWAP1 DUP5 SWAP4 SWAP3 SWAP2 JUMPDEST PUSH1 0x1F DUP4 ADD PUSH1 0x5 SHR DUP3 ADD DUP2 LT PUSH2 0x1CD0 JUMPI POP POP PUSH2 0x18B4 JUMP JUMPDEST PUSH1 0x0 DUP2 SSTORE DUP6 SWAP5 POP PUSH1 0x1 ADD PUSH2 0x1CBA JUMP JUMPDEST POP DUP1 PUSH2 0x1CB4 JUMP JUMPDEST PUSH1 0x40 MLOAD PUSH4 0x39E35637 PUSH1 0xE1 SHL DUP2 MSTORE PUSH1 0x0 PUSH1 0x4 DUP3 ADD MSTORE PUSH1 0x24 SWAP1 REVERT JUMPDEST PUSH1 0x40 MLOAD PUSH3 0x461BCD PUSH1 0xE5 SHL DUP2 MSTORE PUSH1 0x20 PUSH1 0x4 DUP3 ADD MSTORE PUSH1 0x11 PUSH1 0x24 DUP3 ADD MSTORE PUSH17 0x131BD8D85D1A5BDB881C995C5D5A5C9959 PUSH1 0x7A SHL PUSH1 0x44 DUP3 ADD MSTORE PUSH1 0x64 SWAP1 REVERT JUMPDEST PUSH1 0x40 MLOAD PUSH3 0x461BCD PUSH1 0xE5 SHL DUP2 MSTORE PUSH1 0x20 PUSH1 0x4 DUP3 ADD MSTORE PUSH1 0x14 PUSH1 0x24 DUP3 ADD MSTORE PUSH20 0x11195CD8DC9A5C1D1A5BDB881C995C5D5A5C9959 PUSH1 0x62 SHL PUSH1 0x44 DUP3 ADD MSTORE PUSH1 0x64 SWAP1 REVERT JUMPDEST PUSH1 0x40 MLOAD PUSH3 0x461BCD PUSH1 0xE5 SHL DUP2 MSTORE PUSH1 0x20 PUSH1 0x4 DUP3 ADD MSTORE PUSH1 0x1F PUSH1 0x24 DUP3 ADD MSTORE PUSH32 0x56616C7565206D7573742062652067726561746572207468616E207A65726F00 PUSH1 0x44 DUP3 ADD MSTORE PUSH1 0x64 SWAP1 REVERT JUMPDEST CALLVALUE PUSH2 0x2D4 JUMPI PUSH1 0x0 CALLDATASIZE PUSH1 0x3 NOT ADD SLT PUSH2 0x2D4 JUMPI PUSH1 0x6 SLOAD PUSH1 0x40 MLOAD PUSH1 0x1 PUSH1 0x1 PUSH1 0xA0 SHL SUB SWAP1 SWAP2 AND DUP2 MSTORE PUSH1 0x20 SWAP1 RETURN JUMPDEST CALLVALUE PUSH2 0x2D4 JUMPI PUSH1 0x0 CALLDATASIZE PUSH1 0x3 NOT ADD SLT PUSH2 0x2D4 JUMPI PUSH1 0x20 PUSH1 0x9 SLOAD PUSH1 0x40 MLOAD SWAP1 DUP2 MSTORE RETURN JUMPDEST CALLVALUE PUSH2 0x2D4 JUMPI PUSH1 0x0 CALLDATASIZE PUSH1 0x3 NOT ADD SLT PUSH2 0x2D4 JUMPI PUSH2 0x1E19 PUSH2 0x311C JUMP JUMPDEST SELFBALANCE DUP1 ISZERO PUSH2 0x1E3E JUMPI PUSH1 0x6 SLOAD PUSH1 0x0 SWAP2 DUP3 SWAP2 DUP3 SWAP2 DUP3 SWAP2 PUSH1 0x1 PUSH1 0x1 PUSH1 0xA0 SHL SUB AND DUP3 CALL ISZERO PUSH2 0xABC JUMPI STOP JUMPDEST PUSH1 0x40 MLOAD PUSH3 0x461BCD PUSH1 0xE5 SHL DUP2 MSTORE PUSH1 0x20 PUSH1 0x4 DUP3 ADD MSTORE PUSH1 0x13 PUSH1 0x24 DUP3 ADD MSTORE PUSH19 0x4E6F206665657320746F207769746864726177 PUSH1 0x68 SHL PUSH1 0x44 DUP3 ADD MSTORE PUSH1 0x64 SWAP1 REVERT JUMPDEST PUSH1 0x20 CALLDATASIZE PUSH1 0x3 NOT ADD SLT PUSH2 0x2D4 JUMPI PUSH2 0x1E8D PUSH2 0x364E JUMP JUMPDEST PUSH1 0x4 CALLDATALOAD PUSH1 0x0 MSTORE PUSH1 0xD PUSH1 0x20 MSTORE PUSH1 0x40 PUSH1 0x0 KECCAK256 PUSH1 0xFF PUSH1 0x7 DUP3 ADD SLOAD AND PUSH1 0x6 DUP2 LT ISZERO PUSH2 0x576 JUMPI PUSH2 0x2235 JUMPI PUSH1 0x1 DUP2 ADD SLOAD PUSH1 0x1 PUSH1 0x1 PUSH1 0xA0 SHL SUB AND CALLER EQ PUSH2 0x21F0 JUMPI PUSH1 0x3 DUP2 ADD SLOAD CALLVALUE LT PUSH2 0x21B4 JUMPI PUSH1 0x9 SLOAD SWAP1 PUSH2 0x1EDE DUP3 PUSH2 0x3524 JUMP JUMPDEST PUSH1 0x9 SSTORE PUSH1 0x3 DUP2 ADD SLOAD PUSH1 0x64 DUP2 MUL DUP2 DUP2 DIV PUSH1 0x64 EQ DUP3 ISZERO OR ISZERO PUSH2 0xAD1 JUMPI PUSH2 0x1F06 PUSH2 0x2710 DUP3 DIV DUP4 PUSH2 0x3634 JUMP JUMPDEST SWAP1 PUSH1 0x1 DUP1 PUSH1 0xA0 SHL SUB PUSH1 0x1 DUP6 ADD SLOAD AND SWAP3 PUSH1 0x2 DUP6 ADD SLOAD SWAP1 PUSH1 0x4 DUP7 ADD SLOAD PUSH1 0x5 DUP8 ADD SLOAD SWAP1 PUSH1 0x8 DUP9 ADD SLOAD SWAP3 PUSH3 0x15180 DUP4 DUP2 DUP2 MUL DIV DUP2 EQ DUP5 ISZERO OR ISZERO PUSH2 0xAD1 JUMPI PUSH2 0x1F4B SWAP1 DUP5 MUL TIMESTAMP PUSH2 0x3641 JUMP JUMPDEST SWAP5 PUSH1 0x40 MLOAD SWAP9 PUSH2 0x1F59 DUP11 PUSH2 0x2F59 JUMP JUMPDEST DUP12 DUP11 MSTORE PUSH1 0x20 DUP11 ADD MSTORE CALLER PUSH1 0x40 DUP11 ADD MSTORE PUSH1 0x60 DUP10 ADD MSTORE DUP1 PUSH1 0x80 DUP10 ADD MSTORE PUSH1 0xA0 DUP9 ADD MSTORE PUSH1 0xC0 DUP8 ADD MSTORE PUSH1 0xE0 DUP7 ADD MSTORE PUSH2 0x100 DUP6 ADD MSTORE TIMESTAMP PUSH2 0x120 DUP6 ADD MSTORE PUSH2 0x140 DUP5 ADD MSTORE PUSH1 0x2 PUSH2 0x160 DUP5 ADD MSTORE PUSH1 0x0 PUSH2 0x180 DUP5 ADD MSTORE PUSH1 0x0 PUSH2 0x1A0 DUP5 ADD MSTORE DUP5 PUSH1 0x0 MSTORE PUSH1 0xC PUSH1 0x20 MSTORE PUSH1 0x40 PUSH1 0x0 KECCAK256 DUP4 MLOAD DUP2 SSTORE PUSH1 0x1 DUP2 ADD PUSH1 0x1 DUP1 PUSH1 0xA0 SHL SUB PUSH1 0x20 DUP7 ADD MLOAD AND SWAP1 PUSH1 0x1 PUSH1 0x1 PUSH1 0x60 SHL SUB PUSH1 0xA0 SHL SWAP2 DUP3 DUP3 SLOAD AND OR SWAP1 SSTORE PUSH1 0x2 DUP3 ADD SWAP1 PUSH1 0x1 DUP1 PUSH1 0xA0 SHL SUB PUSH1 0x40 DUP8 ADD MLOAD AND SWAP1 DUP3 SLOAD AND OR SWAP1 SSTORE PUSH1 0x60 DUP5 ADD MLOAD PUSH1 0x3 DUP3 ADD SSTORE PUSH1 0x80 DUP5 ADD MLOAD PUSH1 0x4 DUP3 ADD SSTORE PUSH1 0xA0 DUP5 ADD MLOAD PUSH1 0x5 DUP3 ADD SSTORE PUSH1 0xC0 DUP5 ADD MLOAD PUSH1 0x6 DUP3 ADD SSTORE PUSH1 0xE0 DUP5 ADD MLOAD PUSH1 0x7 DUP3 ADD SSTORE PUSH2 0x100 DUP5 ADD MLOAD PUSH1 0x8 DUP3 ADD SSTORE PUSH2 0x120 DUP5 ADD MLOAD PUSH1 0x9 DUP3 ADD SSTORE PUSH2 0x140 DUP5 ADD MLOAD PUSH1 0xA DUP3 ADD SSTORE PUSH2 0x160 DUP5 ADD MLOAD SWAP3 PUSH1 0x6 DUP5 LT ISZERO PUSH2 0x576 JUMPI PUSH2 0x2115 PUSH2 0x2710 PUSH1 0x0 SWAP7 SWAP5 DUP5 PUSH1 0xD PUSH2 0x1A0 DUP11 SWAP10 SWAP9 PUSH2 0x2081 DUP12 SWAP11 PUSH1 0xB DUP13 SWAP12 ADD PUSH2 0x361C JUMP JUMPDEST PUSH2 0x180 DUP2 ADD MLOAD PUSH1 0xC DUP6 ADD SSTORE ADD MLOAD SWAP2 ADD SSTORE PUSH1 0x7 DUP10 ADD DUP1 SLOAD PUSH1 0xFF NOT AND PUSH1 0x1 SWAP1 DUP2 OR SWAP1 SWAP2 SSTORE DUP10 ADD SLOAD PUSH1 0x1 PUSH1 0x1 PUSH1 0xA0 SHL SUB AND DUP6 MSTORE PUSH1 0x12 PUSH1 0x20 MSTORE PUSH1 0x40 DUP6 KECCAK256 PUSH2 0x20C5 SWAP1 DUP12 SWAP1 PUSH2 0x353F JUMP JUMPDEST CALLER DUP6 MSTORE PUSH1 0x12 PUSH1 0x20 MSTORE PUSH2 0x20DA DUP11 PUSH1 0x40 DUP8 KECCAK256 PUSH2 0x353F JUMP JUMPDEST PUSH2 0x20EA PUSH1 0x3 DUP11 ADD SLOAD PUSH1 0x15 SLOAD PUSH2 0x3641 JUMP JUMPDEST PUSH1 0x15 SSTORE PUSH1 0x2 DUP10 ADD SLOAD DUP6 MSTORE PUSH1 0xE PUSH1 0x20 MSTORE PUSH2 0x2109 PUSH1 0x40 DUP7 KECCAK256 SLOAD PUSH1 0x14 SLOAD PUSH2 0x3641 JUMP JUMPDEST PUSH1 0x14 SSTORE DIV PUSH1 0x16 SLOAD PUSH2 0x3641 JUMP JUMPDEST PUSH1 0x16 SSTORE PUSH1 0x1 DUP7 ADD SLOAD PUSH1 0x1 PUSH1 0x1 PUSH1 0xA0 SHL SUB AND DUP3 DUP3 ISZERO PUSH2 0x21AB JUMPI JUMPDEST CALL ISZERO PUSH2 0xABC JUMPI PUSH1 0x3 DUP2 ADD SLOAD DUP1 CALLVALUE GT PUSH2 0x217D JUMPI JUMPDEST POP PUSH1 0x3 ADD SLOAD PUSH1 0x40 MLOAD SWAP1 DUP2 MSTORE CALLER SWAP2 PUSH32 0xB8B41BACDBBEF12CAF657CD1954223C3F16FA9298D010E6AC058DC6C4ECE89BF PUSH1 0x20 PUSH1 0x4 CALLDATALOAD SWAP4 LOG4 PUSH1 0x1 PUSH1 0x7 SSTORE STOP JUMPDEST PUSH1 0x0 DUP1 DUP1 PUSH2 0x218C DUP2 SWAP5 CALLVALUE PUSH2 0x3634 JUMP JUMPDEST DUP2 DUP2 ISZERO PUSH2 0x21A2 JUMPI JUMPDEST CALLER SWAP1 CALL ISZERO PUSH2 0xABC JUMPI DUP3 PUSH2 0x2141 JUMP JUMPDEST POP PUSH2 0x8FC PUSH2 0x2194 JUMP JUMPDEST POP PUSH2 0x8FC PUSH2 0x212E JUMP JUMPDEST PUSH1 0x40 MLOAD PUSH3 0x461BCD PUSH1 0xE5 SHL DUP2 MSTORE PUSH1 0x20 PUSH1 0x4 DUP3 ADD MSTORE PUSH1 0x14 PUSH1 0x24 DUP3 ADD MSTORE PUSH20 0x496E73756666696369656E742066756E64696E67 PUSH1 0x60 SHL PUSH1 0x44 DUP3 ADD MSTORE PUSH1 0x64 SWAP1 REVERT JUMPDEST PUSH1 0x40 MLOAD PUSH3 0x461BCD PUSH1 0xE5 SHL DUP2 MSTORE PUSH1 0x20 PUSH1 0x4 DUP3 ADD MSTORE PUSH1 0x17 PUSH1 0x24 DUP3 ADD MSTORE PUSH32 0x43616E6E6F742066756E64206F776E2072657175657374000000000000000000 PUSH1 0x44 DUP3 ADD MSTORE PUSH1 0x64 SWAP1 REVERT JUMPDEST PUSH1 0x40 MLOAD PUSH3 0x461BCD PUSH1 0xE5 SHL DUP2 MSTORE PUSH1 0x20 PUSH1 0x4 DUP3 ADD MSTORE PUSH1 0x15 PUSH1 0x24 DUP3 ADD MSTORE PUSH21 0x52657175657374206E6F7420617661696C61626C65 PUSH1 0x58 SHL PUSH1 0x44 DUP3 ADD MSTORE PUSH1 0x64 SWAP1 REVERT JUMPDEST CALLVALUE PUSH2 0x2D4 JUMPI PUSH1 0x0 CALLDATASIZE PUSH1 0x3 NOT ADD SLT PUSH2 0x2D4 JUMPI PUSH1 0x14 SLOAD PUSH1 0x15 SLOAD SWAP1 PUSH1 0x16 SLOAD PUSH1 0x8 SLOAD PUSH1 0x0 NOT SWAP2 DUP3 DUP3 ADD SWAP2 DUP3 GT PUSH2 0xAD1 JUMPI PUSH1 0x9 SLOAD SWAP3 DUP4 ADD SWAP3 DUP4 GT PUSH2 0xAD1 JUMPI PUSH1 0xA0 SWAP5 PUSH1 0x40 MLOAD SWAP5 DUP6 MSTORE PUSH1 0x20 DUP6 ADD MSTORE PUSH1 0x40 DUP5 ADD MSTORE PUSH1 0x60 DUP4 ADD MSTORE PUSH1 0x80 DUP3 ADD MSTORE RETURN JUMPDEST CALLVALUE PUSH2 0x2D4 JUMPI PUSH1 0x20 DUP1 PUSH1 0x3 NOT CALLDATASIZE ADD SLT PUSH2 0x2D4 JUMPI PUSH1 0x1 PUSH1 0x1 PUSH1 0xA0 SHL SUB PUSH2 0x22EC PUSH2 0x2E17 JUMP JUMPDEST AND PUSH1 0x0 MSTORE PUSH1 0x11 DUP2 MSTORE PUSH1 0x40 PUSH1 0x0 KECCAK256 SWAP1 PUSH1 0x40 MLOAD SWAP1 DUP2 DUP2 DUP5 SLOAD SWAP2 DUP3 DUP2 MSTORE ADD SWAP4 PUSH1 0x0 MSTORE DUP2 PUSH1 0x0 KECCAK256 SWAP2 PUSH1 0x0 SWAP1 JUMPDEST DUP3 DUP3 LT PUSH2 0x2337 JUMPI PUSH2 0xBCB DUP6 PUSH2 0x232B DUP2 DUP10 SUB DUP3 PUSH2 0x2F91 JUMP JUMPDEST PUSH1 0x40 MLOAD SWAP2 DUP3 SWAP2 DUP3 PUSH2 0x2E43 JUMP JUMPDEST DUP4 SLOAD DUP7 MSTORE SWAP5 DUP6 ADD SWAP5 PUSH1 0x1 SWAP4 DUP5 ADD SWAP4 SWAP1 SWAP2 ADD SWAP1 PUSH2 0x2314 JUMP JUMPDEST CALLVALUE PUSH2 0x2D4 JUMPI PUSH1 0x60 CALLDATASIZE PUSH1 0x3 NOT ADD SLT PUSH2 0x2D4 JUMPI PUSH1 0x4 CALLDATALOAD PUSH2 0x236A PUSH2 0x2F2E JUMP JUMPDEST SWAP1 PUSH1 0x44 CALLDATALOAD PUSH1 0x1 PUSH1 0x1 PUSH1 0x40 SHL SUB DUP2 GT PUSH2 0x2D4 JUMPI PUSH2 0x238A SWAP1 CALLDATASIZE SWAP1 PUSH1 0x4 ADD PUSH2 0x3004 JUMP JUMPDEST CALLER PUSH1 0x0 MSTORE PUSH1 0x20 SWAP3 PUSH1 0xF DUP5 MSTORE PUSH1 0xFF PUSH1 0x40 PUSH1 0x0 KECCAK256 SLOAD AND ISZERO PUSH2 0x24D4 JUMPI PUSH1 0x0 DUP4 DUP2 MSTORE PUSH1 0xB PUSH1 0x20 MSTORE PUSH1 0x40 SWAP1 KECCAK256 PUSH1 0x1 ADD SLOAD PUSH2 0x23CC SWAP1 PUSH1 0x8 SHR PUSH1 0x1 PUSH1 0x1 PUSH1 0xA0 SHL SUB AND ISZERO ISZERO PUSH2 0x3579 JUMP JUMPDEST DUP3 PUSH1 0x0 MSTORE PUSH1 0xB DUP5 MSTORE PUSH1 0xFF PUSH1 0x6 PUSH1 0x40 PUSH1 0x0 KECCAK256 ADD SLOAD PUSH1 0x10 SHR AND PUSH1 0x3 DUP2 LT ISZERO PUSH2 0x576 JUMPI PUSH2 0x249B JUMPI ISZERO PUSH2 0x243F JUMPI POP SWAP1 PUSH1 0xB SWAP1 DUP3 PUSH1 0x0 MSTORE MSTORE PUSH1 0x6 PUSH1 0x40 PUSH1 0x0 KECCAK256 ADD PUSH3 0x10001 PUSH3 0xFF00FF NOT DUP3 SLOAD AND OR SWAP1 SSTORE CALLER SWAP1 PUSH32 0x4A184B517D677ABB35488A7FFBA6353E76337257A70F5B190375E62D0A5B3A36 PUSH1 0x0 DUP1 LOG3 STOP JUMPDEST PUSH2 0x2496 PUSH32 0x87AD73C8F687EC12C9B41D48870A96118599A3073F27844FF68C8D142EEA076E SWAP2 DUP4 PUSH1 0x0 MSTORE PUSH1 0xB DUP6 MSTORE PUSH1 0x6 PUSH1 0x40 PUSH1 0x0 KECCAK256 ADD PUSH3 0x20000 PUSH3 0xFF0000 NOT DUP3 SLOAD AND OR SWAP1 SSTORE PUSH1 0x40 MLOAD SWAP2 DUP3 SWAP2 DUP7 DUP4 MSTORE CALLER SWAP7 DUP4 ADD SWAP1 PUSH2 0x2E7E JUMP JUMPDEST SUB SWAP1 LOG3 STOP JUMPDEST PUSH1 0x40 MLOAD PUSH3 0x461BCD PUSH1 0xE5 SHL DUP2 MSTORE PUSH1 0x4 DUP2 ADD DUP6 SWAP1 MSTORE PUSH1 0x11 PUSH1 0x24 DUP3 ADD MSTORE PUSH17 0x105B1C9958591E481C1C9BD8D95CDCD959 PUSH1 0x7A SHL PUSH1 0x44 DUP3 ADD MSTORE PUSH1 0x64 SWAP1 REVERT JUMPDEST PUSH1 0x40 MLOAD PUSH3 0x461BCD PUSH1 0xE5 SHL DUP2 MSTORE PUSH1 0x4 DUP2 ADD DUP6 SWAP1 MSTORE PUSH1 0x17 PUSH1 0x24 DUP3 ADD MSTORE PUSH32 0x4E6F7420617574686F72697A6564207665726966696572000000000000000000 PUSH1 0x44 DUP3 ADD MSTORE PUSH1 0x64 SWAP1 REVERT JUMPDEST CALLVALUE PUSH2 0x2D4 JUMPI PUSH1 0x0 CALLDATASIZE PUSH1 0x3 NOT ADD SLT PUSH2 0x2D4 JUMPI PUSH1 0x20 PUSH1 0x8 SLOAD PUSH1 0x40 MLOAD SWAP1 DUP2 MSTORE RETURN JUMPDEST CALLVALUE PUSH2 0x2D4 JUMPI PUSH1 0x0 CALLDATASIZE PUSH1 0x3 NOT ADD SLT PUSH2 0x2D4 JUMPI PUSH2 0x2550 PUSH2 0x311C JUMP JUMPDEST PUSH1 0x6 DUP1 SLOAD PUSH1 0x1 PUSH1 0x1 PUSH1 0xA0 SHL SUB NOT DUP2 AND SWAP1 SWAP2 SSTORE PUSH1 0x0 SWAP1 PUSH1 0x1 PUSH1 0x1 PUSH1 0xA0 SHL SUB AND PUSH32 0x8BE0079C531659141344CD1FD0A4F28419497F9722A3DAAFE3B4186F6B6457E0 DUP3 DUP1 LOG3 STOP JUMPDEST CALLVALUE PUSH2 0x2D4 JUMPI PUSH1 0x20 CALLDATASIZE PUSH1 0x3 NOT ADD SLT PUSH2 0x2D4 JUMPI PUSH1 0x1 PUSH1 0x1 PUSH1 0xA0 SHL SUB PUSH2 0x25B5 PUSH2 0x2E17 JUMP JUMPDEST AND DUP1 ISZERO PUSH2 0x25D4 JUMPI PUSH1 0x0 MSTORE PUSH1 0x3 PUSH1 0x20 MSTORE PUSH1 0x20 PUSH1 0x40 PUSH1 0x0 KECCAK256 SLOAD PUSH1 0x40 MLOAD SWAP1 DUP2 MSTORE RETURN JUMPDEST PUSH1 0x40 MLOAD PUSH4 0x22718AD9 PUSH1 0xE2 SHL DUP2 MSTORE PUSH1 0x0 PUSH1 0x4 DUP3 ADD MSTORE PUSH1 0x24 SWAP1 REVERT JUMPDEST CALLVALUE PUSH2 0x2D4 JUMPI PUSH1 0x40 CALLDATASIZE PUSH1 0x3 NOT ADD SLT PUSH2 0x2D4 JUMPI PUSH2 0x2606 PUSH2 0x2E17 JUMP JUMPDEST PUSH1 0x1 PUSH1 0x1 PUSH1 0xA0 SHL SUB AND PUSH1 0x0 SWAP1 DUP2 MSTORE PUSH1 0x11 PUSH1 0x20 MSTORE PUSH1 0x40 SWAP1 KECCAK256 DUP1 SLOAD PUSH1 0x24 CALLDATALOAD SWAP2 SWAP1 DUP3 LT ISZERO PUSH2 0x2D4 JUMPI PUSH1 0x20 SWAP2 PUSH2 0x748 SWAP2 PUSH2 0x2F00 JUMP JUMPDEST CALLVALUE PUSH2 0x2D4 JUMPI PUSH1 0x0 CALLDATASIZE PUSH1 0x3 NOT ADD SLT PUSH2 0x2D4 JUMPI PUSH1 0x20 PUSH1 0xA SLOAD PUSH1 0x40 MLOAD SWAP1 DUP2 MSTORE RETURN JUMPDEST CALLVALUE PUSH2 0x2D4 JUMPI PUSH1 0x20 CALLDATASIZE PUSH1 0x3 NOT ADD SLT PUSH2 0x2D4 JUMPI PUSH1 0x20 PUSH2 0x2673 PUSH1 0x4 CALLDATALOAD PUSH2 0x34E9 JUMP JUMPDEST PUSH1 0x40 MLOAD PUSH1 0x1 PUSH1 0x1 PUSH1 0xA0 SHL SUB SWAP1 SWAP2 AND DUP2 MSTORE RETURN JUMPDEST CALLVALUE PUSH2 0x2D4 JUMPI PUSH1 0x20 CALLDATASIZE PUSH1 0x3 NOT ADD SLT PUSH2 0x2D4 JUMPI PUSH1 0x1 PUSH1 0x1 PUSH1 0xA0 SHL SUB PUSH2 0x26A6 PUSH2 0x2E17 JUMP JUMPDEST AND PUSH1 0x0 MSTORE PUSH1 0x10 PUSH1 0x20 MSTORE PUSH1 0x20 PUSH1 0xFF PUSH1 0x40 PUSH1 0x0 KECCAK256 SLOAD AND PUSH1 0x40 MLOAD SWAP1 ISZERO ISZERO DUP2 MSTORE RETURN JUMPDEST CALLVALUE PUSH2 0x2D4 JUMPI PUSH1 0x0 CALLDATASIZE PUSH1 0x3 NOT ADD SLT PUSH2 0x2D4 JUMPI PUSH1 0x20 PUSH1 0x40 MLOAD PUSH1 0x50 DUP2 MSTORE RETURN JUMPDEST CALLVALUE PUSH2 0x2D4 JUMPI PUSH1 0x20 CALLDATASIZE PUSH1 0x3 NOT ADD SLT PUSH2 0x2D4 JUMPI PUSH1 0x0 PUSH2 0x1A0 PUSH1 0x40 MLOAD PUSH2 0x2702 DUP2 PUSH2 0x2F59 JUMP JUMPDEST DUP3 DUP2 MSTORE DUP3 PUSH1 0x20 DUP3 ADD MSTORE DUP3 PUSH1 0x40 DUP3 ADD MSTORE DUP3 PUSH1 0x60 DUP3 ADD MSTORE DUP3 PUSH1 0x80 DUP3 ADD MSTORE DUP3 PUSH1 0xA0 DUP3 ADD MSTORE DUP3 PUSH1 0xC0 DUP3 ADD MSTORE DUP3 PUSH1 0xE0 DUP3 ADD MSTORE DUP3 PUSH2 0x100 DUP3 ADD MSTORE DUP3 PUSH2 0x120 DUP3 ADD MSTORE DUP3 PUSH2 0x140 DUP3 ADD MSTORE DUP3 PUSH2 0x160 DUP3 ADD MSTORE DUP3 PUSH2 0x180 DUP3 ADD MSTORE ADD MSTORE PUSH1 0x4 CALLDATALOAD PUSH1 0x0 MSTORE PUSH1 0xC PUSH1 0x20 MSTORE PUSH2 0x1C0 PUSH1 0x40 PUSH1 0x0 KECCAK256 PUSH1 0xD PUSH1 0x40 MLOAD SWAP2 PUSH2 0x2776 DUP4 PUSH2 0x2F59 JUMP JUMPDEST DUP1 SLOAD DUP4 MSTORE PUSH1 0x1 DUP2 ADD SLOAD PUSH1 0x1 PUSH1 0x1 PUSH1 0xA0 SHL SUB SWAP1 DUP2 AND PUSH1 0x20 DUP6 ADD MSTORE PUSH1 0x2 DUP3 ADD SLOAD AND PUSH1 0x40 DUP5 ADD MSTORE PUSH1 0x3 DUP2 ADD SLOAD PUSH1 0x60 DUP5 ADD MSTORE PUSH1 0x4 DUP2 ADD SLOAD PUSH1 0x80 DUP5 ADD MSTORE PUSH1 0x5 DUP2 ADD SLOAD PUSH1 0xA0 DUP5 ADD MSTORE PUSH1 0x6 DUP2 ADD SLOAD PUSH1 0xC0 DUP5 ADD MSTORE PUSH1 0x7 DUP2 ADD SLOAD PUSH1 0xE0 DUP5 ADD MSTORE PUSH1 0x8 DUP2 ADD SLOAD PUSH2 0x100 DUP5 ADD MSTORE PUSH1 0x9 DUP2 ADD SLOAD PUSH2 0x120 DUP5 ADD MSTORE PUSH1 0xA DUP2 ADD SLOAD PUSH2 0x140 DUP5 ADD MSTORE PUSH1 0xB DUP2 ADD SLOAD PUSH2 0x2803 SWAP1 PUSH1 0xFF AND PUSH2 0x160 DUP6 ADD PUSH2 0x3610 JUMP JUMPDEST PUSH1 0xC DUP2 ADD SLOAD PUSH2 0x180 DUP5 ADD MSTORE ADD SLOAD PUSH2 0x1A0 DUP3 ADD MSTORE PUSH2 0x1A0 PUSH1 0x40 MLOAD SWAP2 DUP1 MLOAD DUP4 MSTORE PUSH1 0x1 DUP1 PUSH1 0xA0 SHL SUB PUSH1 0x20 DUP3 ADD MLOAD AND PUSH1 0x20 DUP5 ADD MSTORE PUSH1 0x1 DUP1 PUSH1 0xA0 SHL SUB PUSH1 0x40 DUP3 ADD MLOAD AND PUSH1 0x40 DUP5 ADD MSTORE PUSH1 0x60 DUP2 ADD MLOAD PUSH1 0x60 DUP5 ADD MSTORE PUSH1 0x80 DUP2 ADD MLOAD PUSH1 0x80 DUP5 ADD MSTORE PUSH1 0xA0 DUP2 ADD MLOAD PUSH1 0xA0 DUP5 ADD MSTORE PUSH1 0xC0 DUP2 ADD MLOAD PUSH1 0xC0 DUP5 ADD MSTORE PUSH1 0xE0 DUP2 ADD MLOAD PUSH1 0xE0 DUP5 ADD MSTORE PUSH2 0x100 DUP2 ADD MLOAD PUSH2 0x100 DUP5 ADD MSTORE PUSH2 0x120 DUP2 ADD MLOAD PUSH2 0x120 DUP5 ADD MSTORE PUSH2 0x140 DUP2 ADD MLOAD PUSH2 0x140 DUP5 ADD MSTORE PUSH2 0x28AF PUSH2 0x160 DUP3 ADD MLOAD PUSH2 0x160 DUP6 ADD SWAP1 PUSH2 0x2EBE JUMP JUMPDEST PUSH2 0x180 DUP2 ADD MLOAD PUSH2 0x180 DUP5 ADD MSTORE ADD MLOAD PUSH2 0x1A0 DUP3 ADD MSTORE RETURN JUMPDEST CALLVALUE PUSH2 0x2D4 JUMPI PUSH2 0x28D3 CALLDATASIZE PUSH2 0x2ECB JUMP JUMPDEST PUSH1 0x40 MLOAD SWAP2 PUSH1 0x20 DUP4 ADD SWAP4 DUP4 DUP6 LT PUSH1 0x1 PUSH1 0x1 PUSH1 0x40 SHL SUB DUP7 GT OR PUSH2 0x1398 JUMPI PUSH2 0x1B SWAP5 PUSH1 0x40 MSTORE PUSH1 0x0 DUP5 MSTORE PUSH2 0x32D8 JUMP JUMPDEST CALLVALUE PUSH2 0x2D4 JUMPI PUSH1 0x20 CALLDATASIZE PUSH1 0x3 NOT ADD SLT PUSH2 0x2D4 JUMPI PUSH1 0x4 CALLDATALOAD PUSH1 0x0 MSTORE PUSH1 0xE PUSH1 0x20 MSTORE PUSH1 0x20 PUSH1 0x40 PUSH1 0x0 KECCAK256 SLOAD PUSH1 0x40 MLOAD SWAP1 DUP2 MSTORE RETURN JUMPDEST CALLVALUE PUSH2 0x2D4 JUMPI PUSH1 0x20 CALLDATASIZE PUSH1 0x3 NOT ADD SLT PUSH2 0x2D4 JUMPI PUSH1 0x20 PUSH2 0x2948 PUSH1 0x4 CALLDATALOAD PUSH2 0x3671 JUMP JUMPDEST PUSH1 0x40 MLOAD SWAP1 DUP2 MSTORE RETURN JUMPDEST CALLVALUE PUSH2 0x2D4 JUMPI PUSH1 0x40 CALLDATASIZE PUSH1 0x3 NOT ADD SLT PUSH2 0x2D4 JUMPI PUSH2 0x2969 PUSH2 0x2E17 JUMP JUMPDEST PUSH1 0x1 PUSH1 0x1 PUSH1 0xA0 SHL SUB AND PUSH1 0x0 SWAP1 DUP2 MSTORE PUSH1 0x13 PUSH1 0x20 MSTORE PUSH1 0x40 SWAP1 KECCAK256 DUP1 SLOAD PUSH1 0x24 CALLDATALOAD SWAP2 SWAP1 DUP3 LT ISZERO PUSH2 0x2D4 JUMPI PUSH1 0x20 SWAP2 PUSH2 0x748 SWAP2 PUSH2 0x2F00 JUMP JUMPDEST CALLVALUE PUSH2 0x2D4 JUMPI PUSH2 0x1B PUSH2 0x29AB CALLDATASIZE PUSH2 0x2ECB JUMP JUMPDEST SWAP2 PUSH2 0x3148 JUMP JUMPDEST CALLVALUE PUSH2 0x2D4 JUMPI PUSH1 0x20 CALLDATASIZE PUSH1 0x3 NOT ADD SLT PUSH2 0x2D4 JUMPI PUSH1 0x20 PUSH2 0x2948 PUSH1 0x4 CALLDATALOAD PUSH2 0x3709 JUMP JUMPDEST CALLVALUE PUSH2 0x2D4 JUMPI PUSH1 0x20 CALLDATASIZE PUSH1 0x3 NOT ADD SLT PUSH2 0x2D4 JUMPI PUSH1 0x20 PUSH2 0x29ED PUSH1 0x4 CALLDATALOAD PUSH2 0x3799 JUMP JUMPDEST PUSH1 0x40 MLOAD SWAP1 ISZERO ISZERO DUP2 MSTORE RETURN JUMPDEST CALLVALUE PUSH2 0x2D4 JUMPI PUSH1 0x20 DUP1 PUSH1 0x3 NOT CALLDATASIZE ADD SLT PUSH2 0x2D4 JUMPI PUSH1 0x40 MLOAD SWAP1 PUSH2 0x2A16 DUP3 PUSH2 0x2F3D JUMP JUMPDEST PUSH1 0x0 DUP3 MSTORE PUSH1 0x0 DUP2 DUP4 ADD MSTORE PUSH1 0x0 PUSH1 0x40 DUP4 ADD MSTORE PUSH1 0x0 PUSH1 0x60 DUP4 ADD MSTORE PUSH1 0x0 PUSH1 0x80 DUP4 ADD MSTORE PUSH1 0x0 PUSH1 0xA0 DUP4 ADD MSTORE PUSH1 0x60 PUSH1 0xC0 DUP4 ADD MSTORE PUSH1 0x0 PUSH1 0xE0 DUP4 ADD MSTORE PUSH1 0x0 PUSH2 0x100 DUP1 SWAP4 ADD MSTORE PUSH1 0x4 CALLDATALOAD PUSH1 0x0 MSTORE PUSH1 0xD DUP2 MSTORE PUSH1 0x40 PUSH1 0x0 KECCAK256 PUSH1 0x40 MLOAD SWAP3 DUP4 SWAP2 PUSH2 0x2A71 DUP4 PUSH2 0x2F3D JUMP JUMPDEST DUP1 SLOAD DUP4 MSTORE PUSH2 0x2B47 PUSH1 0x1 DUP1 PUSH1 0xA0 SHL SUB SWAP2 DUP3 PUSH1 0x1 DUP3 ADD SLOAD AND SWAP3 DUP7 DUP7 ADD SWAP4 DUP5 MSTORE PUSH1 0x2 DUP3 ADD SLOAD PUSH1 0x40 DUP8 ADD SWAP1 DUP2 MSTORE PUSH1 0x3 DUP4 ADD SLOAD PUSH1 0x60 DUP9 ADD SWAP1 DUP2 MSTORE PUSH1 0x4 DUP5 ADD SLOAD SWAP2 PUSH1 0x80 DUP10 ADD SWAP3 DUP4 MSTORE PUSH1 0x5 DUP6 ADD SLOAD SWAP4 PUSH1 0xA0 DUP11 ADD SWAP5 DUP6 MSTORE PUSH1 0x8 PUSH2 0x2ACE PUSH1 0x6 DUP9 ADD PUSH2 0x305C JUMP JUMPDEST SWAP7 PUSH1 0xC0 DUP13 ADD SWAP8 DUP9 MSTORE PUSH2 0x2AEC PUSH1 0xE0 PUSH1 0xFF PUSH1 0x7 DUP5 ADD SLOAD AND SWAP14 ADD SWAP13 DUP14 PUSH2 0x3610 JUMP JUMPDEST ADD SLOAD SWAP8 DUP10 DUP14 ADD SWAP9 DUP10 MSTORE DUP12 PUSH1 0x40 MLOAD SWAP14 DUP15 SWAP14 DUP15 MSTORE MLOAD SWAP1 DUP14 ADD MSTORE MLOAD AND PUSH1 0x40 DUP12 ADD MSTORE MLOAD PUSH1 0x60 DUP11 ADD MSTORE MLOAD PUSH1 0x80 DUP10 ADD MSTORE MLOAD PUSH1 0xA0 DUP9 ADD MSTORE MLOAD PUSH1 0xC0 DUP8 ADD MSTORE MLOAD SWAP3 PUSH2 0x2B3C PUSH2 0x120 SWAP5 DUP6 PUSH1 0xE0 DUP10 ADD MSTORE PUSH2 0x140 DUP9 ADD SWAP1 PUSH2 0x2E7E JUMP JUMPDEST SWAP5 MLOAD SWAP1 DUP7 ADD SWAP1 PUSH2 0x2EBE JUMP JUMPDEST MLOAD SWAP1 DUP4 ADD MSTORE SUB SWAP1 RETURN JUMPDEST CALLVALUE PUSH2 0x2D4 JUMPI PUSH1 0x0 CALLDATASIZE PUSH1 0x3 NOT ADD SLT PUSH2 0x2D4 JUMPI PUSH1 0x20 PUSH1 0x40 MLOAD PUSH1 0x64 DUP2 MSTORE RETURN JUMPDEST CALLVALUE PUSH2 0x2D4 JUMPI PUSH1 0x40 CALLDATASIZE PUSH1 0x3 NOT ADD SLT PUSH2 0x2D4 JUMPI PUSH2 0x2B85 PUSH2 0x2E17 JUMP JUMPDEST PUSH1 0x24 CALLDATALOAD PUSH2 0x2B91 DUP2 PUSH2 0x34E9 JUMP JUMPDEST CALLER ISZERO ISZERO DUP1 PUSH2 0x2C40 JUMPI JUMPDEST DUP1 PUSH2 0x2C13 JUMPI JUMPDEST PUSH2 0x2BFB JUMPI PUSH1 0x1 PUSH1 0x1 PUSH1 0xA0 SHL SUB SWAP3 DUP4 AND SWAP3 DUP3 SWAP2 DUP5 SWAP2 AND PUSH32 0x8C5BE1E5EBEC7D5BD14F71427D1E84F3DD0314C0F7B2291E5B200AC8C7C3B925 PUSH1 0x0 DUP1 LOG4 PUSH1 0x0 SWAP1 DUP2 MSTORE PUSH1 0x4 PUSH1 0x20 MSTORE PUSH1 0x40 SWAP1 KECCAK256 DUP1 SLOAD PUSH1 0x1 PUSH1 0x1 PUSH1 0xA0 SHL SUB NOT AND SWAP1 SWAP2 OR SWAP1 SSTORE STOP JUMPDEST PUSH1 0x40 MLOAD PUSH4 0xA9FBF51F PUSH1 0xE0 SHL DUP2 MSTORE CALLER PUSH1 0x4 DUP3 ADD MSTORE PUSH1 0x24 SWAP1 REVERT JUMPDEST POP PUSH1 0x1 DUP1 PUSH1 0xA0 SHL SUB DUP2 AND PUSH1 0x0 MSTORE PUSH1 0x5 PUSH1 0x20 MSTORE PUSH1 0x40 PUSH1 0x0 KECCAK256 CALLER PUSH1 0x0 MSTORE PUSH1 0x20 MSTORE PUSH1 0xFF PUSH1 0x40 PUSH1 0x0 KECCAK256 SLOAD AND ISZERO PUSH2 0x2BA0 JUMP JUMPDEST POP PUSH1 0x1 PUSH1 0x1 PUSH1 0xA0 SHL SUB DUP2 AND CALLER EQ ISZERO PUSH2 0x2B9A JUMP JUMPDEST CALLVALUE PUSH2 0x2D4 JUMPI PUSH1 0x20 CALLDATASIZE PUSH1 0x3 NOT ADD SLT PUSH2 0x2D4 JUMPI PUSH1 0x4 CALLDATALOAD PUSH2 0x2C70 DUP2 PUSH2 0x34E9 JUMP JUMPDEST POP PUSH1 0x0 MSTORE PUSH1 0x4 PUSH1 0x20 MSTORE PUSH1 0x20 PUSH1 0x1 DUP1 PUSH1 0xA0 SHL SUB PUSH1 0x40 PUSH1 0x0 KECCAK256 SLOAD AND PUSH1 0x40 MLOAD SWAP1 DUP2 MSTORE RETURN JUMPDEST CALLVALUE PUSH2 0x2D4 JUMPI PUSH1 0x0 CALLDATASIZE PUSH1 0x3 NOT ADD SLT PUSH2 0x2D4 JUMPI PUSH1 0x40 MLOAD PUSH1 0x0 DUP1 SLOAD PUSH2 0x2CB2 DUP2 PUSH2 0x3022 JUMP JUMPDEST DUP1 DUP5 MSTORE SWAP1 PUSH1 0x1 SWAP1 DUP2 DUP2 AND SWAP1 DUP2 ISZERO PUSH2 0x1669 JUMPI POP PUSH1 0x1 EQ PUSH2 0x2CDB JUMPI PUSH2 0xBCB DUP5 PUSH2 0xBB7 DUP2 DUP7 SUB DUP3 PUSH2 0x2F91 JUMP JUMPDEST PUSH1 0x0 DUP1 DUP1 MSTORE SWAP3 POP PUSH32 0x290DECD9548B62A8D60345A988386FC84BA6BC95484008F6362F93160EF3E563 JUMPDEST DUP3 DUP5 LT PUSH2 0x2D1C JUMPI POP POP POP DUP2 ADD PUSH1 0x20 ADD PUSH2 0xBB7 DUP3 PUSH2 0x1600 JUMP JUMPDEST DUP1 SLOAD PUSH1 0x20 DUP6 DUP8 ADD DUP2 ADD SWAP2 SWAP1 SWAP2 MSTORE SWAP1 SWAP4 ADD SWAP3 DUP2 ADD PUSH2 0x2D04 JUMP JUMPDEST CALLVALUE PUSH2 0x2D4 JUMPI PUSH1 0x20 DUP1 PUSH1 0x3 NOT CALLDATASIZE ADD SLT PUSH2 0x2D4 JUMPI PUSH1 0x1 PUSH1 0x1 PUSH1 0xA0 SHL SUB PUSH2 0x2D56 PUSH2 0x2E17 JUMP JUMPDEST AND PUSH1 0x0 MSTORE PUSH1 0x12 DUP2 MSTORE PUSH1 0x40 PUSH1 0x0 KECCAK256 SWAP1 PUSH1 0x40 MLOAD SWAP1 DUP2 DUP2 DUP5 SLOAD SWAP2 DUP3 DUP2 MSTORE ADD SWAP4 PUSH1 0x0 MSTORE DUP2 PUSH1 0x0 KECCAK256 SWAP2 PUSH1 0x0 SWAP1 JUMPDEST DUP3 DUP3 LT PUSH2 0x2D95 JUMPI PUSH2 0xBCB DUP6 PUSH2 0x232B DUP2 DUP10 SUB DUP3 PUSH2 0x2F91 JUMP JUMPDEST DUP4 SLOAD DUP7 MSTORE SWAP5 DUP6 ADD SWAP5 PUSH1 0x1 SWAP4 DUP5 ADD SWAP4 SWAP1 SWAP2 ADD SWAP1 PUSH2 0x2D7E JUMP JUMPDEST CALLVALUE PUSH2 0x2D4 JUMPI PUSH1 0x20 CALLDATASIZE PUSH1 0x3 NOT ADD SLT PUSH2 0x2D4 JUMPI PUSH1 0x4 CALLDATALOAD SWAP1 PUSH4 0xFFFFFFFF PUSH1 0xE0 SHL DUP3 AND DUP1 SWAP3 SUB PUSH2 0x2D4 JUMPI PUSH1 0x20 SWAP2 PUSH4 0x80AC58CD PUSH1 0xE0 SHL DUP2 EQ SWAP1 DUP2 ISZERO PUSH2 0x2E06 JUMPI JUMPDEST DUP2 ISZERO PUSH2 0x2DF5 JUMPI JUMPDEST POP ISZERO ISZERO DUP2 MSTORE RETURN JUMPDEST PUSH4 0x1FFC9A7 PUSH1 0xE0 SHL EQ SWAP1 POP DUP4 PUSH2 0x2DEE JUMP JUMPDEST PUSH4 0x5B5E139F PUSH1 0xE0 SHL DUP2 EQ SWAP2 POP PUSH2 0x2DE7 JUMP JUMPDEST PUSH1 0x4 CALLDATALOAD SWAP1 PUSH1 0x1 PUSH1 0x1 PUSH1 0xA0 SHL SUB DUP3 AND DUP3 SUB PUSH2 0x2D4 JUMPI JUMP JUMPDEST PUSH1 0x24 CALLDATALOAD SWAP1 PUSH1 0x1 PUSH1 0x1 PUSH1 0xA0 SHL SUB DUP3 AND DUP3 SUB PUSH2 0x2D4 JUMPI JUMP JUMPDEST PUSH1 0x20 SWAP1 DUP2 PUSH1 0x40 DUP2 DUP4 ADD SWAP3 DUP3 DUP2 MSTORE DUP6 MLOAD DUP1 SWAP5 MSTORE ADD SWAP4 ADD SWAP2 PUSH1 0x0 JUMPDEST DUP3 DUP2 LT PUSH2 0x2E6A JUMPI POP POP POP POP SWAP1 JUMP JUMPDEST DUP4 MLOAD DUP6 MSTORE SWAP4 DUP2 ADD SWAP4 SWAP3 DUP2 ADD SWAP3 PUSH1 0x1 ADD PUSH2 0x2E5C JUMP JUMPDEST SWAP2 SWAP1 DUP3 MLOAD SWAP3 DUP4 DUP3 MSTORE PUSH1 0x0 JUMPDEST DUP5 DUP2 LT PUSH2 0x2EAA JUMPI POP POP DUP3 PUSH1 0x0 PUSH1 0x20 DUP1 SWAP5 SWAP6 DUP5 ADD ADD MSTORE PUSH1 0x1F DUP1 NOT SWAP2 ADD AND ADD ADD SWAP1 JUMP JUMPDEST PUSH1 0x20 DUP2 DUP4 ADD DUP2 ADD MLOAD DUP5 DUP4 ADD DUP3 ADD MSTORE ADD PUSH2 0x2E89 JUMP JUMPDEST SWAP1 PUSH1 0x6 DUP3 LT ISZERO PUSH2 0x576 JUMPI MSTORE JUMP JUMPDEST PUSH1 0x60 SWAP1 PUSH1 0x3 NOT ADD SLT PUSH2 0x2D4 JUMPI PUSH1 0x1 PUSH1 0x1 PUSH1 0xA0 SHL SUB SWAP1 PUSH1 0x4 CALLDATALOAD DUP3 DUP2 AND DUP2 SUB PUSH2 0x2D4 JUMPI SWAP2 PUSH1 0x24 CALLDATALOAD SWAP1 DUP2 AND DUP2 SUB PUSH2 0x2D4 JUMPI SWAP1 PUSH1 0x44 CALLDATALOAD SWAP1 JUMP JUMPDEST DUP1 SLOAD DUP3 LT ISZERO PUSH2 0x2F18 JUMPI PUSH1 0x0 MSTORE PUSH1 0x20 PUSH1 0x0 KECCAK256 ADD SWAP1 PUSH1 0x0 SWAP1 JUMP JUMPDEST PUSH4 0x4E487B71 PUSH1 0xE0 SHL PUSH1 0x0 MSTORE PUSH1 0x32 PUSH1 0x4 MSTORE PUSH1 0x24 PUSH1 0x0 REVERT JUMPDEST PUSH1 0x24 CALLDATALOAD SWAP1 DUP2 ISZERO ISZERO DUP3 SUB PUSH2 0x2D4 JUMPI JUMP JUMPDEST PUSH2 0x120 DUP2 ADD SWAP1 DUP2 LT PUSH1 0x1 PUSH1 0x1 PUSH1 0x40 SHL SUB DUP3 GT OR PUSH2 0x1398 JUMPI PUSH1 0x40 MSTORE JUMP JUMPDEST PUSH2 0x1C0 DUP2 ADD SWAP1 DUP2 LT PUSH1 0x1 PUSH1 0x1 PUSH1 0x40 SHL SUB DUP3 GT OR PUSH2 0x1398 JUMPI PUSH1 0x40 MSTORE JUMP JUMPDEST PUSH2 0x160 DUP2 ADD SWAP1 DUP2 LT PUSH1 0x1 PUSH1 0x1 PUSH1 0x40 SHL SUB DUP3 GT OR PUSH2 0x1398 JUMPI PUSH1 0x40 MSTORE JUMP JUMPDEST SWAP1 PUSH1 0x1F DUP1 NOT SWAP2 ADD AND DUP2 ADD SWAP1 DUP2 LT PUSH1 0x1 PUSH1 0x1 PUSH1 0x40 SHL SUB DUP3 GT OR PUSH2 0x1398 JUMPI PUSH1 0x40 MSTORE JUMP JUMPDEST PUSH1 0x1 PUSH1 0x1 PUSH1 0x40 SHL SUB DUP2 GT PUSH2 0x1398 JUMPI PUSH1 0x1F ADD PUSH1 0x1F NOT AND PUSH1 0x20 ADD SWAP1 JUMP JUMPDEST SWAP3 SWAP2 SWAP3 PUSH2 0x2FD9 DUP3 PUSH2 0x2FB2 JUMP JUMPDEST SWAP2 PUSH2 0x2FE7 PUSH1 0x40 MLOAD SWAP4 DUP5 PUSH2 0x2F91 JUMP JUMPDEST DUP3 SWAP5 DUP2 DUP5 MSTORE DUP2 DUP4 ADD GT PUSH2 0x2D4 JUMPI DUP3 DUP2 PUSH1 0x20 SWAP4 DUP5 PUSH1 0x0 SWAP7 ADD CALLDATACOPY ADD ADD MSTORE JUMP JUMPDEST SWAP1 DUP1 PUSH1 0x1F DUP4 ADD SLT ISZERO PUSH2 0x2D4 JUMPI DUP2 PUSH1 0x20 PUSH2 0x301F SWAP4 CALLDATALOAD SWAP2 ADD PUSH2 0x2FCD JUMP JUMPDEST SWAP1 JUMP JUMPDEST SWAP1 PUSH1 0x1 DUP3 DUP2 SHR SWAP3 AND DUP1 ISZERO PUSH2 0x3052 JUMPI JUMPDEST PUSH1 0x20 DUP4 LT EQ PUSH2 0x303C JUMPI JUMP JUMPDEST PUSH4 0x4E487B71 PUSH1 0xE0 SHL PUSH1 0x0 MSTORE PUSH1 0x22 PUSH1 0x4 MSTORE PUSH1 0x24 PUSH1 0x0 REVERT JUMPDEST SWAP2 PUSH1 0x7F AND SWAP2 PUSH2 0x3031 JUMP JUMPDEST SWAP1 PUSH1 0x40 MLOAD SWAP2 DUP3 PUSH1 0x0 DUP3 SLOAD SWAP3 PUSH2 0x3070 DUP5 PUSH2 0x3022 JUMP JUMPDEST SWAP1 DUP2 DUP5 MSTORE PUSH1 0x1 SWAP5 DUP6 DUP2 AND SWAP1 DUP2 PUSH1 0x0 EQ PUSH2 0x30DF JUMPI POP PUSH1 0x1 EQ PUSH2 0x309C JUMPI JUMPDEST POP POP PUSH2 0x309A SWAP3 POP SUB DUP4 PUSH2 0x2F91 JUMP JUMPDEST JUMP JUMPDEST SWAP1 SWAP4 SWAP2 POP PUSH1 0x0 MSTORE PUSH1 0x20 SWAP1 DUP2 PUSH1 0x0 KECCAK256 SWAP4 PUSH1 0x0 SWAP2 JUMPDEST DUP2 DUP4 LT PUSH2 0x30C7 JUMPI POP POP PUSH2 0x309A SWAP4 POP DUP3 ADD ADD CODESIZE DUP1 PUSH2 0x308C JUMP JUMPDEST DUP6 SLOAD DUP9 DUP5 ADD DUP6 ADD MSTORE SWAP5 DUP6 ADD SWAP5 DUP8 SWAP5 POP SWAP2 DUP4 ADD SWAP2 PUSH2 0x30AF JUMP JUMPDEST SWAP2 POP POP PUSH2 0x309A SWAP5 POP PUSH1 0x20 SWAP3 POP PUSH1 0xFF NOT AND DUP3 DUP5 ADD MSTORE ISZERO ISZERO PUSH1 0x5 SHL DUP3 ADD ADD CODESIZE DUP1 PUSH2 0x308C JUMP JUMPDEST SWAP1 PUSH1 0x4 DUP3 LT ISZERO PUSH2 0x576 JUMPI MSTORE JUMP JUMPDEST SWAP1 PUSH1 0x3 DUP3 LT ISZERO PUSH2 0x576 JUMPI MSTORE JUMP JUMPDEST PUSH1 0x6 SLOAD PUSH1 0x1 PUSH1 0x1 PUSH1 0xA0 SHL SUB AND CALLER SUB PUSH2 0x3130 JUMPI JUMP JUMPDEST PUSH1 0x40 MLOAD PUSH4 0x118CDAA7 PUSH1 0xE0 SHL DUP2 MSTORE CALLER PUSH1 0x4 DUP3 ADD MSTORE PUSH1 0x24 SWAP1 REVERT JUMPDEST SWAP1 PUSH1 0x1 PUSH1 0x1 PUSH1 0xA0 SHL SUB SWAP1 DUP2 AND DUP1 ISZERO PUSH2 0xA7E JUMPI PUSH1 0x0 SWAP2 DUP5 DUP4 MSTORE DUP5 PUSH1 0x20 SWAP3 PUSH1 0x2 DUP5 MSTORE PUSH1 0x40 SWAP4 DUP4 DUP6 DUP8 KECCAK256 SLOAD AND SWAP6 DUP7 SWAP2 CALLER ISZERO ISZERO DUP1 PUSH2 0x3242 JUMPI JUMPDEST POP SWAP1 PUSH1 0x2 PUSH32 0xDDF252AD1BE2C89B69C2B068FC378DAA952BA7F163C4A11628F55A4DF523B3EF SWAP3 DUP5 PUSH2 0x320F JUMPI JUMPDEST DUP6 DUP4 MSTORE PUSH1 0x3 DUP2 MSTORE DUP9 DUP4 KECCAK256 DUP1 SLOAD PUSH1 0x1 ADD SWAP1 SSTORE DUP7 DUP4 MSTORE MSTORE DUP7 DUP2 KECCAK256 DUP1 SLOAD PUSH1 0x1 PUSH1 0x1 PUSH1 0xA0 SHL SUB NOT AND DUP6 OR SWAP1 SSTORE DUP1 LOG4 DUP4 AND DUP3 SUB PUSH2 0x31E1 JUMPI POP POP POP POP JUMP JUMPDEST MLOAD PUSH4 0x64283D7B PUSH1 0xE0 SHL DUP2 MSTORE PUSH1 0x1 PUSH1 0x1 PUSH1 0xA0 SHL SUB SWAP3 DUP4 AND PUSH1 0x4 DUP3 ADD MSTORE PUSH1 0x24 DUP2 ADD SWAP4 SWAP1 SWAP4 MSTORE AND PUSH1 0x44 DUP3 ADD MSTORE PUSH1 0x64 SWAP1 REVERT JUMPDEST PUSH1 0x0 DUP8 DUP2 MSTORE PUSH1 0x4 PUSH1 0x20 MSTORE PUSH1 0x40 SWAP1 KECCAK256 DUP1 SLOAD PUSH1 0x1 PUSH1 0x1 PUSH1 0xA0 SHL SUB NOT AND SWAP1 SSTORE DUP5 DUP4 MSTORE PUSH1 0x3 DUP2 MSTORE DUP9 DUP4 KECCAK256 DUP1 SLOAD PUSH1 0x0 NOT ADD SWAP1 SSTORE PUSH2 0x31A9 JUMP JUMPDEST SWAP2 SWAP4 SWAP5 POP SWAP2 POP DUP1 PUSH2 0x3297 JUMPI JUMPDEST ISZERO PUSH2 0x325E JUMPI DUP8 SWAP3 SWAP2 DUP7 SWAP2 CODESIZE PUSH2 0x317D JUMP JUMPDEST DUP5 DUP9 DUP8 PUSH2 0x327B JUMPI PUSH1 0x24 SWAP2 MLOAD SWAP1 PUSH4 0x7E273289 PUSH1 0xE0 SHL DUP3 MSTORE PUSH1 0x4 DUP3 ADD MSTORE REVERT JUMPDEST PUSH1 0x44 SWAP2 MLOAD SWAP1 PUSH4 0x177E802F PUSH1 0xE0 SHL DUP3 MSTORE CALLER PUSH1 0x4 DUP4 ADD MSTORE PUSH1 0x24 DUP3 ADD MSTORE REVERT JUMPDEST POP CALLER DUP7 EQ DUP1 ISZERO PUSH2 0x32BC JUMPI JUMPDEST DUP1 PUSH2 0x324E JUMPI POP DUP8 DUP3 MSTORE PUSH1 0x4 DUP2 MSTORE CALLER DUP5 DUP7 DUP5 KECCAK256 SLOAD AND EQ PUSH2 0x324E JUMP JUMPDEST POP DUP6 DUP3 MSTORE PUSH1 0x5 DUP2 MSTORE DUP5 DUP3 KECCAK256 CALLER DUP4 MSTORE DUP2 MSTORE PUSH1 0xFF DUP6 DUP4 KECCAK256 SLOAD AND PUSH2 0x32A2 JUMP JUMPDEST SWAP3 SWAP1 SWAP3 PUSH2 0x32E6 DUP4 DUP6 DUP4 PUSH2 0x3148 JUMP JUMPDEST DUP4 EXTCODESIZE PUSH2 0x32F3 JUMPI JUMPDEST POP POP POP POP JUMP JUMPDEST PUSH1 0x40 MLOAD PUSH4 0xA85BD01 PUSH1 0xE1 SHL DUP1 DUP3 MSTORE CALLER PUSH1 0x4 DUP4 ADD MSTORE PUSH1 0x1 PUSH1 0x1 PUSH1 0xA0 SHL SUB SWAP3 DUP4 AND PUSH1 0x24 DUP4 ADD MSTORE PUSH1 0x44 DUP3 ADD SWAP5 SWAP1 SWAP5 MSTORE PUSH1 0x80 PUSH1 0x64 DUP3 ADD MSTORE SWAP5 SWAP4 AND SWAP3 PUSH1 0x20 SWAP3 SWAP1 SWAP2 DUP6 SWAP1 PUSH2 0x333F SWAP1 PUSH1 0x84 DUP4 ADD SWAP1 PUSH2 0x2E7E JUMP JUMPDEST SUB SWAP5 DUP4 DUP2 PUSH1 0x0 SWAP8 DUP2 DUP10 DUP10 GAS CALL DUP7 SWAP2 DUP2 PUSH2 0x33E9 JUMPI JUMPDEST POP PUSH2 0x33B4 JUMPI POP POP POP RETURNDATASIZE PUSH1 0x0 EQ PUSH2 0x33AB JUMPI RETURNDATASIZE PUSH2 0x336D DUP2 PUSH2 0x2FB2 JUMP JUMPDEST SWAP1 PUSH2 0x337B PUSH1 0x40 MLOAD SWAP3 DUP4 PUSH2 0x2F91 JUMP JUMPDEST DUP2 MSTORE DUP1 SWAP4 DUP3 RETURNDATASIZE SWAP3 ADD RETURNDATACOPY JUMPDEST DUP3 MLOAD SWAP3 DUP4 PUSH2 0x33A6 JUMPI PUSH1 0x40 MLOAD PUSH4 0x32505749 PUSH1 0xE1 SHL DUP2 MSTORE PUSH1 0x4 DUP2 ADD DUP5 SWAP1 MSTORE PUSH1 0x24 SWAP1 REVERT JUMPDEST ADD SWAP1 POP REVERT JUMPDEST PUSH1 0x60 SWAP3 POP PUSH2 0x3385 JUMP JUMPDEST SWAP2 SWAP5 POP SWAP2 POP PUSH4 0xFFFFFFFF PUSH1 0xE0 SHL AND SUB PUSH2 0x33D1 JUMPI POP CODESIZE DUP1 DUP1 DUP1 PUSH2 0x32ED JUMP JUMPDEST PUSH1 0x24 SWAP1 PUSH1 0x40 MLOAD SWAP1 PUSH4 0x32505749 PUSH1 0xE1 SHL DUP3 MSTORE PUSH1 0x4 DUP3 ADD MSTORE REVERT JUMPDEST SWAP1 SWAP2 POP DUP5 DUP2 DUP2 RETURNDATASIZE DUP4 GT PUSH2 0x3426 JUMPI JUMPDEST PUSH2 0x3401 DUP2 DUP4 PUSH2 0x2F91 JUMP JUMPDEST DUP2 ADD SUB SLT PUSH2 0x3422 JUMPI MLOAD PUSH1 0x1 PUSH1 0x1 PUSH1 0xE0 SHL SUB NOT DUP2 AND DUP2 SUB PUSH2 0x3422 JUMPI SWAP1 CODESIZE PUSH2 0x3353 JUMP JUMPDEST DUP7 DUP1 REVERT JUMPDEST POP RETURNDATASIZE PUSH2 0x33F7 JUMP JUMPDEST PUSH1 0x0 DUP3 DUP2 MSTORE PUSH1 0x2 PUSH1 0x20 MSTORE PUSH1 0x40 DUP2 KECCAK256 SLOAD PUSH1 0x1 PUSH1 0x1 PUSH1 0xA0 SHL SUB SWAP1 DUP2 AND SWAP4 SWAP3 DUP5 SWAP2 PUSH32 0xDDF252AD1BE2C89B69C2B068FC378DAA952BA7F163C4A11628F55A4DF523B3EF SWAP2 DUP4 PUSH2 0x34B4 JUMPI JUMPDEST AND SWAP3 DUP4 PUSH2 0x349C JUMPI JUMPDEST DUP5 DUP2 MSTORE PUSH1 0x2 PUSH1 0x20 MSTORE PUSH1 0x40 DUP2 KECCAK256 DUP1 SLOAD PUSH1 0x1 PUSH1 0x1 PUSH1 0xA0 SHL SUB NOT AND DUP6 OR SWAP1 SSTORE DUP1 LOG4 SWAP1 JUMP JUMPDEST DUP4 DUP2 MSTORE PUSH1 0x3 PUSH1 0x20 MSTORE PUSH1 0x40 DUP2 KECCAK256 PUSH1 0x1 DUP2 SLOAD ADD SWAP1 SSTORE PUSH2 0x347B JUMP JUMPDEST PUSH1 0x0 DUP7 DUP2 MSTORE PUSH1 0x4 PUSH1 0x20 MSTORE PUSH1 0x40 SWAP1 KECCAK256 DUP1 SLOAD PUSH1 0x1 PUSH1 0x1 PUSH1 0xA0 SHL SUB NOT AND SWAP1 SSTORE DUP4 DUP6 MSTORE PUSH1 0x3 PUSH1 0x20 MSTORE PUSH1 0x40 DUP6 KECCAK256 DUP1 SLOAD PUSH1 0x0 NOT ADD SWAP1 SSTORE PUSH2 0x3473 JUMP JUMPDEST PUSH1 0x0 DUP2 DUP2 MSTORE PUSH1 0x2 PUSH1 0x20 MSTORE PUSH1 0x40 SWAP1 KECCAK256 SLOAD PUSH1 0x1 PUSH1 0x1 PUSH1 0xA0 SHL SUB AND SWAP1 DUP2 ISZERO PUSH2 0x350C JUMPI POP SWAP1 JUMP JUMPDEST PUSH1 0x24 SWAP1 PUSH1 0x40 MLOAD SWAP1 PUSH4 0x7E273289 PUSH1 0xE0 SHL DUP3 MSTORE PUSH1 0x4 DUP3 ADD MSTORE REVERT JUMPDEST PUSH1 0x0 NOT DUP2 EQ PUSH2 0xAD1 JUMPI PUSH1 0x1 ADD SWAP1 JUMP JUMPDEST PUSH1 0x4 DUP3 LT ISZERO PUSH2 0x576 JUMPI MSTORE JUMP JUMPDEST DUP1 SLOAD PUSH9 0x10000000000000000 DUP2 LT ISZERO PUSH2 0x1398 JUMPI PUSH2 0x3561 SWAP2 PUSH1 0x1 DUP3 ADD DUP2 SSTORE PUSH2 0x2F00 JUMP JUMPDEST DUP2 SWAP3 SWAP2 SLOAD SWAP1 PUSH1 0x3 SHL SWAP2 DUP3 SHL SWAP2 PUSH1 0x0 NOT SWAP1 SHL NOT AND OR SWAP1 SSTORE JUMP JUMPDEST ISZERO PUSH2 0x3580 JUMPI JUMP JUMPDEST PUSH1 0x40 MLOAD PUSH3 0x461BCD PUSH1 0xE5 SHL DUP2 MSTORE PUSH1 0x20 PUSH1 0x4 DUP3 ADD MSTORE PUSH1 0x14 PUSH1 0x24 DUP3 ADD MSTORE PUSH20 0x105CDCD95D08191BD95CC81B9BDD08195E1A5CDD PUSH1 0x62 SHL PUSH1 0x44 DUP3 ADD MSTORE PUSH1 0x64 SWAP1 REVERT JUMPDEST ISZERO PUSH2 0x35C3 JUMPI JUMP JUMPDEST PUSH1 0x40 MLOAD PUSH3 0x461BCD PUSH1 0xE5 SHL DUP2 MSTORE PUSH1 0x20 PUSH1 0x4 DUP3 ADD MSTORE PUSH1 0x12 PUSH1 0x24 DUP3 ADD MSTORE PUSH18 0x105CDCD95D081B9BDD081D995C9A599A5959 PUSH1 0x72 SHL PUSH1 0x44 DUP3 ADD MSTORE PUSH1 0x64 SWAP1 REVERT JUMPDEST DUP2 DUP2 MUL SWAP3 SWAP2 DUP2 ISZERO SWAP2 DUP5 DIV EQ OR ISZERO PUSH2 0xAD1 JUMPI JUMP JUMPDEST PUSH1 0x6 DUP3 LT ISZERO PUSH2 0x576 JUMPI MSTORE JUMP JUMPDEST SWAP1 PUSH1 0x6 DUP2 LT ISZERO PUSH2 0x576 JUMPI PUSH1 0xFF DUP1 NOT DUP4 SLOAD AND SWAP2 AND OR SWAP1 SSTORE JUMP JUMPDEST SWAP2 SWAP1 DUP3 SUB SWAP2 DUP3 GT PUSH2 0xAD1 JUMPI JUMP JUMPDEST SWAP2 SWAP1 DUP3 ADD DUP1 SWAP3 GT PUSH2 0xAD1 JUMPI JUMP JUMPDEST PUSH1 0x2 PUSH1 0x7 SLOAD EQ PUSH2 0x365F JUMPI PUSH1 0x2 PUSH1 0x7 SSTORE JUMP JUMPDEST PUSH1 0x40 MLOAD PUSH4 0x3EE5AEB5 PUSH1 0xE0 SHL DUP2 MSTORE PUSH1 0x4 SWAP1 REVERT JUMPDEST PUSH1 0x0 SWAP1 DUP2 MSTORE PUSH1 0xC PUSH1 0x20 MSTORE PUSH1 0x40 DUP2 KECCAK256 PUSH1 0xFF PUSH1 0xB DUP3 ADD SLOAD AND PUSH1 0x6 DUP2 LT ISZERO PUSH2 0x36F5 JUMPI PUSH1 0x2 SUB PUSH2 0x36F1 JUMPI PUSH1 0xC PUSH2 0x36D6 PUSH3 0x15180 PUSH2 0x36AE PUSH1 0x9 DUP6 ADD SLOAD TIMESTAMP PUSH2 0x3634 JUMP JUMPDEST DIV PUSH3 0x37B1D0 PUSH2 0x36CF PUSH1 0x5 DUP7 ADD SLOAD SWAP3 PUSH2 0x36CA PUSH1 0x6 DUP9 ADD SLOAD DUP6 PUSH2 0x35FD JUMP JUMPDEST PUSH2 0x35FD JUMP JUMPDEST DIV SWAP1 PUSH2 0x3641 JUMP JUMPDEST SWAP2 ADD SLOAD SWAP1 DUP2 DUP2 GT ISZERO PUSH2 0x36EC JUMPI PUSH2 0x301F SWAP3 POP PUSH2 0x3634 JUMP JUMPDEST POP POP SWAP1 JUMP JUMPDEST POP SWAP1 JUMP JUMPDEST PUSH4 0x4E487B71 PUSH1 0xE0 SHL DUP4 MSTORE PUSH1 0x21 PUSH1 0x4 MSTORE PUSH1 0x24 DUP4 REVERT JUMPDEST PUSH1 0x0 SWAP1 DUP1 DUP3 MSTORE PUSH1 0xC PUSH1 0x20 MSTORE PUSH1 0x40 DUP3 KECCAK256 PUSH1 0xFF PUSH1 0xB DUP3 ADD SLOAD AND PUSH1 0x6 DUP2 LT ISZERO PUSH2 0x3785 JUMPI PUSH1 0x2 SUB PUSH2 0x377C JUMPI PUSH1 0x3 ADD SLOAD DUP3 MSTORE PUSH1 0xE PUSH1 0x20 MSTORE PUSH2 0x3749 PUSH1 0x40 DUP4 KECCAK256 SLOAD SWAP2 PUSH2 0x3671 JUMP JUMPDEST SWAP2 DUP3 ISZERO PUSH2 0x377C JUMPI PUSH1 0x64 DUP3 MUL SWAP2 DUP1 DUP4 DIV PUSH1 0x64 EQ SWAP1 ISZERO OR ISZERO PUSH2 0x3768 JUMPI POP DIV SWAP1 JUMP JUMPDEST PUSH4 0x4E487B71 PUSH1 0xE0 SHL DUP2 MSTORE PUSH1 0x11 PUSH1 0x4 MSTORE PUSH1 0x24 SWAP1 REVERT JUMPDEST POP POP POP PUSH1 0x0 NOT SWAP1 JUMP JUMPDEST PUSH4 0x4E487B71 PUSH1 0xE0 SHL DUP5 MSTORE PUSH1 0x21 PUSH1 0x4 MSTORE PUSH1 0x24 DUP5 REVERT JUMPDEST DUP1 PUSH1 0x0 MSTORE PUSH1 0xC PUSH1 0x20 MSTORE PUSH1 0x40 PUSH1 0x0 KECCAK256 PUSH1 0xFF PUSH1 0xB DUP3 ADD SLOAD AND PUSH1 0x6 DUP2 LT ISZERO PUSH2 0x576 JUMPI PUSH1 0x2 SUB PUSH2 0x37E1 JUMPI PUSH2 0x37D1 PUSH1 0xA PUSH1 0x6E SWAP3 ADD SLOAD TIMESTAMP GT SWAP3 PUSH2 0x3709 JUMP JUMPDEST LT DUP2 ISZERO PUSH2 0x37DC JUMPI POP SWAP1 JUMP JUMPDEST SWAP1 POP SWAP1 JUMP JUMPDEST POP POP PUSH1 0x0 SWAP1 JUMP INVALID LOG2 PUSH5 0x6970667358 0x22 SLT KECCAK256 DUP14 SELFBALANCE BLOCKHASH PUSH7 0x12049805ACBF56 GASPRICE COINBASE CALL BASEFEE 0xC PUSH27 0x950C14A1C1FD8940C0A96D869CD14464736F6C6343000814003300 "},"methodIdentifiers":{"LIQUIDATION_THRESHOLD()":"90a8ae9b","LTV_RATIO()":"5696b189","PROTOCOL_FEE()":"0b4501fd","addOracle(address)":"df5dd1a5","addVerifier(address)":"9000b3d6","approve(address,uint256)":"095ea7b3","assetPrices(uint256)":"4191c45b","assets(uint256)":"cf35bdd0","authorizedOracles(address)":"61c992a3","authorizedVerifiers(address)":"9a891716","balanceOf(address)":"70a08231","calculateHealthFactor(uint256)":"23a4deb5","calculateTotalOwed(uint256)":"29194ee3","createLoanRequest(uint256,uint256,uint256,uint256,string)":"a4e33a46","emergencyPause(uint256)":"ad3fbe30","fundLoan(uint256)":"846b909a","getApproved(uint256)":"081812fc","getAsset(uint256)":"eac8f5b8","getLoan(uint256)":"504006ca","getLoanRequest(uint256)":"1b3b8671","getProtocolStats()":"771aceef","getUserAssets(address)":"765ff061","getUserLoans(address)":"02bf321f","isApprovedForAll(address,address)":"e985e9c5","isLiquidatable(uint256)":"211a4443","liquidateLoan(uint256)":"ccdd9f5d","loanRequests(uint256)":"d1b332f4","loans(uint256)":"e1ec3c68","name()":"06fdde03","nextLoanId()":"87c51459","nextRequestId()":"6a84a985","nextTokenId()":"75794a3c","owner()":"8da5cb5b","ownerOf(uint256)":"6352211e","protocolFeeCollected()":"c2f1419e","removeOracle(address)":"fdc85fc4","removeVerifier(address)":"ca2dfd0a","renounceOwnership()":"715018a6","repayLoan(uint256)":"ab7b1c89","safeTransferFrom(address,address,uint256)":"42842e0e","safeTransferFrom(address,address,uint256,bytes)":"b88d4fde","setApprovalForAll(address,bool)":"a22cb465","supportsInterface(bytes4)":"01ffc9a7","symbol()":"95d89b41","tokenURI(uint256)":"c87b56dd","tokenizeAsset(uint8,uint256,string,string,string)":"8f6217e9","totalLoansOriginated()":"953d5197","totalValueLocked()":"ec18154e","transferFrom(address,address,uint256)":"23b872dd","transferOwnership(address)":"f2fde38b","updateAssetPrice(uint256,uint256)":"c4479ec6","userAssets(address,uint256)":"6a8a69aa","userLoans(address,uint256)":"d8bad5bd","userRequests(address,uint256)":"263cb6b6","verifyAsset(uint256,bool,string)":"75de1f54","withdrawProtocolFees()":"8795cccb"}}}}}