{
  "_format": "hh-sol-artifact-1",
  "contractName": "LendBitZeroFixed",
  "sourceName": "contracts/LendBitZeroFixed.sol",
  "abi": [
    {
      "inputs": [],
      "stateMutability": "nonpayable",
      "type": "constructor"
    },
    {
      "inputs": [
        {
          "internalType": "address",
          "name": "sender",
          "type": "address"
        },
        {
          "internalType": "uint256",
          "name": "tokenId",
          "type": "uint256"
        },
        {
          "internalType": "address",
          "name": "owner",
          "type": "address"
        }
      ],
      "name": "ERC721IncorrectOwner",
      "type": "error"
    },
    {
      "inputs": [
        {
          "internalType": "address",
          "name": "operator",
          "type": "address"
        },
        {
          "internalType": "uint256",
          "name": "tokenId",
          "type": "uint256"
        }
      ],
      "name": "ERC721InsufficientApproval",
      "type": "error"
    },
    {
      "inputs": [
        {
          "internalType": "address",
          "name": "approver",
          "type": "address"
        }
      ],
      "name": "ERC721InvalidApprover",
      "type": "error"
    },
    {
      "inputs": [
        {
          "internalType": "address",
          "name": "operator",
          "type": "address"
        }
      ],
      "name": "ERC721InvalidOperator",
      "type": "error"
    },
    {
      "inputs": [
        {
          "internalType": "address",
          "name": "owner",
          "type": "address"
        }
      ],
      "name": "ERC721InvalidOwner",
      "type": "error"
    },
    {
      "inputs": [
        {
          "internalType": "address",
          "name": "receiver",
          "type": "address"
        }
      ],
      "name": "ERC721InvalidReceiver",
      "type": "error"
    },
    {
      "inputs": [
        {
          "internalType": "address",
          "name": "sender",
          "type": "address"
        }
      ],
      "name": "ERC721InvalidSender",
      "type": "error"
    },
    {
      "inputs": [
        {
          "internalType": "uint256",
          "name": "tokenId",
          "type": "uint256"
        }
      ],
      "name": "ERC721NonexistentToken",
      "type": "error"
    },
    {
      "inputs": [
        {
          "internalType": "address",
          "name": "owner",
          "type": "address"
        }
      ],
      "name": "OwnableInvalidOwner",
      "type": "error"
    },
    {
      "inputs": [
        {
          "internalType": "address",
          "name": "account",
          "type": "address"
        }
      ],
      "name": "OwnableUnauthorizedAccount",
      "type": "error"
    },
    {
      "inputs": [],
      "name": "ReentrancyGuardReentrantCall",
      "type": "error"
    },
    {
      "anonymous": false,
      "inputs": [
        {
          "indexed": true,
          "internalType": "address",
          "name": "owner",
          "type": "address"
        },
        {
          "indexed": true,
          "internalType": "address",
          "name": "approved",
          "type": "address"
        },
        {
          "indexed": true,
          "internalType": "uint256",
          "name": "tokenId",
          "type": "uint256"
        }
      ],
      "name": "Approval",
      "type": "event"
    },
    {
      "anonymous": false,
      "inputs": [
        {
          "indexed": true,
          "internalType": "address",
          "name": "owner",
          "type": "address"
        },
        {
          "indexed": true,
          "internalType": "address",
          "name": "operator",
          "type": "address"
        },
        {
          "indexed": false,
          "internalType": "bool",
          "name": "approved",
          "type": "bool"
        }
      ],
      "name": "ApprovalForAll",
      "type": "event"
    },
    {
      "anonymous": false,
      "inputs": [
        {
          "indexed": true,
          "internalType": "uint256",
          "name": "tokenId",
          "type": "uint256"
        },
        {
          "indexed": true,
          "internalType": "address",
          "name": "verifier",
          "type": "address"
        }
      ],
      "name": "AssetApproved",
      "type": "event"
    },
    {
      "anonymous": false,
      "inputs": [
        {
          "indexed": true,
          "internalType": "uint256",
          "name": "tokenId",
          "type": "uint256"
        },
        {
          "indexed": true,
          "internalType": "address",
          "name": "verifier",
          "type": "address"
        },
        {
          "indexed": false,
          "internalType": "string",
          "name": "reason",
          "type": "string"
        }
      ],
      "name": "AssetRejected",
      "type": "event"
    },
    {
      "anonymous": false,
      "inputs": [
        {
          "indexed": true,
          "internalType": "uint256",
          "name": "tokenId",
          "type": "uint256"
        },
        {
          "indexed": true,
          "internalType": "address",
          "name": "owner",
          "type": "address"
        },
        {
          "indexed": false,
          "internalType": "enum LendBitZeroFixed.AssetType",
          "name": "assetType",
          "type": "uint8"
        },
        {
          "indexed": false,
          "internalType": "uint256",
          "name": "value",
          "type": "uint256"
        },
        {
          "indexed": false,
          "internalType": "string",
          "name": "location",
          "type": "string"
        }
      ],
      "name": "AssetTokenized",
      "type": "event"
    },
    {
      "anonymous": false,
      "inputs": [
        {
          "indexed": true,
          "internalType": "uint256",
          "name": "loanId",
          "type": "uint256"
        },
        {
          "indexed": true,
          "internalType": "uint256",
          "name": "requestId",
          "type": "uint256"
        },
        {
          "indexed": true,
          "internalType": "address",
          "name": "lender",
          "type": "address"
        },
        {
          "indexed": false,
          "internalType": "uint256",
          "name": "amount",
          "type": "uint256"
        }
      ],
      "name": "LoanFunded",
      "type": "event"
    },
    {
      "anonymous": false,
      "inputs": [
        {
          "indexed": true,
          "internalType": "uint256",
          "name": "loanId",
          "type": "uint256"
        },
        {
          "indexed": true,
          "internalType": "address",
          "name": "liquidator",
          "type": "address"
        },
        {
          "indexed": false,
          "internalType": "uint256",
          "name": "collateralValue",
          "type": "uint256"
        }
      ],
      "name": "LoanLiquidated",
      "type": "event"
    },
    {
      "anonymous": false,
      "inputs": [
        {
          "indexed": true,
          "internalType": "uint256",
          "name": "loanId",
          "type": "uint256"
        },
        {
          "indexed": true,
          "internalType": "address",
          "name": "borrower",
          "type": "address"
        },
        {
          "indexed": false,
          "internalType": "uint256",
          "name": "amount",
          "type": "uint256"
        },
        {
          "indexed": false,
          "internalType": "uint256",
          "name": "remaining",
          "type": "uint256"
        }
      ],
      "name": "LoanRepayment",
      "type": "event"
    },
    {
      "anonymous": false,
      "inputs": [
        {
          "indexed": true,
          "internalType": "uint256",
          "name": "requestId",
          "type": "uint256"
        },
        {
          "indexed": true,
          "internalType": "address",
          "name": "borrower",
          "type": "address"
        },
        {
          "indexed": true,
          "internalType": "uint256",
          "name": "collateralTokenId",
          "type": "uint256"
        },
        {
          "indexed": false,
          "internalType": "uint256",
          "name": "amount",
          "type": "uint256"
        },
        {
          "indexed": false,
          "internalType": "uint256",
          "name": "interestRate",
          "type": "uint256"
        }
      ],
      "name": "LoanRequested",
      "type": "event"
    },
    {
      "anonymous": false,
      "inputs": [
        {
          "indexed": true,
          "internalType": "address",
          "name": "previousOwner",
          "type": "address"
        },
        {
          "indexed": true,
          "internalType": "address",
          "name": "newOwner",
          "type": "address"
        }
      ],
      "name": "OwnershipTransferred",
      "type": "event"
    },
    {
      "anonymous": false,
      "inputs": [
        {
          "indexed": true,
          "internalType": "uint256",
          "name": "tokenId",
          "type": "uint256"
        },
        {
          "indexed": false,
          "internalType": "uint256",
          "name": "oldPrice",
          "type": "uint256"
        },
        {
          "indexed": false,
          "internalType": "uint256",
          "name": "newPrice",
          "type": "uint256"
        }
      ],
      "name": "PriceUpdated",
      "type": "event"
    },
    {
      "anonymous": false,
      "inputs": [
        {
          "indexed": true,
          "internalType": "address",
          "name": "from",
          "type": "address"
        },
        {
          "indexed": true,
          "internalType": "address",
          "name": "to",
          "type": "address"
        },
        {
          "indexed": true,
          "internalType": "uint256",
          "name": "tokenId",
          "type": "uint256"
        }
      ],
      "name": "Transfer",
      "type": "event"
    },
    {
      "inputs": [],
      "name": "LIQUIDATION_THRESHOLD",
      "outputs": [
        {
          "internalType": "uint256",
          "name": "",
          "type": "uint256"
        }
      ],
      "stateMutability": "view",
      "type": "function"
    },
    {
      "inputs": [],
      "name": "LTV_RATIO",
      "outputs": [
        {
          "internalType": "uint256",
          "name": "",
          "type": "uint256"
        }
      ],
      "stateMutability": "view",
      "type": "function"
    },
    {
      "inputs": [],
      "name": "PROTOCOL_FEE",
      "outputs": [
        {
          "internalType": "uint256",
          "name": "",
          "type": "uint256"
        }
      ],
      "stateMutability": "view",
      "type": "function"
    },
    {
      "inputs": [
        {
          "internalType": "address",
          "name": "_oracle",
          "type": "address"
        }
      ],
      "name": "addOracle",
      "outputs": [],
      "stateMutability": "nonpayable",
      "type": "function"
    },
    {
      "inputs": [
        {
          "internalType": "address",
          "name": "_verifier",
          "type": "address"
        }
      ],
      "name": "addVerifier",
      "outputs": [],
      "stateMutability": "nonpayable",
      "type": "function"
    },
    {
      "inputs": [
        {
          "internalType": "address",
          "name": "to",
          "type": "address"
        },
        {
          "internalType": "uint256",
          "name": "tokenId",
          "type": "uint256"
        }
      ],
      "name": "approve",
      "outputs": [],
      "stateMutability": "nonpayable",
      "type": "function"
    },
    {
      "inputs": [
        {
          "internalType": "uint256",
          "name": "",
          "type": "uint256"
        }
      ],
      "name": "assetPrices",
      "outputs": [
        {
          "internalType": "uint256",
          "name": "",
          "type": "uint256"
        }
      ],
      "stateMutability": "view",
      "type": "function"
    },
    {
      "inputs": [
        {
          "internalType": "uint256",
          "name": "",
          "type": "uint256"
        }
      ],
      "name": "assets",
      "outputs": [
        {
          "internalType": "uint256",
          "name": "tokenId",
          "type": "uint256"
        },
        {
          "internalType": "enum LendBitZeroFixed.AssetType",
          "name": "assetType",
          "type": "uint8"
        },
        {
          "internalType": "address",
          "name": "owner",
          "type": "address"
        },
        {
          "internalType": "uint256",
          "name": "currentValue",
          "type": "uint256"
        },
        {
          "internalType": "string",
          "name": "metadataURI",
          "type": "string"
        },
        {
          "internalType": "string",
          "name": "description",
          "type": "string"
        },
        {
          "internalType": "string",
          "name": "location",
          "type": "string"
        },
        {
          "internalType": "bool",
          "name": "isVerified",
          "type": "bool"
        },
        {
          "internalType": "bool",
          "name": "isLocked",
          "type": "bool"
        },
        {
          "internalType": "enum LendBitZeroFixed.ListingStatus",
          "name": "approvalStatus",
          "type": "uint8"
        },
        {
          "internalType": "uint256",
          "name": "createdAt",
          "type": "uint256"
        }
      ],
      "stateMutability": "view",
      "type": "function"
    },
    {
      "inputs": [
        {
          "internalType": "address",
          "name": "",
          "type": "address"
        }
      ],
      "name": "authorizedOracles",
      "outputs": [
        {
          "internalType": "bool",
          "name": "",
          "type": "bool"
        }
      ],
      "stateMutability": "view",
      "type": "function"
    },
    {
      "inputs": [
        {
          "internalType": "address",
          "name": "",
          "type": "address"
        }
      ],
      "name": "authorizedVerifiers",
      "outputs": [
        {
          "internalType": "bool",
          "name": "",
          "type": "bool"
        }
      ],
      "stateMutability": "view",
      "type": "function"
    },
    {
      "inputs": [
        {
          "internalType": "address",
          "name": "owner",
          "type": "address"
        }
      ],
      "name": "balanceOf",
      "outputs": [
        {
          "internalType": "uint256",
          "name": "",
          "type": "uint256"
        }
      ],
      "stateMutability": "view",
      "type": "function"
    },
    {
      "inputs": [
        {
          "internalType": "uint256",
          "name": "_loanId",
          "type": "uint256"
        }
      ],
      "name": "calculateHealthFactor",
      "outputs": [
        {
          "internalType": "uint256",
          "name": "",
          "type": "uint256"
        }
      ],
      "stateMutability": "view",
      "type": "function"
    },
    {
      "inputs": [
        {
          "internalType": "uint256",
          "name": "_loanId",
          "type": "uint256"
        }
      ],
      "name": "calculateTotalOwed",
      "outputs": [
        {
          "internalType": "uint256",
          "name": "",
          "type": "uint256"
        }
      ],
      "stateMutability": "view",
      "type": "function"
    },
    {
      "inputs": [
        {
          "internalType": "uint256",
          "name": "_collateralTokenId",
          "type": "uint256"
        },
        {
          "internalType": "uint256",
          "name": "_requestedAmount",
          "type": "uint256"
        },
        {
          "internalType": "uint256",
          "name": "_interestRate",
          "type": "uint256"
        },
        {
          "internalType": "uint256",
          "name": "_durationDays",
          "type": "uint256"
        },
        {
          "internalType": "string",
          "name": "_purpose",
          "type": "string"
        }
      ],
      "name": "createLoanRequest",
      "outputs": [
        {
          "internalType": "uint256",
          "name": "",
          "type": "uint256"
        }
      ],
      "stateMutability": "nonpayable",
      "type": "function"
    },
    {
      "inputs": [
        {
          "internalType": "uint256",
          "name": "_loanId",
          "type": "uint256"
        }
      ],
      "name": "emergencyPause",
      "outputs": [],
      "stateMutability": "nonpayable",
      "type": "function"
    },
    {
      "inputs": [
        {
          "internalType": "uint256",
          "name": "_requestId",
          "type": "uint256"
        }
      ],
      "name": "fundLoan",
      "outputs": [],
      "stateMutability": "payable",
      "type": "function"
    },
    {
      "inputs": [
        {
          "internalType": "uint256",
          "name": "tokenId",
          "type": "uint256"
        }
      ],
      "name": "getApproved",
      "outputs": [
        {
          "internalType": "address",
          "name": "",
          "type": "address"
        }
      ],
      "stateMutability": "view",
      "type": "function"
    },
    {
      "inputs": [
        {
          "internalType": "uint256",
          "name": "_tokenId",
          "type": "uint256"
        }
      ],
      "name": "getAsset",
      "outputs": [
        {
          "components": [
            {
              "internalType": "uint256",
              "name": "tokenId",
              "type": "uint256"
            },
            {
              "internalType": "enum LendBitZeroFixed.AssetType",
              "name": "assetType",
              "type": "uint8"
            },
            {
              "internalType": "address",
              "name": "owner",
              "type": "address"
            },
            {
              "internalType": "uint256",
              "name": "currentValue",
              "type": "uint256"
            },
            {
              "internalType": "string",
              "name": "metadataURI",
              "type": "string"
            },
            {
              "internalType": "string",
              "name": "description",
              "type": "string"
            },
            {
              "internalType": "string",
              "name": "location",
              "type": "string"
            },
            {
              "internalType": "bool",
              "name": "isVerified",
              "type": "bool"
            },
            {
              "internalType": "bool",
              "name": "isLocked",
              "type": "bool"
            },
            {
              "internalType": "enum LendBitZeroFixed.ListingStatus",
              "name": "approvalStatus",
              "type": "uint8"
            },
            {
              "internalType": "uint256",
              "name": "createdAt",
              "type": "uint256"
            }
          ],
          "internalType": "struct LendBitZeroFixed.RWAAsset",
          "name": "",
          "type": "tuple"
        }
      ],
      "stateMutability": "view",
      "type": "function"
    },
    {
      "inputs": [
        {
          "internalType": "uint256",
          "name": "_loanId",
          "type": "uint256"
        }
      ],
      "name": "getLoan",
      "outputs": [
        {
          "components": [
            {
              "internalType": "uint256",
              "name": "loanId",
              "type": "uint256"
            },
            {
              "internalType": "address",
              "name": "borrower",
              "type": "address"
            },
            {
              "internalType": "address",
              "name": "lender",
              "type": "address"
            },
            {
              "internalType": "uint256",
              "name": "collateralTokenId",
              "type": "uint256"
            },
            {
              "internalType": "uint256",
              "name": "requestedAmount",
              "type": "uint256"
            },
            {
              "internalType": "uint256",
              "name": "fundedAmount",
              "type": "uint256"
            },
            {
              "internalType": "uint256",
              "name": "interestRate",
              "type": "uint256"
            },
            {
              "internalType": "uint256",
              "name": "durationDays",
              "type": "uint256"
            },
            {
              "internalType": "uint256",
              "name": "createdAt",
              "type": "uint256"
            },
            {
              "internalType": "uint256",
              "name": "fundedAt",
              "type": "uint256"
            },
            {
              "internalType": "uint256",
              "name": "dueDate",
              "type": "uint256"
            },
            {
              "internalType": "enum LendBitZeroFixed.LoanStatus",
              "name": "status",
              "type": "uint8"
            },
            {
              "internalType": "uint256",
              "name": "totalRepaid",
              "type": "uint256"
            },
            {
              "internalType": "uint256",
              "name": "lastPaymentDate",
              "type": "uint256"
            }
          ],
          "internalType": "struct LendBitZeroFixed.Loan",
          "name": "",
          "type": "tuple"
        }
      ],
      "stateMutability": "view",
      "type": "function"
    },
    {
      "inputs": [
        {
          "internalType": "uint256",
          "name": "_requestId",
          "type": "uint256"
        }
      ],
      "name": "getLoanRequest",
      "outputs": [
        {
          "components": [
            {
              "internalType": "uint256",
              "name": "requestId",
              "type": "uint256"
            },
            {
              "internalType": "address",
              "name": "borrower",
              "type": "address"
            },
            {
              "internalType": "uint256",
              "name": "collateralTokenId",
              "type": "uint256"
            },
            {
              "internalType": "uint256",
              "name": "requestedAmount",
              "type": "uint256"
            },
            {
              "internalType": "uint256",
              "name": "interestRate",
              "type": "uint256"
            },
            {
              "internalType": "uint256",
              "name": "durationDays",
              "type": "uint256"
            },
            {
              "internalType": "string",
              "name": "purpose",
              "type": "string"
            },
            {
              "internalType": "enum LendBitZeroFixed.LoanStatus",
              "name": "status",
              "type": "uint8"
            },
            {
              "internalType": "uint256",
              "name": "createdAt",
              "type": "uint256"
            }
          ],
          "internalType": "struct LendBitZeroFixed.LoanRequest",
          "name": "",
          "type": "tuple"
        }
      ],
      "stateMutability": "view",
      "type": "function"
    },
    {
      "inputs": [],
      "name": "getProtocolStats",
      "outputs": [
        {
          "internalType": "uint256",
          "name": "_totalValueLocked",
          "type": "uint256"
        },
        {
          "internalType": "uint256",
          "name": "_totalLoansOriginated",
          "type": "uint256"
        },
        {
          "internalType": "uint256",
          "name": "_protocolFeeCollected",
          "type": "uint256"
        },
        {
          "internalType": "uint256",
          "name": "_totalAssets",
          "type": "uint256"
        },
        {
          "internalType": "uint256",
          "name": "_totalLoans",
          "type": "uint256"
        }
      ],
      "stateMutability": "view",
      "type": "function"
    },
    {
      "inputs": [
        {
          "internalType": "address",
          "name": "_user",
          "type": "address"
        }
      ],
      "name": "getUserAssets",
      "outputs": [
        {
          "internalType": "uint256[]",
          "name": "",
          "type": "uint256[]"
        }
      ],
      "stateMutability": "view",
      "type": "function"
    },
    {
      "inputs": [
        {
          "internalType": "address",
          "name": "_user",
          "type": "address"
        }
      ],
      "name": "getUserLoans",
      "outputs": [
        {
          "internalType": "uint256[]",
          "name": "",
          "type": "uint256[]"
        }
      ],
      "stateMutability": "view",
      "type": "function"
    },
    {
      "inputs": [
        {
          "internalType": "address",
          "name": "owner",
          "type": "address"
        },
        {
          "internalType": "address",
          "name": "operator",
          "type": "address"
        }
      ],
      "name": "isApprovedForAll",
      "outputs": [
        {
          "internalType": "bool",
          "name": "",
          "type": "bool"
        }
      ],
      "stateMutability": "view",
      "type": "function"
    },
    {
      "inputs": [
        {
          "internalType": "uint256",
          "name": "_loanId",
          "type": "uint256"
        }
      ],
      "name": "isLiquidatable",
      "outputs": [
        {
          "internalType": "bool",
          "name": "",
          "type": "bool"
        }
      ],
      "stateMutability": "view",
      "type": "function"
    },
    {
      "inputs": [
        {
          "internalType": "uint256",
          "name": "_loanId",
          "type": "uint256"
        }
      ],
      "name": "liquidateLoan",
      "outputs": [],
      "stateMutability": "nonpayable",
      "type": "function"
    },
    {
      "inputs": [
        {
          "internalType": "uint256",
          "name": "",
          "type": "uint256"
        }
      ],
      "name": "loanRequests",
      "outputs": [
        {
          "internalType": "uint256",
          "name": "requestId",
          "type": "uint256"
        },
        {
          "internalType": "address",
          "name": "borrower",
          "type": "address"
        },
        {
          "internalType": "uint256",
          "name": "collateralTokenId",
          "type": "uint256"
        },
        {
          "internalType": "uint256",
          "name": "requestedAmount",
          "type": "uint256"
        },
        {
          "internalType": "uint256",
          "name": "interestRate",
          "type": "uint256"
        },
        {
          "internalType": "uint256",
          "name": "durationDays",
          "type": "uint256"
        },
        {
          "internalType": "string",
          "name": "purpose",
          "type": "string"
        },
        {
          "internalType": "enum LendBitZeroFixed.LoanStatus",
          "name": "status",
          "type": "uint8"
        },
        {
          "internalType": "uint256",
          "name": "createdAt",
          "type": "uint256"
        }
      ],
      "stateMutability": "view",
      "type": "function"
    },
    {
      "inputs": [
        {
          "internalType": "uint256",
          "name": "",
          "type": "uint256"
        }
      ],
      "name": "loans",
      "outputs": [
        {
          "internalType": "uint256",
          "name": "loanId",
          "type": "uint256"
        },
        {
          "internalType": "address",
          "name": "borrower",
          "type": "address"
        },
        {
          "internalType": "address",
          "name": "lender",
          "type": "address"
        },
        {
          "internalType": "uint256",
          "name": "collateralTokenId",
          "type": "uint256"
        },
        {
          "internalType": "uint256",
          "name": "requestedAmount",
          "type": "uint256"
        },
        {
          "internalType": "uint256",
          "name": "fundedAmount",
          "type": "uint256"
        },
        {
          "internalType": "uint256",
          "name": "interestRate",
          "type": "uint256"
        },
        {
          "internalType": "uint256",
          "name": "durationDays",
          "type": "uint256"
        },
        {
          "internalType": "uint256",
          "name": "createdAt",
          "type": "uint256"
        },
        {
          "internalType": "uint256",
          "name": "fundedAt",
          "type": "uint256"
        },
        {
          "internalType": "uint256",
          "name": "dueDate",
          "type": "uint256"
        },
        {
          "internalType": "enum LendBitZeroFixed.LoanStatus",
          "name": "status",
          "type": "uint8"
        },
        {
          "internalType": "uint256",
          "name": "totalRepaid",
          "type": "uint256"
        },
        {
          "internalType": "uint256",
          "name": "lastPaymentDate",
          "type": "uint256"
        }
      ],
      "stateMutability": "view",
      "type": "function"
    },
    {
      "inputs": [],
      "name": "name",
      "outputs": [
        {
          "internalType": "string",
          "name": "",
          "type": "string"
        }
      ],
      "stateMutability": "view",
      "type": "function"
    },
    {
      "inputs": [],
      "name": "nextLoanId",
      "outputs": [
        {
          "internalType": "uint256",
          "name": "",
          "type": "uint256"
        }
      ],
      "stateMutability": "view",
      "type": "function"
    },
    {
      "inputs": [],
      "name": "nextRequestId",
      "outputs": [
        {
          "internalType": "uint256",
          "name": "",
          "type": "uint256"
        }
      ],
      "stateMutability": "view",
      "type": "function"
    },
    {
      "inputs": [],
      "name": "nextTokenId",
      "outputs": [
        {
          "internalType": "uint256",
          "name": "",
          "type": "uint256"
        }
      ],
      "stateMutability": "view",
      "type": "function"
    },
    {
      "inputs": [],
      "name": "owner",
      "outputs": [
        {
          "internalType": "address",
          "name": "",
          "type": "address"
        }
      ],
      "stateMutability": "view",
      "type": "function"
    },
    {
      "inputs": [
        {
          "internalType": "uint256",
          "name": "tokenId",
          "type": "uint256"
        }
      ],
      "name": "ownerOf",
      "outputs": [
        {
          "internalType": "address",
          "name": "",
          "type": "address"
        }
      ],
      "stateMutability": "view",
      "type": "function"
    },
    {
      "inputs": [],
      "name": "protocolFeeCollected",
      "outputs": [
        {
          "internalType": "uint256",
          "name": "",
          "type": "uint256"
        }
      ],
      "stateMutability": "view",
      "type": "function"
    },
    {
      "inputs": [
        {
          "internalType": "address",
          "name": "_oracle",
          "type": "address"
        }
      ],
      "name": "removeOracle",
      "outputs": [],
      "stateMutability": "nonpayable",
      "type": "function"
    },
    {
      "inputs": [
        {
          "internalType": "address",
          "name": "_verifier",
          "type": "address"
        }
      ],
      "name": "removeVerifier",
      "outputs": [],
      "stateMutability": "nonpayable",
      "type": "function"
    },
    {
      "inputs": [],
      "name": "renounceOwnership",
      "outputs": [],
      "stateMutability": "nonpayable",
      "type": "function"
    },
    {
      "inputs": [
        {
          "internalType": "uint256",
          "name": "_loanId",
          "type": "uint256"
        }
      ],
      "name": "repayLoan",
      "outputs": [],
      "stateMutability": "payable",
      "type": "function"
    },
    {
      "inputs": [
        {
          "internalType": "address",
          "name": "from",
          "type": "address"
        },
        {
          "internalType": "address",
          "name": "to",
          "type": "address"
        },
        {
          "internalType": "uint256",
          "name": "tokenId",
          "type": "uint256"
        }
      ],
      "name": "safeTransferFrom",
      "outputs": [],
      "stateMutability": "nonpayable",
      "type": "function"
    },
    {
      "inputs": [
        {
          "internalType": "address",
          "name": "from",
          "type": "address"
        },
        {
          "internalType": "address",
          "name": "to",
          "type": "address"
        },
        {
          "internalType": "uint256",
          "name": "tokenId",
          "type": "uint256"
        },
        {
          "internalType": "bytes",
          "name": "data",
          "type": "bytes"
        }
      ],
      "name": "safeTransferFrom",
      "outputs": [],
      "stateMutability": "nonpayable",
      "type": "function"
    },
    {
      "inputs": [
        {
          "internalType": "address",
          "name": "operator",
          "type": "address"
        },
        {
          "internalType": "bool",
          "name": "approved",
          "type": "bool"
        }
      ],
      "name": "setApprovalForAll",
      "outputs": [],
      "stateMutability": "nonpayable",
      "type": "function"
    },
    {
      "inputs": [
        {
          "internalType": "bytes4",
          "name": "interfaceId",
          "type": "bytes4"
        }
      ],
      "name": "supportsInterface",
      "outputs": [
        {
          "internalType": "bool",
          "name": "",
          "type": "bool"
        }
      ],
      "stateMutability": "view",
      "type": "function"
    },
    {
      "inputs": [],
      "name": "symbol",
      "outputs": [
        {
          "internalType": "string",
          "name": "",
          "type": "string"
        }
      ],
      "stateMutability": "view",
      "type": "function"
    },
    {
      "inputs": [
        {
          "internalType": "uint256",
          "name": "tokenId",
          "type": "uint256"
        }
      ],
      "name": "tokenURI",
      "outputs": [
        {
          "internalType": "string",
          "name": "",
          "type": "string"
        }
      ],
      "stateMutability": "view",
      "type": "function"
    },
    {
      "inputs": [
        {
          "internalType": "enum LendBitZeroFixed.AssetType",
          "name": "_assetType",
          "type": "uint8"
        },
        {
          "internalType": "uint256",
          "name": "_estimatedValue",
          "type": "uint256"
        },
        {
          "internalType": "string",
          "name": "_description",
          "type": "string"
        },
        {
          "internalType": "string",
          "name": "_location",
          "type": "string"
        },
        {
          "internalType": "string",
          "name": "_metadataURI",
          "type": "string"
        }
      ],
      "name": "tokenizeAsset",
      "outputs": [
        {
          "internalType": "uint256",
          "name": "",
          "type": "uint256"
        }
      ],
      "stateMutability": "nonpayable",
      "type": "function"
    },
    {
      "inputs": [],
      "name": "totalLoansOriginated",
      "outputs": [
        {
          "internalType": "uint256",
          "name": "",
          "type": "uint256"
        }
      ],
      "stateMutability": "view",
      "type": "function"
    },
    {
      "inputs": [],
      "name": "totalValueLocked",
      "outputs": [
        {
          "internalType": "uint256",
          "name": "",
          "type": "uint256"
        }
      ],
      "stateMutability": "view",
      "type": "function"
    },
    {
      "inputs": [
        {
          "internalType": "address",
          "name": "from",
          "type": "address"
        },
        {
          "internalType": "address",
          "name": "to",
          "type": "address"
        },
        {
          "internalType": "uint256",
          "name": "tokenId",
          "type": "uint256"
        }
      ],
      "name": "transferFrom",
      "outputs": [],
      "stateMutability": "nonpayable",
      "type": "function"
    },
    {
      "inputs": [
        {
          "internalType": "address",
          "name": "newOwner",
          "type": "address"
        }
      ],
      "name": "transferOwnership",
      "outputs": [],
      "stateMutability": "nonpayable",
      "type": "function"
    },
    {
      "inputs": [
        {
          "internalType": "uint256",
          "name": "_tokenId",
          "type": "uint256"
        },
        {
          "internalType": "uint256",
          "name": "_newPrice",
          "type": "uint256"
        }
      ],
      "name": "updateAssetPrice",
      "outputs": [],
      "stateMutability": "nonpayable",
      "type": "function"
    },
    {
      "inputs": [
        {
          "internalType": "address",
          "name": "",
          "type": "address"
        },
        {
          "internalType": "uint256",
          "name": "",
          "type": "uint256"
        }
      ],
      "name": "userAssets",
      "outputs": [
        {
          "internalType": "uint256",
          "name": "",
          "type": "uint256"
        }
      ],
      "stateMutability": "view",
      "type": "function"
    },
    {
      "inputs": [
        {
          "internalType": "address",
          "name": "",
          "type": "address"
        },
        {
          "internalType": "uint256",
          "name": "",
          "type": "uint256"
        }
      ],
      "name": "userLoans",
      "outputs": [
        {
          "internalType": "uint256",
          "name": "",
          "type": "uint256"
        }
      ],
      "stateMutability": "view",
      "type": "function"
    },
    {
      "inputs": [
        {
          "internalType": "address",
          "name": "",
          "type": "address"
        },
        {
          "internalType": "uint256",
          "name": "",
          "type": "uint256"
        }
      ],
      "name": "userRequests",
      "outputs": [
        {
          "internalType": "uint256",
          "name": "",
          "type": "uint256"
        }
      ],
      "stateMutability": "view",
      "type": "function"
    },
    {
      "inputs": [
        {
          "internalType": "uint256",
          "name": "_tokenId",
          "type": "uint256"
        },
        {
          "internalType": "bool",
          "name": "_approved",
          "type": "bool"
        },
        {
          "internalType": "string",
          "name": "_reason",
          "type": "string"
        }
      ],
      "name": "verifyAsset",
      "outputs": [],
      "stateMutability": "nonpayable",
      "type": "function"
    },
    {
      "inputs": [],
      "name": "withdrawProtocolFees",
      "outputs": [],
      "stateMutability": "nonpayable",
      "type": "function"
    },
    {
      "stateMutability": "payable",
      "type": "receive"
    }
  ],
  "bytecode": "0x608034620003b9576001600160401b039060409080820183811182821017620003a357825260128152602091714c656e64426974205257412041737365747360701b8383015280519381850185811082821117620003a357825260058552644c4252574160d81b848601528251818111620003a3576000958654916001958684811c9416801562000398575b8885101462000384578190601f9485811162000331575b508890858311600114620002cd578a92620002c1575b5050600019600383901b1c191690861b1787555b8051928311620002ad5784548581811c91168015620002a2575b878210146200028e579081838594931162000239575b5086918311600114620001d5578792620001c9575b5050600019600383901b1c191690831b1782555b3315620001b25760068054336001600160a01b03198216811790925582519591906001600160a01b03167f8be0079c531659141344cd1fd0a4f28419497f9722a3daafe3b4186f6b6457e08380a382600755826008558260095582600a55338152600f845260108282209460ff1995858782541617905552209182541617905561381e9081620003bf8239f35b51631e4fbdf760e01b815260048101849052602490fd5b01519050388062000111565b8588528688208694509190601f198416895b8982821062000222575050841162000208575b505050811b01825562000125565b015160001960f88460031b161c19169055388080620001fa565b8385015186558997909501949384019301620001e7565b909192508588528688208380860160051c82019289871062000284575b91869589929594930160051c01915b82811062000275575050620000fc565b8a815586955088910162000265565b9250819262000256565b634e487b7160e01b88526022600452602488fd5b90607f1690620000e6565b634e487b7160e01b87526041600452602487fd5b015190503880620000b8565b8a8052898b208994509190601f1984168c5b8c8282106200031a575050841162000300575b505050811b018755620000cc565b015160001960f88460031b161c19169055388080620002f2565b8385015186558c97909501949384019301620002df565b909150898052888a208580850160051c8201928b86106200037a575b918a91869594930160051c01915b8281106200036b575050620000a2565b8c81558594508a91016200035b565b925081926200034d565b634e487b7160e01b89526022600452602489fd5b93607f16936200008b565b634e487b7160e01b600052604160045260246000fd5b600080fdfe608080604052600436101561001d575b50361561001b57600080fd5b005b60003560e01c90816301ffc9a714612dac5750806302bf321f14612d3457806306fdde0314612c91578063081812fc14612c53578063095ea7b314612b6c5780630b4501fd14612b505780631b3b8671146129f7578063211a4443146129cf57806323a4deb5146129b157806323b872dd1461299a578063263cb6b61461295057806329194ee31461292a5780634191c45b146128fe57806342842e0e146128c5578063504006ca146126e05780635696b189146126c457806361c992a3146126855780636352211e146126555780636a84a985146126375780636a8a69aa146125ed57806370a0823114612594578063715018a61461253757806375794a3c1461251957806375de1f541461234e578063765ff061146122ca578063771aceef14612272578063846b909a14611e795780638795cccb14611e0057806387c5145914611de25780638da5cb5b14611db95780638f6217e91461170f5780639000b3d6146116ca57806390a8ae9b146116ae578063953d51971461169057806395d89b41146115c55780639a89171614611586578063a22cb465146114db578063a4e33a4614611024578063ab7b1c8914610dc6578063ad3fbe3014610d8c578063b88d4fde14610d2d578063c2f1419e14610d0f578063c4479ec614610c0b578063c87b56dd14610b65578063ca2dfd0a14610b23578063ccdd9f5d14610900578063cf35bdd014610804578063d1b332f414610756578063d8bad5bd146106fe578063df5dd1a5146106b9578063e1ec3c68146105e2578063e985e9c51461058c578063eac8f5b814610380578063ec18154e14610362578063f2fde38b146102d95763fdc85fc414610292573861000f565b346102d45760203660031901126102d4576102ab612e17565b6102b361311c565b6001600160a01b03166000908152601060205260409020805460ff19169055005b600080fd5b346102d45760203660031901126102d4576102f2612e17565b6102fa61311c565b6001600160a01b0390811690811561034957600654826001600160601b0360a01b821617600655167f8be0079c531659141344cd1fd0a4f28419497f9722a3daafe3b4186f6b6457e0600080a3005b604051631e4fbdf760e01b815260006004820152602490fd5b346102d45760003660031901126102d4576020601454604051908152f35b346102d45760203660031901126102d45760006101406040516103a281612f75565b82815282602082015282604082015282606082015260606080820152606060a0820152606060c08201528260e082015282610100820152826101208201520152600435600052600b6020526040600020604051906103ff82612f75565b80548252600181015461041860ff821660208501613533565b60081c6001600160a01b031660408301526002810154606083015261043f6003820161305c565b60808301526104506004820161305c565b60a08301526104616005820161305c565b60c083015260068101549060ff8216151560e084015260ff8260081c161515610100840152600360ff8360101c1610156105765760ff60079260101c166101208401520154610140820152604051809160208252805160208301526104ce60208201516040840190613102565b60018060a01b03604082015116606083015260608101516080830152608081015161014061053e61050d610160938460a0880152610180870190612e7e565b61052960a086015191601f1992838983030160c08a0152612e7e565b9060c0860151908783030160e0880152612e7e565b9260e08101511515610100860152610100810151151561012086015261056c6101208201518387019061310f565b0151908301520390f35b634e487b7160e01b600052602160045260246000fd5b346102d45760403660031901126102d4576105a5612e17565b6105ad612e2d565b9060018060a01b03809116600052600560205260406000209116600052602052602060ff604060002054166040519015158152f35b346102d45760203660031901126102d457600435600052600c6020526040600020805490600160a01b600190039081600182015416916002820154166003820154600483015460058401546006850154600786015490600887015492600988015494600a89015496600b8a015460ff1698600c8b01549a600d01549b604051809e81526020015260408d015260608c015260808b015260a08a015260c089015260e088015261010087015261012086015261014085015261016084016106a791612ebe565b6101808301526101a08201526101c090f35b346102d45760203660031901126102d4576106d2612e17565b6106da61311c565b6001600160a01b03166000908152601060205260409020805460ff19166001179055005b346102d45760403660031901126102d457610717612e17565b6001600160a01b03166000908152601260205260409020805460243591908210156102d45760209161074891612f00565b90546040519160031b1c8152f35b346102d45760203660031901126102d457600435600052600d6020526040600020805460018060a01b036001830154169160028101546107fa6107ef600384015460048501546005860154906107ae6006880161305c565b92600860ff60078a015416980154966040519a8b9a8b5260208b015260408a01526060890152608088015260a08701526101208060c0880152860190612e7e565b9260e0850190612ebe565b6101008301520390f35b346102d45760203660031901126102d457600435600052600b6020526040600020805460018201549160028101546108f66108ca6108446003850161305c565b6108bc6108536004870161305c565b6108ae6108626005890161305c565b93600760068a0154990154976040519b8c9b8c5261088660208d0160ff8316613102565b60081c6001600160a01b031660408c015260608b015261016060808b018190528a0190612e7e565b9088820360a08a0152612e7e565b9086820360c0880152612e7e565b9260ff8116151560e086015260ff8160081c16151561010086015260ff61012086019160101c1661310f565b6101408301520390f35b346102d4576020806003193601126102d4576004359061091e61364e565b61092782613799565b15610ae75781600052600c815260406000209160038301549182600052600e8152604060002054936101f4808602908682041486151715610ad15761271090046002820160018060a01b03908181541692833303610a97575b5050806001840154169080831615610a7e5761099c878461342d565b908116806109bd57604051637e27328960e01b815260048101899052602490fd5b90828998939203610a4e5750506000908152600b8085526040909120600181018054610100600160a81b03191660089490941b610100600160a81b0316939093179092557f0256bdf47e9aff5784070d6cab332d79f81fc6b8c8ed875565982a423a389e3a93929091600601805461ff001916905501805460ff191660041790556040519384523393a36001600755005b6040516364283d7b60e01b81526001600160a01b0392831660048201526024810193909352166044820152606490fd5b604051633250574960e11b815260006004820152602490fd5b60008080939495508092818115610ac8575b3390f115610abc57548116908780610980565b6040513d6000823e3d90fd5b506108fc610aa9565b634e487b7160e01b600052601160045260246000fd5b6064906040519062461bcd60e51b8252600482015260156024820152744c6f616e206e6f74206c6971756964617461626c6560581b6044820152fd5b346102d45760203660031901126102d457610b3c612e17565b610b4461311c565b6001600160a01b03166000908152600f60205260409020805460ff19169055005b346102d45760203660031901126102d4576004356000818152600b602052604090206001015460081c6001600160a01b031615610bcf57600052600b602052610bcb610bb7600360406000200161305c565b604051918291602083526020830190612e7e565b0390f35b60405162461bcd60e51b8152602060048201526014602482015273151bdad95b88191bd95cc81b9bdd08195e1a5cdd60621b6044820152606490fd5b346102d45760403660031901126102d457600435602435336000526020906010825260ff6040600020541615610cd2577f15819dd2fd9f6418b142e798d08a18d0bf06ea368f4480b7b0d3f75bd966bc4891604091610c8d610c8886600052600b60205260018060a01b0360016040600020015460081c16151590565b613579565b84600052600b8252610ca860ff6006856000200154166135bc565b84600052600e825282600020918183549355600b81528160028560002001558351928352820152a2005b60405162461bcd60e51b81526004810183905260156024820152744e6f7420617574686f72697a6564206f7261636c6560581b6044820152606490fd5b346102d45760003660031901126102d4576020601654604051908152f35b346102d45760803660031901126102d457610d46612e17565b610d4e612e2d565b606435916001600160401b0383116102d457366023840112156102d457610d8261001b933690602481600401359101612fcd565b91604435916132d8565b346102d45760203660031901126102d457610da561311c565b6004356000908152600c60205260409020600b01805460ff19166005179055005b6020806003193601126102d457600435610dde61364e565b80600052600c825260406000209160018060a01b03806001850154163303610feb57600b84019360ff855416600681101561057657600203610fb4573415610f6f57610e2984613671565b94348611610efe57600086819460028584969584600c87980155600360ff1982541617905542600d82015560038101548552600b89526006604086200161ff00198154169055015416828215610ef5575bf115610abc57823411610ec2575b6000906040519384528301527f423d4247c9657cdb09843c408af41209510b73810b54ad1e03de626ec321239060403393a35b6001600755005b6000808080610ed18734613634565b818115610eec575b3390f1610e88576040513d6000823e3d90fd5b506108fc610ed9565b506108fc610e7a565b506000808083600c8295999697990196610f19348954613641565b885542600d8301556002349201541682f115610abc57610f3a915490613634565b604051923484528301527f423d4247c9657cdb09843c408af41209510b73810b54ad1e03de626ec321239060403393a3610ebb565b60405162461bcd60e51b815260048101849052601760248201527f5061796d656e7420616d6f756e742072657175697265640000000000000000006044820152606490fd5b60405162461bcd60e51b815260048101849052600f60248201526e4c6f616e206e6f742061637469766560881b6044820152606490fd5b60405162461bcd60e51b81526004810183905260116024820152702737ba103637b0b7103137b93937bbb2b960791b6044820152606490fd5b346102d45760a03660031901126102d4576084356001600160401b0381116102d457611054903690600401613004565b6004356000908152600b60205260409020600101546110809060081c6001600160a01b03161515613579565b600435600052600b60205261109f60ff600660406000200154166135bc565b6110aa6004356134e9565b336001600160a01b03909116036114a457600435600052600b60205260ff60066040600020015460081c16611468576024351561142d57600760643510158061141f575b156113e757600435600052600e602052604060002054605081029080820460501490151715610ad15760649004602435116113ae57600a549061113082613524565b600a556040519061114082612f3d565b82825233602083015260043560408301526024356060830152604435608083015260643560a083015260c0820152600060e08201524261010082015281600052600d602052604060002091815183556001830160018060a01b036020840151166001600160601b0360a01b82541617905560408201516002840155606082015160038401556080820151600484015560a0820151600584015560c08201519283516001600160401b038111611398576111fc6006830154613022565b601f8111611351575b50602094601f82116001146112e5579481929394956000926112da575b50508160011b916000199060031b1c19161760068201555b60e08301519260068410156105765761010060089161125e6020966007860161361c565b0151910155600435600052600b8252600660406000200161010061ff0019825416179055336000526013825261129881604060002061353f565b60405160243581526044358382015260043590827ff6cc19e46a340ab5888d736bfc79aef72ae92d12d7b76319d72b0abc170868e660403393a4604051908152f35b015190508580611222565b601f198216956006840160005260206000209160005b88811061133957508360019596979810611320575b505050811b01600682015561123a565b015160001960f88460031b161c19169055858080611310565b919260206001819286850151815501940192016112fb565b600683016000526020600020601f830160051c810160208410611391575b601f830160051c82018110611385575050611205565b6000815560010161136f565b508061136f565b634e487b7160e01b600052604160045260246000fd5b60405162461bcd60e51b815260206004820152601160248201527045786365656473204c545620726174696f60781b6044820152606490fd5b60405162461bcd60e51b815260206004820152601060248201526f24b73b30b634b210323ab930ba34b7b760811b6044820152606490fd5b5061044760643511156110ee565b60405162461bcd60e51b8152602060048201526013602482015272125b9d985b1a59081b1bd85b88185b5bdd5b9d606a1b6044820152606490fd5b60405162461bcd60e51b8152602060048201526014602482015273105cdcd95d08185b1c9958591e481b1bd8dad95960621b6044820152606490fd5b60405162461bcd60e51b815260206004820152600f60248201526e2737ba1030b9b9b2ba1037bbb732b960891b6044820152606490fd5b346102d45760403660031901126102d4576114f4612e17565b6114fc612f2e565b6001600160a01b0390911690811561156d5733600052600560205260406000208260005260205261153d8160406000209060ff801983541691151516179055565b60405190151581527f17307eab39ab6107e8899845ad3d59bd9653f200f220920489ca2b5937696c3160203392a3005b604051630b61174360e31b815260048101839052602490fd5b346102d45760203660031901126102d4576001600160a01b036115a7612e17565b16600052600f602052602060ff604060002054166040519015158152f35b346102d45760003660031901126102d457604051600060018054906115e982613022565b808552918181169081156116695750600114611610575b610bcb84610bb781860382612f91565b600081815292507fb10e2d527612073b26eecdfd717e6a320cf44b4afac2b0732d9fcbe2b7fa0cf65b828410611651575050508101602001610bb782611600565b80546020858701810191909152909301928101611639565b60ff191660208087019190915292151560051b85019092019250610bb79150839050611600565b346102d45760003660031901126102d4576020601554604051908152f35b346102d45760003660031901126102d4576020604051606e8152f35b346102d45760203660031901126102d4576116e3612e17565b6116eb61311c565b6001600160a01b03166000908152600f60205260409020805460ff19166001179055005b346102d45760a03660031901126102d4576004803510156102d4576044356001600160401b0381116102d457611749903690600401613004565b6064356001600160401b0381116102d457611768903690600401613004565b906084356001600160401b0381116102d457611788903690600401613004565b9160243515611d7457815115611d3857805115611cff57600854916117ac83613524565b6008553315610a7e576001600160a01b036117c7843361342d565b16611ce657604051936117d985612f75565b8385526117eb60043560208701613533565b3360408601526024356060860152608085015260a08401528060c0840152600060e0840152600061010084015260006101208401524261014084015281600052600b6020526040600020835181556001810160208501519060048210156105765780546040870151610100600160a81b0360089190911b1660ff939093166001600160a81b0319909116179190911790556060840151600282015560808401518051906001600160401b0382116113985781906118ab6003850154613022565b601f8111611c93575b50602090601f8311600114611c2657600092611c1b575b50508160011b916000199060031b1c19161760038201555b60a08401518051906001600160401b0382116113985781906119086004850154613022565b601f8111611bc8575b50602090601f8311600114611b5b57600092611b50575b50508160011b916000199060031b1c19161760048201555b60c08401518051906001600160401b0382116113985781906119656005850154613022565b601f8111611afd575b50602090601f8311600114611a9057600092611a85575b50508160011b916000199060031b1c19161760058201555b60068101936119be60e08201511515869060ff801983541691151516179055565b6101008101511515948054916101208101519160038310156105765760209760079461ff0062ff00006101409660101b169260081b169062ffff00191617179055015191015581600052600e83526024356040600020553360005260118352611a2b82604060002061353f565b817f80e4b5e34356f17d4d7df460f77efd8f6fea15a4dc02e6a32d36d0e8b91689c6604051611a5c81600435613102565b602435868201526060604082015280611a7a33956060830190612e7e565b0390a3604051908152f35b015190508680611985565b600585016000908152602081209350601f198516905b818110611ae55750908460019594939210611acc575b505050811b01600582015561199d565b015160001960f88460031b161c19169055868080611abc565b92936020600181928786015181550195019301611aa6565b909150600584016000526020600020601f840160051c810160208510611b49575b90849392915b601f830160051c82018110611b3a57505061196e565b60008155859450600101611b24565b5080611b1e565b015190508680611928565b600485016000908152602081209350601f198516905b818110611bb05750908460019594939210611b97575b505050811b016004820155611940565b015160001960f88460031b161c19169055868080611b87565b92936020600181928786015181550195019301611b71565b909150600484016000526020600020601f840160051c810160208510611c14575b90849392915b601f830160051c82018110611c05575050611911565b60008155859450600101611bef565b5080611be9565b0151905086806118cb565b600385016000908152602081209350601f198516905b818110611c7b5750908460019594939210611c62575b505050811b0160038201556118e3565b015160001960f88460031b161c19169055868080611c52565b92936020600181928786015181550195019301611c3c565b909150600384016000526020600020601f840160051c810160208510611cdf575b90849392915b601f830160051c82018110611cd05750506118b4565b60008155859450600101611cba565b5080611cb4565b6040516339e3563760e11b815260006004820152602490fd5b60405162461bcd60e51b8152602060048201526011602482015270131bd8d85d1a5bdb881c995c5d5a5c9959607a1b6044820152606490fd5b60405162461bcd60e51b815260206004820152601460248201527311195cd8dc9a5c1d1a5bdb881c995c5d5a5c995960621b6044820152606490fd5b60405162461bcd60e51b815260206004820152601f60248201527f56616c7565206d7573742062652067726561746572207468616e207a65726f006044820152606490fd5b346102d45760003660031901126102d4576006546040516001600160a01b039091168152602090f35b346102d45760003660031901126102d4576020600954604051908152f35b346102d45760003660031901126102d457611e1961311c565b478015611e3e576006546000918291829182916001600160a01b031682f115610abc57005b60405162461bcd60e51b81526020600482015260136024820152724e6f206665657320746f20776974686472617760681b6044820152606490fd5b60203660031901126102d457611e8d61364e565b600435600052600d602052604060002060ff6007820154166006811015610576576122355760018101546001600160a01b031633146121f057600381015434106121b45760095490611ede82613524565b60095560038101546064810281810460641482151715610ad157611f06612710820483613634565b9060018060a01b03600185015416926002850154906004860154600587015490600888015492620151808381810204811484151715610ad157611f4b90840242613641565b9460405198611f598a612f59565b8b8a5260208a01523360408a0152606089015280608089015260a088015260c087015260e0860152610100850152426101208501526101408401526002610160840152600061018084015260006101a084015284600052600c6020526040600020835181556001810160018060a01b03602086015116906001600160601b0360a01b9182825416179055600282019060018060a01b0360408701511690825416179055606084015160038201556080840151600482015560a0840151600582015560c0840151600682015560e0840151600782015561010084015160088201556101208401516009820155610140840151600a820155610160840151926006841015610576576121156127106000969484600d6101a08a99986120818b9a600b8c9b0161361c565b610180810151600c850155015191015560078901805460ff191660019081179091558901546001600160a01b031685526012602052604085206120c5908b9061353f565b33855260126020526120da8a6040872061353f565b6120ea60038a0154601554613641565b60155560028901548552600e6020526121096040862054601454613641565b60145504601654613641565b60165560018601546001600160a01b03168282156121ab575bf115610abc57600381015480341161217d575b506003015460405190815233917fb8b41bacdbbef12caf657cd1954223c3f16fa9298d010e6ac058dc6c4ece89bf602060043593a46001600755005b6000808061218c819434613634565b8181156121a2575b3390f115610abc5782612141565b506108fc612194565b506108fc61212e565b60405162461bcd60e51b8152602060048201526014602482015273496e73756666696369656e742066756e64696e6760601b6044820152606490fd5b60405162461bcd60e51b815260206004820152601760248201527f43616e6e6f742066756e64206f776e20726571756573740000000000000000006044820152606490fd5b60405162461bcd60e51b815260206004820152601560248201527452657175657374206e6f7420617661696c61626c6560581b6044820152606490fd5b346102d45760003660031901126102d4576014546015549060165460085460001991828201918211610ad157600954928301928311610ad15760a0946040519485526020850152604084015260608301526080820152f35b346102d4576020806003193601126102d4576001600160a01b036122ec612e17565b1660005260118152604060002090604051908181845491828152019360005281600020916000905b82821061233757610bcb8561232b81890382612f91565b60405191829182612e43565b835486529485019460019384019390910190612314565b346102d45760603660031901126102d45760043561236a612f2e565b906044356001600160401b0381116102d45761238a903690600401613004565b33600052602092600f845260ff60406000205416156124d4576000838152600b60205260409020600101546123cc9060081c6001600160a01b03161515613579565b82600052600b845260ff60066040600020015460101c1660038110156105765761249b571561243f575090600b90826000525260066040600020016201000162ff00ff1982541617905533907f4a184b517d677abb35488a7ffba6353e76337257a70f5b190375e62d0a5b3a36600080a3005b6124967f87ad73c8f687ec12c9b41d48870a96118599a3073f27844ff68c8d142eea076e9183600052600b855260066040600020016202000062ff0000198254161790556040519182918683523396830190612e7e565b0390a3005b60405162461bcd60e51b8152600481018590526011602482015270105b1c9958591e481c1c9bd8d95cdcd959607a1b6044820152606490fd5b60405162461bcd60e51b815260048101859052601760248201527f4e6f7420617574686f72697a65642076657269666965720000000000000000006044820152606490fd5b346102d45760003660031901126102d4576020600854604051908152f35b346102d45760003660031901126102d45761255061311c565b600680546001600160a01b031981169091556000906001600160a01b03167f8be0079c531659141344cd1fd0a4f28419497f9722a3daafe3b4186f6b6457e08280a3005b346102d45760203660031901126102d4576001600160a01b036125b5612e17565b1680156125d45760005260036020526020604060002054604051908152f35b6040516322718ad960e21b815260006004820152602490fd5b346102d45760403660031901126102d457612606612e17565b6001600160a01b03166000908152601160205260409020805460243591908210156102d45760209161074891612f00565b346102d45760003660031901126102d4576020600a54604051908152f35b346102d45760203660031901126102d45760206126736004356134e9565b6040516001600160a01b039091168152f35b346102d45760203660031901126102d4576001600160a01b036126a6612e17565b166000526010602052602060ff604060002054166040519015158152f35b346102d45760003660031901126102d457602060405160508152f35b346102d45760203660031901126102d45760006101a060405161270281612f59565b8281528260208201528260408201528260608201528260808201528260a08201528260c08201528260e082015282610100820152826101208201528261014082015282610160820152826101808201520152600435600052600c6020526101c06040600020600d6040519161277683612f59565b8054835260018101546001600160a01b03908116602085015260028201541660408401526003810154606084015260048101546080840152600581015460a0840152600681015460c0840152600781015460e084015260088101546101008401526009810154610120840152600a810154610140840152600b8101546128039060ff166101608501613610565b600c81015461018084015201546101a08201526101a0604051918051835260018060a01b03602082015116602084015260018060a01b036040820151166040840152606081015160608401526080810151608084015260a081015160a084015260c081015160c084015260e081015160e08401526101008101516101008401526101208101516101208401526101408101516101408401526128af610160820151610160850190612ebe565b61018081015161018084015201516101a0820152f35b346102d4576128d336612ecb565b6040519160208301938385106001600160401b038611176113985761001b94604052600084526132d8565b346102d45760203660031901126102d457600435600052600e6020526020604060002054604051908152f35b346102d45760203660031901126102d4576020612948600435613671565b604051908152f35b346102d45760403660031901126102d457612969612e17565b6001600160a01b03166000908152601360205260409020805460243591908210156102d45760209161074891612f00565b346102d45761001b6129ab36612ecb565b91613148565b346102d45760203660031901126102d4576020612948600435613709565b346102d45760203660031901126102d45760206129ed600435613799565b6040519015158152f35b346102d4576020806003193601126102d45760405190612a1682612f3d565b60008252600081830152600060408301526000606083015260006080830152600060a0830152606060c0830152600060e0830152600061010080930152600435600052600d81526040600020604051928391612a7183612f3d565b80548352612b4760018060a01b039182600182015416928686019384526002820154604087019081526003830154606088019081526004840154916080890192835260058501549360a08a019485526008612ace6006880161305c565b9660c08c01978852612aec60e060ff6007840154169d019c8d613610565b015497898d019889528b6040519d8e9d8e5251908d0152511660408b01525160608a01525160808901525160a08801525160c08701525192612b3c610120948560e0890152610140880190612e7e565b945190860190612ebe565b51908301520390f35b346102d45760003660031901126102d457602060405160648152f35b346102d45760403660031901126102d457612b85612e17565b602435612b91816134e9565b33151580612c40575b80612c13575b612bfb576001600160a01b039283169282918491167f8c5be1e5ebec7d5bd14f71427d1e84f3dd0314c0f7b2291e5b200ac8c7c3b925600080a4600090815260046020526040902080546001600160a01b0319169091179055005b60405163a9fbf51f60e01b8152336004820152602490fd5b5060018060a01b038116600052600560205260406000203360005260205260ff6040600020541615612ba0565b506001600160a01b038116331415612b9a565b346102d45760203660031901126102d457600435612c70816134e9565b506000526004602052602060018060a01b0360406000205416604051908152f35b346102d45760003660031901126102d45760405160008054612cb281613022565b808452906001908181169081156116695750600114612cdb57610bcb84610bb781860382612f91565b600080805292507f290decd9548b62a8d60345a988386fc84ba6bc95484008f6362f93160ef3e5635b828410612d1c575050508101602001610bb782611600565b80546020858701810191909152909301928101612d04565b346102d4576020806003193601126102d4576001600160a01b03612d56612e17565b1660005260128152604060002090604051908181845491828152019360005281600020916000905b828210612d9557610bcb8561232b81890382612f91565b835486529485019460019384019390910190612d7e565b346102d45760203660031901126102d4576004359063ffffffff60e01b82168092036102d4576020916380ac58cd60e01b8114908115612e06575b8115612df5575b5015158152f35b6301ffc9a760e01b14905083612dee565b635b5e139f60e01b81149150612de7565b600435906001600160a01b03821682036102d457565b602435906001600160a01b03821682036102d457565b6020908160408183019282815285518094520193019160005b828110612e6a575050505090565b835185529381019392810192600101612e5c565b919082519283825260005b848110612eaa575050826000602080949584010152601f8019910116010190565b602081830181015184830182015201612e89565b9060068210156105765752565b60609060031901126102d4576001600160a01b039060043582811681036102d4579160243590811681036102d4579060443590565b8054821015612f185760005260206000200190600090565b634e487b7160e01b600052603260045260246000fd5b6024359081151582036102d457565b61012081019081106001600160401b0382111761139857604052565b6101c081019081106001600160401b0382111761139857604052565b61016081019081106001600160401b0382111761139857604052565b90601f801991011681019081106001600160401b0382111761139857604052565b6001600160401b03811161139857601f01601f191660200190565b929192612fd982612fb2565b91612fe76040519384612f91565b8294818452818301116102d4578281602093846000960137010152565b9080601f830112156102d45781602061301f93359101612fcd565b90565b90600182811c92168015613052575b602083101461303c57565b634e487b7160e01b600052602260045260246000fd5b91607f1691613031565b906040519182600082549261307084613022565b9081845260019485811690816000146130df575060011461309c575b505061309a92500383612f91565b565b9093915060005260209081600020936000915b8183106130c757505061309a9350820101388061308c565b855488840185015294850194879450918301916130af565b91505061309a94506020925060ff191682840152151560051b820101388061308c565b9060048210156105765752565b9060038210156105765752565b6006546001600160a01b0316330361313057565b60405163118cdaa760e01b8152336004820152602490fd5b906001600160a01b039081168015610a7e57600091848352846020926002845260409383858720541695869133151580613242575b509060027fddf252ad1be2c89b69c2b068fc378daa952ba7f163c4a11628f55a4df523b3ef928461320f575b85835260038152888320805460010190558683525286812080546001600160a01b0319168517905580a4831682036131e15750505050565b516364283d7b60e01b81526001600160a01b0392831660048201526024810193909352166044820152606490fd5b600087815260046020526040902080546001600160a01b03191690558483526003815288832080546000190190556131a9565b91939450915080613297575b1561325e5787929186913861317d565b84888761327b576024915190637e27328960e01b82526004820152fd5b604491519063177e802f60e01b82523360048301526024820152fd5b5033861480156132bc575b8061324e575087825260048152338486842054161461324e565b5085825260058152848220338352815260ff85832054166132a2565b9290926132e6838583613148565b833b6132f3575b50505050565b604051630a85bd0160e11b8082523360048301526001600160a01b039283166024830152604482019490945260806064820152949316926020929091859061333f906084830190612e7e565b039483816000978189895af18691816133e9575b506133b4575050503d6000146133ab573d61336d81612fb2565b9061337b6040519283612f91565b81528093823d92013e5b825192836133a657604051633250574960e11b815260048101849052602490fd5b019050fd5b60609250613385565b919450915063ffffffff60e01b16036133d15750388080806132ed565b60249060405190633250574960e11b82526004820152fd5b9091508481813d8311613426575b6134018183612f91565b8101031261342257516001600160e01b031981168103613422579038613353565b8680fd5b503d6133f7565b6000828152600260205260408120546001600160a01b03908116939284917fddf252ad1be2c89b69c2b068fc378daa952ba7f163c4a11628f55a4df523b3ef91836134b4575b16928361349c575b84815260026020526040812080546001600160a01b0319168517905580a490565b8381526003602052604081206001815401905561347b565b600086815260046020526040902080546001600160a01b03191690558385526003602052604085208054600019019055613473565b6000818152600260205260409020546001600160a01b031690811561350c575090565b60249060405190637e27328960e01b82526004820152fd5b6000198114610ad15760010190565b60048210156105765752565b8054680100000000000000008110156113985761356191600182018155612f00565b819291549060031b91821b91600019901b1916179055565b1561358057565b60405162461bcd60e51b8152602060048201526014602482015273105cdcd95d08191bd95cc81b9bdd08195e1a5cdd60621b6044820152606490fd5b156135c357565b60405162461bcd60e51b8152602060048201526012602482015271105cdcd95d081b9bdd081d995c9a599a595960721b6044820152606490fd5b81810292918115918404141715610ad157565b60068210156105765752565b9060068110156105765760ff80198354169116179055565b91908203918211610ad157565b91908201809211610ad157565b60026007541461365f576002600755565b604051633ee5aeb560e01b8152600490fd5b6000908152600c6020526040812060ff600b8201541660068110156136f5576002036136f157600c6136d6620151806136ae600985015442613634565b046237b1d06136cf6005860154926136ca6006880154856135fd565b6135fd565b0490613641565b91015490818111156136ec5761301f9250613634565b505090565b5090565b634e487b7160e01b83526021600452602483fd5b600090808252600c6020526040822060ff600b8201541660068110156137855760020361377c57600301548252600e602052613749604083205491613671565b91821561377c5760648202918083046064149015171561376857500490565b634e487b7160e01b81526011600452602490fd5b50505060001990565b634e487b7160e01b84526021600452602484fd5b80600052600c602052604060002060ff600b820154166006811015610576576002036137e1576137d1600a606e920154421192613709565b1081156137dc575090565b905090565b505060009056fea26469706673582212208d47406612049805acbf563a41f1480c7a950c14a1c1fd8940c0a96d869cd14464736f6c63430008140033",
  "linkReferences": {},
  "deployedLinkReferences": {}
}