{
  "_format": "hh-sol-artifact-1",
  "contractName": "LendBitZero",
  "sourceName": "contracts/LendBitZero.sol",
  "abi": [
    {
      "inputs": [],
      "stateMutability": "nonpayable",
      "type": "constructor"
    },
    {
      "inputs": [
        {
          "internalType": "address",
          "name": "sender",
          "type": "address"
        },
        {
          "internalType": "uint256",
          "name": "tokenId",
          "type": "uint256"
        },
        {
          "internalType": "address",
          "name": "owner",
          "type": "address"
        }
      ],
      "name": "ERC721IncorrectOwner",
      "type": "error"
    },
    {
      "inputs": [
        {
          "internalType": "address",
          "name": "operator",
          "type": "address"
        },
        {
          "internalType": "uint256",
          "name": "tokenId",
          "type": "uint256"
        }
      ],
      "name": "ERC721InsufficientApproval",
      "type": "error"
    },
    {
      "inputs": [
        {
          "internalType": "address",
          "name": "approver",
          "type": "address"
        }
      ],
      "name": "ERC721InvalidApprover",
      "type": "error"
    },
    {
      "inputs": [
        {
          "internalType": "address",
          "name": "operator",
          "type": "address"
        }
      ],
      "name": "ERC721InvalidOperator",
      "type": "error"
    },
    {
      "inputs": [
        {
          "internalType": "address",
          "name": "owner",
          "type": "address"
        }
      ],
      "name": "ERC721InvalidOwner",
      "type": "error"
    },
    {
      "inputs": [
        {
          "internalType": "address",
          "name": "receiver",
          "type": "address"
        }
      ],
      "name": "ERC721InvalidReceiver",
      "type": "error"
    },
    {
      "inputs": [
        {
          "internalType": "address",
          "name": "sender",
          "type": "address"
        }
      ],
      "name": "ERC721InvalidSender",
      "type": "error"
    },
    {
      "inputs": [
        {
          "internalType": "uint256",
          "name": "tokenId",
          "type": "uint256"
        }
      ],
      "name": "ERC721NonexistentToken",
      "type": "error"
    },
    {
      "inputs": [
        {
          "internalType": "address",
          "name": "owner",
          "type": "address"
        }
      ],
      "name": "OwnableInvalidOwner",
      "type": "error"
    },
    {
      "inputs": [
        {
          "internalType": "address",
          "name": "account",
          "type": "address"
        }
      ],
      "name": "OwnableUnauthorizedAccount",
      "type": "error"
    },
    {
      "inputs": [],
      "name": "ReentrancyGuardReentrantCall",
      "type": "error"
    },
    {
      "anonymous": false,
      "inputs": [
        {
          "indexed": true,
          "internalType": "address",
          "name": "owner",
          "type": "address"
        },
        {
          "indexed": true,
          "internalType": "address",
          "name": "approved",
          "type": "address"
        },
        {
          "indexed": true,
          "internalType": "uint256",
          "name": "tokenId",
          "type": "uint256"
        }
      ],
      "name": "Approval",
      "type": "event"
    },
    {
      "anonymous": false,
      "inputs": [
        {
          "indexed": true,
          "internalType": "address",
          "name": "owner",
          "type": "address"
        },
        {
          "indexed": true,
          "internalType": "address",
          "name": "operator",
          "type": "address"
        },
        {
          "indexed": false,
          "internalType": "bool",
          "name": "approved",
          "type": "bool"
        }
      ],
      "name": "ApprovalForAll",
      "type": "event"
    },
    {
      "anonymous": false,
      "inputs": [
        {
          "indexed": true,
          "internalType": "uint256",
          "name": "loanId",
          "type": "uint256"
        },
        {
          "indexed": true,
          "internalType": "uint256",
          "name": "tokenId",
          "type": "uint256"
        },
        {
          "indexed": true,
          "internalType": "address",
          "name": "newOwner",
          "type": "address"
        }
      ],
      "name": "AssetLiquidated",
      "type": "event"
    },
    {
      "anonymous": false,
      "inputs": [
        {
          "indexed": true,
          "internalType": "uint256",
          "name": "tokenId",
          "type": "uint256"
        },
        {
          "indexed": true,
          "internalType": "address",
          "name": "owner",
          "type": "address"
        },
        {
          "indexed": false,
          "internalType": "enum LendBitZero.AssetType",
          "name": "assetType",
          "type": "uint8"
        },
        {
          "indexed": false,
          "internalType": "uint256",
          "name": "value",
          "type": "uint256"
        }
      ],
      "name": "AssetTokenized",
      "type": "event"
    },
    {
      "anonymous": false,
      "inputs": [
        {
          "indexed": true,
          "internalType": "uint256",
          "name": "tokenId",
          "type": "uint256"
        },
        {
          "indexed": true,
          "internalType": "address",
          "name": "verifier",
          "type": "address"
        }
      ],
      "name": "AssetVerified",
      "type": "event"
    },
    {
      "anonymous": false,
      "inputs": [
        {
          "indexed": true,
          "internalType": "uint256",
          "name": "loanId",
          "type": "uint256"
        },
        {
          "indexed": true,
          "internalType": "address",
          "name": "lender",
          "type": "address"
        }
      ],
      "name": "LoanFunded",
      "type": "event"
    },
    {
      "anonymous": false,
      "inputs": [
        {
          "indexed": true,
          "internalType": "uint256",
          "name": "loanId",
          "type": "uint256"
        },
        {
          "indexed": false,
          "internalType": "uint256",
          "name": "amount",
          "type": "uint256"
        }
      ],
      "name": "LoanRepaid",
      "type": "event"
    },
    {
      "anonymous": false,
      "inputs": [
        {
          "indexed": true,
          "internalType": "uint256",
          "name": "loanId",
          "type": "uint256"
        },
        {
          "indexed": true,
          "internalType": "address",
          "name": "borrower",
          "type": "address"
        },
        {
          "indexed": false,
          "internalType": "uint256",
          "name": "collateralId",
          "type": "uint256"
        },
        {
          "indexed": false,
          "internalType": "uint256",
          "name": "amount",
          "type": "uint256"
        }
      ],
      "name": "LoanRequested",
      "type": "event"
    },
    {
      "anonymous": false,
      "inputs": [
        {
          "indexed": true,
          "internalType": "address",
          "name": "previousOwner",
          "type": "address"
        },
        {
          "indexed": true,
          "internalType": "address",
          "name": "newOwner",
          "type": "address"
        }
      ],
      "name": "OwnershipTransferred",
      "type": "event"
    },
    {
      "anonymous": false,
      "inputs": [
        {
          "indexed": true,
          "internalType": "address",
          "name": "from",
          "type": "address"
        },
        {
          "indexed": true,
          "internalType": "address",
          "name": "to",
          "type": "address"
        },
        {
          "indexed": true,
          "internalType": "uint256",
          "name": "tokenId",
          "type": "uint256"
        }
      ],
      "name": "Transfer",
      "type": "event"
    },
    {
      "inputs": [],
      "name": "LIQUIDATION_THRESHOLD",
      "outputs": [
        {
          "internalType": "uint256",
          "name": "",
          "type": "uint256"
        }
      ],
      "stateMutability": "view",
      "type": "function"
    },
    {
      "inputs": [],
      "name": "LTV_RATIO",
      "outputs": [
        {
          "internalType": "uint256",
          "name": "",
          "type": "uint256"
        }
      ],
      "stateMutability": "view",
      "type": "function"
    },
    {
      "inputs": [
        {
          "internalType": "address",
          "name": "_verifier",
          "type": "address"
        }
      ],
      "name": "addVerifier",
      "outputs": [],
      "stateMutability": "nonpayable",
      "type": "function"
    },
    {
      "inputs": [
        {
          "internalType": "address",
          "name": "to",
          "type": "address"
        },
        {
          "internalType": "uint256",
          "name": "tokenId",
          "type": "uint256"
        }
      ],
      "name": "approve",
      "outputs": [],
      "stateMutability": "nonpayable",
      "type": "function"
    },
    {
      "inputs": [
        {
          "internalType": "uint256",
          "name": "",
          "type": "uint256"
        }
      ],
      "name": "assetPrices",
      "outputs": [
        {
          "internalType": "uint256",
          "name": "",
          "type": "uint256"
        }
      ],
      "stateMutability": "view",
      "type": "function"
    },
    {
      "inputs": [
        {
          "internalType": "address",
          "name": "",
          "type": "address"
        }
      ],
      "name": "authorizedVerifiers",
      "outputs": [
        {
          "internalType": "bool",
          "name": "",
          "type": "bool"
        }
      ],
      "stateMutability": "view",
      "type": "function"
    },
    {
      "inputs": [
        {
          "internalType": "address",
          "name": "owner",
          "type": "address"
        }
      ],
      "name": "balanceOf",
      "outputs": [
        {
          "internalType": "uint256",
          "name": "",
          "type": "uint256"
        }
      ],
      "stateMutability": "view",
      "type": "function"
    },
    {
      "inputs": [
        {
          "internalType": "uint256",
          "name": "_loanId",
          "type": "uint256"
        }
      ],
      "name": "calculateHealthFactor",
      "outputs": [
        {
          "internalType": "uint256",
          "name": "",
          "type": "uint256"
        }
      ],
      "stateMutability": "view",
      "type": "function"
    },
    {
      "inputs": [
        {
          "internalType": "uint256",
          "name": "_loanId",
          "type": "uint256"
        }
      ],
      "name": "calculateTotalOwed",
      "outputs": [
        {
          "internalType": "uint256",
          "name": "",
          "type": "uint256"
        }
      ],
      "stateMutability": "view",
      "type": "function"
    },
    {
      "inputs": [
        {
          "internalType": "uint256",
          "name": "_collateralTokenId",
          "type": "uint256"
        },
        {
          "internalType": "uint256",
          "name": "_loanAmount",
          "type": "uint256"
        },
        {
          "internalType": "uint256",
          "name": "_interestRate",
          "type": "uint256"
        },
        {
          "internalType": "uint256",
          "name": "_durationDays",
          "type": "uint256"
        }
      ],
      "name": "createLoanRequest",
      "outputs": [
        {
          "internalType": "uint256",
          "name": "",
          "type": "uint256"
        }
      ],
      "stateMutability": "nonpayable",
      "type": "function"
    },
    {
      "inputs": [
        {
          "internalType": "uint256",
          "name": "_loanId",
          "type": "uint256"
        }
      ],
      "name": "fundLoan",
      "outputs": [],
      "stateMutability": "payable",
      "type": "function"
    },
    {
      "inputs": [
        {
          "internalType": "uint256",
          "name": "tokenId",
          "type": "uint256"
        }
      ],
      "name": "getApproved",
      "outputs": [
        {
          "internalType": "address",
          "name": "",
          "type": "address"
        }
      ],
      "stateMutability": "view",
      "type": "function"
    },
    {
      "inputs": [
        {
          "internalType": "uint256",
          "name": "_tokenId",
          "type": "uint256"
        }
      ],
      "name": "getAsset",
      "outputs": [
        {
          "components": [
            {
              "internalType": "uint256",
              "name": "tokenId",
              "type": "uint256"
            },
            {
              "internalType": "enum LendBitZero.AssetType",
              "name": "assetType",
              "type": "uint8"
            },
            {
              "internalType": "address",
              "name": "owner",
              "type": "address"
            },
            {
              "internalType": "uint256",
              "name": "currentValue",
              "type": "uint256"
            },
            {
              "internalType": "string",
              "name": "metadataURI",
              "type": "string"
            },
            {
              "internalType": "bool",
              "name": "isLocked",
              "type": "bool"
            },
            {
              "internalType": "bool",
              "name": "isVerified",
              "type": "bool"
            }
          ],
          "internalType": "struct LendBitZero.RWAAsset",
          "name": "",
          "type": "tuple"
        }
      ],
      "stateMutability": "view",
      "type": "function"
    },
    {
      "inputs": [
        {
          "internalType": "uint256",
          "name": "_loanId",
          "type": "uint256"
        }
      ],
      "name": "getLoan",
      "outputs": [
        {
          "components": [
            {
              "internalType": "uint256",
              "name": "loanId",
              "type": "uint256"
            },
            {
              "internalType": "address",
              "name": "borrower",
              "type": "address"
            },
            {
              "internalType": "address",
              "name": "lender",
              "type": "address"
            },
            {
              "internalType": "uint256",
              "name": "collateralTokenId",
              "type": "uint256"
            },
            {
              "internalType": "uint256",
              "name": "principalAmount",
              "type": "uint256"
            },
            {
              "internalType": "uint256",
              "name": "interestRate",
              "type": "uint256"
            },
            {
              "internalType": "uint256",
              "name": "duration",
              "type": "uint256"
            },
            {
              "internalType": "uint256",
              "name": "startTime",
              "type": "uint256"
            },
            {
              "internalType": "enum LendBitZero.LoanStatus",
              "name": "status",
              "type": "uint8"
            },
            {
              "internalType": "uint256",
              "name": "totalRepaid",
              "type": "uint256"
            }
          ],
          "internalType": "struct LendBitZero.Loan",
          "name": "",
          "type": "tuple"
        }
      ],
      "stateMutability": "view",
      "type": "function"
    },
    {
      "inputs": [
        {
          "internalType": "address",
          "name": "owner",
          "type": "address"
        },
        {
          "internalType": "address",
          "name": "operator",
          "type": "address"
        }
      ],
      "name": "isApprovedForAll",
      "outputs": [
        {
          "internalType": "bool",
          "name": "",
          "type": "bool"
        }
      ],
      "stateMutability": "view",
      "type": "function"
    },
    {
      "inputs": [
        {
          "internalType": "uint256",
          "name": "_loanId",
          "type": "uint256"
        }
      ],
      "name": "isLiquidatable",
      "outputs": [
        {
          "internalType": "bool",
          "name": "",
          "type": "bool"
        }
      ],
      "stateMutability": "view",
      "type": "function"
    },
    {
      "inputs": [
        {
          "internalType": "uint256",
          "name": "_loanId",
          "type": "uint256"
        }
      ],
      "name": "liquidateLoan",
      "outputs": [],
      "stateMutability": "nonpayable",
      "type": "function"
    },
    {
      "inputs": [
        {
          "internalType": "uint256",
          "name": "",
          "type": "uint256"
        }
      ],
      "name": "loans",
      "outputs": [
        {
          "internalType": "uint256",
          "name": "loanId",
          "type": "uint256"
        },
        {
          "internalType": "address",
          "name": "borrower",
          "type": "address"
        },
        {
          "internalType": "address",
          "name": "lender",
          "type": "address"
        },
        {
          "internalType": "uint256",
          "name": "collateralTokenId",
          "type": "uint256"
        },
        {
          "internalType": "uint256",
          "name": "principalAmount",
          "type": "uint256"
        },
        {
          "internalType": "uint256",
          "name": "interestRate",
          "type": "uint256"
        },
        {
          "internalType": "uint256",
          "name": "duration",
          "type": "uint256"
        },
        {
          "internalType": "uint256",
          "name": "startTime",
          "type": "uint256"
        },
        {
          "internalType": "enum LendBitZero.LoanStatus",
          "name": "status",
          "type": "uint8"
        },
        {
          "internalType": "uint256",
          "name": "totalRepaid",
          "type": "uint256"
        }
      ],
      "stateMutability": "view",
      "type": "function"
    },
    {
      "inputs": [],
      "name": "name",
      "outputs": [
        {
          "internalType": "string",
          "name": "",
          "type": "string"
        }
      ],
      "stateMutability": "view",
      "type": "function"
    },
    {
      "inputs": [],
      "name": "nextLoanId",
      "outputs": [
        {
          "internalType": "uint256",
          "name": "",
          "type": "uint256"
        }
      ],
      "stateMutability": "view",
      "type": "function"
    },
    {
      "inputs": [],
      "name": "nextTokenId",
      "outputs": [
        {
          "internalType": "uint256",
          "name": "",
          "type": "uint256"
        }
      ],
      "stateMutability": "view",
      "type": "function"
    },
    {
      "inputs": [],
      "name": "owner",
      "outputs": [
        {
          "internalType": "address",
          "name": "",
          "type": "address"
        }
      ],
      "stateMutability": "view",
      "type": "function"
    },
    {
      "inputs": [
        {
          "internalType": "uint256",
          "name": "tokenId",
          "type": "uint256"
        }
      ],
      "name": "ownerOf",
      "outputs": [
        {
          "internalType": "address",
          "name": "",
          "type": "address"
        }
      ],
      "stateMutability": "view",
      "type": "function"
    },
    {
      "inputs": [
        {
          "internalType": "address",
          "name": "_verifier",
          "type": "address"
        }
      ],
      "name": "removeVerifier",
      "outputs": [],
      "stateMutability": "nonpayable",
      "type": "function"
    },
    {
      "inputs": [],
      "name": "renounceOwnership",
      "outputs": [],
      "stateMutability": "nonpayable",
      "type": "function"
    },
    {
      "inputs": [
        {
          "internalType": "uint256",
          "name": "_loanId",
          "type": "uint256"
        }
      ],
      "name": "repayLoan",
      "outputs": [],
      "stateMutability": "payable",
      "type": "function"
    },
    {
      "inputs": [
        {
          "internalType": "uint256",
          "name": "",
          "type": "uint256"
        }
      ],
      "name": "rwaAssets",
      "outputs": [
        {
          "internalType": "uint256",
          "name": "tokenId",
          "type": "uint256"
        },
        {
          "internalType": "enum LendBitZero.AssetType",
          "name": "assetType",
          "type": "uint8"
        },
        {
          "internalType": "address",
          "name": "owner",
          "type": "address"
        },
        {
          "internalType": "uint256",
          "name": "currentValue",
          "type": "uint256"
        },
        {
          "internalType": "string",
          "name": "metadataURI",
          "type": "string"
        },
        {
          "internalType": "bool",
          "name": "isLocked",
          "type": "bool"
        },
        {
          "internalType": "bool",
          "name": "isVerified",
          "type": "bool"
        }
      ],
      "stateMutability": "view",
      "type": "function"
    },
    {
      "inputs": [
        {
          "internalType": "address",
          "name": "from",
          "type": "address"
        },
        {
          "internalType": "address",
          "name": "to",
          "type": "address"
        },
        {
          "internalType": "uint256",
          "name": "tokenId",
          "type": "uint256"
        }
      ],
      "name": "safeTransferFrom",
      "outputs": [],
      "stateMutability": "nonpayable",
      "type": "function"
    },
    {
      "inputs": [
        {
          "internalType": "address",
          "name": "from",
          "type": "address"
        },
        {
          "internalType": "address",
          "name": "to",
          "type": "address"
        },
        {
          "internalType": "uint256",
          "name": "tokenId",
          "type": "uint256"
        },
        {
          "internalType": "bytes",
          "name": "data",
          "type": "bytes"
        }
      ],
      "name": "safeTransferFrom",
      "outputs": [],
      "stateMutability": "nonpayable",
      "type": "function"
    },
    {
      "inputs": [
        {
          "internalType": "address",
          "name": "operator",
          "type": "address"
        },
        {
          "internalType": "bool",
          "name": "approved",
          "type": "bool"
        }
      ],
      "name": "setApprovalForAll",
      "outputs": [],
      "stateMutability": "nonpayable",
      "type": "function"
    },
    {
      "inputs": [
        {
          "internalType": "bytes4",
          "name": "interfaceId",
          "type": "bytes4"
        }
      ],
      "name": "supportsInterface",
      "outputs": [
        {
          "internalType": "bool",
          "name": "",
          "type": "bool"
        }
      ],
      "stateMutability": "view",
      "type": "function"
    },
    {
      "inputs": [],
      "name": "symbol",
      "outputs": [
        {
          "internalType": "string",
          "name": "",
          "type": "string"
        }
      ],
      "stateMutability": "view",
      "type": "function"
    },
    {
      "inputs": [
        {
          "internalType": "uint256",
          "name": "tokenId",
          "type": "uint256"
        }
      ],
      "name": "tokenURI",
      "outputs": [
        {
          "internalType": "string",
          "name": "",
          "type": "string"
        }
      ],
      "stateMutability": "view",
      "type": "function"
    },
    {
      "inputs": [
        {
          "internalType": "enum LendBitZero.AssetType",
          "name": "_assetType",
          "type": "uint8"
        },
        {
          "internalType": "uint256",
          "name": "_initialValue",
          "type": "uint256"
        },
        {
          "internalType": "string",
          "name": "_metadataURI",
          "type": "string"
        }
      ],
      "name": "tokenizeAsset",
      "outputs": [
        {
          "internalType": "uint256",
          "name": "",
          "type": "uint256"
        }
      ],
      "stateMutability": "nonpayable",
      "type": "function"
    },
    {
      "inputs": [
        {
          "internalType": "address",
          "name": "from",
          "type": "address"
        },
        {
          "internalType": "address",
          "name": "to",
          "type": "address"
        },
        {
          "internalType": "uint256",
          "name": "tokenId",
          "type": "uint256"
        }
      ],
      "name": "transferFrom",
      "outputs": [],
      "stateMutability": "nonpayable",
      "type": "function"
    },
    {
      "inputs": [
        {
          "internalType": "address",
          "name": "newOwner",
          "type": "address"
        }
      ],
      "name": "transferOwnership",
      "outputs": [],
      "stateMutability": "nonpayable",
      "type": "function"
    },
    {
      "inputs": [
        {
          "internalType": "uint256",
          "name": "_tokenId",
          "type": "uint256"
        },
        {
          "internalType": "uint256",
          "name": "_newPrice",
          "type": "uint256"
        }
      ],
      "name": "updateAssetPrice",
      "outputs": [],
      "stateMutability": "nonpayable",
      "type": "function"
    },
    {
      "inputs": [
        {
          "internalType": "uint256",
          "name": "_tokenId",
          "type": "uint256"
        }
      ],
      "name": "verifyAsset",
      "outputs": [],
      "stateMutability": "nonpayable",
      "type": "function"
    }
  ],
  "bytecode": "0x6080346200039e576001600160401b039060408181018381118382101762000388578152600f82526020926e4c656e644269745a65726f2052574160881b848401528151908282018281108282111762000388578352600382526226212d60e91b85830152835181811162000388576000928354916001968784811c941680156200037d575b8985101462000369578190601f9485811162000316575b508990858311600114620002b2578792620002a6575b5050600019600383901b1c191690871b1784555b8051928311620002925785548681811c9116801562000287575b888210146200027357908183859493116200021e575b5087918311600114620001ba578492620001ae575b5050600019600383901b1c191690841b1783555b3315620001985760068054336001600160a01b031982168117909255835195600c9290916001600160a01b03167f8be0079c531659141344cd1fd0a4f28419497f9722a3daafe3b4186f6b6457e08580a384600755846008558460095533835252209060ff198254161790556123939081620003a48239f35b6024915190631e4fbdf760e01b82526004820152fd5b0151905038806200010b565b8685528785208794509190601f198416865b8a828210620002075750508411620001ed575b505050811b0183556200011f565b015160001960f88460031b161c19169055388080620001df565b8385015186558a97909501949384019301620001cc565b909192508685528785208380860160051c8201928a871062000269575b9186958a929594930160051c01915b8281106200025a575050620000f6565b8781558695508991016200024a565b925081926200023b565b634e487b7160e01b85526022600452602485fd5b90607f1690620000e0565b634e487b7160e01b84526041600452602484fd5b015190503880620000b2565b8780528a88208a94509190601f198416895b8d828210620002ff5750508411620002e5575b505050811b018455620000c6565b015160001960f88460031b161c19169055388080620002d7565b8385015186558d97909501949384019301620002c4565b9091508680528987208580850160051c8201928c86106200035f575b918b91869594930160051c01915b828110620003505750506200009c565b8981558594508b910162000340565b9250819262000332565b634e487b7160e01b86526022600452602486fd5b93607f169362000085565b634e487b7160e01b600052604160045260246000fd5b600080fdfe608080604052600436101561001357600080fd5b60003560e01c90816301ffc9a714611ae25750806306fdde0314611a3f578063081812fc14611a01578063095ea7b31461191a578063211a4443146118f157806323a4deb5146118d357806323b872dd146118bc578063241e87dd1461157757806329194ee3146115515780634191c45b1461152557806342842e0e146114d5578063504006ca146113645780635636e24a146112c55780635696b189146112a957806359fd285c146111c95780636352211e1461119957806370a0823114611140578063715018a6146110e357806375794a3c146110c5578063846b909a14610f0357806387c5145914610ee55780638da5cb5b14610ebc5780639000b3d614610e7757806390a8ae9b14610e5b57806395d89b4114610d9057806395e188b114610a8d5780639a89171614610a4e578063a22cb465146109a0578063ab7b1c891461080f578063b88d4fde146107ad578063c4479ec614610743578063c87b56dd1461069d578063ca2dfd0a1461065b578063ccdd9f5d14610475578063e1ec3c68146103ce578063e985e9c514610378578063eac8f5b81461024f5763f2fde38b146101c157600080fd5b3461024a57602036600319011261024a576101da611b8d565b6101e2611d9c565b6001600160a01b0390811690811561023157600654826001600160601b0360a01b821617600655167f8be0079c531659141344cd1fd0a4f28419497f9722a3daafe3b4186f6b6457e0600080a3005b604051631e4fbdf760e01b815260006004820152602490fd5b600080fd5b3461024a5760208060031936011261024a57600060c060405161027181611bee565b8281528284820152826040820152826060820152606060808201528260a08201520152600435600052600a81526040600020604051906102b082611bee565b80548252600181015461036360ff821692858501936102ce81611c9c565b8452604085019260018060a01b03809160081c1684526002820154906060870191825260046102ff60038501611cf6565b936080890194855201549460a088019660ff87161515885260ff60c08a019760081c1615158752604051998a99818b5251908a01525161033e81611c9c565b6040890152511660608701525160808601525160e060a0860152610100850190611b4d565b9151151560c084015251151560e08301520390f35b3461024a57604036600319011261024a57610391611b8d565b610399611ba3565b9060018060a01b03809116600052600560205260406000209116600052602052602060ff604060002054166040519015158152f35b3461024a57602036600319011261024a57600435600052600b602052610140604060002080549060018060a01b0390816001820154169160028201541660038201546004830154600584015490600685015492600786015494600960ff60088901541697015497604051998a5260208a015260408901526060880152608087015260a086015260c085015260e084015261046781611c9c565b610100830152610120820152f35b3461024a57602036600319011261024a57600435610491612216565b80600052600b6020526040600020600881016104bc600160ff8354166104b681611c9c565b14612239565b6002820180546001600160a01b039290831633810361062957606e6104e0876122e1565b10156105f2578360016003870154960154169080156105d95785610503916120ad565b8085168061052457604051637e27328960e01b815260048101889052602490fd5b82036105a957505081546000858152600a60205260409020600181018054610100600160a81b03191692861660081b610100600160a81b03169290921790915560039060040160ff19908181541690558254161790555416917fe3cf28f2bcc1d7c381ab4d8c66282a85d1d7e840276be5815f77eb5886cffe75600080a46001600755005b6040516364283d7b60e01b81526001600160a01b0392831660048201526024810187905291166044820152606490fd5b604051633250574960e11b815260006004820152602490fd5b60405162461bcd60e51b815260206004820152600f60248201526e4c6f616e206973206865616c74687960881b6044820152606490fd5b60405162461bcd60e51b815260206004820152600a6024820152692737ba103632b73232b960b11b6044820152606490fd5b3461024a57602036600319011261024a57610674611b8d565b61067c611d9c565b6001600160a01b03166000908152600c60205260409020805460ff19169055005b3461024a57602036600319011261024a576004356000818152600a602052604090206001015460081c6001600160a01b03161561070757600052600a6020526107036106ef6003604060002001611cf6565b604051918291602083526020830190611b4d565b0390f35b60405162461bcd60e51b8152602060048201526014602482015273151bdad95b88191bd95cc81b9bdd08195e1a5cdd60621b6044820152606490fd5b3461024a57604036600319011261024a57602435600435610762611d9c565b6000818152600a602052604090206001015461078b9060081c6001600160a01b031615156121b3565b600052600d60205280604060002055600a602052600260406000200155600080f35b3461024a57608036600319011261024a576107c6611b8d565b6107ce611ba3565b6064359167ffffffffffffffff831161024a573660238401121561024a5761080361080d933690602481600401359101611c65565b9160443591611f58565b005b60208060031936011261024a5760043590610828612216565b81600052600b815260406000209060018060a01b0380600184015416330361096c5760088301928354610863600160ff83166104b681611c9c565b61086c86612277565b9485341061092e578560009460028695869586958360ff1980931617905584600983015560038201548652600a8a5260046040872001908154169055015416828215610925575bf115610910578134116108f1575b7f040cee90ee4799897c30ca04e5feb6fa43dbba9b6d084b4b257cdafd84ba013e91604051908152a26001600755005b60008080806109008634612209565b81811561091c575b3390f16108c1575b6040513d6000823e3d90fd5b506108fc610908565b506108fc6108b3565b60405162461bcd60e51b8152600481018690526016602482015275125b9cdd59999a58da595b9d081c995c185e5b595b9d60521b6044820152606490fd5b60405162461bcd60e51b815260048101839052600c60248201526b2737ba103137b93937bbb2b960a11b6044820152606490fd5b3461024a57604036600319011261024a576109b9611b8d565b602435908115159081830361024a576001600160a01b0316918215610a3557610a079033600052600560205260406000208460005260205260406000209060ff801983541691151516179055565b6040519081527f17307eab39ab6107e8899845ad3d59bd9653f200f220920489ca2b5937696c3160203392a3005b604051630b61174360e31b815260048101849052602490fd5b3461024a57602036600319011261024a576001600160a01b03610a6f611b8d565b16600052600c602052602060ff604060002054166040519015158152f35b3461024a57608036600319011261024a57600435610aaa81612169565b336001600160a01b0390911603610d595780600052600a60205260ff60046040600020015460081c1615610d1f5780600052600a60205260ff60046040600020015416610ce35780600052600d602052604060002054605081029080820460501490151715610ccd57606460243591048111610c885760209160095491610b30836121a4565b60095581600052600a84526004604060002001600160ff19825416179055604051610b5a81611c0a565b83815233858201526000604082015282606082015281608082015260443560a082015260643560c0820152600060e08201526000610100820152600061012082015283600052600b85526009610120604060002092805184556001840160018060a01b038983015116906001600160601b0360a01b9182825416179055600285019060018060a01b0360408401511690825416179055606081015160038501556080810151600485015560a0810151600585015560c0810151600685015560e0810151600785015560088401610100820151610c3581611c9c565b610c3e81611c9c565b60ff80198354169116179055015191015560405191825283820152817f68595dbe887ae7f496f2c88735019a8918919a1decfdee6bdb460480ab87decb60403393a3604051908152f35b60405162461bcd60e51b815260206004820152601760248201527f4c6f616e20616d6f756e742065786365656473204c54560000000000000000006044820152606490fd5b634e487b7160e01b600052601160045260246000fd5b60405162461bcd60e51b8152602060048201526014602482015273105cdcd95d08185b1c9958591e481b1bd8dad95960621b6044820152606490fd5b60405162461bcd60e51b8152602060048201526012602482015271105cdcd95d081b9bdd081d995c9a599a595960721b6044820152606490fd5b60405162461bcd60e51b815260206004820152600f60248201526e2737ba103a37b5b2b71037bbb732b960891b6044820152606490fd5b3461024a57600036600319011261024a5760405160006001805490610db482611cbc565b80855291818116908115610e345750600114610ddb575b610703846106ef81860382611c27565b600081815292507fb10e2d527612073b26eecdfd717e6a320cf44b4afac2b0732d9fcbe2b7fa0cf65b828410610e1c5750505081016020016106ef82610dcb565b80546020858701810191909152909301928101610e04565b60ff191660208087019190915292151560051b850190920192506106ef9150839050610dcb565b3461024a57600036600319011261024a576020604051606e8152f35b3461024a57602036600319011261024a57610e90611b8d565b610e98611d9c565b6001600160a01b03166000908152600c60205260409020805460ff19166001179055005b3461024a57600036600319011261024a576006546040516001600160a01b039091168152602090f35b3461024a57600036600319011261024a576020600954604051908152f35b602036600319011261024a57600435610f1a612216565b80600052600b6020526040600020600881019081549060ff8216610f3d81611c9c565b61108b57600481019283549283341061104f5760018301546001600160a01b031693338514611013576000948486959460018796956002889701336001600160601b0360a01b82541617905560ff191617905560074291015582821561100a575bf1156109105754803411610fdc575b5033907f15feab5d3eb17171632762cf769709a315dd15f487a556c0dfb8a259c8f186cc600080a36001600755005b60008080610feb819434612209565b818115611001575b3390f1156109105781610fad565b506108fc610ff3565b506108fc610f9e565b60405162461bcd60e51b815260206004820152601460248201527321b0b73737ba10333ab7321037bbb7103637b0b760611b6044820152606490fd5b60405162461bcd60e51b8152602060048201526014602482015273496e73756666696369656e742066756e64696e6760601b6044820152606490fd5b60405162461bcd60e51b81526020600482015260126024820152714c6f616e206e6f7420617661696c61626c6560701b6044820152606490fd5b3461024a57600036600319011261024a576020600854604051908152f35b3461024a57600036600319011261024a576110fc611d9c565b600680546001600160a01b031981169091556000906001600160a01b03167f8be0079c531659141344cd1fd0a4f28419497f9722a3daafe3b4186f6b6457e08280a3005b3461024a57602036600319011261024a576001600160a01b03611161611b8d565b1680156111805760005260036020526020604060002054604051908152f35b6040516322718ad960e21b815260006004820152602490fd5b3461024a57602036600319011261024a5760206111b7600435612169565b6040516001600160a01b039091168152f35b3461024a57602036600319011261024a5760043533600052600c60205260ff6040600020541615611264576000818152600a602052604090206001015461121d9060081c6001600160a01b031615156121b3565b80600052600a602052600460406000200161010061ff001982541617905533907f5bd81a4d257100f5fe7df72a9e528a7aaf33871f8258739a331d2627a83f0aac600080a3005b60405162461bcd60e51b815260206004820152601760248201527f4e6f7420617574686f72697a65642076657269666965720000000000000000006044820152606490fd5b3461024a57600036600319011261024a57602060405160508152f35b3461024a57602036600319011261024a57600435600052600a60205260406000208054600182015460ff61134a818316946002810154600461130960038401611cf6565b92015494604051978897885261131e81611c9c565b602088015260081c6001600160a01b03166040870152606086015260e060808601819052850190611b4d565b91818116151560a085015260081c16151560c08301520390f35b3461024a57602036600319011261024a5761014060405161138481611c0a565b6000815260006020820152600060408201526000606082015260006080820152600060a0820152600060c0820152600060e082015260006101206101009282848201520152600435600052600b60205261012060406000206009604051916113eb83611c0a565b8054835260018101546001600160a01b03908116602085015260028201541660408401526003810154606084015260048101546080840152600581015460a0840152600681015460c0840152600781015460e0840152600881015460ff1661145281611c9c565b85840152015482820152604051928151845260018060a01b03602083015116602085015260018060a01b036040830151166040850152606082015160608501526080820151608085015260a082015160a085015260c082015160c085015260e082015160e085015280820151906114c882611c9c565b8401520151610120820152f35b3461024a576114e336611bb9565b60405191602083019383851067ffffffffffffffff86111761150f5761080d9460405260008452611f58565b634e487b7160e01b600052604160045260246000fd5b3461024a57602036600319011261024a57600435600052600d6020526020604060002054604051908152f35b3461024a57602036600319011261024a57602061156f600435612277565b604051908152f35b3461024a57606036600319011261024a5760048035101561024a5760443567ffffffffffffffff811161024a573660238201121561024a576115c3903690602481600401359101611c65565b60243515611877576008546115d7816121a4565b60085533156105d9576001600160a01b036115f282336120ad565b1661185e5760405161160381611bee565b8181526020810192611616600435611c9c565b6004358452604082019333855261169c6060840191602435835260808501938452600060a0860152600060c086015285600052600a6020526040600020968551885560018801915161166781611c9c565b61167081611c9c565b825491516001600160a81b031990921660ff919091161760089190911b610100600160a81b0316179055565b5160028501555192835167ffffffffffffffff811161150f576116c26003830154611cbc565b94601f8611611813575b602095508590601f83116001146117a057918060c09492600494600092611795575b50508160011b916000199060031b1c19161760038201555b019161172460a08201511515849060ff801983541691151516179055565b0151151561ff0082549160081b169061ff00191617905580600052600d825260243560406000205560405161175a600435611c9c565b600435815260243583820152817fcad491abebc5cc50015f568550b64794bcc000586f53b9ec64ae3961a54da07660403393a3604051908152f35b0151905088806116ee565b9060038401600052866000209160005b601f19851681106117fc57509260c0949260019260049583601f198116106117e3575b505050811b016003820155611706565b015160001960f88460031b161c191690558880806117d3565b9192886001819286850151815501940192016117b0565b600383016000526020600020601f830160051c81019660208410611854575b601f0160051c01955b86811061184857506116cc565b6000815560010161183b565b9096508690611832565b6040516339e3563760e11b815260006004820152602490fd5b60405162461bcd60e51b815260206004820152601f60248201527f56616c7565206d7573742062652067726561746572207468616e207a65726f006044820152606490fd5b3461024a5761080d6118cd36611bb9565b91611dc8565b3461024a57602036600319011261024a57602061156f6004356122e1565b3461024a57602036600319011261024a576020606e6119116004356122e1565b10604051908152f35b3461024a57604036600319011261024a57611933611b8d565b60243561193f81612169565b331515806119ee575b806119c1575b6119a9576001600160a01b039283169282918491167f8c5be1e5ebec7d5bd14f71427d1e84f3dd0314c0f7b2291e5b200ac8c7c3b925600080a4600090815260046020526040902080546001600160a01b0319169091179055005b60405163a9fbf51f60e01b8152336004820152602490fd5b5060018060a01b038116600052600560205260406000203360005260205260ff604060002054161561194e565b506001600160a01b038116331415611948565b3461024a57602036600319011261024a57600435611a1e81612169565b506000526004602052602060018060a01b0360406000205416604051908152f35b3461024a57600036600319011261024a5760405160008054611a6081611cbc565b80845290600190818116908115610e345750600114611a8957610703846106ef81860382611c27565b600080805292507f290decd9548b62a8d60345a988386fc84ba6bc95484008f6362f93160ef3e5635b828410611aca5750505081016020016106ef82610dcb565b80546020858701810191909152909301928101611ab2565b3461024a57602036600319011261024a576004359063ffffffff60e01b821680920361024a576020916380ac58cd60e01b8114908115611b3c575b8115611b2b575b5015158152f35b6301ffc9a760e01b14905083611b24565b635b5e139f60e01b81149150611b1d565b919082519283825260005b848110611b79575050826000602080949584010152601f8019910116010190565b602081830181015184830182015201611b58565b600435906001600160a01b038216820361024a57565b602435906001600160a01b038216820361024a57565b606090600319011261024a576001600160a01b0390600435828116810361024a5791602435908116810361024a579060443590565b60e0810190811067ffffffffffffffff82111761150f57604052565b610140810190811067ffffffffffffffff82111761150f57604052565b90601f8019910116810190811067ffffffffffffffff82111761150f57604052565b67ffffffffffffffff811161150f57601f01601f191660200190565b929192611c7182611c49565b91611c7f6040519384611c27565b82948184528183011161024a578281602093846000960137010152565b60041115611ca657565b634e487b7160e01b600052602160045260246000fd5b90600182811c92168015611cec575b6020831014611cd657565b634e487b7160e01b600052602260045260246000fd5b91607f1691611ccb565b9060405191826000825492611d0a84611cbc565b908184526001948581169081600014611d795750600114611d36575b5050611d3492500383611c27565b565b9093915060005260209081600020936000915b818310611d61575050611d3493508201013880611d26565b85548884018501529485019487945091830191611d49565b915050611d3494506020925060ff191682840152151560051b8201013880611d26565b6006546001600160a01b03163303611db057565b60405163118cdaa760e01b8152336004820152602490fd5b906001600160a01b0390811680156105d957600091848352846020926002845260409383858720541695869133151580611ec2575b509060027fddf252ad1be2c89b69c2b068fc378daa952ba7f163c4a11628f55a4df523b3ef9284611e8f575b85835260038152888320805460010190558683525286812080546001600160a01b0319168517905580a483168203611e615750505050565b516364283d7b60e01b81526001600160a01b0392831660048201526024810193909352166044820152606490fd5b600087815260046020526040902080546001600160a01b0319169055848352600381528883208054600019019055611e29565b91939450915080611f17575b15611ede57879291869138611dfd565b848887611efb576024915190637e27328960e01b82526004820152fd5b604491519063177e802f60e01b82523360048301526024820152fd5b503386148015611f3c575b80611ece5750878252600481523384868420541614611ece565b5085825260058152848220338352815260ff8583205416611f22565b929092611f66838583611dc8565b833b611f73575b50505050565b604051630a85bd0160e11b8082523360048301526001600160a01b0392831660248301526044820194909452608060648201529493169260209290918590611fbf906084830190611b4d565b039483816000978189895af1869181612069575b50612034575050503d60001461202b573d611fed81611c49565b90611ffb6040519283611c27565b81528093823d92013e5b8251928361202657604051633250574960e11b815260048101849052602490fd5b019050fd5b60609250612005565b919450915063ffffffff60e01b1603612051575038808080611f6d565b60249060405190633250574960e11b82526004820152fd5b9091508481813d83116120a6575b6120818183611c27565b810103126120a257516001600160e01b0319811681036120a2579038611fd3565b8680fd5b503d612077565b6000828152600260205260408120546001600160a01b03908116939284917fddf252ad1be2c89b69c2b068fc378daa952ba7f163c4a11628f55a4df523b3ef9183612134575b16928361211c575b84815260026020526040812080546001600160a01b0319168517905580a490565b838152600360205260408120600181540190556120fb565b600086815260046020526040902080546001600160a01b031916905583855260036020526040852080546000190190556120f3565b6000818152600260205260409020546001600160a01b031690811561218c575090565b60249060405190637e27328960e01b82526004820152fd5b6000198114610ccd5760010190565b156121ba57565b60405162461bcd60e51b8152602060048201526014602482015273105cdcd95d08191bd95cc81b9bdd08195e1a5cdd60621b6044820152606490fd5b81810292918115918404141715610ccd57565b91908203918211610ccd57565b600260075414612227576002600755565b604051633ee5aeb560e01b8152600490fd5b1561224057565b60405162461bcd60e51b815260206004820152600f60248201526e4c6f616e206e6f742061637469766560881b6044820152606490fd5b600052600b6020526040600020600160ff60088301541661229781611c9c565b036122db576237b1d06122ce620151806122b5600785015442612209565b046122c960056004860154950154856121f6565b6121f6565b048101809111610ccd5790565b50600090565b600090808252600b60205260408220600160ff60088301541661230381611c9c565b0361235457600301548252600d602052612321604083205491612277565b9182156123545760648202918083046064149015171561234057500490565b634e487b7160e01b81526011600452602490fd5b5050506000199056fea2646970667358221220b01c52e3d2046588fd2c72be721e5c14a348239bfd6b5685028754f35619c15664736f6c63430008140033",
  "linkReferences": {},
  "deployedLinkReferences": {}
}